{
	"contracts/CasaDeSubastas.sol": {
		"CasaDeSubastas": {
			"abi": [
				{
					"inputs": [],
					"stateMutability": "nonpayable",
					"type": "constructor"
				},
				{
					"inputs": [
						{
							"internalType": "address",
							"name": "nuevoPropietario",
							"type": "address"
						}
					],
					"name": "cambiarPropietario",
					"outputs": [],
					"stateMutability": "nonpayable",
					"type": "function"
				},
				{
					"inputs": [],
					"name": "contadorSubastas",
					"outputs": [
						{
							"internalType": "uint256",
							"name": "",
							"type": "uint256"
						}
					],
					"stateMutability": "view",
					"type": "function"
				},
				{
					"inputs": [
						{
							"internalType": "uint256",
							"name": "idItem",
							"type": "uint256"
						},
						{
							"internalType": "uint256",
							"name": "ofertaMinima",
							"type": "uint256"
						},
						{
							"internalType": "uint256",
							"name": "fechaCierre",
							"type": "uint256"
						}
					],
					"name": "crearSubasta",
					"outputs": [],
					"stateMutability": "payable",
					"type": "function"
				},
				{
					"inputs": [
						{
							"internalType": "uint256",
							"name": "idSubasta",
							"type": "uint256"
						}
					],
					"name": "eliminarSubasta",
					"outputs": [],
					"stateMutability": "nonpayable",
					"type": "function"
				},
				{
					"inputs": [
						{
							"internalType": "uint256",
							"name": "idSubasta",
							"type": "uint256"
						}
					],
					"name": "finalizarSubasta",
					"outputs": [],
					"stateMutability": "nonpayable",
					"type": "function"
				},
				{
					"inputs": [
						{
							"internalType": "uint256",
							"name": "",
							"type": "uint256"
						}
					],
					"name": "lst_subastas",
					"outputs": [
						{
							"internalType": "uint256",
							"name": "id",
							"type": "uint256"
						},
						{
							"internalType": "uint256",
							"name": "idItem",
							"type": "uint256"
						},
						{
							"internalType": "address",
							"name": "creador",
							"type": "address"
						},
						{
							"internalType": "uint256",
							"name": "ofertaMinima",
							"type": "uint256"
						},
						{
							"internalType": "uint256",
							"name": "fechaCierre",
							"type": "uint256"
						},
						{
							"internalType": "uint256",
							"name": "ofertaMaxima",
							"type": "uint256"
						},
						{
							"internalType": "address",
							"name": "mejorPostor",
							"type": "address"
						},
						{
							"internalType": "bool",
							"name": "finalizada",
							"type": "bool"
						},
						{
							"internalType": "bool",
							"name": "eliminada",
							"type": "bool"
						}
					],
					"stateMutability": "view",
					"type": "function"
				},
				{
					"inputs": [
						{
							"internalType": "uint256",
							"name": "idSubasta",
							"type": "uint256"
						},
						{
							"internalType": "uint256",
							"name": "nuevaFechaCierre",
							"type": "uint256"
						},
						{
							"internalType": "uint256",
							"name": "nuevoIdItem",
							"type": "uint256"
						}
					],
					"name": "modificarSubasta",
					"outputs": [],
					"stateMutability": "nonpayable",
					"type": "function"
				},
				{
					"inputs": [
						{
							"internalType": "uint256",
							"name": "id",
							"type": "uint256"
						}
					],
					"name": "obtenerSubasta",
					"outputs": [
						{
							"components": [
								{
									"internalType": "uint256",
									"name": "id",
									"type": "uint256"
								},
								{
									"internalType": "uint256",
									"name": "idItem",
									"type": "uint256"
								},
								{
									"internalType": "address",
									"name": "creador",
									"type": "address"
								},
								{
									"internalType": "uint256",
									"name": "ofertaMinima",
									"type": "uint256"
								},
								{
									"internalType": "uint256",
									"name": "fechaCierre",
									"type": "uint256"
								},
								{
									"internalType": "uint256",
									"name": "ofertaMaxima",
									"type": "uint256"
								},
								{
									"internalType": "address",
									"name": "mejorPostor",
									"type": "address"
								},
								{
									"internalType": "bool",
									"name": "finalizada",
									"type": "bool"
								},
								{
									"internalType": "bool",
									"name": "eliminada",
									"type": "bool"
								}
							],
							"internalType": "struct CasaDeSubastas.Subasta",
							"name": "",
							"type": "tuple"
						}
					],
					"stateMutability": "view",
					"type": "function"
				},
				{
					"inputs": [],
					"name": "propietario",
					"outputs": [
						{
							"internalType": "address",
							"name": "",
							"type": "address"
						}
					],
					"stateMutability": "view",
					"type": "function"
				},
				{
					"inputs": [
						{
							"internalType": "uint256",
							"name": "idSubasta",
							"type": "uint256"
						}
					],
					"name": "realizarOferta",
					"outputs": [],
					"stateMutability": "payable",
					"type": "function"
				},
				{
					"inputs": [
						{
							"internalType": "uint256",
							"name": "idSubasta",
							"type": "uint256"
						}
					],
					"name": "retirarFondos",
					"outputs": [],
					"stateMutability": "nonpayable",
					"type": "function"
				},
				{
					"inputs": [
						{
							"internalType": "uint256",
							"name": "",
							"type": "uint256"
						},
						{
							"internalType": "address",
							"name": "",
							"type": "address"
						}
					],
					"name": "retirosPendientes",
					"outputs": [
						{
							"internalType": "uint256",
							"name": "",
							"type": "uint256"
						}
					],
					"stateMutability": "view",
					"type": "function"
				}
			],
			"devdoc": {
				"kind": "dev",
				"methods": {},
				"version": 1
			},
			"evm": {
				"assembly": "    /* \"contracts/CasaDeSubastas.sol\":61:6323  contract CasaDeSubastas {... */\n  mstore(0x40, 0x80)\n    /* \"contracts/CasaDeSubastas.sol\":1068:1153  constructor() {... */\n  callvalue\n  dup1\n  iszero\n  tag_1\n  jumpi\n  revert(0x00, 0x00)\ntag_1:\n  pop\n    /* \"contracts/CasaDeSubastas.sol\":1106:1116  msg.sender */\n  caller\n    /* \"contracts/CasaDeSubastas.sol\":1092:1103  propietario */\n  0x00\n  0x00\n    /* \"contracts/CasaDeSubastas.sol\":1092:1116  propietario = msg.sender */\n  0x0100\n  exp\n  dup2\n  sload\n  dup2\n  0xffffffffffffffffffffffffffffffffffffffff\n  mul\n  not\n  and\n  swap1\n  dup4\n  0xffffffffffffffffffffffffffffffffffffffff\n  and\n  mul\n  or\n  swap1\n  sstore\n  pop\n    /* \"contracts/CasaDeSubastas.sol\":1145:1146  0 */\n  0x00\n    /* \"contracts/CasaDeSubastas.sol\":1126:1142  contadorSubastas */\n  0x01\n    /* \"contracts/CasaDeSubastas.sol\":1126:1146  contadorSubastas = 0 */\n  dup2\n  swap1\n  sstore\n  pop\n    /* \"contracts/CasaDeSubastas.sol\":61:6323  contract CasaDeSubastas {... */\n  dataSize(sub_0)\n  dup1\n  dataOffset(sub_0)\n  0x00\n  codecopy\n  0x00\n  return\nstop\n\nsub_0: assembly {\n        /* \"contracts/CasaDeSubastas.sol\":61:6323  contract CasaDeSubastas {... */\n      mstore(0x40, 0x80)\n      jumpi(tag_1, lt(calldatasize, 0x04))\n      shr(0xe0, calldataload(0x00))\n      dup1\n      0x8434f0a2\n      gt\n      tag_14\n      jumpi\n      dup1\n      0x8434f0a2\n      eq\n      tag_8\n      jumpi\n      dup1\n      0xa32aa717\n      eq\n      tag_9\n      jumpi\n      dup1\n      0xb0a4e852\n      eq\n      tag_10\n      jumpi\n      dup1\n      0xc2e5eafa\n      eq\n      tag_11\n      jumpi\n      dup1\n      0xd3fb3830\n      eq\n      tag_12\n      jumpi\n      dup1\n      0xf657be03\n      eq\n      tag_13\n      jumpi\n      jump(tag_1)\n    tag_14:\n      dup1\n      0x1042b69b\n      eq\n      tag_2\n      jumpi\n      dup1\n      0x20e6ca0e\n      eq\n      tag_3\n      jumpi\n      dup1\n      0x3c4f81cd\n      eq\n      tag_4\n      jumpi\n      dup1\n      0x57a08671\n      eq\n      tag_5\n      jumpi\n      dup1\n      0x733d50d4\n      eq\n      tag_6\n      jumpi\n      dup1\n      0x8348348f\n      eq\n      tag_7\n      jumpi\n    tag_1:\n      revert(0x00, 0x00)\n        /* \"contracts/CasaDeSubastas.sol\":280:352  mapping(uint256 => mapping(address => uint256)) public retirosPendientes */\n    tag_2:\n      callvalue\n      dup1\n      iszero\n      tag_15\n      jumpi\n      revert(0x00, 0x00)\n    tag_15:\n      pop\n      tag_16\n      0x04\n      dup1\n      calldatasize\n      sub\n      dup2\n      add\n      swap1\n      tag_17\n      swap2\n      swap1\n      tag_18\n      jump\t// in\n    tag_17:\n      tag_19\n      jump\t// in\n    tag_16:\n      mload(0x40)\n      tag_20\n      swap2\n      swap1\n      tag_21\n      jump\t// in\n    tag_20:\n      mload(0x40)\n      dup1\n      swap2\n      sub\n      swap1\n      return\n        /* \"contracts/CasaDeSubastas.sol\":189:220  uint256 public contadorSubastas */\n    tag_3:\n      callvalue\n      dup1\n      iszero\n      tag_22\n      jumpi\n      revert(0x00, 0x00)\n    tag_22:\n      pop\n      tag_23\n      tag_24\n      jump\t// in\n    tag_23:\n      mload(0x40)\n      tag_25\n      swap2\n      swap1\n      tag_21\n      jump\t// in\n    tag_25:\n      mload(0x40)\n      dup1\n      swap2\n      sub\n      swap1\n      return\n        /* \"contracts/CasaDeSubastas.sol\":157:183  address public propietario */\n    tag_4:\n      callvalue\n      dup1\n      iszero\n      tag_26\n      jumpi\n      revert(0x00, 0x00)\n    tag_26:\n      pop\n      tag_27\n      tag_28\n      jump\t// in\n    tag_27:\n      mload(0x40)\n      tag_29\n      swap2\n      swap1\n      tag_30\n      jump\t// in\n    tag_29:\n      mload(0x40)\n      dup1\n      swap2\n      sub\n      swap1\n      return\n        /* \"contracts/CasaDeSubastas.sol\":1411:2316  function crearSubasta(uint256 idItem, uint256 ofertaMinima, uint256 fechaCierre) payable public virtual {... */\n    tag_5:\n      tag_31\n      0x04\n      dup1\n      calldatasize\n      sub\n      dup2\n      add\n      swap1\n      tag_32\n      swap2\n      swap1\n      tag_33\n      jump\t// in\n    tag_32:\n      tag_34\n      jump\t// in\n    tag_31:\n      stop\n        /* \"contracts/CasaDeSubastas.sol\":1249:1380  function obtenerSubasta(uint256 id) public view subastaExiste(id) returns (Subasta memory) {... */\n    tag_6:\n      callvalue\n      dup1\n      iszero\n      tag_35\n      jumpi\n      revert(0x00, 0x00)\n    tag_35:\n      pop\n      tag_36\n      0x04\n      dup1\n      calldatasize\n      sub\n      dup2\n      add\n      swap1\n      tag_37\n      swap2\n      swap1\n      tag_38\n      jump\t// in\n    tag_37:\n      tag_39\n      jump\t// in\n    tag_36:\n      mload(0x40)\n      tag_40\n      swap2\n      swap1\n      tag_41\n      jump\t// in\n    tag_40:\n      mload(0x40)\n      dup1\n      swap2\n      sub\n      swap1\n      return\n        /* \"contracts/CasaDeSubastas.sol\":2349:3188  function realizarOferta(uint256 idSubasta) payable public subastaExiste(idSubasta) {... */\n    tag_7:\n      tag_42\n      0x04\n      dup1\n      calldatasize\n      sub\n      dup2\n      add\n      swap1\n      tag_43\n      swap2\n      swap1\n      tag_38\n      jump\t// in\n    tag_43:\n      tag_44\n      jump\t// in\n    tag_42:\n      stop\n        /* \"contracts/CasaDeSubastas.sol\":3223:4091  function finalizarSubasta(uint256 idSubasta) public subastaExiste(idSubasta) {... */\n    tag_8:\n      callvalue\n      dup1\n      iszero\n      tag_45\n      jumpi\n      revert(0x00, 0x00)\n    tag_45:\n      pop\n      tag_46\n      0x04\n      dup1\n      calldatasize\n      sub\n      dup2\n      add\n      swap1\n      tag_47\n      swap2\n      swap1\n      tag_38\n      jump\t// in\n    tag_47:\n      tag_48\n      jump\t// in\n    tag_46:\n      stop\n        /* \"contracts/CasaDeSubastas.sol\":4140:4518  function retirarFondos(uint256 idSubasta) public subastaExiste(idSubasta) {... */\n    tag_9:\n      callvalue\n      dup1\n      iszero\n      tag_49\n      jumpi\n      revert(0x00, 0x00)\n    tag_49:\n      pop\n      tag_50\n      0x04\n      dup1\n      calldatasize\n      sub\n      dup2\n      add\n      swap1\n      tag_51\n      swap2\n      swap1\n      tag_38\n      jump\t// in\n    tag_51:\n      tag_52\n      jump\t// in\n    tag_50:\n      stop\n        /* \"contracts/CasaDeSubastas.sol\":4552:5161  function eliminarSubasta(uint256 idSubasta) public subastaExiste(idSubasta) {... */\n    tag_10:\n      callvalue\n      dup1\n      iszero\n      tag_53\n      jumpi\n      revert(0x00, 0x00)\n    tag_53:\n      pop\n      tag_54\n      0x04\n      dup1\n      calldatasize\n      sub\n      dup2\n      add\n      swap1\n      tag_55\n      swap2\n      swap1\n      tag_38\n      jump\t// in\n    tag_55:\n      tag_56\n      jump\t// in\n    tag_54:\n      stop\n        /* \"contracts/CasaDeSubastas.sol\":6106:6321  function cambiarPropietario(address nuevoPropietario) public soloPropietario {... */\n    tag_11:\n      callvalue\n      dup1\n      iszero\n      tag_57\n      jumpi\n      revert(0x00, 0x00)\n    tag_57:\n      pop\n      tag_58\n      0x04\n      dup1\n      calldatasize\n      sub\n      dup2\n      add\n      swap1\n      tag_59\n      swap2\n      swap1\n      tag_60\n      jump\t// in\n    tag_59:\n      tag_61\n      jump\t// in\n    tag_58:\n      stop\n        /* \"contracts/CasaDeSubastas.sol\":227:274  mapping(uint256 => Subasta) public lst_subastas */\n    tag_12:\n      callvalue\n      dup1\n      iszero\n      tag_62\n      jumpi\n      revert(0x00, 0x00)\n    tag_62:\n      pop\n      tag_63\n      0x04\n      dup1\n      calldatasize\n      sub\n      dup2\n      add\n      swap1\n      tag_64\n      swap2\n      swap1\n      tag_38\n      jump\t// in\n    tag_64:\n      tag_65\n      jump\t// in\n    tag_63:\n      mload(0x40)\n      tag_66\n      swap10\n      swap9\n      swap8\n      swap7\n      swap6\n      swap5\n      swap4\n      swap3\n      swap2\n      swap1\n      tag_67\n      jump\t// in\n    tag_66:\n      mload(0x40)\n      dup1\n      swap2\n      sub\n      swap1\n      return\n        /* \"contracts/CasaDeSubastas.sol\":5206:6057  function modificarSubasta(uint256 idSubasta, uint256 nuevaFechaCierre, uint256 nuevoIdItem)... */\n    tag_13:\n      callvalue\n      dup1\n      iszero\n      tag_68\n      jumpi\n      revert(0x00, 0x00)\n    tag_68:\n      pop\n      tag_69\n      0x04\n      dup1\n      calldatasize\n      sub\n      dup2\n      add\n      swap1\n      tag_70\n      swap2\n      swap1\n      tag_33\n      jump\t// in\n    tag_70:\n      tag_71\n      jump\t// in\n    tag_69:\n      stop\n        /* \"contracts/CasaDeSubastas.sol\":280:352  mapping(uint256 => mapping(address => uint256)) public retirosPendientes */\n    tag_19:\n      mstore(0x20, 0x03)\n      dup2\n      0x00\n      mstore\n      mstore(0x20, keccak256(0x00, 0x40))\n      dup1\n      0x00\n      mstore\n      keccak256(0x00, 0x40)\n      0x00\n      swap2\n      pop\n      swap2\n      pop\n      pop\n      sload\n      dup2\n      jump\t// out\n        /* \"contracts/CasaDeSubastas.sol\":189:220  uint256 public contadorSubastas */\n    tag_24:\n      sload(0x01)\n      dup2\n      jump\t// out\n        /* \"contracts/CasaDeSubastas.sol\":157:183  address public propietario */\n    tag_28:\n      0x00\n      0x00\n      swap1\n      sload\n      swap1\n      0x0100\n      exp\n      swap1\n      div\n      0xffffffffffffffffffffffffffffffffffffffff\n      and\n      dup2\n      jump\t// out\n        /* \"contracts/CasaDeSubastas.sol\":1411:2316  function crearSubasta(uint256 idItem, uint256 ofertaMinima, uint256 fechaCierre) payable public virtual {... */\n    tag_34:\n        /* \"contracts/CasaDeSubastas.sol\":1546:1549  500 */\n      0x01f4\n        /* \"contracts/CasaDeSubastas.sol\":1533:1542  msg.value */\n      callvalue\n        /* \"contracts/CasaDeSubastas.sol\":1533:1549  msg.value >= 500 */\n      lt\n      iszero\n        /* \"contracts/CasaDeSubastas.sol\":1525:1607  require(msg.value >= 500, \"Debes enviar al menos 500 wei para crear una subasta.\") */\n      tag_73\n      jumpi\n      mload(0x40)\n      0x08c379a000000000000000000000000000000000000000000000000000000000\n      dup2\n      mstore\n      0x04\n      add\n      tag_74\n      swap1\n      tag_75\n      jump\t// in\n    tag_74:\n      mload(0x40)\n      dup1\n      swap2\n      sub\n      swap1\n      revert\n    tag_73:\n        /* \"contracts/CasaDeSubastas.sol\":1640:1641  0 */\n      0x00\n        /* \"contracts/CasaDeSubastas.sol\":1625:1637  ofertaMinima */\n      dup3\n        /* \"contracts/CasaDeSubastas.sol\":1625:1641  ofertaMinima > 0 */\n      gt\n        /* \"contracts/CasaDeSubastas.sol\":1617:1694  require(ofertaMinima > 0, \"El valor minimo de oferta debe ser mayor a cero.\") */\n      tag_76\n      jumpi\n      mload(0x40)\n      0x08c379a000000000000000000000000000000000000000000000000000000000\n      dup2\n      mstore\n      0x04\n      add\n      tag_77\n      swap1\n      tag_78\n      jump\t// in\n    tag_77:\n      mload(0x40)\n      dup1\n      swap2\n      sub\n      swap1\n      revert\n    tag_76:\n        /* \"contracts/CasaDeSubastas.sol\":1726:1741  block.timestamp */\n      timestamp\n        /* \"contracts/CasaDeSubastas.sol\":1712:1723  fechaCierre */\n      dup2\n        /* \"contracts/CasaDeSubastas.sol\":1712:1741  fechaCierre > block.timestamp */\n      gt\n        /* \"contracts/CasaDeSubastas.sol\":1704:1798  require(fechaCierre > block.timestamp, \"La fecha de cierre debe ser mayor a la fecha actual.\") */\n      tag_79\n      jumpi\n      mload(0x40)\n      0x08c379a000000000000000000000000000000000000000000000000000000000\n      dup2\n      mstore\n      0x04\n      add\n      tag_80\n      swap1\n      tag_81\n      jump\t// in\n    tag_80:\n      mload(0x40)\n      dup1\n      swap2\n      sub\n      swap1\n      revert\n    tag_79:\n        /* \"contracts/CasaDeSubastas.sol\":1842:2161  Subasta({... */\n      mload(0x40)\n      dup1\n      0x0120\n      add\n      0x40\n      mstore\n      dup1\n        /* \"contracts/CasaDeSubastas.sol\":1868:1884  contadorSubastas */\n      sload(0x01)\n        /* \"contracts/CasaDeSubastas.sol\":1842:2161  Subasta({... */\n      dup2\n      mstore\n      0x20\n      add\n        /* \"contracts/CasaDeSubastas.sol\":1906:1912  idItem */\n      dup5\n        /* \"contracts/CasaDeSubastas.sol\":1842:2161  Subasta({... */\n      dup2\n      mstore\n      0x20\n      add\n        /* \"contracts/CasaDeSubastas.sol\":1935:1945  msg.sender */\n      caller\n        /* \"contracts/CasaDeSubastas.sol\":1842:2161  Subasta({... */\n      0xffffffffffffffffffffffffffffffffffffffff\n      and\n      dup2\n      mstore\n      0x20\n      add\n        /* \"contracts/CasaDeSubastas.sol\":1973:1985  ofertaMinima */\n      dup4\n        /* \"contracts/CasaDeSubastas.sol\":1842:2161  Subasta({... */\n      dup2\n      mstore\n      0x20\n      add\n        /* \"contracts/CasaDeSubastas.sol\":2012:2023  fechaCierre */\n      dup3\n        /* \"contracts/CasaDeSubastas.sol\":1842:2161  Subasta({... */\n      dup2\n      mstore\n      0x20\n      add\n        /* \"contracts/CasaDeSubastas.sol\":2051:2052  0 */\n      0x00\n        /* \"contracts/CasaDeSubastas.sol\":1842:2161  Subasta({... */\n      dup2\n      mstore\n      0x20\n      add\n        /* \"contracts/CasaDeSubastas.sol\":2087:2088  0 */\n      0x00\n        /* \"contracts/CasaDeSubastas.sol\":1842:2161  Subasta({... */\n      0xffffffffffffffffffffffffffffffffffffffff\n      and\n      dup2\n      mstore\n      0x20\n      add\n        /* \"contracts/CasaDeSubastas.sol\":2115:2120  false */\n      0x00\n        /* \"contracts/CasaDeSubastas.sol\":1842:2161  Subasta({... */\n      iszero\n      iszero\n      dup2\n      mstore\n      0x20\n      add\n        /* \"contracts/CasaDeSubastas.sol\":2145:2150  false */\n      0x00\n        /* \"contracts/CasaDeSubastas.sol\":1842:2161  Subasta({... */\n      iszero\n      iszero\n      dup2\n      mstore\n      pop\n        /* \"contracts/CasaDeSubastas.sol\":1809:1821  lst_subastas */\n      0x02\n        /* \"contracts/CasaDeSubastas.sol\":1809:1839  lst_subastas[contadorSubastas] */\n      0x00\n        /* \"contracts/CasaDeSubastas.sol\":1822:1838  contadorSubastas */\n      sload(0x01)\n        /* \"contracts/CasaDeSubastas.sol\":1809:1839  lst_subastas[contadorSubastas] */\n      dup2\n      mstore\n      0x20\n      add\n      swap1\n      dup2\n      mstore\n      0x20\n      add\n      0x00\n      keccak256\n        /* \"contracts/CasaDeSubastas.sol\":1809:2161  lst_subastas[contadorSubastas] = Subasta({... */\n      0x00\n      dup3\n      add\n      mload\n      dup2\n      0x00\n      add\n      sstore\n      0x20\n      dup3\n      add\n      mload\n      dup2\n      0x01\n      add\n      sstore\n      0x40\n      dup3\n      add\n      mload\n      dup2\n      0x02\n      add\n      exp(0x0100, 0x00)\n      dup2\n      sload\n      dup2\n      0xffffffffffffffffffffffffffffffffffffffff\n      mul\n      not\n      and\n      swap1\n      dup4\n      0xffffffffffffffffffffffffffffffffffffffff\n      and\n      mul\n      or\n      swap1\n      sstore\n      pop\n      0x60\n      dup3\n      add\n      mload\n      dup2\n      0x03\n      add\n      sstore\n      0x80\n      dup3\n      add\n      mload\n      dup2\n      0x04\n      add\n      sstore\n      0xa0\n      dup3\n      add\n      mload\n      dup2\n      0x05\n      add\n      sstore\n      0xc0\n      dup3\n      add\n      mload\n      dup2\n      0x06\n      add\n      exp(0x0100, 0x00)\n      dup2\n      sload\n      dup2\n      0xffffffffffffffffffffffffffffffffffffffff\n      mul\n      not\n      and\n      swap1\n      dup4\n      0xffffffffffffffffffffffffffffffffffffffff\n      and\n      mul\n      or\n      swap1\n      sstore\n      pop\n      0xe0\n      dup3\n      add\n      mload\n      dup2\n      0x06\n      add\n      exp(0x0100, 0x14)\n      dup2\n      sload\n      dup2\n      0xff\n      mul\n      not\n      and\n      swap1\n      dup4\n      iszero\n      iszero\n      mul\n      or\n      swap1\n      sstore\n      pop\n      0x0100\n      dup3\n      add\n      mload\n      dup2\n      0x06\n      add\n      exp(0x0100, 0x15)\n      dup2\n      sload\n      dup2\n      0xff\n      mul\n      not\n      and\n      swap1\n      dup4\n      iszero\n      iszero\n      mul\n      or\n      swap1\n      sstore\n      pop\n      swap1\n      pop\n      pop\n        /* \"contracts/CasaDeSubastas.sol\":2173:2180  bool ok */\n      0x00\n        /* \"contracts/CasaDeSubastas.sol\":2194:2205  propietario */\n      0x00\n      0x00\n      swap1\n      sload\n      swap1\n      0x0100\n      exp\n      swap1\n      div\n      0xffffffffffffffffffffffffffffffffffffffff\n      and\n        /* \"contracts/CasaDeSubastas.sol\":2186:2211  payable(propietario).call */\n      0xffffffffffffffffffffffffffffffffffffffff\n      and\n        /* \"contracts/CasaDeSubastas.sol\":2219:2228  msg.value */\n      callvalue\n        /* \"contracts/CasaDeSubastas.sol\":2186:2233  payable(propietario).call{value: msg.value}(\"\") */\n      mload(0x40)\n      tag_82\n      swap1\n      tag_83\n      jump\t// in\n    tag_82:\n      0x00\n      mload(0x40)\n      dup1\n      dup4\n      sub\n      dup2\n      dup6\n      dup8\n      gas\n      call\n      swap3\n      pop\n      pop\n      pop\n      returndatasize\n      dup1\n      0x00\n      dup2\n      eq\n      tag_86\n      jumpi\n      mload(0x40)\n      swap2\n      pop\n      and(add(returndatasize, 0x3f), not(0x1f))\n      dup3\n      add\n      0x40\n      mstore\n      returndatasize\n      dup3\n      mstore\n      returndatasize\n      0x00\n      0x20\n      dup5\n      add\n      returndatacopy\n      jump(tag_85)\n    tag_86:\n      0x60\n      swap2\n      pop\n    tag_85:\n      pop\n        /* \"contracts/CasaDeSubastas.sol\":2172:2233  (bool ok, ) = payable(propietario).call{value: msg.value}(\"\") */\n      pop\n      swap1\n      pop\n        /* \"contracts/CasaDeSubastas.sol\":2251:2253  ok */\n      dup1\n        /* \"contracts/CasaDeSubastas.sol\":2243:2280  require(ok, \"Transferencia fallida.\") */\n      tag_87\n      jumpi\n      mload(0x40)\n      0x08c379a000000000000000000000000000000000000000000000000000000000\n      dup2\n      mstore\n      0x04\n      add\n      tag_88\n      swap1\n      tag_89\n      jump\t// in\n    tag_88:\n      mload(0x40)\n      dup1\n      swap2\n      sub\n      swap1\n      revert\n    tag_87:\n        /* \"contracts/CasaDeSubastas.sol\":2291:2307  contadorSubastas */\n      0x01\n      0x00\n        /* \"contracts/CasaDeSubastas.sol\":2291:2309  contadorSubastas++ */\n      dup2\n      sload\n      dup1\n      swap3\n      swap2\n      swap1\n      tag_90\n      swap1\n      tag_91\n      jump\t// in\n    tag_90:\n      swap2\n      swap1\n      pop\n      sstore\n      pop\n        /* \"contracts/CasaDeSubastas.sol\":1515:2316  {... */\n      pop\n        /* \"contracts/CasaDeSubastas.sol\":1411:2316  function crearSubasta(uint256 idItem, uint256 ofertaMinima, uint256 fechaCierre) payable public virtual {... */\n      pop\n      pop\n      pop\n      jump\t// out\n        /* \"contracts/CasaDeSubastas.sol\":1249:1380  function obtenerSubasta(uint256 id) public view subastaExiste(id) returns (Subasta memory) {... */\n    tag_39:\n        /* \"contracts/CasaDeSubastas.sol\":1324:1338  Subasta memory */\n      tag_92\n      tag_93\n      jump\t// in\n    tag_92:\n        /* \"contracts/CasaDeSubastas.sol\":1311:1313  id */\n      dup2\n        /* \"contracts/CasaDeSubastas.sol\":959:960  0 */\n      0x00\n        /* \"contracts/CasaDeSubastas.sol\":916:961  lst_subastas[idSubasta].creador != address(0) */\n      0xffffffffffffffffffffffffffffffffffffffff\n      and\n        /* \"contracts/CasaDeSubastas.sol\":916:928  lst_subastas */\n      0x02\n        /* \"contracts/CasaDeSubastas.sol\":916:939  lst_subastas[idSubasta] */\n      0x00\n        /* \"contracts/CasaDeSubastas.sol\":929:938  idSubasta */\n      dup4\n        /* \"contracts/CasaDeSubastas.sol\":916:939  lst_subastas[idSubasta] */\n      dup2\n      mstore\n      0x20\n      add\n      swap1\n      dup2\n      mstore\n      0x20\n      add\n      0x00\n      keccak256\n        /* \"contracts/CasaDeSubastas.sol\":916:947  lst_subastas[idSubasta].creador */\n      0x02\n      add\n      0x00\n      swap1\n      sload\n      swap1\n      0x0100\n      exp\n      swap1\n      div\n      0xffffffffffffffffffffffffffffffffffffffff\n      and\n        /* \"contracts/CasaDeSubastas.sol\":916:961  lst_subastas[idSubasta].creador != address(0) */\n      0xffffffffffffffffffffffffffffffffffffffff\n      and\n      sub\n        /* \"contracts/CasaDeSubastas.sol\":908:987  require(lst_subastas[idSubasta].creador != address(0), \"La subasta no existe.\") */\n      tag_95\n      jumpi\n      mload(0x40)\n      0x08c379a000000000000000000000000000000000000000000000000000000000\n      dup2\n      mstore\n      0x04\n      add\n      tag_96\n      swap1\n      tag_97\n      jump\t// in\n    tag_96:\n      mload(0x40)\n      dup1\n      swap2\n      sub\n      swap1\n      revert\n    tag_95:\n        /* \"contracts/CasaDeSubastas.sol\":1357:1369  lst_subastas */\n      0x02\n        /* \"contracts/CasaDeSubastas.sol\":1357:1373  lst_subastas[id] */\n      0x00\n        /* \"contracts/CasaDeSubastas.sol\":1370:1372  id */\n      dup5\n        /* \"contracts/CasaDeSubastas.sol\":1357:1373  lst_subastas[id] */\n      dup2\n      mstore\n      0x20\n      add\n      swap1\n      dup2\n      mstore\n      0x20\n      add\n      0x00\n      keccak256\n        /* \"contracts/CasaDeSubastas.sol\":1350:1373  return lst_subastas[id] */\n      mload(0x40)\n      dup1\n      0x0120\n      add\n      0x40\n      mstore\n      swap1\n      dup2\n      0x00\n      dup3\n      add\n      sload\n      dup2\n      mstore\n      0x20\n      add\n      0x01\n      dup3\n      add\n      sload\n      dup2\n      mstore\n      0x20\n      add\n      0x02\n      dup3\n      add\n      0x00\n      swap1\n      sload\n      swap1\n      0x0100\n      exp\n      swap1\n      div\n      0xffffffffffffffffffffffffffffffffffffffff\n      and\n      0xffffffffffffffffffffffffffffffffffffffff\n      and\n      0xffffffffffffffffffffffffffffffffffffffff\n      and\n      dup2\n      mstore\n      0x20\n      add\n      0x03\n      dup3\n      add\n      sload\n      dup2\n      mstore\n      0x20\n      add\n      0x04\n      dup3\n      add\n      sload\n      dup2\n      mstore\n      0x20\n      add\n      0x05\n      dup3\n      add\n      sload\n      dup2\n      mstore\n      0x20\n      add\n      0x06\n      dup3\n      add\n      0x00\n      swap1\n      sload\n      swap1\n      0x0100\n      exp\n      swap1\n      div\n      0xffffffffffffffffffffffffffffffffffffffff\n      and\n      0xffffffffffffffffffffffffffffffffffffffff\n      and\n      0xffffffffffffffffffffffffffffffffffffffff\n      and\n      dup2\n      mstore\n      0x20\n      add\n      0x06\n      dup3\n      add\n      0x14\n      swap1\n      sload\n      swap1\n      0x0100\n      exp\n      swap1\n      div\n      0xff\n      and\n      iszero\n      iszero\n      iszero\n      iszero\n      dup2\n      mstore\n      0x20\n      add\n      0x06\n      dup3\n      add\n      0x15\n      swap1\n      sload\n      swap1\n      0x0100\n      exp\n      swap1\n      div\n      0xff\n      and\n      iszero\n      iszero\n      iszero\n      iszero\n      dup2\n      mstore\n      pop\n      pop\n      swap2\n      pop\n        /* \"contracts/CasaDeSubastas.sol\":1249:1380  function obtenerSubasta(uint256 id) public view subastaExiste(id) returns (Subasta memory) {... */\n      pop\n      swap2\n      swap1\n      pop\n      jump\t// out\n        /* \"contracts/CasaDeSubastas.sol\":2349:3188  function realizarOferta(uint256 idSubasta) payable public subastaExiste(idSubasta) {... */\n    tag_44:\n        /* \"contracts/CasaDeSubastas.sol\":2421:2430  idSubasta */\n      dup1\n        /* \"contracts/CasaDeSubastas.sol\":959:960  0 */\n      0x00\n        /* \"contracts/CasaDeSubastas.sol\":916:961  lst_subastas[idSubasta].creador != address(0) */\n      0xffffffffffffffffffffffffffffffffffffffff\n      and\n        /* \"contracts/CasaDeSubastas.sol\":916:928  lst_subastas */\n      0x02\n        /* \"contracts/CasaDeSubastas.sol\":916:939  lst_subastas[idSubasta] */\n      0x00\n        /* \"contracts/CasaDeSubastas.sol\":929:938  idSubasta */\n      dup4\n        /* \"contracts/CasaDeSubastas.sol\":916:939  lst_subastas[idSubasta] */\n      dup2\n      mstore\n      0x20\n      add\n      swap1\n      dup2\n      mstore\n      0x20\n      add\n      0x00\n      keccak256\n        /* \"contracts/CasaDeSubastas.sol\":916:947  lst_subastas[idSubasta].creador */\n      0x02\n      add\n      0x00\n      swap1\n      sload\n      swap1\n      0x0100\n      exp\n      swap1\n      div\n      0xffffffffffffffffffffffffffffffffffffffff\n      and\n        /* \"contracts/CasaDeSubastas.sol\":916:961  lst_subastas[idSubasta].creador != address(0) */\n      0xffffffffffffffffffffffffffffffffffffffff\n      and\n      sub\n        /* \"contracts/CasaDeSubastas.sol\":908:987  require(lst_subastas[idSubasta].creador != address(0), \"La subasta no existe.\") */\n      tag_100\n      jumpi\n      mload(0x40)\n      0x08c379a000000000000000000000000000000000000000000000000000000000\n      dup2\n      mstore\n      0x04\n      add\n      tag_101\n      swap1\n      tag_97\n      jump\t// in\n    tag_101:\n      mload(0x40)\n      dup1\n      swap2\n      sub\n      swap1\n      revert\n    tag_100:\n        /* \"contracts/CasaDeSubastas.sol\":2442:2465  Subasta storage subasta */\n      0x00\n        /* \"contracts/CasaDeSubastas.sol\":2468:2480  lst_subastas */\n      0x02\n        /* \"contracts/CasaDeSubastas.sol\":2468:2491  lst_subastas[idSubasta] */\n      0x00\n        /* \"contracts/CasaDeSubastas.sol\":2481:2490  idSubasta */\n      dup5\n        /* \"contracts/CasaDeSubastas.sol\":2468:2491  lst_subastas[idSubasta] */\n      dup2\n      mstore\n      0x20\n      add\n      swap1\n      dup2\n      mstore\n      0x20\n      add\n      0x00\n      keccak256\n        /* \"contracts/CasaDeSubastas.sol\":2442:2491  Subasta storage subasta = lst_subastas[idSubasta] */\n      swap1\n      pop\n        /* \"contracts/CasaDeSubastas.sol\":2523:2530  subasta */\n      dup1\n        /* \"contracts/CasaDeSubastas.sol\":2523:2543  subasta.ofertaMinima */\n      0x03\n      add\n      sload\n        /* \"contracts/CasaDeSubastas.sol\":2510:2519  msg.value */\n      callvalue\n        /* \"contracts/CasaDeSubastas.sol\":2510:2543  msg.value >= subasta.ofertaMinima */\n      lt\n      iszero\n        /* \"contracts/CasaDeSubastas.sol\":2502:2607  require(msg.value >= subasta.ofertaMinima, \"La oferta debe ser mayor o igual al valor minimo de oferta.\") */\n      tag_103\n      jumpi\n      mload(0x40)\n      0x08c379a000000000000000000000000000000000000000000000000000000000\n      dup2\n      mstore\n      0x04\n      add\n      tag_104\n      swap1\n      tag_105\n      jump\t// in\n    tag_104:\n      mload(0x40)\n      dup1\n      swap2\n      sub\n      swap1\n      revert\n    tag_103:\n        /* \"contracts/CasaDeSubastas.sol\":2637:2644  subasta */\n      dup1\n        /* \"contracts/CasaDeSubastas.sol\":2637:2657  subasta.ofertaMaxima */\n      0x05\n      add\n      sload\n        /* \"contracts/CasaDeSubastas.sol\":2625:2634  msg.value */\n      callvalue\n        /* \"contracts/CasaDeSubastas.sol\":2625:2657  msg.value > subasta.ofertaMaxima */\n      gt\n        /* \"contracts/CasaDeSubastas.sol\":2617:2711  require(msg.value > subasta.ofertaMaxima, \"La oferta debe superar la oferta mas alta actual.\") */\n      tag_106\n      jumpi\n      mload(0x40)\n      0x08c379a000000000000000000000000000000000000000000000000000000000\n      dup2\n      mstore\n      0x04\n      add\n      tag_107\n      swap1\n      tag_108\n      jump\t// in\n    tag_107:\n      mload(0x40)\n      dup1\n      swap2\n      sub\n      swap1\n      revert\n    tag_106:\n        /* \"contracts/CasaDeSubastas.sol\":2747:2754  subasta */\n      dup1\n        /* \"contracts/CasaDeSubastas.sol\":2747:2766  subasta.fechaCierre */\n      0x04\n      add\n      sload\n        /* \"contracts/CasaDeSubastas.sol\":2729:2744  block.timestamp */\n      timestamp\n        /* \"contracts/CasaDeSubastas.sol\":2729:2766  block.timestamp < subasta.fechaCierre */\n      lt\n        /* \"contracts/CasaDeSubastas.sol\":2721:2812  require(block.timestamp < subasta.fechaCierre, \"La fecha de cierre de la subasta ya paso.\") */\n      tag_109\n      jumpi\n      mload(0x40)\n      0x08c379a000000000000000000000000000000000000000000000000000000000\n      dup2\n      mstore\n      0x04\n      add\n      tag_110\n      swap1\n      tag_111\n      jump\t// in\n    tag_110:\n      mload(0x40)\n      dup1\n      swap2\n      sub\n      swap1\n      revert\n    tag_109:\n        /* \"contracts/CasaDeSubastas.sol\":2831:2838  subasta */\n      dup1\n        /* \"contracts/CasaDeSubastas.sol\":2831:2849  subasta.finalizada */\n      0x06\n      add\n      0x14\n      swap1\n      sload\n      swap1\n      0x0100\n      exp\n      swap1\n      div\n      0xff\n      and\n        /* \"contracts/CasaDeSubastas.sol\":2830:2849  !subasta.finalizada */\n      iszero\n        /* \"contracts/CasaDeSubastas.sol\":2822:2883  require(!subasta.finalizada, \"La subasta ya fue finalizada.\") */\n      tag_112\n      jumpi\n      mload(0x40)\n      0x08c379a000000000000000000000000000000000000000000000000000000000\n      dup2\n      mstore\n      0x04\n      add\n      tag_113\n      swap1\n      tag_114\n      jump\t// in\n    tag_113:\n      mload(0x40)\n      dup1\n      swap2\n      sub\n      swap1\n      revert\n    tag_112:\n        /* \"contracts/CasaDeSubastas.sol\":2902:2909  subasta */\n      dup1\n        /* \"contracts/CasaDeSubastas.sol\":2902:2919  subasta.eliminada */\n      0x06\n      add\n      0x15\n      swap1\n      sload\n      swap1\n      0x0100\n      exp\n      swap1\n      div\n      0xff\n      and\n        /* \"contracts/CasaDeSubastas.sol\":2901:2919  !subasta.eliminada */\n      iszero\n        /* \"contracts/CasaDeSubastas.sol\":2893:2949  require(!subasta.eliminada, \"La subasta fue eliminada.\") */\n      tag_115\n      jumpi\n      mload(0x40)\n      0x08c379a000000000000000000000000000000000000000000000000000000000\n      dup2\n      mstore\n      0x04\n      add\n      tag_116\n      swap1\n      tag_117\n      jump\t// in\n    tag_116:\n      mload(0x40)\n      dup1\n      swap2\n      sub\n      swap1\n      revert\n    tag_115:\n        /* \"contracts/CasaDeSubastas.sol\":2995:2996  0 */\n      0x00\n        /* \"contracts/CasaDeSubastas.sol\":2964:2997  subasta.mejorPostor != address(0) */\n      0xffffffffffffffffffffffffffffffffffffffff\n      and\n        /* \"contracts/CasaDeSubastas.sol\":2964:2971  subasta */\n      dup2\n        /* \"contracts/CasaDeSubastas.sol\":2964:2983  subasta.mejorPostor */\n      0x06\n      add\n      0x00\n      swap1\n      sload\n      swap1\n      0x0100\n      exp\n      swap1\n      div\n      0xffffffffffffffffffffffffffffffffffffffff\n      and\n        /* \"contracts/CasaDeSubastas.sol\":2964:2997  subasta.mejorPostor != address(0) */\n      0xffffffffffffffffffffffffffffffffffffffff\n      and\n      eq\n        /* \"contracts/CasaDeSubastas.sol\":2960:3097  if (subasta.mejorPostor != address(0)) {... */\n      tag_118\n      jumpi\n        /* \"contracts/CasaDeSubastas.sol\":3066:3073  subasta */\n      dup1\n        /* \"contracts/CasaDeSubastas.sol\":3066:3086  subasta.ofertaMaxima */\n      0x05\n      add\n      sload\n        /* \"contracts/CasaDeSubastas.sol\":3013:3030  retirosPendientes */\n      0x03\n        /* \"contracts/CasaDeSubastas.sol\":3013:3041  retirosPendientes[idSubasta] */\n      0x00\n        /* \"contracts/CasaDeSubastas.sol\":3031:3040  idSubasta */\n      dup6\n        /* \"contracts/CasaDeSubastas.sol\":3013:3041  retirosPendientes[idSubasta] */\n      dup2\n      mstore\n      0x20\n      add\n      swap1\n      dup2\n      mstore\n      0x20\n      add\n      0x00\n      keccak256\n        /* \"contracts/CasaDeSubastas.sol\":3013:3062  retirosPendientes[idSubasta][subasta.mejorPostor] */\n      0x00\n        /* \"contracts/CasaDeSubastas.sol\":3042:3049  subasta */\n      dup4\n        /* \"contracts/CasaDeSubastas.sol\":3042:3061  subasta.mejorPostor */\n      0x06\n      add\n      0x00\n      swap1\n      sload\n      swap1\n      0x0100\n      exp\n      swap1\n      div\n      0xffffffffffffffffffffffffffffffffffffffff\n      and\n        /* \"contracts/CasaDeSubastas.sol\":3013:3062  retirosPendientes[idSubasta][subasta.mejorPostor] */\n      0xffffffffffffffffffffffffffffffffffffffff\n      and\n      0xffffffffffffffffffffffffffffffffffffffff\n      and\n      dup2\n      mstore\n      0x20\n      add\n      swap1\n      dup2\n      mstore\n      0x20\n      add\n      0x00\n      keccak256\n      0x00\n        /* \"contracts/CasaDeSubastas.sol\":3013:3086  retirosPendientes[idSubasta][subasta.mejorPostor] += subasta.ofertaMaxima */\n      dup3\n      dup3\n      sload\n      tag_119\n      swap2\n      swap1\n      tag_120\n      jump\t// in\n    tag_119:\n      swap3\n      pop\n      pop\n      dup2\n      swap1\n      sstore\n      pop\n        /* \"contracts/CasaDeSubastas.sol\":2960:3097  if (subasta.mejorPostor != address(0)) {... */\n    tag_118:\n        /* \"contracts/CasaDeSubastas.sol\":3130:3139  msg.value */\n      callvalue\n        /* \"contracts/CasaDeSubastas.sol\":3107:3114  subasta */\n      dup2\n        /* \"contracts/CasaDeSubastas.sol\":3107:3127  subasta.ofertaMaxima */\n      0x05\n      add\n        /* \"contracts/CasaDeSubastas.sol\":3107:3139  subasta.ofertaMaxima = msg.value */\n      dup2\n      swap1\n      sstore\n      pop\n        /* \"contracts/CasaDeSubastas.sol\":3171:3181  msg.sender */\n      caller\n        /* \"contracts/CasaDeSubastas.sol\":3149:3156  subasta */\n      dup2\n        /* \"contracts/CasaDeSubastas.sol\":3149:3168  subasta.mejorPostor */\n      0x06\n      add\n      0x00\n        /* \"contracts/CasaDeSubastas.sol\":3149:3181  subasta.mejorPostor = msg.sender */\n      0x0100\n      exp\n      dup2\n      sload\n      dup2\n      0xffffffffffffffffffffffffffffffffffffffff\n      mul\n      not\n      and\n      swap1\n      dup4\n      0xffffffffffffffffffffffffffffffffffffffff\n      and\n      mul\n      or\n      swap1\n      sstore\n      pop\n        /* \"contracts/CasaDeSubastas.sol\":2432:3188  {... */\n      pop\n        /* \"contracts/CasaDeSubastas.sol\":2349:3188  function realizarOferta(uint256 idSubasta) payable public subastaExiste(idSubasta) {... */\n      pop\n      pop\n      jump\t// out\n        /* \"contracts/CasaDeSubastas.sol\":3223:4091  function finalizarSubasta(uint256 idSubasta) public subastaExiste(idSubasta) {... */\n    tag_48:\n        /* \"contracts/CasaDeSubastas.sol\":3289:3298  idSubasta */\n      dup1\n        /* \"contracts/CasaDeSubastas.sol\":959:960  0 */\n      0x00\n        /* \"contracts/CasaDeSubastas.sol\":916:961  lst_subastas[idSubasta].creador != address(0) */\n      0xffffffffffffffffffffffffffffffffffffffff\n      and\n        /* \"contracts/CasaDeSubastas.sol\":916:928  lst_subastas */\n      0x02\n        /* \"contracts/CasaDeSubastas.sol\":916:939  lst_subastas[idSubasta] */\n      0x00\n        /* \"contracts/CasaDeSubastas.sol\":929:938  idSubasta */\n      dup4\n        /* \"contracts/CasaDeSubastas.sol\":916:939  lst_subastas[idSubasta] */\n      dup2\n      mstore\n      0x20\n      add\n      swap1\n      dup2\n      mstore\n      0x20\n      add\n      0x00\n      keccak256\n        /* \"contracts/CasaDeSubastas.sol\":916:947  lst_subastas[idSubasta].creador */\n      0x02\n      add\n      0x00\n      swap1\n      sload\n      swap1\n      0x0100\n      exp\n      swap1\n      div\n      0xffffffffffffffffffffffffffffffffffffffff\n      and\n        /* \"contracts/CasaDeSubastas.sol\":916:961  lst_subastas[idSubasta].creador != address(0) */\n      0xffffffffffffffffffffffffffffffffffffffff\n      and\n      sub\n        /* \"contracts/CasaDeSubastas.sol\":908:987  require(lst_subastas[idSubasta].creador != address(0), \"La subasta no existe.\") */\n      tag_122\n      jumpi\n      mload(0x40)\n      0x08c379a000000000000000000000000000000000000000000000000000000000\n      dup2\n      mstore\n      0x04\n      add\n      tag_123\n      swap1\n      tag_97\n      jump\t// in\n    tag_123:\n      mload(0x40)\n      dup1\n      swap2\n      sub\n      swap1\n      revert\n    tag_122:\n        /* \"contracts/CasaDeSubastas.sol\":3310:3333  Subasta storage subasta */\n      0x00\n        /* \"contracts/CasaDeSubastas.sol\":3336:3348  lst_subastas */\n      0x02\n        /* \"contracts/CasaDeSubastas.sol\":3336:3359  lst_subastas[idSubasta] */\n      0x00\n        /* \"contracts/CasaDeSubastas.sol\":3349:3358  idSubasta */\n      dup5\n        /* \"contracts/CasaDeSubastas.sol\":3336:3359  lst_subastas[idSubasta] */\n      dup2\n      mstore\n      0x20\n      add\n      swap1\n      dup2\n      mstore\n      0x20\n      add\n      0x00\n      keccak256\n        /* \"contracts/CasaDeSubastas.sol\":3310:3359  Subasta storage subasta = lst_subastas[idSubasta] */\n      swap1\n      pop\n        /* \"contracts/CasaDeSubastas.sol\":3379:3386  subasta */\n      dup1\n        /* \"contracts/CasaDeSubastas.sol\":3379:3397  subasta.finalizada */\n      0x06\n      add\n      0x14\n      swap1\n      sload\n      swap1\n      0x0100\n      exp\n      swap1\n      div\n      0xff\n      and\n        /* \"contracts/CasaDeSubastas.sol\":3378:3397  !subasta.finalizada */\n      iszero\n        /* \"contracts/CasaDeSubastas.sol\":3370:3431  require(!subasta.finalizada, \"La subasta ya fue finalizada.\") */\n      tag_125\n      jumpi\n      mload(0x40)\n      0x08c379a000000000000000000000000000000000000000000000000000000000\n      dup2\n      mstore\n      0x04\n      add\n      tag_126\n      swap1\n      tag_114\n      jump\t// in\n    tag_126:\n      mload(0x40)\n      dup1\n      swap2\n      sub\n      swap1\n      revert\n    tag_125:\n        /* \"contracts/CasaDeSubastas.sol\":3450:3457  subasta */\n      dup1\n        /* \"contracts/CasaDeSubastas.sol\":3450:3467  subasta.eliminada */\n      0x06\n      add\n      0x15\n      swap1\n      sload\n      swap1\n      0x0100\n      exp\n      swap1\n      div\n      0xff\n      and\n        /* \"contracts/CasaDeSubastas.sol\":3449:3467  !subasta.eliminada */\n      iszero\n        /* \"contracts/CasaDeSubastas.sol\":3441:3497  require(!subasta.eliminada, \"La subasta fue eliminada.\") */\n      tag_127\n      jumpi\n      mload(0x40)\n      0x08c379a000000000000000000000000000000000000000000000000000000000\n      dup2\n      mstore\n      0x04\n      add\n      tag_128\n      swap1\n      tag_117\n      jump\t// in\n    tag_128:\n      mload(0x40)\n      dup1\n      swap2\n      sub\n      swap1\n      revert\n    tag_127:\n        /* \"contracts/CasaDeSubastas.sol\":3542:3549  subasta */\n      dup1\n        /* \"contracts/CasaDeSubastas.sol\":3542:3557  subasta.creador */\n      0x02\n      add\n      0x00\n      swap1\n      sload\n      swap1\n      0x0100\n      exp\n      swap1\n      div\n      0xffffffffffffffffffffffffffffffffffffffff\n      and\n        /* \"contracts/CasaDeSubastas.sol\":3528:3557  msg.sender == subasta.creador */\n      0xffffffffffffffffffffffffffffffffffffffff\n      and\n        /* \"contracts/CasaDeSubastas.sol\":3528:3538  msg.sender */\n      caller\n        /* \"contracts/CasaDeSubastas.sol\":3528:3557  msg.sender == subasta.creador */\n      0xffffffffffffffffffffffffffffffffffffffff\n      and\n      eq\n        /* \"contracts/CasaDeSubastas.sol\":3528:3586  msg.sender == subasta.creador || msg.sender == propietario */\n      dup1\n      tag_129\n      jumpi\n      pop\n        /* \"contracts/CasaDeSubastas.sol\":3575:3586  propietario */\n      0x00\n      0x00\n      swap1\n      sload\n      swap1\n      0x0100\n      exp\n      swap1\n      div\n      0xffffffffffffffffffffffffffffffffffffffff\n      and\n        /* \"contracts/CasaDeSubastas.sol\":3561:3586  msg.sender == propietario */\n      0xffffffffffffffffffffffffffffffffffffffff\n      and\n        /* \"contracts/CasaDeSubastas.sol\":3561:3571  msg.sender */\n      caller\n        /* \"contracts/CasaDeSubastas.sol\":3561:3586  msg.sender == propietario */\n      0xffffffffffffffffffffffffffffffffffffffff\n      and\n      eq\n        /* \"contracts/CasaDeSubastas.sol\":3528:3586  msg.sender == subasta.creador || msg.sender == propietario */\n    tag_129:\n        /* \"contracts/CasaDeSubastas.sol\":3507:3673  require(... */\n      tag_130\n      jumpi\n      mload(0x40)\n      0x08c379a000000000000000000000000000000000000000000000000000000000\n      dup2\n      mstore\n      0x04\n      add\n      tag_131\n      swap1\n      tag_132\n      jump\t// in\n    tag_131:\n      mload(0x40)\n      dup1\n      swap2\n      sub\n      swap1\n      revert\n    tag_130:\n        /* \"contracts/CasaDeSubastas.sol\":3723:3730  subasta */\n      dup1\n        /* \"contracts/CasaDeSubastas.sol\":3723:3742  subasta.fechaCierre */\n      0x04\n      add\n      sload\n        /* \"contracts/CasaDeSubastas.sol\":3704:3719  block.timestamp */\n      timestamp\n        /* \"contracts/CasaDeSubastas.sol\":3704:3742  block.timestamp >= subasta.fechaCierre */\n      lt\n      iszero\n        /* \"contracts/CasaDeSubastas.sol\":3704:3775  block.timestamp >= subasta.fechaCierre || msg.sender == subasta.creador */\n      dup1\n      tag_133\n      jumpi\n      pop\n        /* \"contracts/CasaDeSubastas.sol\":3760:3767  subasta */\n      dup1\n        /* \"contracts/CasaDeSubastas.sol\":3760:3775  subasta.creador */\n      0x02\n      add\n      0x00\n      swap1\n      sload\n      swap1\n      0x0100\n      exp\n      swap1\n      div\n      0xffffffffffffffffffffffffffffffffffffffff\n      and\n        /* \"contracts/CasaDeSubastas.sol\":3746:3775  msg.sender == subasta.creador */\n      0xffffffffffffffffffffffffffffffffffffffff\n      and\n        /* \"contracts/CasaDeSubastas.sol\":3746:3756  msg.sender */\n      caller\n        /* \"contracts/CasaDeSubastas.sol\":3746:3775  msg.sender == subasta.creador */\n      0xffffffffffffffffffffffffffffffffffffffff\n      and\n      eq\n        /* \"contracts/CasaDeSubastas.sol\":3704:3775  block.timestamp >= subasta.fechaCierre || msg.sender == subasta.creador */\n    tag_133:\n        /* \"contracts/CasaDeSubastas.sol\":3683:3847  require(... */\n      tag_134\n      jumpi\n      mload(0x40)\n      0x08c379a000000000000000000000000000000000000000000000000000000000\n      dup2\n      mstore\n      0x04\n      add\n      tag_135\n      swap1\n      tag_136\n      jump\t// in\n    tag_135:\n      mload(0x40)\n      dup1\n      swap2\n      sub\n      swap1\n      revert\n    tag_134:\n        /* \"contracts/CasaDeSubastas.sol\":3879:3883  true */\n      0x01\n        /* \"contracts/CasaDeSubastas.sol\":3858:3865  subasta */\n      dup2\n        /* \"contracts/CasaDeSubastas.sol\":3858:3876  subasta.finalizada */\n      0x06\n      add\n      0x14\n        /* \"contracts/CasaDeSubastas.sol\":3858:3883  subasta.finalizada = true */\n      0x0100\n      exp\n      dup2\n      sload\n      dup2\n      0xff\n      mul\n      not\n      and\n      swap1\n      dup4\n      iszero\n      iszero\n      mul\n      or\n      swap1\n      sstore\n      pop\n        /* \"contracts/CasaDeSubastas.sol\":3929:3930  0 */\n      0x00\n        /* \"contracts/CasaDeSubastas.sol\":3898:3931  subasta.mejorPostor != address(0) */\n      0xffffffffffffffffffffffffffffffffffffffff\n      and\n        /* \"contracts/CasaDeSubastas.sol\":3898:3905  subasta */\n      dup2\n        /* \"contracts/CasaDeSubastas.sol\":3898:3917  subasta.mejorPostor */\n      0x06\n      add\n      0x00\n      swap1\n      sload\n      swap1\n      0x0100\n      exp\n      swap1\n      div\n      0xffffffffffffffffffffffffffffffffffffffff\n      and\n        /* \"contracts/CasaDeSubastas.sol\":3898:3931  subasta.mejorPostor != address(0) */\n      0xffffffffffffffffffffffffffffffffffffffff\n      and\n      eq\n        /* \"contracts/CasaDeSubastas.sol\":3894:4085  if (subasta.mejorPostor != address(0)) {... */\n      tag_137\n      jumpi\n        /* \"contracts/CasaDeSubastas.sol\":3948:3955  bool ok */\n      0x00\n        /* \"contracts/CasaDeSubastas.sol\":3969:3976  subasta */\n      dup2\n        /* \"contracts/CasaDeSubastas.sol\":3969:3984  subasta.creador */\n      0x02\n      add\n      0x00\n      swap1\n      sload\n      swap1\n      0x0100\n      exp\n      swap1\n      div\n      0xffffffffffffffffffffffffffffffffffffffff\n      and\n        /* \"contracts/CasaDeSubastas.sol\":3961:3990  payable(subasta.creador).call */\n      0xffffffffffffffffffffffffffffffffffffffff\n      and\n        /* \"contracts/CasaDeSubastas.sol\":3998:4005  subasta */\n      dup3\n        /* \"contracts/CasaDeSubastas.sol\":3998:4018  subasta.ofertaMaxima */\n      0x05\n      add\n      sload\n        /* \"contracts/CasaDeSubastas.sol\":3961:4023  payable(subasta.creador).call{value: subasta.ofertaMaxima}(\"\") */\n      mload(0x40)\n      tag_138\n      swap1\n      tag_83\n      jump\t// in\n    tag_138:\n      0x00\n      mload(0x40)\n      dup1\n      dup4\n      sub\n      dup2\n      dup6\n      dup8\n      gas\n      call\n      swap3\n      pop\n      pop\n      pop\n      returndatasize\n      dup1\n      0x00\n      dup2\n      eq\n      tag_141\n      jumpi\n      mload(0x40)\n      swap2\n      pop\n      and(add(returndatasize, 0x3f), not(0x1f))\n      dup3\n      add\n      0x40\n      mstore\n      returndatasize\n      dup3\n      mstore\n      returndatasize\n      0x00\n      0x20\n      dup5\n      add\n      returndatacopy\n      jump(tag_140)\n    tag_141:\n      0x60\n      swap2\n      pop\n    tag_140:\n      pop\n        /* \"contracts/CasaDeSubastas.sol\":3947:4023  (bool ok, ) = payable(subasta.creador).call{value: subasta.ofertaMaxima}(\"\") */\n      pop\n      swap1\n      pop\n        /* \"contracts/CasaDeSubastas.sol\":4045:4047  ok */\n      dup1\n        /* \"contracts/CasaDeSubastas.sol\":4037:4074  require(ok, \"Transferencia fallida.\") */\n      tag_142\n      jumpi\n      mload(0x40)\n      0x08c379a000000000000000000000000000000000000000000000000000000000\n      dup2\n      mstore\n      0x04\n      add\n      tag_143\n      swap1\n      tag_89\n      jump\t// in\n    tag_143:\n      mload(0x40)\n      dup1\n      swap2\n      sub\n      swap1\n      revert\n    tag_142:\n        /* \"contracts/CasaDeSubastas.sol\":3933:4085  {... */\n      pop\n        /* \"contracts/CasaDeSubastas.sol\":3894:4085  if (subasta.mejorPostor != address(0)) {... */\n    tag_137:\n        /* \"contracts/CasaDeSubastas.sol\":3300:4091  {... */\n      pop\n        /* \"contracts/CasaDeSubastas.sol\":3223:4091  function finalizarSubasta(uint256 idSubasta) public subastaExiste(idSubasta) {... */\n      pop\n      pop\n      jump\t// out\n        /* \"contracts/CasaDeSubastas.sol\":4140:4518  function retirarFondos(uint256 idSubasta) public subastaExiste(idSubasta) {... */\n    tag_52:\n        /* \"contracts/CasaDeSubastas.sol\":4203:4212  idSubasta */\n      dup1\n        /* \"contracts/CasaDeSubastas.sol\":959:960  0 */\n      0x00\n        /* \"contracts/CasaDeSubastas.sol\":916:961  lst_subastas[idSubasta].creador != address(0) */\n      0xffffffffffffffffffffffffffffffffffffffff\n      and\n        /* \"contracts/CasaDeSubastas.sol\":916:928  lst_subastas */\n      0x02\n        /* \"contracts/CasaDeSubastas.sol\":916:939  lst_subastas[idSubasta] */\n      0x00\n        /* \"contracts/CasaDeSubastas.sol\":929:938  idSubasta */\n      dup4\n        /* \"contracts/CasaDeSubastas.sol\":916:939  lst_subastas[idSubasta] */\n      dup2\n      mstore\n      0x20\n      add\n      swap1\n      dup2\n      mstore\n      0x20\n      add\n      0x00\n      keccak256\n        /* \"contracts/CasaDeSubastas.sol\":916:947  lst_subastas[idSubasta].creador */\n      0x02\n      add\n      0x00\n      swap1\n      sload\n      swap1\n      0x0100\n      exp\n      swap1\n      div\n      0xffffffffffffffffffffffffffffffffffffffff\n      and\n        /* \"contracts/CasaDeSubastas.sol\":916:961  lst_subastas[idSubasta].creador != address(0) */\n      0xffffffffffffffffffffffffffffffffffffffff\n      and\n      sub\n        /* \"contracts/CasaDeSubastas.sol\":908:987  require(lst_subastas[idSubasta].creador != address(0), \"La subasta no existe.\") */\n      tag_145\n      jumpi\n      mload(0x40)\n      0x08c379a000000000000000000000000000000000000000000000000000000000\n      dup2\n      mstore\n      0x04\n      add\n      tag_146\n      swap1\n      tag_97\n      jump\t// in\n    tag_146:\n      mload(0x40)\n      dup1\n      swap2\n      sub\n      swap1\n      revert\n    tag_145:\n        /* \"contracts/CasaDeSubastas.sol\":4224:4237  uint256 monto */\n      0x00\n        /* \"contracts/CasaDeSubastas.sol\":4240:4257  retirosPendientes */\n      0x03\n        /* \"contracts/CasaDeSubastas.sol\":4240:4268  retirosPendientes[idSubasta] */\n      0x00\n        /* \"contracts/CasaDeSubastas.sol\":4258:4267  idSubasta */\n      dup5\n        /* \"contracts/CasaDeSubastas.sol\":4240:4268  retirosPendientes[idSubasta] */\n      dup2\n      mstore\n      0x20\n      add\n      swap1\n      dup2\n      mstore\n      0x20\n      add\n      0x00\n      keccak256\n        /* \"contracts/CasaDeSubastas.sol\":4240:4280  retirosPendientes[idSubasta][msg.sender] */\n      0x00\n        /* \"contracts/CasaDeSubastas.sol\":4269:4279  msg.sender */\n      caller\n        /* \"contracts/CasaDeSubastas.sol\":4240:4280  retirosPendientes[idSubasta][msg.sender] */\n      0xffffffffffffffffffffffffffffffffffffffff\n      and\n      0xffffffffffffffffffffffffffffffffffffffff\n      and\n      dup2\n      mstore\n      0x20\n      add\n      swap1\n      dup2\n      mstore\n      0x20\n      add\n      0x00\n      keccak256\n      sload\n        /* \"contracts/CasaDeSubastas.sol\":4224:4280  uint256 monto = retirosPendientes[idSubasta][msg.sender] */\n      swap1\n      pop\n        /* \"contracts/CasaDeSubastas.sol\":4306:4307  0 */\n      0x00\n        /* \"contracts/CasaDeSubastas.sol\":4298:4303  monto */\n      dup2\n        /* \"contracts/CasaDeSubastas.sol\":4298:4307  monto > 0 */\n      gt\n        /* \"contracts/CasaDeSubastas.sol\":4290:4342  require(monto > 0, \"No tienes fondos para retirar.\") */\n      tag_148\n      jumpi\n      mload(0x40)\n      0x08c379a000000000000000000000000000000000000000000000000000000000\n      dup2\n      mstore\n      0x04\n      add\n      tag_149\n      swap1\n      tag_150\n      jump\t// in\n    tag_149:\n      mload(0x40)\n      dup1\n      swap2\n      sub\n      swap1\n      revert\n    tag_148:\n        /* \"contracts/CasaDeSubastas.sol\":4396:4397  0 */\n      0x00\n        /* \"contracts/CasaDeSubastas.sol\":4353:4370  retirosPendientes */\n      0x03\n        /* \"contracts/CasaDeSubastas.sol\":4353:4381  retirosPendientes[idSubasta] */\n      0x00\n        /* \"contracts/CasaDeSubastas.sol\":4371:4380  idSubasta */\n      dup6\n        /* \"contracts/CasaDeSubastas.sol\":4353:4381  retirosPendientes[idSubasta] */\n      dup2\n      mstore\n      0x20\n      add\n      swap1\n      dup2\n      mstore\n      0x20\n      add\n      0x00\n      keccak256\n        /* \"contracts/CasaDeSubastas.sol\":4353:4393  retirosPendientes[idSubasta][msg.sender] */\n      0x00\n        /* \"contracts/CasaDeSubastas.sol\":4382:4392  msg.sender */\n      caller\n        /* \"contracts/CasaDeSubastas.sol\":4353:4393  retirosPendientes[idSubasta][msg.sender] */\n      0xffffffffffffffffffffffffffffffffffffffff\n      and\n      0xffffffffffffffffffffffffffffffffffffffff\n      and\n      dup2\n      mstore\n      0x20\n      add\n      swap1\n      dup2\n      mstore\n      0x20\n      add\n      0x00\n      keccak256\n        /* \"contracts/CasaDeSubastas.sol\":4353:4397  retirosPendientes[idSubasta][msg.sender] = 0 */\n      dup2\n      swap1\n      sstore\n      pop\n        /* \"contracts/CasaDeSubastas.sol\":4409:4416  bool ok */\n      0x00\n        /* \"contracts/CasaDeSubastas.sol\":4430:4440  msg.sender */\n      caller\n        /* \"contracts/CasaDeSubastas.sol\":4422:4446  payable(msg.sender).call */\n      0xffffffffffffffffffffffffffffffffffffffff\n      and\n        /* \"contracts/CasaDeSubastas.sol\":4454:4459  monto */\n      dup3\n        /* \"contracts/CasaDeSubastas.sol\":4422:4464  payable(msg.sender).call{value: monto}(\"\") */\n      mload(0x40)\n      tag_151\n      swap1\n      tag_83\n      jump\t// in\n    tag_151:\n      0x00\n      mload(0x40)\n      dup1\n      dup4\n      sub\n      dup2\n      dup6\n      dup8\n      gas\n      call\n      swap3\n      pop\n      pop\n      pop\n      returndatasize\n      dup1\n      0x00\n      dup2\n      eq\n      tag_154\n      jumpi\n      mload(0x40)\n      swap2\n      pop\n      and(add(returndatasize, 0x3f), not(0x1f))\n      dup3\n      add\n      0x40\n      mstore\n      returndatasize\n      dup3\n      mstore\n      returndatasize\n      0x00\n      0x20\n      dup5\n      add\n      returndatacopy\n      jump(tag_153)\n    tag_154:\n      0x60\n      swap2\n      pop\n    tag_153:\n      pop\n        /* \"contracts/CasaDeSubastas.sol\":4408:4464  (bool ok, ) = payable(msg.sender).call{value: monto}(\"\") */\n      pop\n      swap1\n      pop\n        /* \"contracts/CasaDeSubastas.sol\":4482:4484  ok */\n      dup1\n        /* \"contracts/CasaDeSubastas.sol\":4474:4511  require(ok, \"Transferencia fallida.\") */\n      tag_155\n      jumpi\n      mload(0x40)\n      0x08c379a000000000000000000000000000000000000000000000000000000000\n      dup2\n      mstore\n      0x04\n      add\n      tag_156\n      swap1\n      tag_89\n      jump\t// in\n    tag_156:\n      mload(0x40)\n      dup1\n      swap2\n      sub\n      swap1\n      revert\n    tag_155:\n        /* \"contracts/CasaDeSubastas.sol\":4214:4518  {... */\n      pop\n      pop\n        /* \"contracts/CasaDeSubastas.sol\":4140:4518  function retirarFondos(uint256 idSubasta) public subastaExiste(idSubasta) {... */\n      pop\n      pop\n      jump\t// out\n        /* \"contracts/CasaDeSubastas.sol\":4552:5161  function eliminarSubasta(uint256 idSubasta) public subastaExiste(idSubasta) {... */\n    tag_56:\n        /* \"contracts/CasaDeSubastas.sol\":4617:4626  idSubasta */\n      dup1\n        /* \"contracts/CasaDeSubastas.sol\":959:960  0 */\n      0x00\n        /* \"contracts/CasaDeSubastas.sol\":916:961  lst_subastas[idSubasta].creador != address(0) */\n      0xffffffffffffffffffffffffffffffffffffffff\n      and\n        /* \"contracts/CasaDeSubastas.sol\":916:928  lst_subastas */\n      0x02\n        /* \"contracts/CasaDeSubastas.sol\":916:939  lst_subastas[idSubasta] */\n      0x00\n        /* \"contracts/CasaDeSubastas.sol\":929:938  idSubasta */\n      dup4\n        /* \"contracts/CasaDeSubastas.sol\":916:939  lst_subastas[idSubasta] */\n      dup2\n      mstore\n      0x20\n      add\n      swap1\n      dup2\n      mstore\n      0x20\n      add\n      0x00\n      keccak256\n        /* \"contracts/CasaDeSubastas.sol\":916:947  lst_subastas[idSubasta].creador */\n      0x02\n      add\n      0x00\n      swap1\n      sload\n      swap1\n      0x0100\n      exp\n      swap1\n      div\n      0xffffffffffffffffffffffffffffffffffffffff\n      and\n        /* \"contracts/CasaDeSubastas.sol\":916:961  lst_subastas[idSubasta].creador != address(0) */\n      0xffffffffffffffffffffffffffffffffffffffff\n      and\n      sub\n        /* \"contracts/CasaDeSubastas.sol\":908:987  require(lst_subastas[idSubasta].creador != address(0), \"La subasta no existe.\") */\n      tag_158\n      jumpi\n      mload(0x40)\n      0x08c379a000000000000000000000000000000000000000000000000000000000\n      dup2\n      mstore\n      0x04\n      add\n      tag_159\n      swap1\n      tag_97\n      jump\t// in\n    tag_159:\n      mload(0x40)\n      dup1\n      swap2\n      sub\n      swap1\n      revert\n    tag_158:\n        /* \"contracts/CasaDeSubastas.sol\":4638:4661  Subasta storage subasta */\n      0x00\n        /* \"contracts/CasaDeSubastas.sol\":4664:4676  lst_subastas */\n      0x02\n        /* \"contracts/CasaDeSubastas.sol\":4664:4687  lst_subastas[idSubasta] */\n      0x00\n        /* \"contracts/CasaDeSubastas.sol\":4677:4686  idSubasta */\n      dup5\n        /* \"contracts/CasaDeSubastas.sol\":4664:4687  lst_subastas[idSubasta] */\n      dup2\n      mstore\n      0x20\n      add\n      swap1\n      dup2\n      mstore\n      0x20\n      add\n      0x00\n      keccak256\n        /* \"contracts/CasaDeSubastas.sol\":4638:4687  Subasta storage subasta = lst_subastas[idSubasta] */\n      swap1\n      pop\n        /* \"contracts/CasaDeSubastas.sol\":4733:4740  subasta */\n      dup1\n        /* \"contracts/CasaDeSubastas.sol\":4733:4748  subasta.creador */\n      0x02\n      add\n      0x00\n      swap1\n      sload\n      swap1\n      0x0100\n      exp\n      swap1\n      div\n      0xffffffffffffffffffffffffffffffffffffffff\n      and\n        /* \"contracts/CasaDeSubastas.sol\":4719:4748  msg.sender == subasta.creador */\n      0xffffffffffffffffffffffffffffffffffffffff\n      and\n        /* \"contracts/CasaDeSubastas.sol\":4719:4729  msg.sender */\n      caller\n        /* \"contracts/CasaDeSubastas.sol\":4719:4748  msg.sender == subasta.creador */\n      0xffffffffffffffffffffffffffffffffffffffff\n      and\n      eq\n        /* \"contracts/CasaDeSubastas.sol\":4719:4777  msg.sender == subasta.creador || msg.sender == propietario */\n      dup1\n      tag_161\n      jumpi\n      pop\n        /* \"contracts/CasaDeSubastas.sol\":4766:4777  propietario */\n      0x00\n      0x00\n      swap1\n      sload\n      swap1\n      0x0100\n      exp\n      swap1\n      div\n      0xffffffffffffffffffffffffffffffffffffffff\n      and\n        /* \"contracts/CasaDeSubastas.sol\":4752:4777  msg.sender == propietario */\n      0xffffffffffffffffffffffffffffffffffffffff\n      and\n        /* \"contracts/CasaDeSubastas.sol\":4752:4762  msg.sender */\n      caller\n        /* \"contracts/CasaDeSubastas.sol\":4752:4777  msg.sender == propietario */\n      0xffffffffffffffffffffffffffffffffffffffff\n      and\n      eq\n        /* \"contracts/CasaDeSubastas.sol\":4719:4777  msg.sender == subasta.creador || msg.sender == propietario */\n    tag_161:\n        /* \"contracts/CasaDeSubastas.sol\":4698:4863  require(... */\n      tag_162\n      jumpi\n      mload(0x40)\n      0x08c379a000000000000000000000000000000000000000000000000000000000\n      dup2\n      mstore\n      0x04\n      add\n      tag_163\n      swap1\n      tag_164\n      jump\t// in\n    tag_163:\n      mload(0x40)\n      dup1\n      swap2\n      sub\n      swap1\n      revert\n    tag_162:\n        /* \"contracts/CasaDeSubastas.sol\":4882:4889  subasta */\n      dup1\n        /* \"contracts/CasaDeSubastas.sol\":4882:4900  subasta.finalizada */\n      0x06\n      add\n      0x14\n      swap1\n      sload\n      swap1\n      0x0100\n      exp\n      swap1\n      div\n      0xff\n      and\n        /* \"contracts/CasaDeSubastas.sol\":4881:4900  !subasta.finalizada */\n      iszero\n        /* \"contracts/CasaDeSubastas.sol\":4873:4949  require(!subasta.finalizada, \"No se puede eliminar una subasta finalizada.\") */\n      tag_165\n      jumpi\n      mload(0x40)\n      0x08c379a000000000000000000000000000000000000000000000000000000000\n      dup2\n      mstore\n      0x04\n      add\n      tag_166\n      swap1\n      tag_167\n      jump\t// in\n    tag_166:\n      mload(0x40)\n      dup1\n      swap2\n      sub\n      swap1\n      revert\n    tag_165:\n        /* \"contracts/CasaDeSubastas.sol\":4968:4975  subasta */\n      dup1\n        /* \"contracts/CasaDeSubastas.sol\":4968:4985  subasta.eliminada */\n      0x06\n      add\n      0x15\n      swap1\n      sload\n      swap1\n      0x0100\n      exp\n      swap1\n      div\n      0xff\n      and\n        /* \"contracts/CasaDeSubastas.sol\":4967:4985  !subasta.eliminada */\n      iszero\n        /* \"contracts/CasaDeSubastas.sol\":4959:5018  require(!subasta.eliminada, \"La subasta ya fue eliminada.\") */\n      tag_168\n      jumpi\n      mload(0x40)\n      0x08c379a000000000000000000000000000000000000000000000000000000000\n      dup2\n      mstore\n      0x04\n      add\n      tag_169\n      swap1\n      tag_170\n      jump\t// in\n    tag_169:\n      mload(0x40)\n      dup1\n      swap2\n      sub\n      swap1\n      revert\n    tag_168:\n        /* \"contracts/CasaDeSubastas.sol\":5060:5061  0 */\n      0x00\n        /* \"contracts/CasaDeSubastas.sol\":5036:5043  subasta */\n      dup2\n        /* \"contracts/CasaDeSubastas.sol\":5036:5056  subasta.ofertaMaxima */\n      0x05\n      add\n      sload\n        /* \"contracts/CasaDeSubastas.sol\":5036:5061  subasta.ofertaMaxima == 0 */\n      eq\n        /* \"contracts/CasaDeSubastas.sol\":5028:5119  require(subasta.ofertaMaxima == 0, \"No se puede eliminar una subasta con ofertas activas.\") */\n      tag_171\n      jumpi\n      mload(0x40)\n      0x08c379a000000000000000000000000000000000000000000000000000000000\n      dup2\n      mstore\n      0x04\n      add\n      tag_172\n      swap1\n      tag_173\n      jump\t// in\n    tag_172:\n      mload(0x40)\n      dup1\n      swap2\n      sub\n      swap1\n      revert\n    tag_171:\n        /* \"contracts/CasaDeSubastas.sol\":5150:5154  true */\n      0x01\n        /* \"contracts/CasaDeSubastas.sol\":5130:5137  subasta */\n      dup2\n        /* \"contracts/CasaDeSubastas.sol\":5130:5147  subasta.eliminada */\n      0x06\n      add\n      0x15\n        /* \"contracts/CasaDeSubastas.sol\":5130:5154  subasta.eliminada = true */\n      0x0100\n      exp\n      dup2\n      sload\n      dup2\n      0xff\n      mul\n      not\n      and\n      swap1\n      dup4\n      iszero\n      iszero\n      mul\n      or\n      swap1\n      sstore\n      pop\n        /* \"contracts/CasaDeSubastas.sol\":4628:5161  {... */\n      pop\n        /* \"contracts/CasaDeSubastas.sol\":4552:5161  function eliminarSubasta(uint256 idSubasta) public subastaExiste(idSubasta) {... */\n      pop\n      pop\n      jump\t// out\n        /* \"contracts/CasaDeSubastas.sol\":6106:6321  function cambiarPropietario(address nuevoPropietario) public soloPropietario {... */\n    tag_61:\n        /* \"contracts/CasaDeSubastas.sol\":793:804  propietario */\n      0x00\n      0x00\n      swap1\n      sload\n      swap1\n      0x0100\n      exp\n      swap1\n      div\n      0xffffffffffffffffffffffffffffffffffffffff\n      and\n        /* \"contracts/CasaDeSubastas.sol\":779:804  msg.sender == propietario */\n      0xffffffffffffffffffffffffffffffffffffffff\n      and\n        /* \"contracts/CasaDeSubastas.sol\":779:789  msg.sender */\n      caller\n        /* \"contracts/CasaDeSubastas.sol\":779:804  msg.sender == propietario */\n      0xffffffffffffffffffffffffffffffffffffffff\n      and\n      eq\n        /* \"contracts/CasaDeSubastas.sol\":771:832  require(msg.sender == propietario, \"No eres el propietario.\") */\n      tag_175\n      jumpi\n      mload(0x40)\n      0x08c379a000000000000000000000000000000000000000000000000000000000\n      dup2\n      mstore\n      0x04\n      add\n      tag_176\n      swap1\n      tag_177\n      jump\t// in\n    tag_176:\n      mload(0x40)\n      dup1\n      swap2\n      sub\n      swap1\n      revert\n    tag_175:\n        /* \"contracts/CasaDeSubastas.sol\":6229:6230  0 */\n      0x00\n        /* \"contracts/CasaDeSubastas.sol\":6201:6231  nuevoPropietario != address(0) */\n      0xffffffffffffffffffffffffffffffffffffffff\n      and\n        /* \"contracts/CasaDeSubastas.sol\":6201:6217  nuevoPropietario */\n      dup2\n        /* \"contracts/CasaDeSubastas.sol\":6201:6231  nuevoPropietario != address(0) */\n      0xffffffffffffffffffffffffffffffffffffffff\n      and\n      sub\n        /* \"contracts/CasaDeSubastas.sol\":6193:6274  require(nuevoPropietario != address(0), \"La nueva direccion no puede ser vacia.\") */\n      tag_179\n      jumpi\n      mload(0x40)\n      0x08c379a000000000000000000000000000000000000000000000000000000000\n      dup2\n      mstore\n      0x04\n      add\n      tag_180\n      swap1\n      tag_181\n      jump\t// in\n    tag_180:\n      mload(0x40)\n      dup1\n      swap2\n      sub\n      swap1\n      revert\n    tag_179:\n        /* \"contracts/CasaDeSubastas.sol\":6298:6314  nuevoPropietario */\n      dup1\n        /* \"contracts/CasaDeSubastas.sol\":6284:6295  propietario */\n      0x00\n      0x00\n        /* \"contracts/CasaDeSubastas.sol\":6284:6314  propietario = nuevoPropietario */\n      0x0100\n      exp\n      dup2\n      sload\n      dup2\n      0xffffffffffffffffffffffffffffffffffffffff\n      mul\n      not\n      and\n      swap1\n      dup4\n      0xffffffffffffffffffffffffffffffffffffffff\n      and\n      mul\n      or\n      swap1\n      sstore\n      pop\n        /* \"contracts/CasaDeSubastas.sol\":6106:6321  function cambiarPropietario(address nuevoPropietario) public soloPropietario {... */\n      pop\n      jump\t// out\n        /* \"contracts/CasaDeSubastas.sol\":227:274  mapping(uint256 => Subasta) public lst_subastas */\n    tag_65:\n      mstore(0x20, 0x02)\n      dup1\n      0x00\n      mstore\n      keccak256(0x00, 0x40)\n      0x00\n      swap2\n      pop\n      swap1\n      pop\n      dup1\n      0x00\n      add\n      sload\n      swap1\n      dup1\n      0x01\n      add\n      sload\n      swap1\n      dup1\n      0x02\n      add\n      0x00\n      swap1\n      sload\n      swap1\n      0x0100\n      exp\n      swap1\n      div\n      0xffffffffffffffffffffffffffffffffffffffff\n      and\n      swap1\n      dup1\n      0x03\n      add\n      sload\n      swap1\n      dup1\n      0x04\n      add\n      sload\n      swap1\n      dup1\n      0x05\n      add\n      sload\n      swap1\n      dup1\n      0x06\n      add\n      0x00\n      swap1\n      sload\n      swap1\n      0x0100\n      exp\n      swap1\n      div\n      0xffffffffffffffffffffffffffffffffffffffff\n      and\n      swap1\n      dup1\n      0x06\n      add\n      0x14\n      swap1\n      sload\n      swap1\n      0x0100\n      exp\n      swap1\n      div\n      0xff\n      and\n      swap1\n      dup1\n      0x06\n      add\n      0x15\n      swap1\n      sload\n      swap1\n      0x0100\n      exp\n      swap1\n      div\n      0xff\n      and\n      swap1\n      pop\n      dup10\n      jump\t// out\n        /* \"contracts/CasaDeSubastas.sol\":5206:6057  function modificarSubasta(uint256 idSubasta, uint256 nuevaFechaCierre, uint256 nuevoIdItem)... */\n    tag_71:\n        /* \"contracts/CasaDeSubastas.sol\":5327:5336  idSubasta */\n      dup3\n        /* \"contracts/CasaDeSubastas.sol\":959:960  0 */\n      0x00\n        /* \"contracts/CasaDeSubastas.sol\":916:961  lst_subastas[idSubasta].creador != address(0) */\n      0xffffffffffffffffffffffffffffffffffffffff\n      and\n        /* \"contracts/CasaDeSubastas.sol\":916:928  lst_subastas */\n      0x02\n        /* \"contracts/CasaDeSubastas.sol\":916:939  lst_subastas[idSubasta] */\n      0x00\n        /* \"contracts/CasaDeSubastas.sol\":929:938  idSubasta */\n      dup4\n        /* \"contracts/CasaDeSubastas.sol\":916:939  lst_subastas[idSubasta] */\n      dup2\n      mstore\n      0x20\n      add\n      swap1\n      dup2\n      mstore\n      0x20\n      add\n      0x00\n      keccak256\n        /* \"contracts/CasaDeSubastas.sol\":916:947  lst_subastas[idSubasta].creador */\n      0x02\n      add\n      0x00\n      swap1\n      sload\n      swap1\n      0x0100\n      exp\n      swap1\n      div\n      0xffffffffffffffffffffffffffffffffffffffff\n      and\n        /* \"contracts/CasaDeSubastas.sol\":916:961  lst_subastas[idSubasta].creador != address(0) */\n      0xffffffffffffffffffffffffffffffffffffffff\n      and\n      sub\n        /* \"contracts/CasaDeSubastas.sol\":908:987  require(lst_subastas[idSubasta].creador != address(0), \"La subasta no existe.\") */\n      tag_183\n      jumpi\n      mload(0x40)\n      0x08c379a000000000000000000000000000000000000000000000000000000000\n      dup2\n      mstore\n      0x04\n      add\n      tag_184\n      swap1\n      tag_97\n      jump\t// in\n    tag_184:\n      mload(0x40)\n      dup1\n      swap2\n      sub\n      swap1\n      revert\n    tag_183:\n        /* \"contracts/CasaDeSubastas.sol\":5348:5371  Subasta storage subasta */\n      0x00\n        /* \"contracts/CasaDeSubastas.sol\":5374:5386  lst_subastas */\n      0x02\n        /* \"contracts/CasaDeSubastas.sol\":5374:5397  lst_subastas[idSubasta] */\n      0x00\n        /* \"contracts/CasaDeSubastas.sol\":5387:5396  idSubasta */\n      dup7\n        /* \"contracts/CasaDeSubastas.sol\":5374:5397  lst_subastas[idSubasta] */\n      dup2\n      mstore\n      0x20\n      add\n      swap1\n      dup2\n      mstore\n      0x20\n      add\n      0x00\n      keccak256\n        /* \"contracts/CasaDeSubastas.sol\":5348:5397  Subasta storage subasta = lst_subastas[idSubasta] */\n      swap1\n      pop\n        /* \"contracts/CasaDeSubastas.sol\":5443:5450  subasta */\n      dup1\n        /* \"contracts/CasaDeSubastas.sol\":5443:5458  subasta.creador */\n      0x02\n      add\n      0x00\n      swap1\n      sload\n      swap1\n      0x0100\n      exp\n      swap1\n      div\n      0xffffffffffffffffffffffffffffffffffffffff\n      and\n        /* \"contracts/CasaDeSubastas.sol\":5429:5458  msg.sender == subasta.creador */\n      0xffffffffffffffffffffffffffffffffffffffff\n      and\n        /* \"contracts/CasaDeSubastas.sol\":5429:5439  msg.sender */\n      caller\n        /* \"contracts/CasaDeSubastas.sol\":5429:5458  msg.sender == subasta.creador */\n      0xffffffffffffffffffffffffffffffffffffffff\n      and\n      eq\n        /* \"contracts/CasaDeSubastas.sol\":5429:5487  msg.sender == subasta.creador || msg.sender == propietario */\n      dup1\n      tag_186\n      jumpi\n      pop\n        /* \"contracts/CasaDeSubastas.sol\":5476:5487  propietario */\n      0x00\n      0x00\n      swap1\n      sload\n      swap1\n      0x0100\n      exp\n      swap1\n      div\n      0xffffffffffffffffffffffffffffffffffffffff\n      and\n        /* \"contracts/CasaDeSubastas.sol\":5462:5487  msg.sender == propietario */\n      0xffffffffffffffffffffffffffffffffffffffff\n      and\n        /* \"contracts/CasaDeSubastas.sol\":5462:5472  msg.sender */\n      caller\n        /* \"contracts/CasaDeSubastas.sol\":5462:5487  msg.sender == propietario */\n      0xffffffffffffffffffffffffffffffffffffffff\n      and\n      eq\n        /* \"contracts/CasaDeSubastas.sol\":5429:5487  msg.sender == subasta.creador || msg.sender == propietario */\n    tag_186:\n        /* \"contracts/CasaDeSubastas.sol\":5408:5574  require(... */\n      tag_187\n      jumpi\n      mload(0x40)\n      0x08c379a000000000000000000000000000000000000000000000000000000000\n      dup2\n      mstore\n      0x04\n      add\n      tag_188\n      swap1\n      tag_189\n      jump\t// in\n    tag_188:\n      mload(0x40)\n      dup1\n      swap2\n      sub\n      swap1\n      revert\n    tag_187:\n        /* \"contracts/CasaDeSubastas.sol\":5593:5600  subasta */\n      dup1\n        /* \"contracts/CasaDeSubastas.sol\":5593:5611  subasta.finalizada */\n      0x06\n      add\n      0x14\n      swap1\n      sload\n      swap1\n      0x0100\n      exp\n      swap1\n      div\n      0xff\n      and\n        /* \"contracts/CasaDeSubastas.sol\":5592:5611  !subasta.finalizada */\n      iszero\n        /* \"contracts/CasaDeSubastas.sol\":5584:5661  require(!subasta.finalizada, \"No se puede modificar una subasta finalizada.\") */\n      tag_190\n      jumpi\n      mload(0x40)\n      0x08c379a000000000000000000000000000000000000000000000000000000000\n      dup2\n      mstore\n      0x04\n      add\n      tag_191\n      swap1\n      tag_192\n      jump\t// in\n    tag_191:\n      mload(0x40)\n      dup1\n      swap2\n      sub\n      swap1\n      revert\n    tag_190:\n        /* \"contracts/CasaDeSubastas.sol\":5680:5687  subasta */\n      dup1\n        /* \"contracts/CasaDeSubastas.sol\":5680:5697  subasta.eliminada */\n      0x06\n      add\n      0x15\n      swap1\n      sload\n      swap1\n      0x0100\n      exp\n      swap1\n      div\n      0xff\n      and\n        /* \"contracts/CasaDeSubastas.sol\":5679:5697  !subasta.eliminada */\n      iszero\n        /* \"contracts/CasaDeSubastas.sol\":5671:5746  require(!subasta.eliminada, \"No se puede modificar una subasta eliminada.\") */\n      tag_193\n      jumpi\n      mload(0x40)\n      0x08c379a000000000000000000000000000000000000000000000000000000000\n      dup2\n      mstore\n      0x04\n      add\n      tag_194\n      swap1\n      tag_195\n      jump\t// in\n    tag_194:\n      mload(0x40)\n      dup1\n      swap2\n      sub\n      swap1\n      revert\n    tag_193:\n        /* \"contracts/CasaDeSubastas.sol\":5788:5789  0 */\n      0x00\n        /* \"contracts/CasaDeSubastas.sol\":5764:5771  subasta */\n      dup2\n        /* \"contracts/CasaDeSubastas.sol\":5764:5784  subasta.ofertaMaxima */\n      0x05\n      add\n      sload\n        /* \"contracts/CasaDeSubastas.sol\":5764:5789  subasta.ofertaMaxima == 0 */\n      eq\n        /* \"contracts/CasaDeSubastas.sol\":5756:5848  require(subasta.ofertaMaxima == 0, \"No se puede modificar una subasta con ofertas activas.\") */\n      tag_196\n      jumpi\n      mload(0x40)\n      0x08c379a000000000000000000000000000000000000000000000000000000000\n      dup2\n      mstore\n      0x04\n      add\n      tag_197\n      swap1\n      tag_198\n      jump\t// in\n    tag_197:\n      mload(0x40)\n      dup1\n      swap2\n      sub\n      swap1\n      revert\n    tag_196:\n        /* \"contracts/CasaDeSubastas.sol\":5885:5900  block.timestamp */\n      timestamp\n        /* \"contracts/CasaDeSubastas.sol\":5866:5882  nuevaFechaCierre */\n      dup5\n        /* \"contracts/CasaDeSubastas.sol\":5866:5900  nuevaFechaCierre > block.timestamp */\n      gt\n        /* \"contracts/CasaDeSubastas.sol\":5858:5963  require(nuevaFechaCierre > block.timestamp, \"La nueva fecha de cierre debe ser mayor a la fecha actual.\") */\n      tag_199\n      jumpi\n      mload(0x40)\n      0x08c379a000000000000000000000000000000000000000000000000000000000\n      dup2\n      mstore\n      0x04\n      add\n      tag_200\n      swap1\n      tag_201\n      jump\t// in\n    tag_200:\n      mload(0x40)\n      dup1\n      swap2\n      sub\n      swap1\n      revert\n    tag_199:\n        /* \"contracts/CasaDeSubastas.sol\":5996:6012  nuevaFechaCierre */\n      dup4\n        /* \"contracts/CasaDeSubastas.sol\":5974:5981  subasta */\n      dup2\n        /* \"contracts/CasaDeSubastas.sol\":5974:5993  subasta.fechaCierre */\n      0x04\n      add\n        /* \"contracts/CasaDeSubastas.sol\":5974:6012  subasta.fechaCierre = nuevaFechaCierre */\n      dup2\n      swap1\n      sstore\n      pop\n        /* \"contracts/CasaDeSubastas.sol\":6039:6050  nuevoIdItem */\n      dup3\n        /* \"contracts/CasaDeSubastas.sol\":6022:6029  subasta */\n      dup2\n        /* \"contracts/CasaDeSubastas.sol\":6022:6036  subasta.idItem */\n      0x01\n      add\n        /* \"contracts/CasaDeSubastas.sol\":6022:6050  subasta.idItem = nuevoIdItem */\n      dup2\n      swap1\n      sstore\n      pop\n        /* \"contracts/CasaDeSubastas.sol\":5338:6057  {... */\n      pop\n        /* \"contracts/CasaDeSubastas.sol\":5206:6057  function modificarSubasta(uint256 idSubasta, uint256 nuevaFechaCierre, uint256 nuevoIdItem)... */\n      pop\n      pop\n      pop\n      pop\n      jump\t// out\n    tag_93:\n      mload(0x40)\n      dup1\n      0x0120\n      add\n      0x40\n      mstore\n      dup1\n      0x00\n      dup2\n      mstore\n      0x20\n      add\n      0x00\n      dup2\n      mstore\n      0x20\n      add\n      and(0xffffffffffffffffffffffffffffffffffffffff, 0x00)\n      dup2\n      mstore\n      0x20\n      add\n      0x00\n      dup2\n      mstore\n      0x20\n      add\n      0x00\n      dup2\n      mstore\n      0x20\n      add\n      0x00\n      dup2\n      mstore\n      0x20\n      add\n      and(0xffffffffffffffffffffffffffffffffffffffff, 0x00)\n      dup2\n      mstore\n      0x20\n      add\n      iszero(iszero(0x00))\n      dup2\n      mstore\n      0x20\n      add\n      iszero(iszero(0x00))\n      dup2\n      mstore\n      pop\n      swap1\n      jump\t// out\n        /* \"#utility.yul\":88:205   */\n    tag_203:\n        /* \"#utility.yul\":197:198   */\n      0x00\n        /* \"#utility.yul\":194:195   */\n      0x00\n        /* \"#utility.yul\":187:199   */\n      revert\n        /* \"#utility.yul\":334:411   */\n    tag_205:\n        /* \"#utility.yul\":371:378   */\n      0x00\n        /* \"#utility.yul\":400:405   */\n      dup2\n        /* \"#utility.yul\":389:405   */\n      swap1\n      pop\n        /* \"#utility.yul\":334:411   */\n      swap2\n      swap1\n      pop\n      jump\t// out\n        /* \"#utility.yul\":417:539   */\n    tag_206:\n        /* \"#utility.yul\":490:514   */\n      tag_279\n        /* \"#utility.yul\":508:513   */\n      dup2\n        /* \"#utility.yul\":490:514   */\n      tag_205\n      jump\t// in\n    tag_279:\n        /* \"#utility.yul\":483:488   */\n      dup2\n        /* \"#utility.yul\":480:515   */\n      eq\n        /* \"#utility.yul\":470:533   */\n      tag_280\n      jumpi\n        /* \"#utility.yul\":529:530   */\n      0x00\n        /* \"#utility.yul\":526:527   */\n      0x00\n        /* \"#utility.yul\":519:531   */\n      revert\n        /* \"#utility.yul\":470:533   */\n    tag_280:\n        /* \"#utility.yul\":417:539   */\n      pop\n      jump\t// out\n        /* \"#utility.yul\":545:684   */\n    tag_207:\n        /* \"#utility.yul\":591:596   */\n      0x00\n        /* \"#utility.yul\":629:635   */\n      dup2\n        /* \"#utility.yul\":616:636   */\n      calldataload\n        /* \"#utility.yul\":607:636   */\n      swap1\n      pop\n        /* \"#utility.yul\":645:678   */\n      tag_282\n        /* \"#utility.yul\":672:677   */\n      dup2\n        /* \"#utility.yul\":645:678   */\n      tag_206\n      jump\t// in\n    tag_282:\n        /* \"#utility.yul\":545:684   */\n      swap3\n      swap2\n      pop\n      pop\n      jump\t// out\n        /* \"#utility.yul\":690:816   */\n    tag_208:\n        /* \"#utility.yul\":727:734   */\n      0x00\n        /* \"#utility.yul\":767:809   */\n      0xffffffffffffffffffffffffffffffffffffffff\n        /* \"#utility.yul\":760:765   */\n      dup3\n        /* \"#utility.yul\":756:810   */\n      and\n        /* \"#utility.yul\":745:810   */\n      swap1\n      pop\n        /* \"#utility.yul\":690:816   */\n      swap2\n      swap1\n      pop\n      jump\t// out\n        /* \"#utility.yul\":822:918   */\n    tag_209:\n        /* \"#utility.yul\":859:866   */\n      0x00\n        /* \"#utility.yul\":888:912   */\n      tag_285\n        /* \"#utility.yul\":906:911   */\n      dup3\n        /* \"#utility.yul\":888:912   */\n      tag_208\n      jump\t// in\n    tag_285:\n        /* \"#utility.yul\":877:912   */\n      swap1\n      pop\n        /* \"#utility.yul\":822:918   */\n      swap2\n      swap1\n      pop\n      jump\t// out\n        /* \"#utility.yul\":924:1046   */\n    tag_210:\n        /* \"#utility.yul\":997:1021   */\n      tag_287\n        /* \"#utility.yul\":1015:1020   */\n      dup2\n        /* \"#utility.yul\":997:1021   */\n      tag_209\n      jump\t// in\n    tag_287:\n        /* \"#utility.yul\":990:995   */\n      dup2\n        /* \"#utility.yul\":987:1022   */\n      eq\n        /* \"#utility.yul\":977:1040   */\n      tag_288\n      jumpi\n        /* \"#utility.yul\":1036:1037   */\n      0x00\n        /* \"#utility.yul\":1033:1034   */\n      0x00\n        /* \"#utility.yul\":1026:1038   */\n      revert\n        /* \"#utility.yul\":977:1040   */\n    tag_288:\n        /* \"#utility.yul\":924:1046   */\n      pop\n      jump\t// out\n        /* \"#utility.yul\":1052:1191   */\n    tag_211:\n        /* \"#utility.yul\":1098:1103   */\n      0x00\n        /* \"#utility.yul\":1136:1142   */\n      dup2\n        /* \"#utility.yul\":1123:1143   */\n      calldataload\n        /* \"#utility.yul\":1114:1143   */\n      swap1\n      pop\n        /* \"#utility.yul\":1152:1185   */\n      tag_290\n        /* \"#utility.yul\":1179:1184   */\n      dup2\n        /* \"#utility.yul\":1152:1185   */\n      tag_210\n      jump\t// in\n    tag_290:\n        /* \"#utility.yul\":1052:1191   */\n      swap3\n      swap2\n      pop\n      pop\n      jump\t// out\n        /* \"#utility.yul\":1197:1671   */\n    tag_18:\n        /* \"#utility.yul\":1265:1271   */\n      0x00\n        /* \"#utility.yul\":1273:1279   */\n      0x00\n        /* \"#utility.yul\":1322:1324   */\n      0x40\n        /* \"#utility.yul\":1310:1319   */\n      dup4\n        /* \"#utility.yul\":1301:1308   */\n      dup6\n        /* \"#utility.yul\":1297:1320   */\n      sub\n        /* \"#utility.yul\":1293:1325   */\n      slt\n        /* \"#utility.yul\":1290:1409   */\n      iszero\n      tag_292\n      jumpi\n        /* \"#utility.yul\":1328:1407   */\n      tag_293\n      tag_203\n      jump\t// in\n    tag_293:\n        /* \"#utility.yul\":1290:1409   */\n    tag_292:\n        /* \"#utility.yul\":1448:1449   */\n      0x00\n        /* \"#utility.yul\":1473:1526   */\n      tag_294\n        /* \"#utility.yul\":1518:1525   */\n      dup6\n        /* \"#utility.yul\":1509:1515   */\n      dup3\n        /* \"#utility.yul\":1498:1507   */\n      dup7\n        /* \"#utility.yul\":1494:1516   */\n      add\n        /* \"#utility.yul\":1473:1526   */\n      tag_207\n      jump\t// in\n    tag_294:\n        /* \"#utility.yul\":1463:1526   */\n      swap3\n      pop\n        /* \"#utility.yul\":1419:1536   */\n      pop\n        /* \"#utility.yul\":1575:1577   */\n      0x20\n        /* \"#utility.yul\":1601:1654   */\n      tag_295\n        /* \"#utility.yul\":1646:1653   */\n      dup6\n        /* \"#utility.yul\":1637:1643   */\n      dup3\n        /* \"#utility.yul\":1626:1635   */\n      dup7\n        /* \"#utility.yul\":1622:1644   */\n      add\n        /* \"#utility.yul\":1601:1654   */\n      tag_211\n      jump\t// in\n    tag_295:\n        /* \"#utility.yul\":1591:1654   */\n      swap2\n      pop\n        /* \"#utility.yul\":1546:1664   */\n      pop\n        /* \"#utility.yul\":1197:1671   */\n      swap3\n      pop\n      swap3\n      swap1\n      pop\n      jump\t// out\n        /* \"#utility.yul\":1677:1795   */\n    tag_212:\n        /* \"#utility.yul\":1764:1788   */\n      tag_297\n        /* \"#utility.yul\":1782:1787   */\n      dup2\n        /* \"#utility.yul\":1764:1788   */\n      tag_205\n      jump\t// in\n    tag_297:\n        /* \"#utility.yul\":1759:1762   */\n      dup3\n        /* \"#utility.yul\":1752:1789   */\n      mstore\n        /* \"#utility.yul\":1677:1795   */\n      pop\n      pop\n      jump\t// out\n        /* \"#utility.yul\":1801:2023   */\n    tag_21:\n        /* \"#utility.yul\":1894:1898   */\n      0x00\n        /* \"#utility.yul\":1932:1934   */\n      0x20\n        /* \"#utility.yul\":1921:1930   */\n      dup3\n        /* \"#utility.yul\":1917:1935   */\n      add\n        /* \"#utility.yul\":1909:1935   */\n      swap1\n      pop\n        /* \"#utility.yul\":1945:2016   */\n      tag_299\n        /* \"#utility.yul\":2013:2014   */\n      0x00\n        /* \"#utility.yul\":2002:2011   */\n      dup4\n        /* \"#utility.yul\":1998:2015   */\n      add\n        /* \"#utility.yul\":1989:1995   */\n      dup5\n        /* \"#utility.yul\":1945:2016   */\n      tag_212\n      jump\t// in\n    tag_299:\n        /* \"#utility.yul\":1801:2023   */\n      swap3\n      swap2\n      pop\n      pop\n      jump\t// out\n        /* \"#utility.yul\":2029:2147   */\n    tag_213:\n        /* \"#utility.yul\":2116:2140   */\n      tag_301\n        /* \"#utility.yul\":2134:2139   */\n      dup2\n        /* \"#utility.yul\":2116:2140   */\n      tag_209\n      jump\t// in\n    tag_301:\n        /* \"#utility.yul\":2111:2114   */\n      dup3\n        /* \"#utility.yul\":2104:2141   */\n      mstore\n        /* \"#utility.yul\":2029:2147   */\n      pop\n      pop\n      jump\t// out\n        /* \"#utility.yul\":2153:2375   */\n    tag_30:\n        /* \"#utility.yul\":2246:2250   */\n      0x00\n        /* \"#utility.yul\":2284:2286   */\n      0x20\n        /* \"#utility.yul\":2273:2282   */\n      dup3\n        /* \"#utility.yul\":2269:2287   */\n      add\n        /* \"#utility.yul\":2261:2287   */\n      swap1\n      pop\n        /* \"#utility.yul\":2297:2368   */\n      tag_303\n        /* \"#utility.yul\":2365:2366   */\n      0x00\n        /* \"#utility.yul\":2354:2363   */\n      dup4\n        /* \"#utility.yul\":2350:2367   */\n      add\n        /* \"#utility.yul\":2341:2347   */\n      dup5\n        /* \"#utility.yul\":2297:2368   */\n      tag_213\n      jump\t// in\n    tag_303:\n        /* \"#utility.yul\":2153:2375   */\n      swap3\n      swap2\n      pop\n      pop\n      jump\t// out\n        /* \"#utility.yul\":2381:3000   */\n    tag_33:\n        /* \"#utility.yul\":2458:2464   */\n      0x00\n        /* \"#utility.yul\":2466:2472   */\n      0x00\n        /* \"#utility.yul\":2474:2480   */\n      0x00\n        /* \"#utility.yul\":2523:2525   */\n      0x60\n        /* \"#utility.yul\":2511:2520   */\n      dup5\n        /* \"#utility.yul\":2502:2509   */\n      dup7\n        /* \"#utility.yul\":2498:2521   */\n      sub\n        /* \"#utility.yul\":2494:2526   */\n      slt\n        /* \"#utility.yul\":2491:2610   */\n      iszero\n      tag_305\n      jumpi\n        /* \"#utility.yul\":2529:2608   */\n      tag_306\n      tag_203\n      jump\t// in\n    tag_306:\n        /* \"#utility.yul\":2491:2610   */\n    tag_305:\n        /* \"#utility.yul\":2649:2650   */\n      0x00\n        /* \"#utility.yul\":2674:2727   */\n      tag_307\n        /* \"#utility.yul\":2719:2726   */\n      dup7\n        /* \"#utility.yul\":2710:2716   */\n      dup3\n        /* \"#utility.yul\":2699:2708   */\n      dup8\n        /* \"#utility.yul\":2695:2717   */\n      add\n        /* \"#utility.yul\":2674:2727   */\n      tag_207\n      jump\t// in\n    tag_307:\n        /* \"#utility.yul\":2664:2727   */\n      swap4\n      pop\n        /* \"#utility.yul\":2620:2737   */\n      pop\n        /* \"#utility.yul\":2776:2778   */\n      0x20\n        /* \"#utility.yul\":2802:2855   */\n      tag_308\n        /* \"#utility.yul\":2847:2854   */\n      dup7\n        /* \"#utility.yul\":2838:2844   */\n      dup3\n        /* \"#utility.yul\":2827:2836   */\n      dup8\n        /* \"#utility.yul\":2823:2845   */\n      add\n        /* \"#utility.yul\":2802:2855   */\n      tag_207\n      jump\t// in\n    tag_308:\n        /* \"#utility.yul\":2792:2855   */\n      swap3\n      pop\n        /* \"#utility.yul\":2747:2865   */\n      pop\n        /* \"#utility.yul\":2904:2906   */\n      0x40\n        /* \"#utility.yul\":2930:2983   */\n      tag_309\n        /* \"#utility.yul\":2975:2982   */\n      dup7\n        /* \"#utility.yul\":2966:2972   */\n      dup3\n        /* \"#utility.yul\":2955:2964   */\n      dup8\n        /* \"#utility.yul\":2951:2973   */\n      add\n        /* \"#utility.yul\":2930:2983   */\n      tag_207\n      jump\t// in\n    tag_309:\n        /* \"#utility.yul\":2920:2983   */\n      swap2\n      pop\n        /* \"#utility.yul\":2875:2993   */\n      pop\n        /* \"#utility.yul\":2381:3000   */\n      swap3\n      pop\n      swap3\n      pop\n      swap3\n      jump\t// out\n        /* \"#utility.yul\":3006:3335   */\n    tag_38:\n        /* \"#utility.yul\":3065:3071   */\n      0x00\n        /* \"#utility.yul\":3114:3116   */\n      0x20\n        /* \"#utility.yul\":3102:3111   */\n      dup3\n        /* \"#utility.yul\":3093:3100   */\n      dup5\n        /* \"#utility.yul\":3089:3112   */\n      sub\n        /* \"#utility.yul\":3085:3117   */\n      slt\n        /* \"#utility.yul\":3082:3201   */\n      iszero\n      tag_311\n      jumpi\n        /* \"#utility.yul\":3120:3199   */\n      tag_312\n      tag_203\n      jump\t// in\n    tag_312:\n        /* \"#utility.yul\":3082:3201   */\n    tag_311:\n        /* \"#utility.yul\":3240:3241   */\n      0x00\n        /* \"#utility.yul\":3265:3318   */\n      tag_313\n        /* \"#utility.yul\":3310:3317   */\n      dup5\n        /* \"#utility.yul\":3301:3307   */\n      dup3\n        /* \"#utility.yul\":3290:3299   */\n      dup6\n        /* \"#utility.yul\":3286:3308   */\n      add\n        /* \"#utility.yul\":3265:3318   */\n      tag_207\n      jump\t// in\n    tag_313:\n        /* \"#utility.yul\":3255:3318   */\n      swap2\n      pop\n        /* \"#utility.yul\":3211:3328   */\n      pop\n        /* \"#utility.yul\":3006:3335   */\n      swap3\n      swap2\n      pop\n      pop\n      jump\t// out\n        /* \"#utility.yul\":3341:3449   */\n    tag_214:\n        /* \"#utility.yul\":3418:3442   */\n      tag_315\n        /* \"#utility.yul\":3436:3441   */\n      dup2\n        /* \"#utility.yul\":3418:3442   */\n      tag_205\n      jump\t// in\n    tag_315:\n        /* \"#utility.yul\":3413:3416   */\n      dup3\n        /* \"#utility.yul\":3406:3443   */\n      mstore\n        /* \"#utility.yul\":3341:3449   */\n      pop\n      pop\n      jump\t// out\n        /* \"#utility.yul\":3455:3563   */\n    tag_215:\n        /* \"#utility.yul\":3532:3556   */\n      tag_317\n        /* \"#utility.yul\":3550:3555   */\n      dup2\n        /* \"#utility.yul\":3532:3556   */\n      tag_209\n      jump\t// in\n    tag_317:\n        /* \"#utility.yul\":3527:3530   */\n      dup3\n        /* \"#utility.yul\":3520:3557   */\n      mstore\n        /* \"#utility.yul\":3455:3563   */\n      pop\n      pop\n      jump\t// out\n        /* \"#utility.yul\":3569:3659   */\n    tag_216:\n        /* \"#utility.yul\":3603:3610   */\n      0x00\n        /* \"#utility.yul\":3646:3651   */\n      dup2\n        /* \"#utility.yul\":3639:3652   */\n      iszero\n        /* \"#utility.yul\":3632:3653   */\n      iszero\n        /* \"#utility.yul\":3621:3653   */\n      swap1\n      pop\n        /* \"#utility.yul\":3569:3659   */\n      swap2\n      swap1\n      pop\n      jump\t// out\n        /* \"#utility.yul\":3665:3764   */\n    tag_217:\n        /* \"#utility.yul\":3736:3757   */\n      tag_320\n        /* \"#utility.yul\":3751:3756   */\n      dup2\n        /* \"#utility.yul\":3736:3757   */\n      tag_216\n      jump\t// in\n    tag_320:\n        /* \"#utility.yul\":3731:3734   */\n      dup3\n        /* \"#utility.yul\":3724:3758   */\n      mstore\n        /* \"#utility.yul\":3665:3764   */\n      pop\n      pop\n      jump\t// out\n        /* \"#utility.yul\":3840:5599   */\n    tag_218:\n        /* \"#utility.yul\":3983:3989   */\n      0x0120\n        /* \"#utility.yul\":3978:3981   */\n      dup3\n        /* \"#utility.yul\":3974:3990   */\n      add\n        /* \"#utility.yul\":4070:4074   */\n      0x00\n        /* \"#utility.yul\":4063:4068   */\n      dup3\n        /* \"#utility.yul\":4059:4075   */\n      add\n        /* \"#utility.yul\":4053:4076   */\n      mload\n        /* \"#utility.yul\":4089:4152   */\n      tag_322\n        /* \"#utility.yul\":4146:4150   */\n      0x00\n        /* \"#utility.yul\":4141:4144   */\n      dup6\n        /* \"#utility.yul\":4137:4151   */\n      add\n        /* \"#utility.yul\":4123:4135   */\n      dup3\n        /* \"#utility.yul\":4089:4152   */\n      tag_214\n      jump\t// in\n    tag_322:\n        /* \"#utility.yul\":4000:4162   */\n      pop\n        /* \"#utility.yul\":4246:4250   */\n      0x20\n        /* \"#utility.yul\":4239:4244   */\n      dup3\n        /* \"#utility.yul\":4235:4251   */\n      add\n        /* \"#utility.yul\":4229:4252   */\n      mload\n        /* \"#utility.yul\":4265:4328   */\n      tag_323\n        /* \"#utility.yul\":4322:4326   */\n      0x20\n        /* \"#utility.yul\":4317:4320   */\n      dup6\n        /* \"#utility.yul\":4313:4327   */\n      add\n        /* \"#utility.yul\":4299:4311   */\n      dup3\n        /* \"#utility.yul\":4265:4328   */\n      tag_214\n      jump\t// in\n    tag_323:\n        /* \"#utility.yul\":4172:4338   */\n      pop\n        /* \"#utility.yul\":4423:4427   */\n      0x40\n        /* \"#utility.yul\":4416:4421   */\n      dup3\n        /* \"#utility.yul\":4412:4428   */\n      add\n        /* \"#utility.yul\":4406:4429   */\n      mload\n        /* \"#utility.yul\":4442:4505   */\n      tag_324\n        /* \"#utility.yul\":4499:4503   */\n      0x40\n        /* \"#utility.yul\":4494:4497   */\n      dup6\n        /* \"#utility.yul\":4490:4504   */\n      add\n        /* \"#utility.yul\":4476:4488   */\n      dup3\n        /* \"#utility.yul\":4442:4505   */\n      tag_215\n      jump\t// in\n    tag_324:\n        /* \"#utility.yul\":4348:4515   */\n      pop\n        /* \"#utility.yul\":4605:4609   */\n      0x60\n        /* \"#utility.yul\":4598:4603   */\n      dup3\n        /* \"#utility.yul\":4594:4610   */\n      add\n        /* \"#utility.yul\":4588:4611   */\n      mload\n        /* \"#utility.yul\":4624:4687   */\n      tag_325\n        /* \"#utility.yul\":4681:4685   */\n      0x60\n        /* \"#utility.yul\":4676:4679   */\n      dup6\n        /* \"#utility.yul\":4672:4686   */\n      add\n        /* \"#utility.yul\":4658:4670   */\n      dup3\n        /* \"#utility.yul\":4624:4687   */\n      tag_214\n      jump\t// in\n    tag_325:\n        /* \"#utility.yul\":4525:4697   */\n      pop\n        /* \"#utility.yul\":4786:4790   */\n      0x80\n        /* \"#utility.yul\":4779:4784   */\n      dup3\n        /* \"#utility.yul\":4775:4791   */\n      add\n        /* \"#utility.yul\":4769:4792   */\n      mload\n        /* \"#utility.yul\":4805:4868   */\n      tag_326\n        /* \"#utility.yul\":4862:4866   */\n      0x80\n        /* \"#utility.yul\":4857:4860   */\n      dup6\n        /* \"#utility.yul\":4853:4867   */\n      add\n        /* \"#utility.yul\":4839:4851   */\n      dup3\n        /* \"#utility.yul\":4805:4868   */\n      tag_214\n      jump\t// in\n    tag_326:\n        /* \"#utility.yul\":4707:4878   */\n      pop\n        /* \"#utility.yul\":4968:4972   */\n      0xa0\n        /* \"#utility.yul\":4961:4966   */\n      dup3\n        /* \"#utility.yul\":4957:4973   */\n      add\n        /* \"#utility.yul\":4951:4974   */\n      mload\n        /* \"#utility.yul\":4987:5050   */\n      tag_327\n        /* \"#utility.yul\":5044:5048   */\n      0xa0\n        /* \"#utility.yul\":5039:5042   */\n      dup6\n        /* \"#utility.yul\":5035:5049   */\n      add\n        /* \"#utility.yul\":5021:5033   */\n      dup3\n        /* \"#utility.yul\":4987:5050   */\n      tag_214\n      jump\t// in\n    tag_327:\n        /* \"#utility.yul\":4888:5060   */\n      pop\n        /* \"#utility.yul\":5149:5153   */\n      0xc0\n        /* \"#utility.yul\":5142:5147   */\n      dup3\n        /* \"#utility.yul\":5138:5154   */\n      add\n        /* \"#utility.yul\":5132:5155   */\n      mload\n        /* \"#utility.yul\":5168:5231   */\n      tag_328\n        /* \"#utility.yul\":5225:5229   */\n      0xc0\n        /* \"#utility.yul\":5220:5223   */\n      dup6\n        /* \"#utility.yul\":5216:5230   */\n      add\n        /* \"#utility.yul\":5202:5214   */\n      dup3\n        /* \"#utility.yul\":5168:5231   */\n      tag_215\n      jump\t// in\n    tag_328:\n        /* \"#utility.yul\":5070:5241   */\n      pop\n        /* \"#utility.yul\":5329:5333   */\n      0xe0\n        /* \"#utility.yul\":5322:5327   */\n      dup3\n        /* \"#utility.yul\":5318:5334   */\n      add\n        /* \"#utility.yul\":5312:5335   */\n      mload\n        /* \"#utility.yul\":5348:5405   */\n      tag_329\n        /* \"#utility.yul\":5399:5403   */\n      0xe0\n        /* \"#utility.yul\":5394:5397   */\n      dup6\n        /* \"#utility.yul\":5390:5404   */\n      add\n        /* \"#utility.yul\":5376:5388   */\n      dup3\n        /* \"#utility.yul\":5348:5405   */\n      tag_217\n      jump\t// in\n    tag_329:\n        /* \"#utility.yul\":5251:5415   */\n      pop\n        /* \"#utility.yul\":5502:5508   */\n      0x0100\n        /* \"#utility.yul\":5495:5500   */\n      dup3\n        /* \"#utility.yul\":5491:5509   */\n      add\n        /* \"#utility.yul\":5485:5510   */\n      mload\n        /* \"#utility.yul\":5523:5582   */\n      tag_330\n        /* \"#utility.yul\":5574:5580   */\n      0x0100\n        /* \"#utility.yul\":5569:5572   */\n      dup6\n        /* \"#utility.yul\":5565:5581   */\n      add\n        /* \"#utility.yul\":5551:5563   */\n      dup3\n        /* \"#utility.yul\":5523:5582   */\n      tag_217\n      jump\t// in\n    tag_330:\n        /* \"#utility.yul\":5425:5592   */\n      pop\n        /* \"#utility.yul\":3952:5599   */\n      pop\n        /* \"#utility.yul\":3840:5599   */\n      pop\n      pop\n      jump\t// out\n        /* \"#utility.yul\":5605:5920   */\n    tag_41:\n        /* \"#utility.yul\":5744:5748   */\n      0x00\n        /* \"#utility.yul\":5782:5785   */\n      0x0120\n        /* \"#utility.yul\":5771:5780   */\n      dup3\n        /* \"#utility.yul\":5767:5786   */\n      add\n        /* \"#utility.yul\":5759:5786   */\n      swap1\n      pop\n        /* \"#utility.yul\":5796:5913   */\n      tag_332\n        /* \"#utility.yul\":5910:5911   */\n      0x00\n        /* \"#utility.yul\":5899:5908   */\n      dup4\n        /* \"#utility.yul\":5895:5912   */\n      add\n        /* \"#utility.yul\":5886:5892   */\n      dup5\n        /* \"#utility.yul\":5796:5913   */\n      tag_218\n      jump\t// in\n    tag_332:\n        /* \"#utility.yul\":5605:5920   */\n      swap3\n      swap2\n      pop\n      pop\n      jump\t// out\n        /* \"#utility.yul\":5926:6255   */\n    tag_60:\n        /* \"#utility.yul\":5985:5991   */\n      0x00\n        /* \"#utility.yul\":6034:6036   */\n      0x20\n        /* \"#utility.yul\":6022:6031   */\n      dup3\n        /* \"#utility.yul\":6013:6020   */\n      dup5\n        /* \"#utility.yul\":6009:6032   */\n      sub\n        /* \"#utility.yul\":6005:6037   */\n      slt\n        /* \"#utility.yul\":6002:6121   */\n      iszero\n      tag_334\n      jumpi\n        /* \"#utility.yul\":6040:6119   */\n      tag_335\n      tag_203\n      jump\t// in\n    tag_335:\n        /* \"#utility.yul\":6002:6121   */\n    tag_334:\n        /* \"#utility.yul\":6160:6161   */\n      0x00\n        /* \"#utility.yul\":6185:6238   */\n      tag_336\n        /* \"#utility.yul\":6230:6237   */\n      dup5\n        /* \"#utility.yul\":6221:6227   */\n      dup3\n        /* \"#utility.yul\":6210:6219   */\n      dup6\n        /* \"#utility.yul\":6206:6228   */\n      add\n        /* \"#utility.yul\":6185:6238   */\n      tag_211\n      jump\t// in\n    tag_336:\n        /* \"#utility.yul\":6175:6238   */\n      swap2\n      pop\n        /* \"#utility.yul\":6131:6248   */\n      pop\n        /* \"#utility.yul\":5926:6255   */\n      swap3\n      swap2\n      pop\n      pop\n      jump\t// out\n        /* \"#utility.yul\":6261:6370   */\n    tag_219:\n        /* \"#utility.yul\":6342:6363   */\n      tag_338\n        /* \"#utility.yul\":6357:6362   */\n      dup2\n        /* \"#utility.yul\":6342:6363   */\n      tag_216\n      jump\t// in\n    tag_338:\n        /* \"#utility.yul\":6337:6340   */\n      dup3\n        /* \"#utility.yul\":6330:6364   */\n      mstore\n        /* \"#utility.yul\":6261:6370   */\n      pop\n      pop\n      jump\t// out\n        /* \"#utility.yul\":6376:7460   */\n    tag_67:\n        /* \"#utility.yul\":6681:6685   */\n      0x00\n        /* \"#utility.yul\":6719:6722   */\n      0x0120\n        /* \"#utility.yul\":6708:6717   */\n      dup3\n        /* \"#utility.yul\":6704:6723   */\n      add\n        /* \"#utility.yul\":6696:6723   */\n      swap1\n      pop\n        /* \"#utility.yul\":6733:6804   */\n      tag_340\n        /* \"#utility.yul\":6801:6802   */\n      0x00\n        /* \"#utility.yul\":6790:6799   */\n      dup4\n        /* \"#utility.yul\":6786:6803   */\n      add\n        /* \"#utility.yul\":6777:6783   */\n      dup13\n        /* \"#utility.yul\":6733:6804   */\n      tag_212\n      jump\t// in\n    tag_340:\n        /* \"#utility.yul\":6814:6886   */\n      tag_341\n        /* \"#utility.yul\":6882:6884   */\n      0x20\n        /* \"#utility.yul\":6871:6880   */\n      dup4\n        /* \"#utility.yul\":6867:6885   */\n      add\n        /* \"#utility.yul\":6858:6864   */\n      dup12\n        /* \"#utility.yul\":6814:6886   */\n      tag_212\n      jump\t// in\n    tag_341:\n        /* \"#utility.yul\":6896:6968   */\n      tag_342\n        /* \"#utility.yul\":6964:6966   */\n      0x40\n        /* \"#utility.yul\":6953:6962   */\n      dup4\n        /* \"#utility.yul\":6949:6967   */\n      add\n        /* \"#utility.yul\":6940:6946   */\n      dup11\n        /* \"#utility.yul\":6896:6968   */\n      tag_213\n      jump\t// in\n    tag_342:\n        /* \"#utility.yul\":6978:7050   */\n      tag_343\n        /* \"#utility.yul\":7046:7048   */\n      0x60\n        /* \"#utility.yul\":7035:7044   */\n      dup4\n        /* \"#utility.yul\":7031:7049   */\n      add\n        /* \"#utility.yul\":7022:7028   */\n      dup10\n        /* \"#utility.yul\":6978:7050   */\n      tag_212\n      jump\t// in\n    tag_343:\n        /* \"#utility.yul\":7060:7133   */\n      tag_344\n        /* \"#utility.yul\":7128:7131   */\n      0x80\n        /* \"#utility.yul\":7117:7126   */\n      dup4\n        /* \"#utility.yul\":7113:7132   */\n      add\n        /* \"#utility.yul\":7104:7110   */\n      dup9\n        /* \"#utility.yul\":7060:7133   */\n      tag_212\n      jump\t// in\n    tag_344:\n        /* \"#utility.yul\":7143:7216   */\n      tag_345\n        /* \"#utility.yul\":7211:7214   */\n      0xa0\n        /* \"#utility.yul\":7200:7209   */\n      dup4\n        /* \"#utility.yul\":7196:7215   */\n      add\n        /* \"#utility.yul\":7187:7193   */\n      dup8\n        /* \"#utility.yul\":7143:7216   */\n      tag_212\n      jump\t// in\n    tag_345:\n        /* \"#utility.yul\":7226:7299   */\n      tag_346\n        /* \"#utility.yul\":7294:7297   */\n      0xc0\n        /* \"#utility.yul\":7283:7292   */\n      dup4\n        /* \"#utility.yul\":7279:7298   */\n      add\n        /* \"#utility.yul\":7270:7276   */\n      dup7\n        /* \"#utility.yul\":7226:7299   */\n      tag_213\n      jump\t// in\n    tag_346:\n        /* \"#utility.yul\":7309:7376   */\n      tag_347\n        /* \"#utility.yul\":7371:7374   */\n      0xe0\n        /* \"#utility.yul\":7360:7369   */\n      dup4\n        /* \"#utility.yul\":7356:7375   */\n      add\n        /* \"#utility.yul\":7347:7353   */\n      dup6\n        /* \"#utility.yul\":7309:7376   */\n      tag_219\n      jump\t// in\n    tag_347:\n        /* \"#utility.yul\":7386:7453   */\n      tag_348\n        /* \"#utility.yul\":7448:7451   */\n      0x0100\n        /* \"#utility.yul\":7437:7446   */\n      dup4\n        /* \"#utility.yul\":7433:7452   */\n      add\n        /* \"#utility.yul\":7424:7430   */\n      dup5\n        /* \"#utility.yul\":7386:7453   */\n      tag_219\n      jump\t// in\n    tag_348:\n        /* \"#utility.yul\":6376:7460   */\n      swap11\n      swap10\n      pop\n      pop\n      pop\n      pop\n      pop\n      pop\n      pop\n      pop\n      pop\n      pop\n      jump\t// out\n        /* \"#utility.yul\":7466:7635   */\n    tag_220:\n        /* \"#utility.yul\":7550:7561   */\n      0x00\n        /* \"#utility.yul\":7584:7590   */\n      dup3\n        /* \"#utility.yul\":7579:7582   */\n      dup3\n        /* \"#utility.yul\":7572:7591   */\n      mstore\n        /* \"#utility.yul\":7624:7628   */\n      0x20\n        /* \"#utility.yul\":7619:7622   */\n      dup3\n        /* \"#utility.yul\":7615:7629   */\n      add\n        /* \"#utility.yul\":7600:7629   */\n      swap1\n      pop\n        /* \"#utility.yul\":7466:7635   */\n      swap3\n      swap2\n      pop\n      pop\n      jump\t// out\n        /* \"#utility.yul\":7641:7881   */\n    tag_221:\n        /* \"#utility.yul\":7781:7815   */\n      0x446562657320656e7669617220616c206d656e6f732035303020776569207061\n        /* \"#utility.yul\":7777:7778   */\n      0x00\n        /* \"#utility.yul\":7769:7775   */\n      dup3\n        /* \"#utility.yul\":7765:7779   */\n      add\n        /* \"#utility.yul\":7758:7816   */\n      mstore\n        /* \"#utility.yul\":7850:7873   */\n      0x726120637265617220756e6120737562617374612e0000000000000000000000\n        /* \"#utility.yul\":7845:7847   */\n      0x20\n        /* \"#utility.yul\":7837:7843   */\n      dup3\n        /* \"#utility.yul\":7833:7848   */\n      add\n        /* \"#utility.yul\":7826:7874   */\n      mstore\n        /* \"#utility.yul\":7641:7881   */\n      pop\n      jump\t// out\n        /* \"#utility.yul\":7887:8253   */\n    tag_222:\n        /* \"#utility.yul\":8029:8032   */\n      0x00\n        /* \"#utility.yul\":8050:8117   */\n      tag_352\n        /* \"#utility.yul\":8114:8116   */\n      0x35\n        /* \"#utility.yul\":8109:8112   */\n      dup4\n        /* \"#utility.yul\":8050:8117   */\n      tag_220\n      jump\t// in\n    tag_352:\n        /* \"#utility.yul\":8043:8117   */\n      swap2\n      pop\n        /* \"#utility.yul\":8126:8219   */\n      tag_353\n        /* \"#utility.yul\":8215:8218   */\n      dup3\n        /* \"#utility.yul\":8126:8219   */\n      tag_221\n      jump\t// in\n    tag_353:\n        /* \"#utility.yul\":8244:8246   */\n      0x40\n        /* \"#utility.yul\":8239:8242   */\n      dup3\n        /* \"#utility.yul\":8235:8247   */\n      add\n        /* \"#utility.yul\":8228:8247   */\n      swap1\n      pop\n        /* \"#utility.yul\":7887:8253   */\n      swap2\n      swap1\n      pop\n      jump\t// out\n        /* \"#utility.yul\":8259:8678   */\n    tag_75:\n        /* \"#utility.yul\":8425:8429   */\n      0x00\n        /* \"#utility.yul\":8463:8465   */\n      0x20\n        /* \"#utility.yul\":8452:8461   */\n      dup3\n        /* \"#utility.yul\":8448:8466   */\n      add\n        /* \"#utility.yul\":8440:8466   */\n      swap1\n      pop\n        /* \"#utility.yul\":8512:8521   */\n      dup2\n        /* \"#utility.yul\":8506:8510   */\n      dup2\n        /* \"#utility.yul\":8502:8522   */\n      sub\n        /* \"#utility.yul\":8498:8499   */\n      0x00\n        /* \"#utility.yul\":8487:8496   */\n      dup4\n        /* \"#utility.yul\":8483:8500   */\n      add\n        /* \"#utility.yul\":8476:8523   */\n      mstore\n        /* \"#utility.yul\":8540:8671   */\n      tag_355\n        /* \"#utility.yul\":8666:8670   */\n      dup2\n        /* \"#utility.yul\":8540:8671   */\n      tag_222\n      jump\t// in\n    tag_355:\n        /* \"#utility.yul\":8532:8671   */\n      swap1\n      pop\n        /* \"#utility.yul\":8259:8678   */\n      swap2\n      swap1\n      pop\n      jump\t// out\n        /* \"#utility.yul\":8684:8919   */\n    tag_223:\n        /* \"#utility.yul\":8824:8858   */\n      0x456c2076616c6f72206d696e696d6f206465206f666572746120646562652073\n        /* \"#utility.yul\":8820:8821   */\n      0x00\n        /* \"#utility.yul\":8812:8818   */\n      dup3\n        /* \"#utility.yul\":8808:8822   */\n      add\n        /* \"#utility.yul\":8801:8859   */\n      mstore\n        /* \"#utility.yul\":8893:8911   */\n      0x6572206d61796f722061206365726f2e00000000000000000000000000000000\n        /* \"#utility.yul\":8888:8890   */\n      0x20\n        /* \"#utility.yul\":8880:8886   */\n      dup3\n        /* \"#utility.yul\":8876:8891   */\n      add\n        /* \"#utility.yul\":8869:8912   */\n      mstore\n        /* \"#utility.yul\":8684:8919   */\n      pop\n      jump\t// out\n        /* \"#utility.yul\":8925:9291   */\n    tag_224:\n        /* \"#utility.yul\":9067:9070   */\n      0x00\n        /* \"#utility.yul\":9088:9155   */\n      tag_358\n        /* \"#utility.yul\":9152:9154   */\n      0x30\n        /* \"#utility.yul\":9147:9150   */\n      dup4\n        /* \"#utility.yul\":9088:9155   */\n      tag_220\n      jump\t// in\n    tag_358:\n        /* \"#utility.yul\":9081:9155   */\n      swap2\n      pop\n        /* \"#utility.yul\":9164:9257   */\n      tag_359\n        /* \"#utility.yul\":9253:9256   */\n      dup3\n        /* \"#utility.yul\":9164:9257   */\n      tag_223\n      jump\t// in\n    tag_359:\n        /* \"#utility.yul\":9282:9284   */\n      0x40\n        /* \"#utility.yul\":9277:9280   */\n      dup3\n        /* \"#utility.yul\":9273:9285   */\n      add\n        /* \"#utility.yul\":9266:9285   */\n      swap1\n      pop\n        /* \"#utility.yul\":8925:9291   */\n      swap2\n      swap1\n      pop\n      jump\t// out\n        /* \"#utility.yul\":9297:9716   */\n    tag_78:\n        /* \"#utility.yul\":9463:9467   */\n      0x00\n        /* \"#utility.yul\":9501:9503   */\n      0x20\n        /* \"#utility.yul\":9490:9499   */\n      dup3\n        /* \"#utility.yul\":9486:9504   */\n      add\n        /* \"#utility.yul\":9478:9504   */\n      swap1\n      pop\n        /* \"#utility.yul\":9550:9559   */\n      dup2\n        /* \"#utility.yul\":9544:9548   */\n      dup2\n        /* \"#utility.yul\":9540:9560   */\n      sub\n        /* \"#utility.yul\":9536:9537   */\n      0x00\n        /* \"#utility.yul\":9525:9534   */\n      dup4\n        /* \"#utility.yul\":9521:9538   */\n      add\n        /* \"#utility.yul\":9514:9561   */\n      mstore\n        /* \"#utility.yul\":9578:9709   */\n      tag_361\n        /* \"#utility.yul\":9704:9708   */\n      dup2\n        /* \"#utility.yul\":9578:9709   */\n      tag_224\n      jump\t// in\n    tag_361:\n        /* \"#utility.yul\":9570:9709   */\n      swap1\n      pop\n        /* \"#utility.yul\":9297:9716   */\n      swap2\n      swap1\n      pop\n      jump\t// out\n        /* \"#utility.yul\":9722:9961   */\n    tag_225:\n        /* \"#utility.yul\":9862:9896   */\n      0x4c6120666563686120646520636965727265206465626520736572206d61796f\n        /* \"#utility.yul\":9858:9859   */\n      0x00\n        /* \"#utility.yul\":9850:9856   */\n      dup3\n        /* \"#utility.yul\":9846:9860   */\n      add\n        /* \"#utility.yul\":9839:9897   */\n      mstore\n        /* \"#utility.yul\":9931:9953   */\n      0x722061206c612066656368612061637475616c2e000000000000000000000000\n        /* \"#utility.yul\":9926:9928   */\n      0x20\n        /* \"#utility.yul\":9918:9924   */\n      dup3\n        /* \"#utility.yul\":9914:9929   */\n      add\n        /* \"#utility.yul\":9907:9954   */\n      mstore\n        /* \"#utility.yul\":9722:9961   */\n      pop\n      jump\t// out\n        /* \"#utility.yul\":9967:10333   */\n    tag_226:\n        /* \"#utility.yul\":10109:10112   */\n      0x00\n        /* \"#utility.yul\":10130:10197   */\n      tag_364\n        /* \"#utility.yul\":10194:10196   */\n      0x34\n        /* \"#utility.yul\":10189:10192   */\n      dup4\n        /* \"#utility.yul\":10130:10197   */\n      tag_220\n      jump\t// in\n    tag_364:\n        /* \"#utility.yul\":10123:10197   */\n      swap2\n      pop\n        /* \"#utility.yul\":10206:10299   */\n      tag_365\n        /* \"#utility.yul\":10295:10298   */\n      dup3\n        /* \"#utility.yul\":10206:10299   */\n      tag_225\n      jump\t// in\n    tag_365:\n        /* \"#utility.yul\":10324:10326   */\n      0x40\n        /* \"#utility.yul\":10319:10322   */\n      dup3\n        /* \"#utility.yul\":10315:10327   */\n      add\n        /* \"#utility.yul\":10308:10327   */\n      swap1\n      pop\n        /* \"#utility.yul\":9967:10333   */\n      swap2\n      swap1\n      pop\n      jump\t// out\n        /* \"#utility.yul\":10339:10758   */\n    tag_81:\n        /* \"#utility.yul\":10505:10509   */\n      0x00\n        /* \"#utility.yul\":10543:10545   */\n      0x20\n        /* \"#utility.yul\":10532:10541   */\n      dup3\n        /* \"#utility.yul\":10528:10546   */\n      add\n        /* \"#utility.yul\":10520:10546   */\n      swap1\n      pop\n        /* \"#utility.yul\":10592:10601   */\n      dup2\n        /* \"#utility.yul\":10586:10590   */\n      dup2\n        /* \"#utility.yul\":10582:10602   */\n      sub\n        /* \"#utility.yul\":10578:10579   */\n      0x00\n        /* \"#utility.yul\":10567:10576   */\n      dup4\n        /* \"#utility.yul\":10563:10580   */\n      add\n        /* \"#utility.yul\":10556:10603   */\n      mstore\n        /* \"#utility.yul\":10620:10751   */\n      tag_367\n        /* \"#utility.yul\":10746:10750   */\n      dup2\n        /* \"#utility.yul\":10620:10751   */\n      tag_226\n      jump\t// in\n    tag_367:\n        /* \"#utility.yul\":10612:10751   */\n      swap1\n      pop\n        /* \"#utility.yul\":10339:10758   */\n      swap2\n      swap1\n      pop\n      jump\t// out\n        /* \"#utility.yul\":10764:10911   */\n    tag_227:\n        /* \"#utility.yul\":10865:10876   */\n      0x00\n        /* \"#utility.yul\":10902:10905   */\n      dup2\n        /* \"#utility.yul\":10887:10905   */\n      swap1\n      pop\n        /* \"#utility.yul\":10764:10911   */\n      swap3\n      swap2\n      pop\n      pop\n      jump\t// out\n        /* \"#utility.yul\":10917:11031   */\n    tag_228:\n      pop\n      jump\t// out\n        /* \"#utility.yul\":11037:11435   */\n    tag_229:\n        /* \"#utility.yul\":11196:11199   */\n      0x00\n        /* \"#utility.yul\":11217:11300   */\n      tag_371\n        /* \"#utility.yul\":11298:11299   */\n      0x00\n        /* \"#utility.yul\":11293:11296   */\n      dup4\n        /* \"#utility.yul\":11217:11300   */\n      tag_227\n      jump\t// in\n    tag_371:\n        /* \"#utility.yul\":11210:11300   */\n      swap2\n      pop\n        /* \"#utility.yul\":11309:11402   */\n      tag_372\n        /* \"#utility.yul\":11398:11401   */\n      dup3\n        /* \"#utility.yul\":11309:11402   */\n      tag_228\n      jump\t// in\n    tag_372:\n        /* \"#utility.yul\":11427:11428   */\n      0x00\n        /* \"#utility.yul\":11422:11425   */\n      dup3\n        /* \"#utility.yul\":11418:11429   */\n      add\n        /* \"#utility.yul\":11411:11429   */\n      swap1\n      pop\n        /* \"#utility.yul\":11037:11435   */\n      swap2\n      swap1\n      pop\n      jump\t// out\n        /* \"#utility.yul\":11441:11820   */\n    tag_83:\n        /* \"#utility.yul\":11625:11628   */\n      0x00\n        /* \"#utility.yul\":11647:11794   */\n      tag_374\n        /* \"#utility.yul\":11790:11793   */\n      dup3\n        /* \"#utility.yul\":11647:11794   */\n      tag_229\n      jump\t// in\n    tag_374:\n        /* \"#utility.yul\":11640:11794   */\n      swap2\n      pop\n        /* \"#utility.yul\":11811:11814   */\n      dup2\n        /* \"#utility.yul\":11804:11814   */\n      swap1\n      pop\n        /* \"#utility.yul\":11441:11820   */\n      swap2\n      swap1\n      pop\n      jump\t// out\n        /* \"#utility.yul\":11826:11998   */\n    tag_230:\n        /* \"#utility.yul\":11966:11990   */\n      0x5472616e73666572656e6369612066616c6c6964612e00000000000000000000\n        /* \"#utility.yul\":11962:11963   */\n      0x00\n        /* \"#utility.yul\":11954:11960   */\n      dup3\n        /* \"#utility.yul\":11950:11964   */\n      add\n        /* \"#utility.yul\":11943:11991   */\n      mstore\n        /* \"#utility.yul\":11826:11998   */\n      pop\n      jump\t// out\n        /* \"#utility.yul\":12004:12370   */\n    tag_231:\n        /* \"#utility.yul\":12146:12149   */\n      0x00\n        /* \"#utility.yul\":12167:12234   */\n      tag_377\n        /* \"#utility.yul\":12231:12233   */\n      0x16\n        /* \"#utility.yul\":12226:12229   */\n      dup4\n        /* \"#utility.yul\":12167:12234   */\n      tag_220\n      jump\t// in\n    tag_377:\n        /* \"#utility.yul\":12160:12234   */\n      swap2\n      pop\n        /* \"#utility.yul\":12243:12336   */\n      tag_378\n        /* \"#utility.yul\":12332:12335   */\n      dup3\n        /* \"#utility.yul\":12243:12336   */\n      tag_230\n      jump\t// in\n    tag_378:\n        /* \"#utility.yul\":12361:12363   */\n      0x20\n        /* \"#utility.yul\":12356:12359   */\n      dup3\n        /* \"#utility.yul\":12352:12364   */\n      add\n        /* \"#utility.yul\":12345:12364   */\n      swap1\n      pop\n        /* \"#utility.yul\":12004:12370   */\n      swap2\n      swap1\n      pop\n      jump\t// out\n        /* \"#utility.yul\":12376:12795   */\n    tag_89:\n        /* \"#utility.yul\":12542:12546   */\n      0x00\n        /* \"#utility.yul\":12580:12582   */\n      0x20\n        /* \"#utility.yul\":12569:12578   */\n      dup3\n        /* \"#utility.yul\":12565:12583   */\n      add\n        /* \"#utility.yul\":12557:12583   */\n      swap1\n      pop\n        /* \"#utility.yul\":12629:12638   */\n      dup2\n        /* \"#utility.yul\":12623:12627   */\n      dup2\n        /* \"#utility.yul\":12619:12639   */\n      sub\n        /* \"#utility.yul\":12615:12616   */\n      0x00\n        /* \"#utility.yul\":12604:12613   */\n      dup4\n        /* \"#utility.yul\":12600:12617   */\n      add\n        /* \"#utility.yul\":12593:12640   */\n      mstore\n        /* \"#utility.yul\":12657:12788   */\n      tag_380\n        /* \"#utility.yul\":12783:12787   */\n      dup2\n        /* \"#utility.yul\":12657:12788   */\n      tag_231\n      jump\t// in\n    tag_380:\n        /* \"#utility.yul\":12649:12788   */\n      swap1\n      pop\n        /* \"#utility.yul\":12376:12795   */\n      swap2\n      swap1\n      pop\n      jump\t// out\n        /* \"#utility.yul\":12801:12981   */\n    tag_232:\n        /* \"#utility.yul\":12849:12926   */\n      0x4e487b7100000000000000000000000000000000000000000000000000000000\n        /* \"#utility.yul\":12846:12847   */\n      0x00\n        /* \"#utility.yul\":12839:12927   */\n      mstore\n        /* \"#utility.yul\":12946:12950   */\n      0x11\n        /* \"#utility.yul\":12943:12944   */\n      0x04\n        /* \"#utility.yul\":12936:12951   */\n      mstore\n        /* \"#utility.yul\":12970:12974   */\n      0x24\n        /* \"#utility.yul\":12967:12968   */\n      0x00\n        /* \"#utility.yul\":12960:12975   */\n      revert\n        /* \"#utility.yul\":12987:13220   */\n    tag_91:\n        /* \"#utility.yul\":13026:13029   */\n      0x00\n        /* \"#utility.yul\":13049:13073   */\n      tag_383\n        /* \"#utility.yul\":13067:13072   */\n      dup3\n        /* \"#utility.yul\":13049:13073   */\n      tag_205\n      jump\t// in\n    tag_383:\n        /* \"#utility.yul\":13040:13073   */\n      swap2\n      pop\n        /* \"#utility.yul\":13095:13161   */\n      0xffffffffffffffffffffffffffffffffffffffffffffffffffffffffffffffff\n        /* \"#utility.yul\":13088:13093   */\n      dup3\n        /* \"#utility.yul\":13085:13162   */\n      sub\n        /* \"#utility.yul\":13082:13185   */\n      tag_384\n      jumpi\n        /* \"#utility.yul\":13165:13183   */\n      tag_385\n      tag_232\n      jump\t// in\n    tag_385:\n        /* \"#utility.yul\":13082:13185   */\n    tag_384:\n        /* \"#utility.yul\":13212:13213   */\n      0x01\n        /* \"#utility.yul\":13205:13210   */\n      dup3\n        /* \"#utility.yul\":13201:13214   */\n      add\n        /* \"#utility.yul\":13194:13214   */\n      swap1\n      pop\n        /* \"#utility.yul\":12987:13220   */\n      swap2\n      swap1\n      pop\n      jump\t// out\n        /* \"#utility.yul\":13226:13397   */\n    tag_233:\n        /* \"#utility.yul\":13366:13389   */\n      0x4c612073756261737461206e6f206578697374652e0000000000000000000000\n        /* \"#utility.yul\":13362:13363   */\n      0x00\n        /* \"#utility.yul\":13354:13360   */\n      dup3\n        /* \"#utility.yul\":13350:13364   */\n      add\n        /* \"#utility.yul\":13343:13390   */\n      mstore\n        /* \"#utility.yul\":13226:13397   */\n      pop\n      jump\t// out\n        /* \"#utility.yul\":13403:13769   */\n    tag_234:\n        /* \"#utility.yul\":13545:13548   */\n      0x00\n        /* \"#utility.yul\":13566:13633   */\n      tag_388\n        /* \"#utility.yul\":13630:13632   */\n      0x15\n        /* \"#utility.yul\":13625:13628   */\n      dup4\n        /* \"#utility.yul\":13566:13633   */\n      tag_220\n      jump\t// in\n    tag_388:\n        /* \"#utility.yul\":13559:13633   */\n      swap2\n      pop\n        /* \"#utility.yul\":13642:13735   */\n      tag_389\n        /* \"#utility.yul\":13731:13734   */\n      dup3\n        /* \"#utility.yul\":13642:13735   */\n      tag_233\n      jump\t// in\n    tag_389:\n        /* \"#utility.yul\":13760:13762   */\n      0x20\n        /* \"#utility.yul\":13755:13758   */\n      dup3\n        /* \"#utility.yul\":13751:13763   */\n      add\n        /* \"#utility.yul\":13744:13763   */\n      swap1\n      pop\n        /* \"#utility.yul\":13403:13769   */\n      swap2\n      swap1\n      pop\n      jump\t// out\n        /* \"#utility.yul\":13775:14194   */\n    tag_97:\n        /* \"#utility.yul\":13941:13945   */\n      0x00\n        /* \"#utility.yul\":13979:13981   */\n      0x20\n        /* \"#utility.yul\":13968:13977   */\n      dup3\n        /* \"#utility.yul\":13964:13982   */\n      add\n        /* \"#utility.yul\":13956:13982   */\n      swap1\n      pop\n        /* \"#utility.yul\":14028:14037   */\n      dup2\n        /* \"#utility.yul\":14022:14026   */\n      dup2\n        /* \"#utility.yul\":14018:14038   */\n      sub\n        /* \"#utility.yul\":14014:14015   */\n      0x00\n        /* \"#utility.yul\":14003:14012   */\n      dup4\n        /* \"#utility.yul\":13999:14016   */\n      add\n        /* \"#utility.yul\":13992:14039   */\n      mstore\n        /* \"#utility.yul\":14056:14187   */\n      tag_391\n        /* \"#utility.yul\":14182:14186   */\n      dup2\n        /* \"#utility.yul\":14056:14187   */\n      tag_234\n      jump\t// in\n    tag_391:\n        /* \"#utility.yul\":14048:14187   */\n      swap1\n      pop\n        /* \"#utility.yul\":13775:14194   */\n      swap2\n      swap1\n      pop\n      jump\t// out\n        /* \"#utility.yul\":14200:14446   */\n    tag_235:\n        /* \"#utility.yul\":14340:14374   */\n      0x4c61206f6665727461206465626520736572206d61796f72206f20696775616c\n        /* \"#utility.yul\":14336:14337   */\n      0x00\n        /* \"#utility.yul\":14328:14334   */\n      dup3\n        /* \"#utility.yul\":14324:14338   */\n      add\n        /* \"#utility.yul\":14317:14375   */\n      mstore\n        /* \"#utility.yul\":14409:14438   */\n      0x20616c2076616c6f72206d696e696d6f206465206f66657274612e0000000000\n        /* \"#utility.yul\":14404:14406   */\n      0x20\n        /* \"#utility.yul\":14396:14402   */\n      dup3\n        /* \"#utility.yul\":14392:14407   */\n      add\n        /* \"#utility.yul\":14385:14439   */\n      mstore\n        /* \"#utility.yul\":14200:14446   */\n      pop\n      jump\t// out\n        /* \"#utility.yul\":14452:14818   */\n    tag_236:\n        /* \"#utility.yul\":14594:14597   */\n      0x00\n        /* \"#utility.yul\":14615:14682   */\n      tag_394\n        /* \"#utility.yul\":14679:14681   */\n      0x3b\n        /* \"#utility.yul\":14674:14677   */\n      dup4\n        /* \"#utility.yul\":14615:14682   */\n      tag_220\n      jump\t// in\n    tag_394:\n        /* \"#utility.yul\":14608:14682   */\n      swap2\n      pop\n        /* \"#utility.yul\":14691:14784   */\n      tag_395\n        /* \"#utility.yul\":14780:14783   */\n      dup3\n        /* \"#utility.yul\":14691:14784   */\n      tag_235\n      jump\t// in\n    tag_395:\n        /* \"#utility.yul\":14809:14811   */\n      0x40\n        /* \"#utility.yul\":14804:14807   */\n      dup3\n        /* \"#utility.yul\":14800:14812   */\n      add\n        /* \"#utility.yul\":14793:14812   */\n      swap1\n      pop\n        /* \"#utility.yul\":14452:14818   */\n      swap2\n      swap1\n      pop\n      jump\t// out\n        /* \"#utility.yul\":14824:15243   */\n    tag_105:\n        /* \"#utility.yul\":14990:14994   */\n      0x00\n        /* \"#utility.yul\":15028:15030   */\n      0x20\n        /* \"#utility.yul\":15017:15026   */\n      dup3\n        /* \"#utility.yul\":15013:15031   */\n      add\n        /* \"#utility.yul\":15005:15031   */\n      swap1\n      pop\n        /* \"#utility.yul\":15077:15086   */\n      dup2\n        /* \"#utility.yul\":15071:15075   */\n      dup2\n        /* \"#utility.yul\":15067:15087   */\n      sub\n        /* \"#utility.yul\":15063:15064   */\n      0x00\n        /* \"#utility.yul\":15052:15061   */\n      dup4\n        /* \"#utility.yul\":15048:15065   */\n      add\n        /* \"#utility.yul\":15041:15088   */\n      mstore\n        /* \"#utility.yul\":15105:15236   */\n      tag_397\n        /* \"#utility.yul\":15231:15235   */\n      dup2\n        /* \"#utility.yul\":15105:15236   */\n      tag_236\n      jump\t// in\n    tag_397:\n        /* \"#utility.yul\":15097:15236   */\n      swap1\n      pop\n        /* \"#utility.yul\":14824:15243   */\n      swap2\n      swap1\n      pop\n      jump\t// out\n        /* \"#utility.yul\":15249:15485   */\n    tag_237:\n        /* \"#utility.yul\":15389:15423   */\n      0x4c61206f666572746120646562652073757065726172206c61206f6665727461\n        /* \"#utility.yul\":15385:15386   */\n      0x00\n        /* \"#utility.yul\":15377:15383   */\n      dup3\n        /* \"#utility.yul\":15373:15387   */\n      add\n        /* \"#utility.yul\":15366:15424   */\n      mstore\n        /* \"#utility.yul\":15458:15477   */\n      0x206d617320616c74612061637475616c2e000000000000000000000000000000\n        /* \"#utility.yul\":15453:15455   */\n      0x20\n        /* \"#utility.yul\":15445:15451   */\n      dup3\n        /* \"#utility.yul\":15441:15456   */\n      add\n        /* \"#utility.yul\":15434:15478   */\n      mstore\n        /* \"#utility.yul\":15249:15485   */\n      pop\n      jump\t// out\n        /* \"#utility.yul\":15491:15857   */\n    tag_238:\n        /* \"#utility.yul\":15633:15636   */\n      0x00\n        /* \"#utility.yul\":15654:15721   */\n      tag_400\n        /* \"#utility.yul\":15718:15720   */\n      0x31\n        /* \"#utility.yul\":15713:15716   */\n      dup4\n        /* \"#utility.yul\":15654:15721   */\n      tag_220\n      jump\t// in\n    tag_400:\n        /* \"#utility.yul\":15647:15721   */\n      swap2\n      pop\n        /* \"#utility.yul\":15730:15823   */\n      tag_401\n        /* \"#utility.yul\":15819:15822   */\n      dup3\n        /* \"#utility.yul\":15730:15823   */\n      tag_237\n      jump\t// in\n    tag_401:\n        /* \"#utility.yul\":15848:15850   */\n      0x40\n        /* \"#utility.yul\":15843:15846   */\n      dup3\n        /* \"#utility.yul\":15839:15851   */\n      add\n        /* \"#utility.yul\":15832:15851   */\n      swap1\n      pop\n        /* \"#utility.yul\":15491:15857   */\n      swap2\n      swap1\n      pop\n      jump\t// out\n        /* \"#utility.yul\":15863:16282   */\n    tag_108:\n        /* \"#utility.yul\":16029:16033   */\n      0x00\n        /* \"#utility.yul\":16067:16069   */\n      0x20\n        /* \"#utility.yul\":16056:16065   */\n      dup3\n        /* \"#utility.yul\":16052:16070   */\n      add\n        /* \"#utility.yul\":16044:16070   */\n      swap1\n      pop\n        /* \"#utility.yul\":16116:16125   */\n      dup2\n        /* \"#utility.yul\":16110:16114   */\n      dup2\n        /* \"#utility.yul\":16106:16126   */\n      sub\n        /* \"#utility.yul\":16102:16103   */\n      0x00\n        /* \"#utility.yul\":16091:16100   */\n      dup4\n        /* \"#utility.yul\":16087:16104   */\n      add\n        /* \"#utility.yul\":16080:16127   */\n      mstore\n        /* \"#utility.yul\":16144:16275   */\n      tag_403\n        /* \"#utility.yul\":16270:16274   */\n      dup2\n        /* \"#utility.yul\":16144:16275   */\n      tag_238\n      jump\t// in\n    tag_403:\n        /* \"#utility.yul\":16136:16275   */\n      swap1\n      pop\n        /* \"#utility.yul\":15863:16282   */\n      swap2\n      swap1\n      pop\n      jump\t// out\n        /* \"#utility.yul\":16288:16516   */\n    tag_239:\n        /* \"#utility.yul\":16428:16462   */\n      0x4c6120666563686120646520636965727265206465206c612073756261737461\n        /* \"#utility.yul\":16424:16425   */\n      0x00\n        /* \"#utility.yul\":16416:16422   */\n      dup3\n        /* \"#utility.yul\":16412:16426   */\n      add\n        /* \"#utility.yul\":16405:16463   */\n      mstore\n        /* \"#utility.yul\":16497:16508   */\n      0x207961207061736f2e0000000000000000000000000000000000000000000000\n        /* \"#utility.yul\":16492:16494   */\n      0x20\n        /* \"#utility.yul\":16484:16490   */\n      dup3\n        /* \"#utility.yul\":16480:16495   */\n      add\n        /* \"#utility.yul\":16473:16509   */\n      mstore\n        /* \"#utility.yul\":16288:16516   */\n      pop\n      jump\t// out\n        /* \"#utility.yul\":16522:16888   */\n    tag_240:\n        /* \"#utility.yul\":16664:16667   */\n      0x00\n        /* \"#utility.yul\":16685:16752   */\n      tag_406\n        /* \"#utility.yul\":16749:16751   */\n      0x29\n        /* \"#utility.yul\":16744:16747   */\n      dup4\n        /* \"#utility.yul\":16685:16752   */\n      tag_220\n      jump\t// in\n    tag_406:\n        /* \"#utility.yul\":16678:16752   */\n      swap2\n      pop\n        /* \"#utility.yul\":16761:16854   */\n      tag_407\n        /* \"#utility.yul\":16850:16853   */\n      dup3\n        /* \"#utility.yul\":16761:16854   */\n      tag_239\n      jump\t// in\n    tag_407:\n        /* \"#utility.yul\":16879:16881   */\n      0x40\n        /* \"#utility.yul\":16874:16877   */\n      dup3\n        /* \"#utility.yul\":16870:16882   */\n      add\n        /* \"#utility.yul\":16863:16882   */\n      swap1\n      pop\n        /* \"#utility.yul\":16522:16888   */\n      swap2\n      swap1\n      pop\n      jump\t// out\n        /* \"#utility.yul\":16894:17313   */\n    tag_111:\n        /* \"#utility.yul\":17060:17064   */\n      0x00\n        /* \"#utility.yul\":17098:17100   */\n      0x20\n        /* \"#utility.yul\":17087:17096   */\n      dup3\n        /* \"#utility.yul\":17083:17101   */\n      add\n        /* \"#utility.yul\":17075:17101   */\n      swap1\n      pop\n        /* \"#utility.yul\":17147:17156   */\n      dup2\n        /* \"#utility.yul\":17141:17145   */\n      dup2\n        /* \"#utility.yul\":17137:17157   */\n      sub\n        /* \"#utility.yul\":17133:17134   */\n      0x00\n        /* \"#utility.yul\":17122:17131   */\n      dup4\n        /* \"#utility.yul\":17118:17135   */\n      add\n        /* \"#utility.yul\":17111:17158   */\n      mstore\n        /* \"#utility.yul\":17175:17306   */\n      tag_409\n        /* \"#utility.yul\":17301:17305   */\n      dup2\n        /* \"#utility.yul\":17175:17306   */\n      tag_240\n      jump\t// in\n    tag_409:\n        /* \"#utility.yul\":17167:17306   */\n      swap1\n      pop\n        /* \"#utility.yul\":16894:17313   */\n      swap2\n      swap1\n      pop\n      jump\t// out\n        /* \"#utility.yul\":17319:17498   */\n    tag_241:\n        /* \"#utility.yul\":17459:17490   */\n      0x4c612073756261737461207961206675652066696e616c697a6164612e000000\n        /* \"#utility.yul\":17455:17456   */\n      0x00\n        /* \"#utility.yul\":17447:17453   */\n      dup3\n        /* \"#utility.yul\":17443:17457   */\n      add\n        /* \"#utility.yul\":17436:17491   */\n      mstore\n        /* \"#utility.yul\":17319:17498   */\n      pop\n      jump\t// out\n        /* \"#utility.yul\":17504:17870   */\n    tag_242:\n        /* \"#utility.yul\":17646:17649   */\n      0x00\n        /* \"#utility.yul\":17667:17734   */\n      tag_412\n        /* \"#utility.yul\":17731:17733   */\n      0x1d\n        /* \"#utility.yul\":17726:17729   */\n      dup4\n        /* \"#utility.yul\":17667:17734   */\n      tag_220\n      jump\t// in\n    tag_412:\n        /* \"#utility.yul\":17660:17734   */\n      swap2\n      pop\n        /* \"#utility.yul\":17743:17836   */\n      tag_413\n        /* \"#utility.yul\":17832:17835   */\n      dup3\n        /* \"#utility.yul\":17743:17836   */\n      tag_241\n      jump\t// in\n    tag_413:\n        /* \"#utility.yul\":17861:17863   */\n      0x20\n        /* \"#utility.yul\":17856:17859   */\n      dup3\n        /* \"#utility.yul\":17852:17864   */\n      add\n        /* \"#utility.yul\":17845:17864   */\n      swap1\n      pop\n        /* \"#utility.yul\":17504:17870   */\n      swap2\n      swap1\n      pop\n      jump\t// out\n        /* \"#utility.yul\":17876:18295   */\n    tag_114:\n        /* \"#utility.yul\":18042:18046   */\n      0x00\n        /* \"#utility.yul\":18080:18082   */\n      0x20\n        /* \"#utility.yul\":18069:18078   */\n      dup3\n        /* \"#utility.yul\":18065:18083   */\n      add\n        /* \"#utility.yul\":18057:18083   */\n      swap1\n      pop\n        /* \"#utility.yul\":18129:18138   */\n      dup2\n        /* \"#utility.yul\":18123:18127   */\n      dup2\n        /* \"#utility.yul\":18119:18139   */\n      sub\n        /* \"#utility.yul\":18115:18116   */\n      0x00\n        /* \"#utility.yul\":18104:18113   */\n      dup4\n        /* \"#utility.yul\":18100:18117   */\n      add\n        /* \"#utility.yul\":18093:18140   */\n      mstore\n        /* \"#utility.yul\":18157:18288   */\n      tag_415\n        /* \"#utility.yul\":18283:18287   */\n      dup2\n        /* \"#utility.yul\":18157:18288   */\n      tag_242\n      jump\t// in\n    tag_415:\n        /* \"#utility.yul\":18149:18288   */\n      swap1\n      pop\n        /* \"#utility.yul\":17876:18295   */\n      swap2\n      swap1\n      pop\n      jump\t// out\n        /* \"#utility.yul\":18301:18476   */\n    tag_243:\n        /* \"#utility.yul\":18441:18468   */\n      0x4c6120737562617374612066756520656c696d696e6164612e00000000000000\n        /* \"#utility.yul\":18437:18438   */\n      0x00\n        /* \"#utility.yul\":18429:18435   */\n      dup3\n        /* \"#utility.yul\":18425:18439   */\n      add\n        /* \"#utility.yul\":18418:18469   */\n      mstore\n        /* \"#utility.yul\":18301:18476   */\n      pop\n      jump\t// out\n        /* \"#utility.yul\":18482:18848   */\n    tag_244:\n        /* \"#utility.yul\":18624:18627   */\n      0x00\n        /* \"#utility.yul\":18645:18712   */\n      tag_418\n        /* \"#utility.yul\":18709:18711   */\n      0x19\n        /* \"#utility.yul\":18704:18707   */\n      dup4\n        /* \"#utility.yul\":18645:18712   */\n      tag_220\n      jump\t// in\n    tag_418:\n        /* \"#utility.yul\":18638:18712   */\n      swap2\n      pop\n        /* \"#utility.yul\":18721:18814   */\n      tag_419\n        /* \"#utility.yul\":18810:18813   */\n      dup3\n        /* \"#utility.yul\":18721:18814   */\n      tag_243\n      jump\t// in\n    tag_419:\n        /* \"#utility.yul\":18839:18841   */\n      0x20\n        /* \"#utility.yul\":18834:18837   */\n      dup3\n        /* \"#utility.yul\":18830:18842   */\n      add\n        /* \"#utility.yul\":18823:18842   */\n      swap1\n      pop\n        /* \"#utility.yul\":18482:18848   */\n      swap2\n      swap1\n      pop\n      jump\t// out\n        /* \"#utility.yul\":18854:19273   */\n    tag_117:\n        /* \"#utility.yul\":19020:19024   */\n      0x00\n        /* \"#utility.yul\":19058:19060   */\n      0x20\n        /* \"#utility.yul\":19047:19056   */\n      dup3\n        /* \"#utility.yul\":19043:19061   */\n      add\n        /* \"#utility.yul\":19035:19061   */\n      swap1\n      pop\n        /* \"#utility.yul\":19107:19116   */\n      dup2\n        /* \"#utility.yul\":19101:19105   */\n      dup2\n        /* \"#utility.yul\":19097:19117   */\n      sub\n        /* \"#utility.yul\":19093:19094   */\n      0x00\n        /* \"#utility.yul\":19082:19091   */\n      dup4\n        /* \"#utility.yul\":19078:19095   */\n      add\n        /* \"#utility.yul\":19071:19118   */\n      mstore\n        /* \"#utility.yul\":19135:19266   */\n      tag_421\n        /* \"#utility.yul\":19261:19265   */\n      dup2\n        /* \"#utility.yul\":19135:19266   */\n      tag_244\n      jump\t// in\n    tag_421:\n        /* \"#utility.yul\":19127:19266   */\n      swap1\n      pop\n        /* \"#utility.yul\":18854:19273   */\n      swap2\n      swap1\n      pop\n      jump\t// out\n        /* \"#utility.yul\":19279:19470   */\n    tag_120:\n        /* \"#utility.yul\":19319:19322   */\n      0x00\n        /* \"#utility.yul\":19338:19358   */\n      tag_423\n        /* \"#utility.yul\":19356:19357   */\n      dup3\n        /* \"#utility.yul\":19338:19358   */\n      tag_205\n      jump\t// in\n    tag_423:\n        /* \"#utility.yul\":19333:19358   */\n      swap2\n      pop\n        /* \"#utility.yul\":19372:19392   */\n      tag_424\n        /* \"#utility.yul\":19390:19391   */\n      dup4\n        /* \"#utility.yul\":19372:19392   */\n      tag_205\n      jump\t// in\n    tag_424:\n        /* \"#utility.yul\":19367:19392   */\n      swap3\n      pop\n        /* \"#utility.yul\":19415:19416   */\n      dup3\n        /* \"#utility.yul\":19412:19413   */\n      dup3\n        /* \"#utility.yul\":19408:19417   */\n      add\n        /* \"#utility.yul\":19401:19417   */\n      swap1\n      pop\n        /* \"#utility.yul\":19436:19439   */\n      dup1\n        /* \"#utility.yul\":19433:19434   */\n      dup3\n        /* \"#utility.yul\":19430:19440   */\n      gt\n        /* \"#utility.yul\":19427:19463   */\n      iszero\n      tag_425\n      jumpi\n        /* \"#utility.yul\":19443:19461   */\n      tag_426\n      tag_232\n      jump\t// in\n    tag_426:\n        /* \"#utility.yul\":19427:19463   */\n    tag_425:\n        /* \"#utility.yul\":19279:19470   */\n      swap3\n      swap2\n      pop\n      pop\n      jump\t// out\n        /* \"#utility.yul\":19476:19724   */\n    tag_245:\n        /* \"#utility.yul\":19616:19650   */\n      0x536f6c6f20656c2063726561646f72206f20656c2070726f706965746172696f\n        /* \"#utility.yul\":19612:19613   */\n      0x00\n        /* \"#utility.yul\":19604:19610   */\n      dup3\n        /* \"#utility.yul\":19600:19614   */\n      add\n        /* \"#utility.yul\":19593:19651   */\n      mstore\n        /* \"#utility.yul\":19685:19716   */\n      0x2070756564656e2066696e616c697a6172206c6120737562617374612e000000\n        /* \"#utility.yul\":19680:19682   */\n      0x20\n        /* \"#utility.yul\":19672:19678   */\n      dup3\n        /* \"#utility.yul\":19668:19683   */\n      add\n        /* \"#utility.yul\":19661:19717   */\n      mstore\n        /* \"#utility.yul\":19476:19724   */\n      pop\n      jump\t// out\n        /* \"#utility.yul\":19730:20096   */\n    tag_246:\n        /* \"#utility.yul\":19872:19875   */\n      0x00\n        /* \"#utility.yul\":19893:19960   */\n      tag_429\n        /* \"#utility.yul\":19957:19959   */\n      0x3d\n        /* \"#utility.yul\":19952:19955   */\n      dup4\n        /* \"#utility.yul\":19893:19960   */\n      tag_220\n      jump\t// in\n    tag_429:\n        /* \"#utility.yul\":19886:19960   */\n      swap2\n      pop\n        /* \"#utility.yul\":19969:20062   */\n      tag_430\n        /* \"#utility.yul\":20058:20061   */\n      dup3\n        /* \"#utility.yul\":19969:20062   */\n      tag_245\n      jump\t// in\n    tag_430:\n        /* \"#utility.yul\":20087:20089   */\n      0x40\n        /* \"#utility.yul\":20082:20085   */\n      dup3\n        /* \"#utility.yul\":20078:20090   */\n      add\n        /* \"#utility.yul\":20071:20090   */\n      swap1\n      pop\n        /* \"#utility.yul\":19730:20096   */\n      swap2\n      swap1\n      pop\n      jump\t// out\n        /* \"#utility.yul\":20102:20521   */\n    tag_132:\n        /* \"#utility.yul\":20268:20272   */\n      0x00\n        /* \"#utility.yul\":20306:20308   */\n      0x20\n        /* \"#utility.yul\":20295:20304   */\n      dup3\n        /* \"#utility.yul\":20291:20309   */\n      add\n        /* \"#utility.yul\":20283:20309   */\n      swap1\n      pop\n        /* \"#utility.yul\":20355:20364   */\n      dup2\n        /* \"#utility.yul\":20349:20353   */\n      dup2\n        /* \"#utility.yul\":20345:20365   */\n      sub\n        /* \"#utility.yul\":20341:20342   */\n      0x00\n        /* \"#utility.yul\":20330:20339   */\n      dup4\n        /* \"#utility.yul\":20326:20343   */\n      add\n        /* \"#utility.yul\":20319:20366   */\n      mstore\n        /* \"#utility.yul\":20383:20514   */\n      tag_432\n        /* \"#utility.yul\":20509:20513   */\n      dup2\n        /* \"#utility.yul\":20383:20514   */\n      tag_246\n      jump\t// in\n    tag_432:\n        /* \"#utility.yul\":20375:20514   */\n      swap1\n      pop\n        /* \"#utility.yul\":20102:20521   */\n      swap2\n      swap1\n      pop\n      jump\t// out\n        /* \"#utility.yul\":20527:20760   */\n    tag_247:\n        /* \"#utility.yul\":20667:20701   */\n      0x4c612073756261737461206e6f206861206c6c656761646f2061207375206665\n        /* \"#utility.yul\":20663:20664   */\n      0x00\n        /* \"#utility.yul\":20655:20661   */\n      dup3\n        /* \"#utility.yul\":20651:20665   */\n      add\n        /* \"#utility.yul\":20644:20702   */\n      mstore\n        /* \"#utility.yul\":20736:20752   */\n      0x636861206465206369657272652e000000000000000000000000000000000000\n        /* \"#utility.yul\":20731:20733   */\n      0x20\n        /* \"#utility.yul\":20723:20729   */\n      dup3\n        /* \"#utility.yul\":20719:20734   */\n      add\n        /* \"#utility.yul\":20712:20753   */\n      mstore\n        /* \"#utility.yul\":20527:20760   */\n      pop\n      jump\t// out\n        /* \"#utility.yul\":20766:21132   */\n    tag_248:\n        /* \"#utility.yul\":20908:20911   */\n      0x00\n        /* \"#utility.yul\":20929:20996   */\n      tag_435\n        /* \"#utility.yul\":20993:20995   */\n      0x2e\n        /* \"#utility.yul\":20988:20991   */\n      dup4\n        /* \"#utility.yul\":20929:20996   */\n      tag_220\n      jump\t// in\n    tag_435:\n        /* \"#utility.yul\":20922:20996   */\n      swap2\n      pop\n        /* \"#utility.yul\":21005:21098   */\n      tag_436\n        /* \"#utility.yul\":21094:21097   */\n      dup3\n        /* \"#utility.yul\":21005:21098   */\n      tag_247\n      jump\t// in\n    tag_436:\n        /* \"#utility.yul\":21123:21125   */\n      0x40\n        /* \"#utility.yul\":21118:21121   */\n      dup3\n        /* \"#utility.yul\":21114:21126   */\n      add\n        /* \"#utility.yul\":21107:21126   */\n      swap1\n      pop\n        /* \"#utility.yul\":20766:21132   */\n      swap2\n      swap1\n      pop\n      jump\t// out\n        /* \"#utility.yul\":21138:21557   */\n    tag_136:\n        /* \"#utility.yul\":21304:21308   */\n      0x00\n        /* \"#utility.yul\":21342:21344   */\n      0x20\n        /* \"#utility.yul\":21331:21340   */\n      dup3\n        /* \"#utility.yul\":21327:21345   */\n      add\n        /* \"#utility.yul\":21319:21345   */\n      swap1\n      pop\n        /* \"#utility.yul\":21391:21400   */\n      dup2\n        /* \"#utility.yul\":21385:21389   */\n      dup2\n        /* \"#utility.yul\":21381:21401   */\n      sub\n        /* \"#utility.yul\":21377:21378   */\n      0x00\n        /* \"#utility.yul\":21366:21375   */\n      dup4\n        /* \"#utility.yul\":21362:21379   */\n      add\n        /* \"#utility.yul\":21355:21402   */\n      mstore\n        /* \"#utility.yul\":21419:21550   */\n      tag_438\n        /* \"#utility.yul\":21545:21549   */\n      dup2\n        /* \"#utility.yul\":21419:21550   */\n      tag_248\n      jump\t// in\n    tag_438:\n        /* \"#utility.yul\":21411:21550   */\n      swap1\n      pop\n        /* \"#utility.yul\":21138:21557   */\n      swap2\n      swap1\n      pop\n      jump\t// out\n        /* \"#utility.yul\":21563:21743   */\n    tag_249:\n        /* \"#utility.yul\":21703:21735   */\n      0x4e6f207469656e657320666f6e646f73207061726120726574697261722e0000\n        /* \"#utility.yul\":21699:21700   */\n      0x00\n        /* \"#utility.yul\":21691:21697   */\n      dup3\n        /* \"#utility.yul\":21687:21701   */\n      add\n        /* \"#utility.yul\":21680:21736   */\n      mstore\n        /* \"#utility.yul\":21563:21743   */\n      pop\n      jump\t// out\n        /* \"#utility.yul\":21749:22115   */\n    tag_250:\n        /* \"#utility.yul\":21891:21894   */\n      0x00\n        /* \"#utility.yul\":21912:21979   */\n      tag_441\n        /* \"#utility.yul\":21976:21978   */\n      0x1e\n        /* \"#utility.yul\":21971:21974   */\n      dup4\n        /* \"#utility.yul\":21912:21979   */\n      tag_220\n      jump\t// in\n    tag_441:\n        /* \"#utility.yul\":21905:21979   */\n      swap2\n      pop\n        /* \"#utility.yul\":21988:22081   */\n      tag_442\n        /* \"#utility.yul\":22077:22080   */\n      dup3\n        /* \"#utility.yul\":21988:22081   */\n      tag_249\n      jump\t// in\n    tag_442:\n        /* \"#utility.yul\":22106:22108   */\n      0x20\n        /* \"#utility.yul\":22101:22104   */\n      dup3\n        /* \"#utility.yul\":22097:22109   */\n      add\n        /* \"#utility.yul\":22090:22109   */\n      swap1\n      pop\n        /* \"#utility.yul\":21749:22115   */\n      swap2\n      swap1\n      pop\n      jump\t// out\n        /* \"#utility.yul\":22121:22540   */\n    tag_150:\n        /* \"#utility.yul\":22287:22291   */\n      0x00\n        /* \"#utility.yul\":22325:22327   */\n      0x20\n        /* \"#utility.yul\":22314:22323   */\n      dup3\n        /* \"#utility.yul\":22310:22328   */\n      add\n        /* \"#utility.yul\":22302:22328   */\n      swap1\n      pop\n        /* \"#utility.yul\":22374:22383   */\n      dup2\n        /* \"#utility.yul\":22368:22372   */\n      dup2\n        /* \"#utility.yul\":22364:22384   */\n      sub\n        /* \"#utility.yul\":22360:22361   */\n      0x00\n        /* \"#utility.yul\":22349:22358   */\n      dup4\n        /* \"#utility.yul\":22345:22362   */\n      add\n        /* \"#utility.yul\":22338:22385   */\n      mstore\n        /* \"#utility.yul\":22402:22533   */\n      tag_444\n        /* \"#utility.yul\":22528:22532   */\n      dup2\n        /* \"#utility.yul\":22402:22533   */\n      tag_250\n      jump\t// in\n    tag_444:\n        /* \"#utility.yul\":22394:22533   */\n      swap1\n      pop\n        /* \"#utility.yul\":22121:22540   */\n      swap2\n      swap1\n      pop\n      jump\t// out\n        /* \"#utility.yul\":22546:22793   */\n    tag_251:\n        /* \"#utility.yul\":22686:22720   */\n      0x536f6c6f20656c2063726561646f72206f20656c2070726f706965746172696f\n        /* \"#utility.yul\":22682:22683   */\n      0x00\n        /* \"#utility.yul\":22674:22680   */\n      dup3\n        /* \"#utility.yul\":22670:22684   */\n      add\n        /* \"#utility.yul\":22663:22721   */\n      mstore\n        /* \"#utility.yul\":22755:22785   */\n      0x2070756564656e20656c696d696e6172206c6120737562617374612e00000000\n        /* \"#utility.yul\":22750:22752   */\n      0x20\n        /* \"#utility.yul\":22742:22748   */\n      dup3\n        /* \"#utility.yul\":22738:22753   */\n      add\n        /* \"#utility.yul\":22731:22786   */\n      mstore\n        /* \"#utility.yul\":22546:22793   */\n      pop\n      jump\t// out\n        /* \"#utility.yul\":22799:23165   */\n    tag_252:\n        /* \"#utility.yul\":22941:22944   */\n      0x00\n        /* \"#utility.yul\":22962:23029   */\n      tag_447\n        /* \"#utility.yul\":23026:23028   */\n      0x3c\n        /* \"#utility.yul\":23021:23024   */\n      dup4\n        /* \"#utility.yul\":22962:23029   */\n      tag_220\n      jump\t// in\n    tag_447:\n        /* \"#utility.yul\":22955:23029   */\n      swap2\n      pop\n        /* \"#utility.yul\":23038:23131   */\n      tag_448\n        /* \"#utility.yul\":23127:23130   */\n      dup3\n        /* \"#utility.yul\":23038:23131   */\n      tag_251\n      jump\t// in\n    tag_448:\n        /* \"#utility.yul\":23156:23158   */\n      0x40\n        /* \"#utility.yul\":23151:23154   */\n      dup3\n        /* \"#utility.yul\":23147:23159   */\n      add\n        /* \"#utility.yul\":23140:23159   */\n      swap1\n      pop\n        /* \"#utility.yul\":22799:23165   */\n      swap2\n      swap1\n      pop\n      jump\t// out\n        /* \"#utility.yul\":23171:23590   */\n    tag_164:\n        /* \"#utility.yul\":23337:23341   */\n      0x00\n        /* \"#utility.yul\":23375:23377   */\n      0x20\n        /* \"#utility.yul\":23364:23373   */\n      dup3\n        /* \"#utility.yul\":23360:23378   */\n      add\n        /* \"#utility.yul\":23352:23378   */\n      swap1\n      pop\n        /* \"#utility.yul\":23424:23433   */\n      dup2\n        /* \"#utility.yul\":23418:23422   */\n      dup2\n        /* \"#utility.yul\":23414:23434   */\n      sub\n        /* \"#utility.yul\":23410:23411   */\n      0x00\n        /* \"#utility.yul\":23399:23408   */\n      dup4\n        /* \"#utility.yul\":23395:23412   */\n      add\n        /* \"#utility.yul\":23388:23435   */\n      mstore\n        /* \"#utility.yul\":23452:23583   */\n      tag_450\n        /* \"#utility.yul\":23578:23582   */\n      dup2\n        /* \"#utility.yul\":23452:23583   */\n      tag_252\n      jump\t// in\n    tag_450:\n        /* \"#utility.yul\":23444:23583   */\n      swap1\n      pop\n        /* \"#utility.yul\":23171:23590   */\n      swap2\n      swap1\n      pop\n      jump\t// out\n        /* \"#utility.yul\":23596:23827   */\n    tag_253:\n        /* \"#utility.yul\":23736:23770   */\n      0x4e6f20736520707565646520656c696d696e617220756e612073756261737461\n        /* \"#utility.yul\":23732:23733   */\n      0x00\n        /* \"#utility.yul\":23724:23730   */\n      dup3\n        /* \"#utility.yul\":23720:23734   */\n      add\n        /* \"#utility.yul\":23713:23771   */\n      mstore\n        /* \"#utility.yul\":23805:23819   */\n      0x2066696e616c697a6164612e0000000000000000000000000000000000000000\n        /* \"#utility.yul\":23800:23802   */\n      0x20\n        /* \"#utility.yul\":23792:23798   */\n      dup3\n        /* \"#utility.yul\":23788:23803   */\n      add\n        /* \"#utility.yul\":23781:23820   */\n      mstore\n        /* \"#utility.yul\":23596:23827   */\n      pop\n      jump\t// out\n        /* \"#utility.yul\":23833:24199   */\n    tag_254:\n        /* \"#utility.yul\":23975:23978   */\n      0x00\n        /* \"#utility.yul\":23996:24063   */\n      tag_453\n        /* \"#utility.yul\":24060:24062   */\n      0x2c\n        /* \"#utility.yul\":24055:24058   */\n      dup4\n        /* \"#utility.yul\":23996:24063   */\n      tag_220\n      jump\t// in\n    tag_453:\n        /* \"#utility.yul\":23989:24063   */\n      swap2\n      pop\n        /* \"#utility.yul\":24072:24165   */\n      tag_454\n        /* \"#utility.yul\":24161:24164   */\n      dup3\n        /* \"#utility.yul\":24072:24165   */\n      tag_253\n      jump\t// in\n    tag_454:\n        /* \"#utility.yul\":24190:24192   */\n      0x40\n        /* \"#utility.yul\":24185:24188   */\n      dup3\n        /* \"#utility.yul\":24181:24193   */\n      add\n        /* \"#utility.yul\":24174:24193   */\n      swap1\n      pop\n        /* \"#utility.yul\":23833:24199   */\n      swap2\n      swap1\n      pop\n      jump\t// out\n        /* \"#utility.yul\":24205:24624   */\n    tag_167:\n        /* \"#utility.yul\":24371:24375   */\n      0x00\n        /* \"#utility.yul\":24409:24411   */\n      0x20\n        /* \"#utility.yul\":24398:24407   */\n      dup3\n        /* \"#utility.yul\":24394:24412   */\n      add\n        /* \"#utility.yul\":24386:24412   */\n      swap1\n      pop\n        /* \"#utility.yul\":24458:24467   */\n      dup2\n        /* \"#utility.yul\":24452:24456   */\n      dup2\n        /* \"#utility.yul\":24448:24468   */\n      sub\n        /* \"#utility.yul\":24444:24445   */\n      0x00\n        /* \"#utility.yul\":24433:24442   */\n      dup4\n        /* \"#utility.yul\":24429:24446   */\n      add\n        /* \"#utility.yul\":24422:24469   */\n      mstore\n        /* \"#utility.yul\":24486:24617   */\n      tag_456\n        /* \"#utility.yul\":24612:24616   */\n      dup2\n        /* \"#utility.yul\":24486:24617   */\n      tag_254\n      jump\t// in\n    tag_456:\n        /* \"#utility.yul\":24478:24617   */\n      swap1\n      pop\n        /* \"#utility.yul\":24205:24624   */\n      swap2\n      swap1\n      pop\n      jump\t// out\n        /* \"#utility.yul\":24630:24808   */\n    tag_255:\n        /* \"#utility.yul\":24770:24800   */\n      0x4c6120737562617374612079612066756520656c696d696e6164612e00000000\n        /* \"#utility.yul\":24766:24767   */\n      0x00\n        /* \"#utility.yul\":24758:24764   */\n      dup3\n        /* \"#utility.yul\":24754:24768   */\n      add\n        /* \"#utility.yul\":24747:24801   */\n      mstore\n        /* \"#utility.yul\":24630:24808   */\n      pop\n      jump\t// out\n        /* \"#utility.yul\":24814:25180   */\n    tag_256:\n        /* \"#utility.yul\":24956:24959   */\n      0x00\n        /* \"#utility.yul\":24977:25044   */\n      tag_459\n        /* \"#utility.yul\":25041:25043   */\n      0x1c\n        /* \"#utility.yul\":25036:25039   */\n      dup4\n        /* \"#utility.yul\":24977:25044   */\n      tag_220\n      jump\t// in\n    tag_459:\n        /* \"#utility.yul\":24970:25044   */\n      swap2\n      pop\n        /* \"#utility.yul\":25053:25146   */\n      tag_460\n        /* \"#utility.yul\":25142:25145   */\n      dup3\n        /* \"#utility.yul\":25053:25146   */\n      tag_255\n      jump\t// in\n    tag_460:\n        /* \"#utility.yul\":25171:25173   */\n      0x20\n        /* \"#utility.yul\":25166:25169   */\n      dup3\n        /* \"#utility.yul\":25162:25174   */\n      add\n        /* \"#utility.yul\":25155:25174   */\n      swap1\n      pop\n        /* \"#utility.yul\":24814:25180   */\n      swap2\n      swap1\n      pop\n      jump\t// out\n        /* \"#utility.yul\":25186:25605   */\n    tag_170:\n        /* \"#utility.yul\":25352:25356   */\n      0x00\n        /* \"#utility.yul\":25390:25392   */\n      0x20\n        /* \"#utility.yul\":25379:25388   */\n      dup3\n        /* \"#utility.yul\":25375:25393   */\n      add\n        /* \"#utility.yul\":25367:25393   */\n      swap1\n      pop\n        /* \"#utility.yul\":25439:25448   */\n      dup2\n        /* \"#utility.yul\":25433:25437   */\n      dup2\n        /* \"#utility.yul\":25429:25449   */\n      sub\n        /* \"#utility.yul\":25425:25426   */\n      0x00\n        /* \"#utility.yul\":25414:25423   */\n      dup4\n        /* \"#utility.yul\":25410:25427   */\n      add\n        /* \"#utility.yul\":25403:25450   */\n      mstore\n        /* \"#utility.yul\":25467:25598   */\n      tag_462\n        /* \"#utility.yul\":25593:25597   */\n      dup2\n        /* \"#utility.yul\":25467:25598   */\n      tag_256\n      jump\t// in\n    tag_462:\n        /* \"#utility.yul\":25459:25598   */\n      swap1\n      pop\n        /* \"#utility.yul\":25186:25605   */\n      swap2\n      swap1\n      pop\n      jump\t// out\n        /* \"#utility.yul\":25611:25851   */\n    tag_257:\n        /* \"#utility.yul\":25751:25785   */\n      0x4e6f20736520707565646520656c696d696e617220756e612073756261737461\n        /* \"#utility.yul\":25747:25748   */\n      0x00\n        /* \"#utility.yul\":25739:25745   */\n      dup3\n        /* \"#utility.yul\":25735:25749   */\n      add\n        /* \"#utility.yul\":25728:25786   */\n      mstore\n        /* \"#utility.yul\":25820:25843   */\n      0x20636f6e206f66657274617320616374697661732e0000000000000000000000\n        /* \"#utility.yul\":25815:25817   */\n      0x20\n        /* \"#utility.yul\":25807:25813   */\n      dup3\n        /* \"#utility.yul\":25803:25818   */\n      add\n        /* \"#utility.yul\":25796:25844   */\n      mstore\n        /* \"#utility.yul\":25611:25851   */\n      pop\n      jump\t// out\n        /* \"#utility.yul\":25857:26223   */\n    tag_258:\n        /* \"#utility.yul\":25999:26002   */\n      0x00\n        /* \"#utility.yul\":26020:26087   */\n      tag_465\n        /* \"#utility.yul\":26084:26086   */\n      0x35\n        /* \"#utility.yul\":26079:26082   */\n      dup4\n        /* \"#utility.yul\":26020:26087   */\n      tag_220\n      jump\t// in\n    tag_465:\n        /* \"#utility.yul\":26013:26087   */\n      swap2\n      pop\n        /* \"#utility.yul\":26096:26189   */\n      tag_466\n        /* \"#utility.yul\":26185:26188   */\n      dup3\n        /* \"#utility.yul\":26096:26189   */\n      tag_257\n      jump\t// in\n    tag_466:\n        /* \"#utility.yul\":26214:26216   */\n      0x40\n        /* \"#utility.yul\":26209:26212   */\n      dup3\n        /* \"#utility.yul\":26205:26217   */\n      add\n        /* \"#utility.yul\":26198:26217   */\n      swap1\n      pop\n        /* \"#utility.yul\":25857:26223   */\n      swap2\n      swap1\n      pop\n      jump\t// out\n        /* \"#utility.yul\":26229:26648   */\n    tag_173:\n        /* \"#utility.yul\":26395:26399   */\n      0x00\n        /* \"#utility.yul\":26433:26435   */\n      0x20\n        /* \"#utility.yul\":26422:26431   */\n      dup3\n        /* \"#utility.yul\":26418:26436   */\n      add\n        /* \"#utility.yul\":26410:26436   */\n      swap1\n      pop\n        /* \"#utility.yul\":26482:26491   */\n      dup2\n        /* \"#utility.yul\":26476:26480   */\n      dup2\n        /* \"#utility.yul\":26472:26492   */\n      sub\n        /* \"#utility.yul\":26468:26469   */\n      0x00\n        /* \"#utility.yul\":26457:26466   */\n      dup4\n        /* \"#utility.yul\":26453:26470   */\n      add\n        /* \"#utility.yul\":26446:26493   */\n      mstore\n        /* \"#utility.yul\":26510:26641   */\n      tag_468\n        /* \"#utility.yul\":26636:26640   */\n      dup2\n        /* \"#utility.yul\":26510:26641   */\n      tag_258\n      jump\t// in\n    tag_468:\n        /* \"#utility.yul\":26502:26641   */\n      swap1\n      pop\n        /* \"#utility.yul\":26229:26648   */\n      swap2\n      swap1\n      pop\n      jump\t// out\n        /* \"#utility.yul\":26654:26827   */\n    tag_259:\n        /* \"#utility.yul\":26794:26819   */\n      0x4e6f206572657320656c2070726f706965746172696f2e000000000000000000\n        /* \"#utility.yul\":26790:26791   */\n      0x00\n        /* \"#utility.yul\":26782:26788   */\n      dup3\n        /* \"#utility.yul\":26778:26792   */\n      add\n        /* \"#utility.yul\":26771:26820   */\n      mstore\n        /* \"#utility.yul\":26654:26827   */\n      pop\n      jump\t// out\n        /* \"#utility.yul\":26833:27199   */\n    tag_260:\n        /* \"#utility.yul\":26975:26978   */\n      0x00\n        /* \"#utility.yul\":26996:27063   */\n      tag_471\n        /* \"#utility.yul\":27060:27062   */\n      0x17\n        /* \"#utility.yul\":27055:27058   */\n      dup4\n        /* \"#utility.yul\":26996:27063   */\n      tag_220\n      jump\t// in\n    tag_471:\n        /* \"#utility.yul\":26989:27063   */\n      swap2\n      pop\n        /* \"#utility.yul\":27072:27165   */\n      tag_472\n        /* \"#utility.yul\":27161:27164   */\n      dup3\n        /* \"#utility.yul\":27072:27165   */\n      tag_259\n      jump\t// in\n    tag_472:\n        /* \"#utility.yul\":27190:27192   */\n      0x20\n        /* \"#utility.yul\":27185:27188   */\n      dup3\n        /* \"#utility.yul\":27181:27193   */\n      add\n        /* \"#utility.yul\":27174:27193   */\n      swap1\n      pop\n        /* \"#utility.yul\":26833:27199   */\n      swap2\n      swap1\n      pop\n      jump\t// out\n        /* \"#utility.yul\":27205:27624   */\n    tag_177:\n        /* \"#utility.yul\":27371:27375   */\n      0x00\n        /* \"#utility.yul\":27409:27411   */\n      0x20\n        /* \"#utility.yul\":27398:27407   */\n      dup3\n        /* \"#utility.yul\":27394:27412   */\n      add\n        /* \"#utility.yul\":27386:27412   */\n      swap1\n      pop\n        /* \"#utility.yul\":27458:27467   */\n      dup2\n        /* \"#utility.yul\":27452:27456   */\n      dup2\n        /* \"#utility.yul\":27448:27468   */\n      sub\n        /* \"#utility.yul\":27444:27445   */\n      0x00\n        /* \"#utility.yul\":27433:27442   */\n      dup4\n        /* \"#utility.yul\":27429:27446   */\n      add\n        /* \"#utility.yul\":27422:27469   */\n      mstore\n        /* \"#utility.yul\":27486:27617   */\n      tag_474\n        /* \"#utility.yul\":27612:27616   */\n      dup2\n        /* \"#utility.yul\":27486:27617   */\n      tag_260\n      jump\t// in\n    tag_474:\n        /* \"#utility.yul\":27478:27617   */\n      swap1\n      pop\n        /* \"#utility.yul\":27205:27624   */\n      swap2\n      swap1\n      pop\n      jump\t// out\n        /* \"#utility.yul\":27630:27855   */\n    tag_261:\n        /* \"#utility.yul\":27770:27804   */\n      0x4c61206e7565766120646972656363696f6e206e6f2070756564652073657220\n        /* \"#utility.yul\":27766:27767   */\n      0x00\n        /* \"#utility.yul\":27758:27764   */\n      dup3\n        /* \"#utility.yul\":27754:27768   */\n      add\n        /* \"#utility.yul\":27747:27805   */\n      mstore\n        /* \"#utility.yul\":27839:27847   */\n      0x76616369612e0000000000000000000000000000000000000000000000000000\n        /* \"#utility.yul\":27834:27836   */\n      0x20\n        /* \"#utility.yul\":27826:27832   */\n      dup3\n        /* \"#utility.yul\":27822:27837   */\n      add\n        /* \"#utility.yul\":27815:27848   */\n      mstore\n        /* \"#utility.yul\":27630:27855   */\n      pop\n      jump\t// out\n        /* \"#utility.yul\":27861:28227   */\n    tag_262:\n        /* \"#utility.yul\":28003:28006   */\n      0x00\n        /* \"#utility.yul\":28024:28091   */\n      tag_477\n        /* \"#utility.yul\":28088:28090   */\n      0x26\n        /* \"#utility.yul\":28083:28086   */\n      dup4\n        /* \"#utility.yul\":28024:28091   */\n      tag_220\n      jump\t// in\n    tag_477:\n        /* \"#utility.yul\":28017:28091   */\n      swap2\n      pop\n        /* \"#utility.yul\":28100:28193   */\n      tag_478\n        /* \"#utility.yul\":28189:28192   */\n      dup3\n        /* \"#utility.yul\":28100:28193   */\n      tag_261\n      jump\t// in\n    tag_478:\n        /* \"#utility.yul\":28218:28220   */\n      0x40\n        /* \"#utility.yul\":28213:28216   */\n      dup3\n        /* \"#utility.yul\":28209:28221   */\n      add\n        /* \"#utility.yul\":28202:28221   */\n      swap1\n      pop\n        /* \"#utility.yul\":27861:28227   */\n      swap2\n      swap1\n      pop\n      jump\t// out\n        /* \"#utility.yul\":28233:28652   */\n    tag_181:\n        /* \"#utility.yul\":28399:28403   */\n      0x00\n        /* \"#utility.yul\":28437:28439   */\n      0x20\n        /* \"#utility.yul\":28426:28435   */\n      dup3\n        /* \"#utility.yul\":28422:28440   */\n      add\n        /* \"#utility.yul\":28414:28440   */\n      swap1\n      pop\n        /* \"#utility.yul\":28486:28495   */\n      dup2\n        /* \"#utility.yul\":28480:28484   */\n      dup2\n        /* \"#utility.yul\":28476:28496   */\n      sub\n        /* \"#utility.yul\":28472:28473   */\n      0x00\n        /* \"#utility.yul\":28461:28470   */\n      dup4\n        /* \"#utility.yul\":28457:28474   */\n      add\n        /* \"#utility.yul\":28450:28497   */\n      mstore\n        /* \"#utility.yul\":28514:28645   */\n      tag_480\n        /* \"#utility.yul\":28640:28644   */\n      dup2\n        /* \"#utility.yul\":28514:28645   */\n      tag_262\n      jump\t// in\n    tag_480:\n        /* \"#utility.yul\":28506:28645   */\n      swap1\n      pop\n        /* \"#utility.yul\":28233:28652   */\n      swap2\n      swap1\n      pop\n      jump\t// out\n        /* \"#utility.yul\":28658:28906   */\n    tag_263:\n        /* \"#utility.yul\":28798:28832   */\n      0x536f6c6f20656c2063726561646f72206f20656c2070726f706965746172696f\n        /* \"#utility.yul\":28794:28795   */\n      0x00\n        /* \"#utility.yul\":28786:28792   */\n      dup3\n        /* \"#utility.yul\":28782:28796   */\n      add\n        /* \"#utility.yul\":28775:28833   */\n      mstore\n        /* \"#utility.yul\":28867:28898   */\n      0x2070756564656e206d6f64696669636172206c6120737562617374612e000000\n        /* \"#utility.yul\":28862:28864   */\n      0x20\n        /* \"#utility.yul\":28854:28860   */\n      dup3\n        /* \"#utility.yul\":28850:28865   */\n      add\n        /* \"#utility.yul\":28843:28899   */\n      mstore\n        /* \"#utility.yul\":28658:28906   */\n      pop\n      jump\t// out\n        /* \"#utility.yul\":28912:29278   */\n    tag_264:\n        /* \"#utility.yul\":29054:29057   */\n      0x00\n        /* \"#utility.yul\":29075:29142   */\n      tag_483\n        /* \"#utility.yul\":29139:29141   */\n      0x3d\n        /* \"#utility.yul\":29134:29137   */\n      dup4\n        /* \"#utility.yul\":29075:29142   */\n      tag_220\n      jump\t// in\n    tag_483:\n        /* \"#utility.yul\":29068:29142   */\n      swap2\n      pop\n        /* \"#utility.yul\":29151:29244   */\n      tag_484\n        /* \"#utility.yul\":29240:29243   */\n      dup3\n        /* \"#utility.yul\":29151:29244   */\n      tag_263\n      jump\t// in\n    tag_484:\n        /* \"#utility.yul\":29269:29271   */\n      0x40\n        /* \"#utility.yul\":29264:29267   */\n      dup3\n        /* \"#utility.yul\":29260:29272   */\n      add\n        /* \"#utility.yul\":29253:29272   */\n      swap1\n      pop\n        /* \"#utility.yul\":28912:29278   */\n      swap2\n      swap1\n      pop\n      jump\t// out\n        /* \"#utility.yul\":29284:29703   */\n    tag_189:\n        /* \"#utility.yul\":29450:29454   */\n      0x00\n        /* \"#utility.yul\":29488:29490   */\n      0x20\n        /* \"#utility.yul\":29477:29486   */\n      dup3\n        /* \"#utility.yul\":29473:29491   */\n      add\n        /* \"#utility.yul\":29465:29491   */\n      swap1\n      pop\n        /* \"#utility.yul\":29537:29546   */\n      dup2\n        /* \"#utility.yul\":29531:29535   */\n      dup2\n        /* \"#utility.yul\":29527:29547   */\n      sub\n        /* \"#utility.yul\":29523:29524   */\n      0x00\n        /* \"#utility.yul\":29512:29521   */\n      dup4\n        /* \"#utility.yul\":29508:29525   */\n      add\n        /* \"#utility.yul\":29501:29548   */\n      mstore\n        /* \"#utility.yul\":29565:29696   */\n      tag_486\n        /* \"#utility.yul\":29691:29695   */\n      dup2\n        /* \"#utility.yul\":29565:29696   */\n      tag_264\n      jump\t// in\n    tag_486:\n        /* \"#utility.yul\":29557:29696   */\n      swap1\n      pop\n        /* \"#utility.yul\":29284:29703   */\n      swap2\n      swap1\n      pop\n      jump\t// out\n        /* \"#utility.yul\":29709:29941   */\n    tag_265:\n        /* \"#utility.yul\":29849:29883   */\n      0x4e6f207365207075656465206d6f6469666963617220756e6120737562617374\n        /* \"#utility.yul\":29845:29846   */\n      0x00\n        /* \"#utility.yul\":29837:29843   */\n      dup3\n        /* \"#utility.yul\":29833:29847   */\n      add\n        /* \"#utility.yul\":29826:29884   */\n      mstore\n        /* \"#utility.yul\":29918:29933   */\n      0x612066696e616c697a6164612e00000000000000000000000000000000000000\n        /* \"#utility.yul\":29913:29915   */\n      0x20\n        /* \"#utility.yul\":29905:29911   */\n      dup3\n        /* \"#utility.yul\":29901:29916   */\n      add\n        /* \"#utility.yul\":29894:29934   */\n      mstore\n        /* \"#utility.yul\":29709:29941   */\n      pop\n      jump\t// out\n        /* \"#utility.yul\":29947:30313   */\n    tag_266:\n        /* \"#utility.yul\":30089:30092   */\n      0x00\n        /* \"#utility.yul\":30110:30177   */\n      tag_489\n        /* \"#utility.yul\":30174:30176   */\n      0x2d\n        /* \"#utility.yul\":30169:30172   */\n      dup4\n        /* \"#utility.yul\":30110:30177   */\n      tag_220\n      jump\t// in\n    tag_489:\n        /* \"#utility.yul\":30103:30177   */\n      swap2\n      pop\n        /* \"#utility.yul\":30186:30279   */\n      tag_490\n        /* \"#utility.yul\":30275:30278   */\n      dup3\n        /* \"#utility.yul\":30186:30279   */\n      tag_265\n      jump\t// in\n    tag_490:\n        /* \"#utility.yul\":30304:30306   */\n      0x40\n        /* \"#utility.yul\":30299:30302   */\n      dup3\n        /* \"#utility.yul\":30295:30307   */\n      add\n        /* \"#utility.yul\":30288:30307   */\n      swap1\n      pop\n        /* \"#utility.yul\":29947:30313   */\n      swap2\n      swap1\n      pop\n      jump\t// out\n        /* \"#utility.yul\":30319:30738   */\n    tag_192:\n        /* \"#utility.yul\":30485:30489   */\n      0x00\n        /* \"#utility.yul\":30523:30525   */\n      0x20\n        /* \"#utility.yul\":30512:30521   */\n      dup3\n        /* \"#utility.yul\":30508:30526   */\n      add\n        /* \"#utility.yul\":30500:30526   */\n      swap1\n      pop\n        /* \"#utility.yul\":30572:30581   */\n      dup2\n        /* \"#utility.yul\":30566:30570   */\n      dup2\n        /* \"#utility.yul\":30562:30582   */\n      sub\n        /* \"#utility.yul\":30558:30559   */\n      0x00\n        /* \"#utility.yul\":30547:30556   */\n      dup4\n        /* \"#utility.yul\":30543:30560   */\n      add\n        /* \"#utility.yul\":30536:30583   */\n      mstore\n        /* \"#utility.yul\":30600:30731   */\n      tag_492\n        /* \"#utility.yul\":30726:30730   */\n      dup2\n        /* \"#utility.yul\":30600:30731   */\n      tag_266\n      jump\t// in\n    tag_492:\n        /* \"#utility.yul\":30592:30731   */\n      swap1\n      pop\n        /* \"#utility.yul\":30319:30738   */\n      swap2\n      swap1\n      pop\n      jump\t// out\n        /* \"#utility.yul\":30744:30975   */\n    tag_267:\n        /* \"#utility.yul\":30884:30918   */\n      0x4e6f207365207075656465206d6f6469666963617220756e6120737562617374\n        /* \"#utility.yul\":30880:30881   */\n      0x00\n        /* \"#utility.yul\":30872:30878   */\n      dup3\n        /* \"#utility.yul\":30868:30882   */\n      add\n        /* \"#utility.yul\":30861:30919   */\n      mstore\n        /* \"#utility.yul\":30953:30967   */\n      0x6120656c696d696e6164612e0000000000000000000000000000000000000000\n        /* \"#utility.yul\":30948:30950   */\n      0x20\n        /* \"#utility.yul\":30940:30946   */\n      dup3\n        /* \"#utility.yul\":30936:30951   */\n      add\n        /* \"#utility.yul\":30929:30968   */\n      mstore\n        /* \"#utility.yul\":30744:30975   */\n      pop\n      jump\t// out\n        /* \"#utility.yul\":30981:31347   */\n    tag_268:\n        /* \"#utility.yul\":31123:31126   */\n      0x00\n        /* \"#utility.yul\":31144:31211   */\n      tag_495\n        /* \"#utility.yul\":31208:31210   */\n      0x2c\n        /* \"#utility.yul\":31203:31206   */\n      dup4\n        /* \"#utility.yul\":31144:31211   */\n      tag_220\n      jump\t// in\n    tag_495:\n        /* \"#utility.yul\":31137:31211   */\n      swap2\n      pop\n        /* \"#utility.yul\":31220:31313   */\n      tag_496\n        /* \"#utility.yul\":31309:31312   */\n      dup3\n        /* \"#utility.yul\":31220:31313   */\n      tag_267\n      jump\t// in\n    tag_496:\n        /* \"#utility.yul\":31338:31340   */\n      0x40\n        /* \"#utility.yul\":31333:31336   */\n      dup3\n        /* \"#utility.yul\":31329:31341   */\n      add\n        /* \"#utility.yul\":31322:31341   */\n      swap1\n      pop\n        /* \"#utility.yul\":30981:31347   */\n      swap2\n      swap1\n      pop\n      jump\t// out\n        /* \"#utility.yul\":31353:31772   */\n    tag_195:\n        /* \"#utility.yul\":31519:31523   */\n      0x00\n        /* \"#utility.yul\":31557:31559   */\n      0x20\n        /* \"#utility.yul\":31546:31555   */\n      dup3\n        /* \"#utility.yul\":31542:31560   */\n      add\n        /* \"#utility.yul\":31534:31560   */\n      swap1\n      pop\n        /* \"#utility.yul\":31606:31615   */\n      dup2\n        /* \"#utility.yul\":31600:31604   */\n      dup2\n        /* \"#utility.yul\":31596:31616   */\n      sub\n        /* \"#utility.yul\":31592:31593   */\n      0x00\n        /* \"#utility.yul\":31581:31590   */\n      dup4\n        /* \"#utility.yul\":31577:31594   */\n      add\n        /* \"#utility.yul\":31570:31617   */\n      mstore\n        /* \"#utility.yul\":31634:31765   */\n      tag_498\n        /* \"#utility.yul\":31760:31764   */\n      dup2\n        /* \"#utility.yul\":31634:31765   */\n      tag_268\n      jump\t// in\n    tag_498:\n        /* \"#utility.yul\":31626:31765   */\n      swap1\n      pop\n        /* \"#utility.yul\":31353:31772   */\n      swap2\n      swap1\n      pop\n      jump\t// out\n        /* \"#utility.yul\":31778:32019   */\n    tag_269:\n        /* \"#utility.yul\":31918:31952   */\n      0x4e6f207365207075656465206d6f6469666963617220756e6120737562617374\n        /* \"#utility.yul\":31914:31915   */\n      0x00\n        /* \"#utility.yul\":31906:31912   */\n      dup3\n        /* \"#utility.yul\":31902:31916   */\n      add\n        /* \"#utility.yul\":31895:31953   */\n      mstore\n        /* \"#utility.yul\":31987:32011   */\n      0x6120636f6e206f66657274617320616374697661732e00000000000000000000\n        /* \"#utility.yul\":31982:31984   */\n      0x20\n        /* \"#utility.yul\":31974:31980   */\n      dup3\n        /* \"#utility.yul\":31970:31985   */\n      add\n        /* \"#utility.yul\":31963:32012   */\n      mstore\n        /* \"#utility.yul\":31778:32019   */\n      pop\n      jump\t// out\n        /* \"#utility.yul\":32025:32391   */\n    tag_270:\n        /* \"#utility.yul\":32167:32170   */\n      0x00\n        /* \"#utility.yul\":32188:32255   */\n      tag_501\n        /* \"#utility.yul\":32252:32254   */\n      0x36\n        /* \"#utility.yul\":32247:32250   */\n      dup4\n        /* \"#utility.yul\":32188:32255   */\n      tag_220\n      jump\t// in\n    tag_501:\n        /* \"#utility.yul\":32181:32255   */\n      swap2\n      pop\n        /* \"#utility.yul\":32264:32357   */\n      tag_502\n        /* \"#utility.yul\":32353:32356   */\n      dup3\n        /* \"#utility.yul\":32264:32357   */\n      tag_269\n      jump\t// in\n    tag_502:\n        /* \"#utility.yul\":32382:32384   */\n      0x40\n        /* \"#utility.yul\":32377:32380   */\n      dup3\n        /* \"#utility.yul\":32373:32385   */\n      add\n        /* \"#utility.yul\":32366:32385   */\n      swap1\n      pop\n        /* \"#utility.yul\":32025:32391   */\n      swap2\n      swap1\n      pop\n      jump\t// out\n        /* \"#utility.yul\":32397:32816   */\n    tag_198:\n        /* \"#utility.yul\":32563:32567   */\n      0x00\n        /* \"#utility.yul\":32601:32603   */\n      0x20\n        /* \"#utility.yul\":32590:32599   */\n      dup3\n        /* \"#utility.yul\":32586:32604   */\n      add\n        /* \"#utility.yul\":32578:32604   */\n      swap1\n      pop\n        /* \"#utility.yul\":32650:32659   */\n      dup2\n        /* \"#utility.yul\":32644:32648   */\n      dup2\n        /* \"#utility.yul\":32640:32660   */\n      sub\n        /* \"#utility.yul\":32636:32637   */\n      0x00\n        /* \"#utility.yul\":32625:32634   */\n      dup4\n        /* \"#utility.yul\":32621:32638   */\n      add\n        /* \"#utility.yul\":32614:32661   */\n      mstore\n        /* \"#utility.yul\":32678:32809   */\n      tag_504\n        /* \"#utility.yul\":32804:32808   */\n      dup2\n        /* \"#utility.yul\":32678:32809   */\n      tag_270\n      jump\t// in\n    tag_504:\n        /* \"#utility.yul\":32670:32809   */\n      swap1\n      pop\n        /* \"#utility.yul\":32397:32816   */\n      swap2\n      swap1\n      pop\n      jump\t// out\n        /* \"#utility.yul\":32822:33067   */\n    tag_271:\n        /* \"#utility.yul\":32962:32996   */\n      0x4c61206e75657661206665636861206465206369657272652064656265207365\n        /* \"#utility.yul\":32958:32959   */\n      0x00\n        /* \"#utility.yul\":32950:32956   */\n      dup3\n        /* \"#utility.yul\":32946:32960   */\n      add\n        /* \"#utility.yul\":32939:32997   */\n      mstore\n        /* \"#utility.yul\":33031:33059   */\n      0x72206d61796f722061206c612066656368612061637475616c2e000000000000\n        /* \"#utility.yul\":33026:33028   */\n      0x20\n        /* \"#utility.yul\":33018:33024   */\n      dup3\n        /* \"#utility.yul\":33014:33029   */\n      add\n        /* \"#utility.yul\":33007:33060   */\n      mstore\n        /* \"#utility.yul\":32822:33067   */\n      pop\n      jump\t// out\n        /* \"#utility.yul\":33073:33439   */\n    tag_272:\n        /* \"#utility.yul\":33215:33218   */\n      0x00\n        /* \"#utility.yul\":33236:33303   */\n      tag_507\n        /* \"#utility.yul\":33300:33302   */\n      0x3a\n        /* \"#utility.yul\":33295:33298   */\n      dup4\n        /* \"#utility.yul\":33236:33303   */\n      tag_220\n      jump\t// in\n    tag_507:\n        /* \"#utility.yul\":33229:33303   */\n      swap2\n      pop\n        /* \"#utility.yul\":33312:33405   */\n      tag_508\n        /* \"#utility.yul\":33401:33404   */\n      dup3\n        /* \"#utility.yul\":33312:33405   */\n      tag_271\n      jump\t// in\n    tag_508:\n        /* \"#utility.yul\":33430:33432   */\n      0x40\n        /* \"#utility.yul\":33425:33428   */\n      dup3\n        /* \"#utility.yul\":33421:33433   */\n      add\n        /* \"#utility.yul\":33414:33433   */\n      swap1\n      pop\n        /* \"#utility.yul\":33073:33439   */\n      swap2\n      swap1\n      pop\n      jump\t// out\n        /* \"#utility.yul\":33445:33864   */\n    tag_201:\n        /* \"#utility.yul\":33611:33615   */\n      0x00\n        /* \"#utility.yul\":33649:33651   */\n      0x20\n        /* \"#utility.yul\":33638:33647   */\n      dup3\n        /* \"#utility.yul\":33634:33652   */\n      add\n        /* \"#utility.yul\":33626:33652   */\n      swap1\n      pop\n        /* \"#utility.yul\":33698:33707   */\n      dup2\n        /* \"#utility.yul\":33692:33696   */\n      dup2\n        /* \"#utility.yul\":33688:33708   */\n      sub\n        /* \"#utility.yul\":33684:33685   */\n      0x00\n        /* \"#utility.yul\":33673:33682   */\n      dup4\n        /* \"#utility.yul\":33669:33686   */\n      add\n        /* \"#utility.yul\":33662:33709   */\n      mstore\n        /* \"#utility.yul\":33726:33857   */\n      tag_510\n        /* \"#utility.yul\":33852:33856   */\n      dup2\n        /* \"#utility.yul\":33726:33857   */\n      tag_272\n      jump\t// in\n    tag_510:\n        /* \"#utility.yul\":33718:33857   */\n      swap1\n      pop\n        /* \"#utility.yul\":33445:33864   */\n      swap2\n      swap1\n      pop\n      jump\t// out\n\n    auxdata: 0xa2646970667358221220d8b007ee1f3f83180e81d7b796822c28c451b7543c5397bdef5292fc702b2b1164736f6c63430008220033\n}\n",
				"bytecode": {
					"linkReferences": {},
					"object": "6080604052348015600e575f5ffd5b50335f5f6101000a81548173ffffffffffffffffffffffffffffffffffffffff021916908373ffffffffffffffffffffffffffffffffffffffff1602179055505f600181905550612a89806100625f395ff3fe6080604052600436106100a6575f3560e01c80638434f0a2116100635780638434f0a2146101ae578063a32aa717146101d6578063b0a4e852146101fe578063c2e5eafa14610226578063d3fb38301461024e578063f657be0314610292576100a6565b80631042b69b146100aa57806320e6ca0e146100e65780633c4f81cd1461011057806357a086711461013a578063733d50d4146101565780638348348f14610192575b5f5ffd5b3480156100b5575f5ffd5b506100d060048036038101906100cb9190611a40565b6102ba565b6040516100dd9190611a8d565b60405180910390f35b3480156100f1575f5ffd5b506100fa6102da565b6040516101079190611a8d565b60405180910390f35b34801561011b575f5ffd5b506101246102e0565b6040516101319190611ab5565b60405180910390f35b610154600480360381019061014f9190611ace565b610304565b005b348015610161575f5ffd5b5061017c60048036038101906101779190611b1e565b610637565b6040516101899190611c36565b60405180910390f35b6101ac60048036038101906101a79190611b1e565b610817565b005b3480156101b9575f5ffd5b506101d460048036038101906101cf9190611b1e565b610b74565b005b3480156101e1575f5ffd5b506101fc60048036038101906101f79190611b1e565b610f9e565b005b348015610209575f5ffd5b50610224600480360381019061021f9190611b1e565b6111d1565b005b348015610231575f5ffd5b5061024c60048036038101906102479190611c50565b61147a565b005b348015610259575f5ffd5b50610274600480360381019061026f9190611b1e565b6115b8565b60405161028999989796959493929190611c8a565b60405180910390f35b34801561029d575f5ffd5b506102b860048036038101906102b39190611ace565b61165a565b005b6003602052815f5260405f20602052805f5260405f205f91509150505481565b60015481565b5f5f9054906101000a900473ffffffffffffffffffffffffffffffffffffffff1681565b6101f4341015610349576040517f08c379a000000000000000000000000000000000000000000000000000000000815260040161034090611d95565b60405180910390fd5b5f821161038b576040517f08c379a000000000000000000000000000000000000000000000000000000000815260040161038290611e23565b60405180910390fd5b4281116103cd576040517f08c379a00000000000000000000000000000000000000000000000000000000081526004016103c490611eb1565b60405180910390fd5b60405180610120016040528060015481526020018481526020013373ffffffffffffffffffffffffffffffffffffffff1681526020018381526020018281526020015f81526020015f73ffffffffffffffffffffffffffffffffffffffff1681526020015f151581526020015f151581525060025f60015481526020019081526020015f205f820151815f0155602082015181600101556040820151816002015f6101000a81548173ffffffffffffffffffffffffffffffffffffffff021916908373ffffffffffffffffffffffffffffffffffffffff160217905550606082015181600301556080820151816004015560a0820151816005015560c0820151816006015f6101000a81548173ffffffffffffffffffffffffffffffffffffffff021916908373ffffffffffffffffffffffffffffffffffffffff16021790555060e08201518160060160146101000a81548160ff0219169083151502179055506101008201518160060160156101000a81548160ff0219169083151502179055509050505f5f5f9054906101000a900473ffffffffffffffffffffffffffffffffffffffff1673ffffffffffffffffffffffffffffffffffffffff163460405161059790611efc565b5f6040518083038185875af1925050503d805f81146105d1576040519150601f19603f3d011682016040523d82523d5f602084013e6105d6565b606091505b505090508061061a576040517f08c379a000000000000000000000000000000000000000000000000000000000815260040161061190611f5a565b60405180910390fd5b60015f81548092919061062c90611fa5565b919050555050505050565b61063f61193c565b815f73ffffffffffffffffffffffffffffffffffffffff1660025f8381526020019081526020015f206002015f9054906101000a900473ffffffffffffffffffffffffffffffffffffffff1673ffffffffffffffffffffffffffffffffffffffff16036106e1576040517f08c379a00000000000000000000000000000000000000000000000000000000081526004016106d890612036565b60405180910390fd5b60025f8481526020019081526020015f20604051806101200160405290815f820154815260200160018201548152602001600282015f9054906101000a900473ffffffffffffffffffffffffffffffffffffffff1673ffffffffffffffffffffffffffffffffffffffff1673ffffffffffffffffffffffffffffffffffffffff168152602001600382015481526020016004820154815260200160058201548152602001600682015f9054906101000a900473ffffffffffffffffffffffffffffffffffffffff1673ffffffffffffffffffffffffffffffffffffffff1673ffffffffffffffffffffffffffffffffffffffff1681526020016006820160149054906101000a900460ff161515151581526020016006820160159054906101000a900460ff161515151581525050915050919050565b805f73ffffffffffffffffffffffffffffffffffffffff1660025f8381526020019081526020015f206002015f9054906101000a900473ffffffffffffffffffffffffffffffffffffffff1673ffffffffffffffffffffffffffffffffffffffff16036108b9576040517f08c379a00000000000000000000000000000000000000000000000000000000081526004016108b090612036565b60405180910390fd5b5f60025f8481526020019081526020015f2090508060030154341015610914576040517f08c379a000000000000000000000000000000000000000000000000000000000815260040161090b906120c4565b60405180910390fd5b8060050154341161095a576040517f08c379a000000000000000000000000000000000000000000000000000000000815260040161095190612152565b60405180910390fd5b806004015442106109a0576040517f08c379a0000000000000000000000000000000000000000000000000000000008152600401610997906121e0565b60405180910390fd5b8060060160149054906101000a900460ff16156109f2576040517f08c379a00000000000000000000000000000000000000000000000000000000081526004016109e990612248565b60405180910390fd5b8060060160159054906101000a900460ff1615610a44576040517f08c379a0000000000000000000000000000000000000000000000000000000008152600401610a3b906122b0565b60405180910390fd5b5f73ffffffffffffffffffffffffffffffffffffffff16816006015f9054906101000a900473ffffffffffffffffffffffffffffffffffffffff1673ffffffffffffffffffffffffffffffffffffffff1614610b2457806005015460035f8581526020019081526020015f205f836006015f9054906101000a900473ffffffffffffffffffffffffffffffffffffffff1673ffffffffffffffffffffffffffffffffffffffff1673ffffffffffffffffffffffffffffffffffffffff1681526020019081526020015f205f828254610b1c91906122ce565b925050819055505b34816005018190555033816006015f6101000a81548173ffffffffffffffffffffffffffffffffffffffff021916908373ffffffffffffffffffffffffffffffffffffffff160217905550505050565b805f73ffffffffffffffffffffffffffffffffffffffff1660025f8381526020019081526020015f206002015f9054906101000a900473ffffffffffffffffffffffffffffffffffffffff1673ffffffffffffffffffffffffffffffffffffffff1603610c16576040517f08c379a0000000000000000000000000000000000000000000000000000000008152600401610c0d90612036565b60405180910390fd5b5f60025f8481526020019081526020015f2090508060060160149054906101000a900460ff1615610c7c576040517f08c379a0000000000000000000000000000000000000000000000000000000008152600401610c7390612248565b60405180910390fd5b8060060160159054906101000a900460ff1615610cce576040517f08c379a0000000000000000000000000000000000000000000000000000000008152600401610cc5906122b0565b60405180910390fd5b806002015f9054906101000a900473ffffffffffffffffffffffffffffffffffffffff1673ffffffffffffffffffffffffffffffffffffffff163373ffffffffffffffffffffffffffffffffffffffff161480610d7657505f5f9054906101000a900473ffffffffffffffffffffffffffffffffffffffff1673ffffffffffffffffffffffffffffffffffffffff163373ffffffffffffffffffffffffffffffffffffffff16145b610db5576040517f08c379a0000000000000000000000000000000000000000000000000000000008152600401610dac90612371565b60405180910390fd5b806004015442101580610e165750806002015f9054906101000a900473ffffffffffffffffffffffffffffffffffffffff1673ffffffffffffffffffffffffffffffffffffffff163373ffffffffffffffffffffffffffffffffffffffff16145b610e55576040517f08c379a0000000000000000000000000000000000000000000000000000000008152600401610e4c906123ff565b60405180910390fd5b60018160060160146101000a81548160ff0219169083151502179055505f73ffffffffffffffffffffffffffffffffffffffff16816006015f9054906101000a900473ffffffffffffffffffffffffffffffffffffffff1673ffffffffffffffffffffffffffffffffffffffff1614610f99575f816002015f9054906101000a900473ffffffffffffffffffffffffffffffffffffffff1673ffffffffffffffffffffffffffffffffffffffff168260050154604051610f1490611efc565b5f6040518083038185875af1925050503d805f8114610f4e576040519150601f19603f3d011682016040523d82523d5f602084013e610f53565b606091505b5050905080610f97576040517f08c379a0000000000000000000000000000000000000000000000000000000008152600401610f8e90611f5a565b60405180910390fd5b505b505050565b805f73ffffffffffffffffffffffffffffffffffffffff1660025f8381526020019081526020015f206002015f9054906101000a900473ffffffffffffffffffffffffffffffffffffffff1673ffffffffffffffffffffffffffffffffffffffff1603611040576040517f08c379a000000000000000000000000000000000000000000000000000000000815260040161103790612036565b60405180910390fd5b5f60035f8481526020019081526020015f205f3373ffffffffffffffffffffffffffffffffffffffff1673ffffffffffffffffffffffffffffffffffffffff1681526020019081526020015f205490505f81116110d2576040517f08c379a00000000000000000000000000000000000000000000000000000000081526004016110c990612467565b60405180910390fd5b5f60035f8581526020019081526020015f205f3373ffffffffffffffffffffffffffffffffffffffff1673ffffffffffffffffffffffffffffffffffffffff1681526020019081526020015f20819055505f3373ffffffffffffffffffffffffffffffffffffffff168260405161114890611efc565b5f6040518083038185875af1925050503d805f8114611182576040519150601f19603f3d011682016040523d82523d5f602084013e611187565b606091505b50509050806111cb576040517f08c379a00000000000000000000000000000000000000000000000000000000081526004016111c290611f5a565b60405180910390fd5b50505050565b805f73ffffffffffffffffffffffffffffffffffffffff1660025f8381526020019081526020015f206002015f9054906101000a900473ffffffffffffffffffffffffffffffffffffffff1673ffffffffffffffffffffffffffffffffffffffff1603611273576040517f08c379a000000000000000000000000000000000000000000000000000000000815260040161126a90612036565b60405180910390fd5b5f60025f8481526020019081526020015f209050806002015f9054906101000a900473ffffffffffffffffffffffffffffffffffffffff1673ffffffffffffffffffffffffffffffffffffffff163373ffffffffffffffffffffffffffffffffffffffff16148061132f57505f5f9054906101000a900473ffffffffffffffffffffffffffffffffffffffff1673ffffffffffffffffffffffffffffffffffffffff163373ffffffffffffffffffffffffffffffffffffffff16145b61136e576040517f08c379a0000000000000000000000000000000000000000000000000000000008152600401611365906124f5565b60405180910390fd5b8060060160149054906101000a900460ff16156113c0576040517f08c379a00000000000000000000000000000000000000000000000000000000081526004016113b790612583565b60405180910390fd5b8060060160159054906101000a900460ff1615611412576040517f08c379a0000000000000000000000000000000000000000000000000000000008152600401611409906125eb565b60405180910390fd5b5f816005015414611458576040517f08c379a000000000000000000000000000000000000000000000000000000000815260040161144f90612679565b60405180910390fd5b60018160060160156101000a81548160ff021916908315150217905550505050565b5f5f9054906101000a900473ffffffffffffffffffffffffffffffffffffffff1673ffffffffffffffffffffffffffffffffffffffff163373ffffffffffffffffffffffffffffffffffffffff1614611508576040517f08c379a00000000000000000000000000000000000000000000000000000000081526004016114ff906126e1565b60405180910390fd5b5f73ffffffffffffffffffffffffffffffffffffffff168173ffffffffffffffffffffffffffffffffffffffff1603611576576040517f08c379a000000000000000000000000000000000000000000000000000000000815260040161156d9061276f565b60405180910390fd5b805f5f6101000a81548173ffffffffffffffffffffffffffffffffffffffff021916908373ffffffffffffffffffffffffffffffffffffffff16021790555050565b6002602052805f5260405f205f91509050805f015490806001015490806002015f9054906101000a900473ffffffffffffffffffffffffffffffffffffffff1690806003015490806004015490806005015490806006015f9054906101000a900473ffffffffffffffffffffffffffffffffffffffff16908060060160149054906101000a900460ff16908060060160159054906101000a900460ff16905089565b825f73ffffffffffffffffffffffffffffffffffffffff1660025f8381526020019081526020015f206002015f9054906101000a900473ffffffffffffffffffffffffffffffffffffffff1673ffffffffffffffffffffffffffffffffffffffff16036116fc576040517f08c379a00000000000000000000000000000000000000000000000000000000081526004016116f390612036565b60405180910390fd5b5f60025f8681526020019081526020015f209050806002015f9054906101000a900473ffffffffffffffffffffffffffffffffffffffff1673ffffffffffffffffffffffffffffffffffffffff163373ffffffffffffffffffffffffffffffffffffffff1614806117b857505f5f9054906101000a900473ffffffffffffffffffffffffffffffffffffffff1673ffffffffffffffffffffffffffffffffffffffff163373ffffffffffffffffffffffffffffffffffffffff16145b6117f7576040517f08c379a00000000000000000000000000000000000000000000000000000000081526004016117ee906127fd565b60405180910390fd5b8060060160149054906101000a900460ff1615611849576040517f08c379a00000000000000000000000000000000000000000000000000000000081526004016118409061288b565b60405180910390fd5b8060060160159054906101000a900460ff161561189b576040517f08c379a000000000000000000000000000000000000000000000000000000000815260040161189290612919565b60405180910390fd5b5f8160050154146118e1576040517f08c379a00000000000000000000000000000000000000000000000000000000081526004016118d8906129a7565b60405180910390fd5b428411611923576040517f08c379a000000000000000000000000000000000000000000000000000000000815260040161191a90612a35565b60405180910390fd5b8381600401819055508281600101819055505050505050565b6040518061012001604052805f81526020015f81526020015f73ffffffffffffffffffffffffffffffffffffffff1681526020015f81526020015f81526020015f81526020015f73ffffffffffffffffffffffffffffffffffffffff1681526020015f151581526020015f151581525090565b5f5ffd5b5f819050919050565b6119c5816119b3565b81146119cf575f5ffd5b50565b5f813590506119e0816119bc565b92915050565b5f73ffffffffffffffffffffffffffffffffffffffff82169050919050565b5f611a0f826119e6565b9050919050565b611a1f81611a05565b8114611a29575f5ffd5b50565b5f81359050611a3a81611a16565b92915050565b5f5f60408385031215611a5657611a556119af565b5b5f611a63858286016119d2565b9250506020611a7485828601611a2c565b9150509250929050565b611a87816119b3565b82525050565b5f602082019050611aa05f830184611a7e565b92915050565b611aaf81611a05565b82525050565b5f602082019050611ac85f830184611aa6565b92915050565b5f5f5f60608486031215611ae557611ae46119af565b5b5f611af2868287016119d2565b9350506020611b03868287016119d2565b9250506040611b14868287016119d2565b9150509250925092565b5f60208284031215611b3357611b326119af565b5b5f611b40848285016119d2565b91505092915050565b611b52816119b3565b82525050565b611b6181611a05565b82525050565b5f8115159050919050565b611b7b81611b67565b82525050565b61012082015f820151611b965f850182611b49565b506020820151611ba96020850182611b49565b506040820151611bbc6040850182611b58565b506060820151611bcf6060850182611b49565b506080820151611be26080850182611b49565b5060a0820151611bf560a0850182611b49565b5060c0820151611c0860c0850182611b58565b5060e0820151611c1b60e0850182611b72565b50610100820151611c30610100850182611b72565b50505050565b5f61012082019050611c4a5f830184611b81565b92915050565b5f60208284031215611c6557611c646119af565b5b5f611c7284828501611a2c565b91505092915050565b611c8481611b67565b82525050565b5f61012082019050611c9e5f83018c611a7e565b611cab602083018b611a7e565b611cb8604083018a611aa6565b611cc56060830189611a7e565b611cd26080830188611a7e565b611cdf60a0830187611a7e565b611cec60c0830186611aa6565b611cf960e0830185611c7b565b611d07610100830184611c7b565b9a9950505050505050505050565b5f82825260208201905092915050565b7f446562657320656e7669617220616c206d656e6f7320353030207765692070615f8201527f726120637265617220756e6120737562617374612e0000000000000000000000602082015250565b5f611d7f603583611d15565b9150611d8a82611d25565b604082019050919050565b5f6020820190508181035f830152611dac81611d73565b9050919050565b7f456c2076616c6f72206d696e696d6f206465206f6665727461206465626520735f8201527f6572206d61796f722061206365726f2e00000000000000000000000000000000602082015250565b5f611e0d603083611d15565b9150611e1882611db3565b604082019050919050565b5f6020820190508181035f830152611e3a81611e01565b9050919050565b7f4c6120666563686120646520636965727265206465626520736572206d61796f5f8201527f722061206c612066656368612061637475616c2e000000000000000000000000602082015250565b5f611e9b603483611d15565b9150611ea682611e41565b604082019050919050565b5f6020820190508181035f830152611ec881611e8f565b9050919050565b5f81905092915050565b50565b5f611ee75f83611ecf565b9150611ef282611ed9565b5f82019050919050565b5f611f0682611edc565b9150819050919050565b7f5472616e73666572656e6369612066616c6c6964612e000000000000000000005f82015250565b5f611f44601683611d15565b9150611f4f82611f10565b602082019050919050565b5f6020820190508181035f830152611f7181611f38565b9050919050565b7f4e487b71000000000000000000000000000000000000000000000000000000005f52601160045260245ffd5b5f611faf826119b3565b91507fffffffffffffffffffffffffffffffffffffffffffffffffffffffffffffffff8203611fe157611fe0611f78565b5b600182019050919050565b7f4c612073756261737461206e6f206578697374652e00000000000000000000005f82015250565b5f612020601583611d15565b915061202b82611fec565b602082019050919050565b5f6020820190508181035f83015261204d81612014565b9050919050565b7f4c61206f6665727461206465626520736572206d61796f72206f20696775616c5f8201527f20616c2076616c6f72206d696e696d6f206465206f66657274612e0000000000602082015250565b5f6120ae603b83611d15565b91506120b982612054565b604082019050919050565b5f6020820190508181035f8301526120db816120a2565b9050919050565b7f4c61206f666572746120646562652073757065726172206c61206f66657274615f8201527f206d617320616c74612061637475616c2e000000000000000000000000000000602082015250565b5f61213c603183611d15565b9150612147826120e2565b604082019050919050565b5f6020820190508181035f83015261216981612130565b9050919050565b7f4c6120666563686120646520636965727265206465206c6120737562617374615f8201527f207961207061736f2e0000000000000000000000000000000000000000000000602082015250565b5f6121ca602983611d15565b91506121d582612170565b604082019050919050565b5f6020820190508181035f8301526121f7816121be565b9050919050565b7f4c612073756261737461207961206675652066696e616c697a6164612e0000005f82015250565b5f612232601d83611d15565b915061223d826121fe565b602082019050919050565b5f6020820190508181035f83015261225f81612226565b9050919050565b7f4c6120737562617374612066756520656c696d696e6164612e000000000000005f82015250565b5f61229a601983611d15565b91506122a582612266565b602082019050919050565b5f6020820190508181035f8301526122c78161228e565b9050919050565b5f6122d8826119b3565b91506122e3836119b3565b92508282019050808211156122fb576122fa611f78565b5b92915050565b7f536f6c6f20656c2063726561646f72206f20656c2070726f706965746172696f5f8201527f2070756564656e2066696e616c697a6172206c6120737562617374612e000000602082015250565b5f61235b603d83611d15565b915061236682612301565b604082019050919050565b5f6020820190508181035f8301526123888161234f565b9050919050565b7f4c612073756261737461206e6f206861206c6c656761646f20612073752066655f8201527f636861206465206369657272652e000000000000000000000000000000000000602082015250565b5f6123e9602e83611d15565b91506123f48261238f565b604082019050919050565b5f6020820190508181035f830152612416816123dd565b9050919050565b7f4e6f207469656e657320666f6e646f73207061726120726574697261722e00005f82015250565b5f612451601e83611d15565b915061245c8261241d565b602082019050919050565b5f6020820190508181035f83015261247e81612445565b9050919050565b7f536f6c6f20656c2063726561646f72206f20656c2070726f706965746172696f5f8201527f2070756564656e20656c696d696e6172206c6120737562617374612e00000000602082015250565b5f6124df603c83611d15565b91506124ea82612485565b604082019050919050565b5f6020820190508181035f83015261250c816124d3565b9050919050565b7f4e6f20736520707565646520656c696d696e617220756e6120737562617374615f8201527f2066696e616c697a6164612e0000000000000000000000000000000000000000602082015250565b5f61256d602c83611d15565b915061257882612513565b604082019050919050565b5f6020820190508181035f83015261259a81612561565b9050919050565b7f4c6120737562617374612079612066756520656c696d696e6164612e000000005f82015250565b5f6125d5601c83611d15565b91506125e0826125a1565b602082019050919050565b5f6020820190508181035f830152612602816125c9565b9050919050565b7f4e6f20736520707565646520656c696d696e617220756e6120737562617374615f8201527f20636f6e206f66657274617320616374697661732e0000000000000000000000602082015250565b5f612663603583611d15565b915061266e82612609565b604082019050919050565b5f6020820190508181035f83015261269081612657565b9050919050565b7f4e6f206572657320656c2070726f706965746172696f2e0000000000000000005f82015250565b5f6126cb601783611d15565b91506126d682612697565b602082019050919050565b5f6020820190508181035f8301526126f8816126bf565b9050919050565b7f4c61206e7565766120646972656363696f6e206e6f20707565646520736572205f8201527f76616369612e0000000000000000000000000000000000000000000000000000602082015250565b5f612759602683611d15565b9150612764826126ff565b604082019050919050565b5f6020820190508181035f8301526127868161274d565b9050919050565b7f536f6c6f20656c2063726561646f72206f20656c2070726f706965746172696f5f8201527f2070756564656e206d6f64696669636172206c6120737562617374612e000000602082015250565b5f6127e7603d83611d15565b91506127f28261278d565b604082019050919050565b5f6020820190508181035f830152612814816127db565b9050919050565b7f4e6f207365207075656465206d6f6469666963617220756e61207375626173745f8201527f612066696e616c697a6164612e00000000000000000000000000000000000000602082015250565b5f612875602d83611d15565b91506128808261281b565b604082019050919050565b5f6020820190508181035f8301526128a281612869565b9050919050565b7f4e6f207365207075656465206d6f6469666963617220756e61207375626173745f8201527f6120656c696d696e6164612e0000000000000000000000000000000000000000602082015250565b5f612903602c83611d15565b915061290e826128a9565b604082019050919050565b5f6020820190508181035f830152612930816128f7565b9050919050565b7f4e6f207365207075656465206d6f6469666963617220756e61207375626173745f8201527f6120636f6e206f66657274617320616374697661732e00000000000000000000602082015250565b5f612991603683611d15565b915061299c82612937565b604082019050919050565b5f6020820190508181035f8301526129be81612985565b9050919050565b7f4c61206e756576612066656368612064652063696572726520646562652073655f8201527f72206d61796f722061206c612066656368612061637475616c2e000000000000602082015250565b5f612a1f603a83611d15565b9150612a2a826129c5565b604082019050919050565b5f6020820190508181035f830152612a4c81612a13565b905091905056fea2646970667358221220d8b007ee1f3f83180e81d7b796822c28c451b7543c5397bdef5292fc702b2b1164736f6c63430008220033",
					"opcodes": "PUSH1 0x80 PUSH1 0x40 MSTORE CALLVALUE DUP1 ISZERO PUSH1 0xE JUMPI PUSH0 PUSH0 REVERT JUMPDEST POP CALLER PUSH0 PUSH0 PUSH2 0x100 EXP DUP2 SLOAD DUP2 PUSH20 0xFFFFFFFFFFFFFFFFFFFFFFFFFFFFFFFFFFFFFFFF MUL NOT AND SWAP1 DUP4 PUSH20 0xFFFFFFFFFFFFFFFFFFFFFFFFFFFFFFFFFFFFFFFF AND MUL OR SWAP1 SSTORE POP PUSH0 PUSH1 0x1 DUP2 SWAP1 SSTORE POP PUSH2 0x2A89 DUP1 PUSH2 0x62 PUSH0 CODECOPY PUSH0 RETURN INVALID PUSH1 0x80 PUSH1 0x40 MSTORE PUSH1 0x4 CALLDATASIZE LT PUSH2 0xA6 JUMPI PUSH0 CALLDATALOAD PUSH1 0xE0 SHR DUP1 PUSH4 0x8434F0A2 GT PUSH2 0x63 JUMPI DUP1 PUSH4 0x8434F0A2 EQ PUSH2 0x1AE JUMPI DUP1 PUSH4 0xA32AA717 EQ PUSH2 0x1D6 JUMPI DUP1 PUSH4 0xB0A4E852 EQ PUSH2 0x1FE JUMPI DUP1 PUSH4 0xC2E5EAFA EQ PUSH2 0x226 JUMPI DUP1 PUSH4 0xD3FB3830 EQ PUSH2 0x24E JUMPI DUP1 PUSH4 0xF657BE03 EQ PUSH2 0x292 JUMPI PUSH2 0xA6 JUMP JUMPDEST DUP1 PUSH4 0x1042B69B EQ PUSH2 0xAA JUMPI DUP1 PUSH4 0x20E6CA0E EQ PUSH2 0xE6 JUMPI DUP1 PUSH4 0x3C4F81CD EQ PUSH2 0x110 JUMPI DUP1 PUSH4 0x57A08671 EQ PUSH2 0x13A JUMPI DUP1 PUSH4 0x733D50D4 EQ PUSH2 0x156 JUMPI DUP1 PUSH4 0x8348348F EQ PUSH2 0x192 JUMPI JUMPDEST PUSH0 PUSH0 REVERT JUMPDEST CALLVALUE DUP1 ISZERO PUSH2 0xB5 JUMPI PUSH0 PUSH0 REVERT JUMPDEST POP PUSH2 0xD0 PUSH1 0x4 DUP1 CALLDATASIZE SUB DUP2 ADD SWAP1 PUSH2 0xCB SWAP2 SWAP1 PUSH2 0x1A40 JUMP JUMPDEST PUSH2 0x2BA JUMP JUMPDEST PUSH1 0x40 MLOAD PUSH2 0xDD SWAP2 SWAP1 PUSH2 0x1A8D JUMP JUMPDEST PUSH1 0x40 MLOAD DUP1 SWAP2 SUB SWAP1 RETURN JUMPDEST CALLVALUE DUP1 ISZERO PUSH2 0xF1 JUMPI PUSH0 PUSH0 REVERT JUMPDEST POP PUSH2 0xFA PUSH2 0x2DA JUMP JUMPDEST PUSH1 0x40 MLOAD PUSH2 0x107 SWAP2 SWAP1 PUSH2 0x1A8D JUMP JUMPDEST PUSH1 0x40 MLOAD DUP1 SWAP2 SUB SWAP1 RETURN JUMPDEST CALLVALUE DUP1 ISZERO PUSH2 0x11B JUMPI PUSH0 PUSH0 REVERT JUMPDEST POP PUSH2 0x124 PUSH2 0x2E0 JUMP JUMPDEST PUSH1 0x40 MLOAD PUSH2 0x131 SWAP2 SWAP1 PUSH2 0x1AB5 JUMP JUMPDEST PUSH1 0x40 MLOAD DUP1 SWAP2 SUB SWAP1 RETURN JUMPDEST PUSH2 0x154 PUSH1 0x4 DUP1 CALLDATASIZE SUB DUP2 ADD SWAP1 PUSH2 0x14F SWAP2 SWAP1 PUSH2 0x1ACE JUMP JUMPDEST PUSH2 0x304 JUMP JUMPDEST STOP JUMPDEST CALLVALUE DUP1 ISZERO PUSH2 0x161 JUMPI PUSH0 PUSH0 REVERT JUMPDEST POP PUSH2 0x17C PUSH1 0x4 DUP1 CALLDATASIZE SUB DUP2 ADD SWAP1 PUSH2 0x177 SWAP2 SWAP1 PUSH2 0x1B1E JUMP JUMPDEST PUSH2 0x637 JUMP JUMPDEST PUSH1 0x40 MLOAD PUSH2 0x189 SWAP2 SWAP1 PUSH2 0x1C36 JUMP JUMPDEST PUSH1 0x40 MLOAD DUP1 SWAP2 SUB SWAP1 RETURN JUMPDEST PUSH2 0x1AC PUSH1 0x4 DUP1 CALLDATASIZE SUB DUP2 ADD SWAP1 PUSH2 0x1A7 SWAP2 SWAP1 PUSH2 0x1B1E JUMP JUMPDEST PUSH2 0x817 JUMP JUMPDEST STOP JUMPDEST CALLVALUE DUP1 ISZERO PUSH2 0x1B9 JUMPI PUSH0 PUSH0 REVERT JUMPDEST POP PUSH2 0x1D4 PUSH1 0x4 DUP1 CALLDATASIZE SUB DUP2 ADD SWAP1 PUSH2 0x1CF SWAP2 SWAP1 PUSH2 0x1B1E JUMP JUMPDEST PUSH2 0xB74 JUMP JUMPDEST STOP JUMPDEST CALLVALUE DUP1 ISZERO PUSH2 0x1E1 JUMPI PUSH0 PUSH0 REVERT JUMPDEST POP PUSH2 0x1FC PUSH1 0x4 DUP1 CALLDATASIZE SUB DUP2 ADD SWAP1 PUSH2 0x1F7 SWAP2 SWAP1 PUSH2 0x1B1E JUMP JUMPDEST PUSH2 0xF9E JUMP JUMPDEST STOP JUMPDEST CALLVALUE DUP1 ISZERO PUSH2 0x209 JUMPI PUSH0 PUSH0 REVERT JUMPDEST POP PUSH2 0x224 PUSH1 0x4 DUP1 CALLDATASIZE SUB DUP2 ADD SWAP1 PUSH2 0x21F SWAP2 SWAP1 PUSH2 0x1B1E JUMP JUMPDEST PUSH2 0x11D1 JUMP JUMPDEST STOP JUMPDEST CALLVALUE DUP1 ISZERO PUSH2 0x231 JUMPI PUSH0 PUSH0 REVERT JUMPDEST POP PUSH2 0x24C PUSH1 0x4 DUP1 CALLDATASIZE SUB DUP2 ADD SWAP1 PUSH2 0x247 SWAP2 SWAP1 PUSH2 0x1C50 JUMP JUMPDEST PUSH2 0x147A JUMP JUMPDEST STOP JUMPDEST CALLVALUE DUP1 ISZERO PUSH2 0x259 JUMPI PUSH0 PUSH0 REVERT JUMPDEST POP PUSH2 0x274 PUSH1 0x4 DUP1 CALLDATASIZE SUB DUP2 ADD SWAP1 PUSH2 0x26F SWAP2 SWAP1 PUSH2 0x1B1E JUMP JUMPDEST PUSH2 0x15B8 JUMP JUMPDEST PUSH1 0x40 MLOAD PUSH2 0x289 SWAP10 SWAP9 SWAP8 SWAP7 SWAP6 SWAP5 SWAP4 SWAP3 SWAP2 SWAP1 PUSH2 0x1C8A JUMP JUMPDEST PUSH1 0x40 MLOAD DUP1 SWAP2 SUB SWAP1 RETURN JUMPDEST CALLVALUE DUP1 ISZERO PUSH2 0x29D JUMPI PUSH0 PUSH0 REVERT JUMPDEST POP PUSH2 0x2B8 PUSH1 0x4 DUP1 CALLDATASIZE SUB DUP2 ADD SWAP1 PUSH2 0x2B3 SWAP2 SWAP1 PUSH2 0x1ACE JUMP JUMPDEST PUSH2 0x165A JUMP JUMPDEST STOP JUMPDEST PUSH1 0x3 PUSH1 0x20 MSTORE DUP2 PUSH0 MSTORE PUSH1 0x40 PUSH0 KECCAK256 PUSH1 0x20 MSTORE DUP1 PUSH0 MSTORE PUSH1 0x40 PUSH0 KECCAK256 PUSH0 SWAP2 POP SWAP2 POP POP SLOAD DUP2 JUMP JUMPDEST PUSH1 0x1 SLOAD DUP2 JUMP JUMPDEST PUSH0 PUSH0 SWAP1 SLOAD SWAP1 PUSH2 0x100 EXP SWAP1 DIV PUSH20 0xFFFFFFFFFFFFFFFFFFFFFFFFFFFFFFFFFFFFFFFF AND DUP2 JUMP JUMPDEST PUSH2 0x1F4 CALLVALUE LT ISZERO PUSH2 0x349 JUMPI PUSH1 0x40 MLOAD PUSH32 0x8C379A000000000000000000000000000000000000000000000000000000000 DUP2 MSTORE PUSH1 0x4 ADD PUSH2 0x340 SWAP1 PUSH2 0x1D95 JUMP JUMPDEST PUSH1 0x40 MLOAD DUP1 SWAP2 SUB SWAP1 REVERT JUMPDEST PUSH0 DUP3 GT PUSH2 0x38B JUMPI PUSH1 0x40 MLOAD PUSH32 0x8C379A000000000000000000000000000000000000000000000000000000000 DUP2 MSTORE PUSH1 0x4 ADD PUSH2 0x382 SWAP1 PUSH2 0x1E23 JUMP JUMPDEST PUSH1 0x40 MLOAD DUP1 SWAP2 SUB SWAP1 REVERT JUMPDEST TIMESTAMP DUP2 GT PUSH2 0x3CD JUMPI PUSH1 0x40 MLOAD PUSH32 0x8C379A000000000000000000000000000000000000000000000000000000000 DUP2 MSTORE PUSH1 0x4 ADD PUSH2 0x3C4 SWAP1 PUSH2 0x1EB1 JUMP JUMPDEST PUSH1 0x40 MLOAD DUP1 SWAP2 SUB SWAP1 REVERT JUMPDEST PUSH1 0x40 MLOAD DUP1 PUSH2 0x120 ADD PUSH1 0x40 MSTORE DUP1 PUSH1 0x1 SLOAD DUP2 MSTORE PUSH1 0x20 ADD DUP5 DUP2 MSTORE PUSH1 0x20 ADD CALLER PUSH20 0xFFFFFFFFFFFFFFFFFFFFFFFFFFFFFFFFFFFFFFFF AND DUP2 MSTORE PUSH1 0x20 ADD DUP4 DUP2 MSTORE PUSH1 0x20 ADD DUP3 DUP2 MSTORE PUSH1 0x20 ADD PUSH0 DUP2 MSTORE PUSH1 0x20 ADD PUSH0 PUSH20 0xFFFFFFFFFFFFFFFFFFFFFFFFFFFFFFFFFFFFFFFF AND DUP2 MSTORE PUSH1 0x20 ADD PUSH0 ISZERO ISZERO DUP2 MSTORE PUSH1 0x20 ADD PUSH0 ISZERO ISZERO DUP2 MSTORE POP PUSH1 0x2 PUSH0 PUSH1 0x1 SLOAD DUP2 MSTORE PUSH1 0x20 ADD SWAP1 DUP2 MSTORE PUSH1 0x20 ADD PUSH0 KECCAK256 PUSH0 DUP3 ADD MLOAD DUP2 PUSH0 ADD SSTORE PUSH1 0x20 DUP3 ADD MLOAD DUP2 PUSH1 0x1 ADD SSTORE PUSH1 0x40 DUP3 ADD MLOAD DUP2 PUSH1 0x2 ADD PUSH0 PUSH2 0x100 EXP DUP2 SLOAD DUP2 PUSH20 0xFFFFFFFFFFFFFFFFFFFFFFFFFFFFFFFFFFFFFFFF MUL NOT AND SWAP1 DUP4 PUSH20 0xFFFFFFFFFFFFFFFFFFFFFFFFFFFFFFFFFFFFFFFF AND MUL OR SWAP1 SSTORE POP PUSH1 0x60 DUP3 ADD MLOAD DUP2 PUSH1 0x3 ADD SSTORE PUSH1 0x80 DUP3 ADD MLOAD DUP2 PUSH1 0x4 ADD SSTORE PUSH1 0xA0 DUP3 ADD MLOAD DUP2 PUSH1 0x5 ADD SSTORE PUSH1 0xC0 DUP3 ADD MLOAD DUP2 PUSH1 0x6 ADD PUSH0 PUSH2 0x100 EXP DUP2 SLOAD DUP2 PUSH20 0xFFFFFFFFFFFFFFFFFFFFFFFFFFFFFFFFFFFFFFFF MUL NOT AND SWAP1 DUP4 PUSH20 0xFFFFFFFFFFFFFFFFFFFFFFFFFFFFFFFFFFFFFFFF AND MUL OR SWAP1 SSTORE POP PUSH1 0xE0 DUP3 ADD MLOAD DUP2 PUSH1 0x6 ADD PUSH1 0x14 PUSH2 0x100 EXP DUP2 SLOAD DUP2 PUSH1 0xFF MUL NOT AND SWAP1 DUP4 ISZERO ISZERO MUL OR SWAP1 SSTORE POP PUSH2 0x100 DUP3 ADD MLOAD DUP2 PUSH1 0x6 ADD PUSH1 0x15 PUSH2 0x100 EXP DUP2 SLOAD DUP2 PUSH1 0xFF MUL NOT AND SWAP1 DUP4 ISZERO ISZERO MUL OR SWAP1 SSTORE POP SWAP1 POP POP PUSH0 PUSH0 PUSH0 SWAP1 SLOAD SWAP1 PUSH2 0x100 EXP SWAP1 DIV PUSH20 0xFFFFFFFFFFFFFFFFFFFFFFFFFFFFFFFFFFFFFFFF AND PUSH20 0xFFFFFFFFFFFFFFFFFFFFFFFFFFFFFFFFFFFFFFFF AND CALLVALUE PUSH1 0x40 MLOAD PUSH2 0x597 SWAP1 PUSH2 0x1EFC JUMP JUMPDEST PUSH0 PUSH1 0x40 MLOAD DUP1 DUP4 SUB DUP2 DUP6 DUP8 GAS CALL SWAP3 POP POP POP RETURNDATASIZE DUP1 PUSH0 DUP2 EQ PUSH2 0x5D1 JUMPI PUSH1 0x40 MLOAD SWAP2 POP PUSH1 0x1F NOT PUSH1 0x3F RETURNDATASIZE ADD AND DUP3 ADD PUSH1 0x40 MSTORE RETURNDATASIZE DUP3 MSTORE RETURNDATASIZE PUSH0 PUSH1 0x20 DUP5 ADD RETURNDATACOPY PUSH2 0x5D6 JUMP JUMPDEST PUSH1 0x60 SWAP2 POP JUMPDEST POP POP SWAP1 POP DUP1 PUSH2 0x61A JUMPI PUSH1 0x40 MLOAD PUSH32 0x8C379A000000000000000000000000000000000000000000000000000000000 DUP2 MSTORE PUSH1 0x4 ADD PUSH2 0x611 SWAP1 PUSH2 0x1F5A JUMP JUMPDEST PUSH1 0x40 MLOAD DUP1 SWAP2 SUB SWAP1 REVERT JUMPDEST PUSH1 0x1 PUSH0 DUP2 SLOAD DUP1 SWAP3 SWAP2 SWAP1 PUSH2 0x62C SWAP1 PUSH2 0x1FA5 JUMP JUMPDEST SWAP2 SWAP1 POP SSTORE POP POP POP POP POP JUMP JUMPDEST PUSH2 0x63F PUSH2 0x193C JUMP JUMPDEST DUP2 PUSH0 PUSH20 0xFFFFFFFFFFFFFFFFFFFFFFFFFFFFFFFFFFFFFFFF AND PUSH1 0x2 PUSH0 DUP4 DUP2 MSTORE PUSH1 0x20 ADD SWAP1 DUP2 MSTORE PUSH1 0x20 ADD PUSH0 KECCAK256 PUSH1 0x2 ADD PUSH0 SWAP1 SLOAD SWAP1 PUSH2 0x100 EXP SWAP1 DIV PUSH20 0xFFFFFFFFFFFFFFFFFFFFFFFFFFFFFFFFFFFFFFFF AND PUSH20 0xFFFFFFFFFFFFFFFFFFFFFFFFFFFFFFFFFFFFFFFF AND SUB PUSH2 0x6E1 JUMPI PUSH1 0x40 MLOAD PUSH32 0x8C379A000000000000000000000000000000000000000000000000000000000 DUP2 MSTORE PUSH1 0x4 ADD PUSH2 0x6D8 SWAP1 PUSH2 0x2036 JUMP JUMPDEST PUSH1 0x40 MLOAD DUP1 SWAP2 SUB SWAP1 REVERT JUMPDEST PUSH1 0x2 PUSH0 DUP5 DUP2 MSTORE PUSH1 0x20 ADD SWAP1 DUP2 MSTORE PUSH1 0x20 ADD PUSH0 KECCAK256 PUSH1 0x40 MLOAD DUP1 PUSH2 0x120 ADD PUSH1 0x40 MSTORE SWAP1 DUP2 PUSH0 DUP3 ADD SLOAD DUP2 MSTORE PUSH1 0x20 ADD PUSH1 0x1 DUP3 ADD SLOAD DUP2 MSTORE PUSH1 0x20 ADD PUSH1 0x2 DUP3 ADD PUSH0 SWAP1 SLOAD SWAP1 PUSH2 0x100 EXP SWAP1 DIV PUSH20 0xFFFFFFFFFFFFFFFFFFFFFFFFFFFFFFFFFFFFFFFF AND PUSH20 0xFFFFFFFFFFFFFFFFFFFFFFFFFFFFFFFFFFFFFFFF AND PUSH20 0xFFFFFFFFFFFFFFFFFFFFFFFFFFFFFFFFFFFFFFFF AND DUP2 MSTORE PUSH1 0x20 ADD PUSH1 0x3 DUP3 ADD SLOAD DUP2 MSTORE PUSH1 0x20 ADD PUSH1 0x4 DUP3 ADD SLOAD DUP2 MSTORE PUSH1 0x20 ADD PUSH1 0x5 DUP3 ADD SLOAD DUP2 MSTORE PUSH1 0x20 ADD PUSH1 0x6 DUP3 ADD PUSH0 SWAP1 SLOAD SWAP1 PUSH2 0x100 EXP SWAP1 DIV PUSH20 0xFFFFFFFFFFFFFFFFFFFFFFFFFFFFFFFFFFFFFFFF AND PUSH20 0xFFFFFFFFFFFFFFFFFFFFFFFFFFFFFFFFFFFFFFFF AND PUSH20 0xFFFFFFFFFFFFFFFFFFFFFFFFFFFFFFFFFFFFFFFF AND DUP2 MSTORE PUSH1 0x20 ADD PUSH1 0x6 DUP3 ADD PUSH1 0x14 SWAP1 SLOAD SWAP1 PUSH2 0x100 EXP SWAP1 DIV PUSH1 0xFF AND ISZERO ISZERO ISZERO ISZERO DUP2 MSTORE PUSH1 0x20 ADD PUSH1 0x6 DUP3 ADD PUSH1 0x15 SWAP1 SLOAD SWAP1 PUSH2 0x100 EXP SWAP1 DIV PUSH1 0xFF AND ISZERO ISZERO ISZERO ISZERO DUP2 MSTORE POP POP SWAP2 POP POP SWAP2 SWAP1 POP JUMP JUMPDEST DUP1 PUSH0 PUSH20 0xFFFFFFFFFFFFFFFFFFFFFFFFFFFFFFFFFFFFFFFF AND PUSH1 0x2 PUSH0 DUP4 DUP2 MSTORE PUSH1 0x20 ADD SWAP1 DUP2 MSTORE PUSH1 0x20 ADD PUSH0 KECCAK256 PUSH1 0x2 ADD PUSH0 SWAP1 SLOAD SWAP1 PUSH2 0x100 EXP SWAP1 DIV PUSH20 0xFFFFFFFFFFFFFFFFFFFFFFFFFFFFFFFFFFFFFFFF AND PUSH20 0xFFFFFFFFFFFFFFFFFFFFFFFFFFFFFFFFFFFFFFFF AND SUB PUSH2 0x8B9 JUMPI PUSH1 0x40 MLOAD PUSH32 0x8C379A000000000000000000000000000000000000000000000000000000000 DUP2 MSTORE PUSH1 0x4 ADD PUSH2 0x8B0 SWAP1 PUSH2 0x2036 JUMP JUMPDEST PUSH1 0x40 MLOAD DUP1 SWAP2 SUB SWAP1 REVERT JUMPDEST PUSH0 PUSH1 0x2 PUSH0 DUP5 DUP2 MSTORE PUSH1 0x20 ADD SWAP1 DUP2 MSTORE PUSH1 0x20 ADD PUSH0 KECCAK256 SWAP1 POP DUP1 PUSH1 0x3 ADD SLOAD CALLVALUE LT ISZERO PUSH2 0x914 JUMPI PUSH1 0x40 MLOAD PUSH32 0x8C379A000000000000000000000000000000000000000000000000000000000 DUP2 MSTORE PUSH1 0x4 ADD PUSH2 0x90B SWAP1 PUSH2 0x20C4 JUMP JUMPDEST PUSH1 0x40 MLOAD DUP1 SWAP2 SUB SWAP1 REVERT JUMPDEST DUP1 PUSH1 0x5 ADD SLOAD CALLVALUE GT PUSH2 0x95A JUMPI PUSH1 0x40 MLOAD PUSH32 0x8C379A000000000000000000000000000000000000000000000000000000000 DUP2 MSTORE PUSH1 0x4 ADD PUSH2 0x951 SWAP1 PUSH2 0x2152 JUMP JUMPDEST PUSH1 0x40 MLOAD DUP1 SWAP2 SUB SWAP1 REVERT JUMPDEST DUP1 PUSH1 0x4 ADD SLOAD TIMESTAMP LT PUSH2 0x9A0 JUMPI PUSH1 0x40 MLOAD PUSH32 0x8C379A000000000000000000000000000000000000000000000000000000000 DUP2 MSTORE PUSH1 0x4 ADD PUSH2 0x997 SWAP1 PUSH2 0x21E0 JUMP JUMPDEST PUSH1 0x40 MLOAD DUP1 SWAP2 SUB SWAP1 REVERT JUMPDEST DUP1 PUSH1 0x6 ADD PUSH1 0x14 SWAP1 SLOAD SWAP1 PUSH2 0x100 EXP SWAP1 DIV PUSH1 0xFF AND ISZERO PUSH2 0x9F2 JUMPI PUSH1 0x40 MLOAD PUSH32 0x8C379A000000000000000000000000000000000000000000000000000000000 DUP2 MSTORE PUSH1 0x4 ADD PUSH2 0x9E9 SWAP1 PUSH2 0x2248 JUMP JUMPDEST PUSH1 0x40 MLOAD DUP1 SWAP2 SUB SWAP1 REVERT JUMPDEST DUP1 PUSH1 0x6 ADD PUSH1 0x15 SWAP1 SLOAD SWAP1 PUSH2 0x100 EXP SWAP1 DIV PUSH1 0xFF AND ISZERO PUSH2 0xA44 JUMPI PUSH1 0x40 MLOAD PUSH32 0x8C379A000000000000000000000000000000000000000000000000000000000 DUP2 MSTORE PUSH1 0x4 ADD PUSH2 0xA3B SWAP1 PUSH2 0x22B0 JUMP JUMPDEST PUSH1 0x40 MLOAD DUP1 SWAP2 SUB SWAP1 REVERT JUMPDEST PUSH0 PUSH20 0xFFFFFFFFFFFFFFFFFFFFFFFFFFFFFFFFFFFFFFFF AND DUP2 PUSH1 0x6 ADD PUSH0 SWAP1 SLOAD SWAP1 PUSH2 0x100 EXP SWAP1 DIV PUSH20 0xFFFFFFFFFFFFFFFFFFFFFFFFFFFFFFFFFFFFFFFF AND PUSH20 0xFFFFFFFFFFFFFFFFFFFFFFFFFFFFFFFFFFFFFFFF AND EQ PUSH2 0xB24 JUMPI DUP1 PUSH1 0x5 ADD SLOAD PUSH1 0x3 PUSH0 DUP6 DUP2 MSTORE PUSH1 0x20 ADD SWAP1 DUP2 MSTORE PUSH1 0x20 ADD PUSH0 KECCAK256 PUSH0 DUP4 PUSH1 0x6 ADD PUSH0 SWAP1 SLOAD SWAP1 PUSH2 0x100 EXP SWAP1 DIV PUSH20 0xFFFFFFFFFFFFFFFFFFFFFFFFFFFFFFFFFFFFFFFF AND PUSH20 0xFFFFFFFFFFFFFFFFFFFFFFFFFFFFFFFFFFFFFFFF AND PUSH20 0xFFFFFFFFFFFFFFFFFFFFFFFFFFFFFFFFFFFFFFFF AND DUP2 MSTORE PUSH1 0x20 ADD SWAP1 DUP2 MSTORE PUSH1 0x20 ADD PUSH0 KECCAK256 PUSH0 DUP3 DUP3 SLOAD PUSH2 0xB1C SWAP2 SWAP1 PUSH2 0x22CE JUMP JUMPDEST SWAP3 POP POP DUP2 SWAP1 SSTORE POP JUMPDEST CALLVALUE DUP2 PUSH1 0x5 ADD DUP2 SWAP1 SSTORE POP CALLER DUP2 PUSH1 0x6 ADD PUSH0 PUSH2 0x100 EXP DUP2 SLOAD DUP2 PUSH20 0xFFFFFFFFFFFFFFFFFFFFFFFFFFFFFFFFFFFFFFFF MUL NOT AND SWAP1 DUP4 PUSH20 0xFFFFFFFFFFFFFFFFFFFFFFFFFFFFFFFFFFFFFFFF AND MUL OR SWAP1 SSTORE POP POP POP POP JUMP JUMPDEST DUP1 PUSH0 PUSH20 0xFFFFFFFFFFFFFFFFFFFFFFFFFFFFFFFFFFFFFFFF AND PUSH1 0x2 PUSH0 DUP4 DUP2 MSTORE PUSH1 0x20 ADD SWAP1 DUP2 MSTORE PUSH1 0x20 ADD PUSH0 KECCAK256 PUSH1 0x2 ADD PUSH0 SWAP1 SLOAD SWAP1 PUSH2 0x100 EXP SWAP1 DIV PUSH20 0xFFFFFFFFFFFFFFFFFFFFFFFFFFFFFFFFFFFFFFFF AND PUSH20 0xFFFFFFFFFFFFFFFFFFFFFFFFFFFFFFFFFFFFFFFF AND SUB PUSH2 0xC16 JUMPI PUSH1 0x40 MLOAD PUSH32 0x8C379A000000000000000000000000000000000000000000000000000000000 DUP2 MSTORE PUSH1 0x4 ADD PUSH2 0xC0D SWAP1 PUSH2 0x2036 JUMP JUMPDEST PUSH1 0x40 MLOAD DUP1 SWAP2 SUB SWAP1 REVERT JUMPDEST PUSH0 PUSH1 0x2 PUSH0 DUP5 DUP2 MSTORE PUSH1 0x20 ADD SWAP1 DUP2 MSTORE PUSH1 0x20 ADD PUSH0 KECCAK256 SWAP1 POP DUP1 PUSH1 0x6 ADD PUSH1 0x14 SWAP1 SLOAD SWAP1 PUSH2 0x100 EXP SWAP1 DIV PUSH1 0xFF AND ISZERO PUSH2 0xC7C JUMPI PUSH1 0x40 MLOAD PUSH32 0x8C379A000000000000000000000000000000000000000000000000000000000 DUP2 MSTORE PUSH1 0x4 ADD PUSH2 0xC73 SWAP1 PUSH2 0x2248 JUMP JUMPDEST PUSH1 0x40 MLOAD DUP1 SWAP2 SUB SWAP1 REVERT JUMPDEST DUP1 PUSH1 0x6 ADD PUSH1 0x15 SWAP1 SLOAD SWAP1 PUSH2 0x100 EXP SWAP1 DIV PUSH1 0xFF AND ISZERO PUSH2 0xCCE JUMPI PUSH1 0x40 MLOAD PUSH32 0x8C379A000000000000000000000000000000000000000000000000000000000 DUP2 MSTORE PUSH1 0x4 ADD PUSH2 0xCC5 SWAP1 PUSH2 0x22B0 JUMP JUMPDEST PUSH1 0x40 MLOAD DUP1 SWAP2 SUB SWAP1 REVERT JUMPDEST DUP1 PUSH1 0x2 ADD PUSH0 SWAP1 SLOAD SWAP1 PUSH2 0x100 EXP SWAP1 DIV PUSH20 0xFFFFFFFFFFFFFFFFFFFFFFFFFFFFFFFFFFFFFFFF AND PUSH20 0xFFFFFFFFFFFFFFFFFFFFFFFFFFFFFFFFFFFFFFFF AND CALLER PUSH20 0xFFFFFFFFFFFFFFFFFFFFFFFFFFFFFFFFFFFFFFFF AND EQ DUP1 PUSH2 0xD76 JUMPI POP PUSH0 PUSH0 SWAP1 SLOAD SWAP1 PUSH2 0x100 EXP SWAP1 DIV PUSH20 0xFFFFFFFFFFFFFFFFFFFFFFFFFFFFFFFFFFFFFFFF AND PUSH20 0xFFFFFFFFFFFFFFFFFFFFFFFFFFFFFFFFFFFFFFFF AND CALLER PUSH20 0xFFFFFFFFFFFFFFFFFFFFFFFFFFFFFFFFFFFFFFFF AND EQ JUMPDEST PUSH2 0xDB5 JUMPI PUSH1 0x40 MLOAD PUSH32 0x8C379A000000000000000000000000000000000000000000000000000000000 DUP2 MSTORE PUSH1 0x4 ADD PUSH2 0xDAC SWAP1 PUSH2 0x2371 JUMP JUMPDEST PUSH1 0x40 MLOAD DUP1 SWAP2 SUB SWAP1 REVERT JUMPDEST DUP1 PUSH1 0x4 ADD SLOAD TIMESTAMP LT ISZERO DUP1 PUSH2 0xE16 JUMPI POP DUP1 PUSH1 0x2 ADD PUSH0 SWAP1 SLOAD SWAP1 PUSH2 0x100 EXP SWAP1 DIV PUSH20 0xFFFFFFFFFFFFFFFFFFFFFFFFFFFFFFFFFFFFFFFF AND PUSH20 0xFFFFFFFFFFFFFFFFFFFFFFFFFFFFFFFFFFFFFFFF AND CALLER PUSH20 0xFFFFFFFFFFFFFFFFFFFFFFFFFFFFFFFFFFFFFFFF AND EQ JUMPDEST PUSH2 0xE55 JUMPI PUSH1 0x40 MLOAD PUSH32 0x8C379A000000000000000000000000000000000000000000000000000000000 DUP2 MSTORE PUSH1 0x4 ADD PUSH2 0xE4C SWAP1 PUSH2 0x23FF JUMP JUMPDEST PUSH1 0x40 MLOAD DUP1 SWAP2 SUB SWAP1 REVERT JUMPDEST PUSH1 0x1 DUP2 PUSH1 0x6 ADD PUSH1 0x14 PUSH2 0x100 EXP DUP2 SLOAD DUP2 PUSH1 0xFF MUL NOT AND SWAP1 DUP4 ISZERO ISZERO MUL OR SWAP1 SSTORE POP PUSH0 PUSH20 0xFFFFFFFFFFFFFFFFFFFFFFFFFFFFFFFFFFFFFFFF AND DUP2 PUSH1 0x6 ADD PUSH0 SWAP1 SLOAD SWAP1 PUSH2 0x100 EXP SWAP1 DIV PUSH20 0xFFFFFFFFFFFFFFFFFFFFFFFFFFFFFFFFFFFFFFFF AND PUSH20 0xFFFFFFFFFFFFFFFFFFFFFFFFFFFFFFFFFFFFFFFF AND EQ PUSH2 0xF99 JUMPI PUSH0 DUP2 PUSH1 0x2 ADD PUSH0 SWAP1 SLOAD SWAP1 PUSH2 0x100 EXP SWAP1 DIV PUSH20 0xFFFFFFFFFFFFFFFFFFFFFFFFFFFFFFFFFFFFFFFF AND PUSH20 0xFFFFFFFFFFFFFFFFFFFFFFFFFFFFFFFFFFFFFFFF AND DUP3 PUSH1 0x5 ADD SLOAD PUSH1 0x40 MLOAD PUSH2 0xF14 SWAP1 PUSH2 0x1EFC JUMP JUMPDEST PUSH0 PUSH1 0x40 MLOAD DUP1 DUP4 SUB DUP2 DUP6 DUP8 GAS CALL SWAP3 POP POP POP RETURNDATASIZE DUP1 PUSH0 DUP2 EQ PUSH2 0xF4E JUMPI PUSH1 0x40 MLOAD SWAP2 POP PUSH1 0x1F NOT PUSH1 0x3F RETURNDATASIZE ADD AND DUP3 ADD PUSH1 0x40 MSTORE RETURNDATASIZE DUP3 MSTORE RETURNDATASIZE PUSH0 PUSH1 0x20 DUP5 ADD RETURNDATACOPY PUSH2 0xF53 JUMP JUMPDEST PUSH1 0x60 SWAP2 POP JUMPDEST POP POP SWAP1 POP DUP1 PUSH2 0xF97 JUMPI PUSH1 0x40 MLOAD PUSH32 0x8C379A000000000000000000000000000000000000000000000000000000000 DUP2 MSTORE PUSH1 0x4 ADD PUSH2 0xF8E SWAP1 PUSH2 0x1F5A JUMP JUMPDEST PUSH1 0x40 MLOAD DUP1 SWAP2 SUB SWAP1 REVERT JUMPDEST POP JUMPDEST POP POP POP JUMP JUMPDEST DUP1 PUSH0 PUSH20 0xFFFFFFFFFFFFFFFFFFFFFFFFFFFFFFFFFFFFFFFF AND PUSH1 0x2 PUSH0 DUP4 DUP2 MSTORE PUSH1 0x20 ADD SWAP1 DUP2 MSTORE PUSH1 0x20 ADD PUSH0 KECCAK256 PUSH1 0x2 ADD PUSH0 SWAP1 SLOAD SWAP1 PUSH2 0x100 EXP SWAP1 DIV PUSH20 0xFFFFFFFFFFFFFFFFFFFFFFFFFFFFFFFFFFFFFFFF AND PUSH20 0xFFFFFFFFFFFFFFFFFFFFFFFFFFFFFFFFFFFFFFFF AND SUB PUSH2 0x1040 JUMPI PUSH1 0x40 MLOAD PUSH32 0x8C379A000000000000000000000000000000000000000000000000000000000 DUP2 MSTORE PUSH1 0x4 ADD PUSH2 0x1037 SWAP1 PUSH2 0x2036 JUMP JUMPDEST PUSH1 0x40 MLOAD DUP1 SWAP2 SUB SWAP1 REVERT JUMPDEST PUSH0 PUSH1 0x3 PUSH0 DUP5 DUP2 MSTORE PUSH1 0x20 ADD SWAP1 DUP2 MSTORE PUSH1 0x20 ADD PUSH0 KECCAK256 PUSH0 CALLER PUSH20 0xFFFFFFFFFFFFFFFFFFFFFFFFFFFFFFFFFFFFFFFF AND PUSH20 0xFFFFFFFFFFFFFFFFFFFFFFFFFFFFFFFFFFFFFFFF AND DUP2 MSTORE PUSH1 0x20 ADD SWAP1 DUP2 MSTORE PUSH1 0x20 ADD PUSH0 KECCAK256 SLOAD SWAP1 POP PUSH0 DUP2 GT PUSH2 0x10D2 JUMPI PUSH1 0x40 MLOAD PUSH32 0x8C379A000000000000000000000000000000000000000000000000000000000 DUP2 MSTORE PUSH1 0x4 ADD PUSH2 0x10C9 SWAP1 PUSH2 0x2467 JUMP JUMPDEST PUSH1 0x40 MLOAD DUP1 SWAP2 SUB SWAP1 REVERT JUMPDEST PUSH0 PUSH1 0x3 PUSH0 DUP6 DUP2 MSTORE PUSH1 0x20 ADD SWAP1 DUP2 MSTORE PUSH1 0x20 ADD PUSH0 KECCAK256 PUSH0 CALLER PUSH20 0xFFFFFFFFFFFFFFFFFFFFFFFFFFFFFFFFFFFFFFFF AND PUSH20 0xFFFFFFFFFFFFFFFFFFFFFFFFFFFFFFFFFFFFFFFF AND DUP2 MSTORE PUSH1 0x20 ADD SWAP1 DUP2 MSTORE PUSH1 0x20 ADD PUSH0 KECCAK256 DUP2 SWAP1 SSTORE POP PUSH0 CALLER PUSH20 0xFFFFFFFFFFFFFFFFFFFFFFFFFFFFFFFFFFFFFFFF AND DUP3 PUSH1 0x40 MLOAD PUSH2 0x1148 SWAP1 PUSH2 0x1EFC JUMP JUMPDEST PUSH0 PUSH1 0x40 MLOAD DUP1 DUP4 SUB DUP2 DUP6 DUP8 GAS CALL SWAP3 POP POP POP RETURNDATASIZE DUP1 PUSH0 DUP2 EQ PUSH2 0x1182 JUMPI PUSH1 0x40 MLOAD SWAP2 POP PUSH1 0x1F NOT PUSH1 0x3F RETURNDATASIZE ADD AND DUP3 ADD PUSH1 0x40 MSTORE RETURNDATASIZE DUP3 MSTORE RETURNDATASIZE PUSH0 PUSH1 0x20 DUP5 ADD RETURNDATACOPY PUSH2 0x1187 JUMP JUMPDEST PUSH1 0x60 SWAP2 POP JUMPDEST POP POP SWAP1 POP DUP1 PUSH2 0x11CB JUMPI PUSH1 0x40 MLOAD PUSH32 0x8C379A000000000000000000000000000000000000000000000000000000000 DUP2 MSTORE PUSH1 0x4 ADD PUSH2 0x11C2 SWAP1 PUSH2 0x1F5A JUMP JUMPDEST PUSH1 0x40 MLOAD DUP1 SWAP2 SUB SWAP1 REVERT JUMPDEST POP POP POP POP JUMP JUMPDEST DUP1 PUSH0 PUSH20 0xFFFFFFFFFFFFFFFFFFFFFFFFFFFFFFFFFFFFFFFF AND PUSH1 0x2 PUSH0 DUP4 DUP2 MSTORE PUSH1 0x20 ADD SWAP1 DUP2 MSTORE PUSH1 0x20 ADD PUSH0 KECCAK256 PUSH1 0x2 ADD PUSH0 SWAP1 SLOAD SWAP1 PUSH2 0x100 EXP SWAP1 DIV PUSH20 0xFFFFFFFFFFFFFFFFFFFFFFFFFFFFFFFFFFFFFFFF AND PUSH20 0xFFFFFFFFFFFFFFFFFFFFFFFFFFFFFFFFFFFFFFFF AND SUB PUSH2 0x1273 JUMPI PUSH1 0x40 MLOAD PUSH32 0x8C379A000000000000000000000000000000000000000000000000000000000 DUP2 MSTORE PUSH1 0x4 ADD PUSH2 0x126A SWAP1 PUSH2 0x2036 JUMP JUMPDEST PUSH1 0x40 MLOAD DUP1 SWAP2 SUB SWAP1 REVERT JUMPDEST PUSH0 PUSH1 0x2 PUSH0 DUP5 DUP2 MSTORE PUSH1 0x20 ADD SWAP1 DUP2 MSTORE PUSH1 0x20 ADD PUSH0 KECCAK256 SWAP1 POP DUP1 PUSH1 0x2 ADD PUSH0 SWAP1 SLOAD SWAP1 PUSH2 0x100 EXP SWAP1 DIV PUSH20 0xFFFFFFFFFFFFFFFFFFFFFFFFFFFFFFFFFFFFFFFF AND PUSH20 0xFFFFFFFFFFFFFFFFFFFFFFFFFFFFFFFFFFFFFFFF AND CALLER PUSH20 0xFFFFFFFFFFFFFFFFFFFFFFFFFFFFFFFFFFFFFFFF AND EQ DUP1 PUSH2 0x132F JUMPI POP PUSH0 PUSH0 SWAP1 SLOAD SWAP1 PUSH2 0x100 EXP SWAP1 DIV PUSH20 0xFFFFFFFFFFFFFFFFFFFFFFFFFFFFFFFFFFFFFFFF AND PUSH20 0xFFFFFFFFFFFFFFFFFFFFFFFFFFFFFFFFFFFFFFFF AND CALLER PUSH20 0xFFFFFFFFFFFFFFFFFFFFFFFFFFFFFFFFFFFFFFFF AND EQ JUMPDEST PUSH2 0x136E JUMPI PUSH1 0x40 MLOAD PUSH32 0x8C379A000000000000000000000000000000000000000000000000000000000 DUP2 MSTORE PUSH1 0x4 ADD PUSH2 0x1365 SWAP1 PUSH2 0x24F5 JUMP JUMPDEST PUSH1 0x40 MLOAD DUP1 SWAP2 SUB SWAP1 REVERT JUMPDEST DUP1 PUSH1 0x6 ADD PUSH1 0x14 SWAP1 SLOAD SWAP1 PUSH2 0x100 EXP SWAP1 DIV PUSH1 0xFF AND ISZERO PUSH2 0x13C0 JUMPI PUSH1 0x40 MLOAD PUSH32 0x8C379A000000000000000000000000000000000000000000000000000000000 DUP2 MSTORE PUSH1 0x4 ADD PUSH2 0x13B7 SWAP1 PUSH2 0x2583 JUMP JUMPDEST PUSH1 0x40 MLOAD DUP1 SWAP2 SUB SWAP1 REVERT JUMPDEST DUP1 PUSH1 0x6 ADD PUSH1 0x15 SWAP1 SLOAD SWAP1 PUSH2 0x100 EXP SWAP1 DIV PUSH1 0xFF AND ISZERO PUSH2 0x1412 JUMPI PUSH1 0x40 MLOAD PUSH32 0x8C379A000000000000000000000000000000000000000000000000000000000 DUP2 MSTORE PUSH1 0x4 ADD PUSH2 0x1409 SWAP1 PUSH2 0x25EB JUMP JUMPDEST PUSH1 0x40 MLOAD DUP1 SWAP2 SUB SWAP1 REVERT JUMPDEST PUSH0 DUP2 PUSH1 0x5 ADD SLOAD EQ PUSH2 0x1458 JUMPI PUSH1 0x40 MLOAD PUSH32 0x8C379A000000000000000000000000000000000000000000000000000000000 DUP2 MSTORE PUSH1 0x4 ADD PUSH2 0x144F SWAP1 PUSH2 0x2679 JUMP JUMPDEST PUSH1 0x40 MLOAD DUP1 SWAP2 SUB SWAP1 REVERT JUMPDEST PUSH1 0x1 DUP2 PUSH1 0x6 ADD PUSH1 0x15 PUSH2 0x100 EXP DUP2 SLOAD DUP2 PUSH1 0xFF MUL NOT AND SWAP1 DUP4 ISZERO ISZERO MUL OR SWAP1 SSTORE POP POP POP POP JUMP JUMPDEST PUSH0 PUSH0 SWAP1 SLOAD SWAP1 PUSH2 0x100 EXP SWAP1 DIV PUSH20 0xFFFFFFFFFFFFFFFFFFFFFFFFFFFFFFFFFFFFFFFF AND PUSH20 0xFFFFFFFFFFFFFFFFFFFFFFFFFFFFFFFFFFFFFFFF AND CALLER PUSH20 0xFFFFFFFFFFFFFFFFFFFFFFFFFFFFFFFFFFFFFFFF AND EQ PUSH2 0x1508 JUMPI PUSH1 0x40 MLOAD PUSH32 0x8C379A000000000000000000000000000000000000000000000000000000000 DUP2 MSTORE PUSH1 0x4 ADD PUSH2 0x14FF SWAP1 PUSH2 0x26E1 JUMP JUMPDEST PUSH1 0x40 MLOAD DUP1 SWAP2 SUB SWAP1 REVERT JUMPDEST PUSH0 PUSH20 0xFFFFFFFFFFFFFFFFFFFFFFFFFFFFFFFFFFFFFFFF AND DUP2 PUSH20 0xFFFFFFFFFFFFFFFFFFFFFFFFFFFFFFFFFFFFFFFF AND SUB PUSH2 0x1576 JUMPI PUSH1 0x40 MLOAD PUSH32 0x8C379A000000000000000000000000000000000000000000000000000000000 DUP2 MSTORE PUSH1 0x4 ADD PUSH2 0x156D SWAP1 PUSH2 0x276F JUMP JUMPDEST PUSH1 0x40 MLOAD DUP1 SWAP2 SUB SWAP1 REVERT JUMPDEST DUP1 PUSH0 PUSH0 PUSH2 0x100 EXP DUP2 SLOAD DUP2 PUSH20 0xFFFFFFFFFFFFFFFFFFFFFFFFFFFFFFFFFFFFFFFF MUL NOT AND SWAP1 DUP4 PUSH20 0xFFFFFFFFFFFFFFFFFFFFFFFFFFFFFFFFFFFFFFFF AND MUL OR SWAP1 SSTORE POP POP JUMP JUMPDEST PUSH1 0x2 PUSH1 0x20 MSTORE DUP1 PUSH0 MSTORE PUSH1 0x40 PUSH0 KECCAK256 PUSH0 SWAP2 POP SWAP1 POP DUP1 PUSH0 ADD SLOAD SWAP1 DUP1 PUSH1 0x1 ADD SLOAD SWAP1 DUP1 PUSH1 0x2 ADD PUSH0 SWAP1 SLOAD SWAP1 PUSH2 0x100 EXP SWAP1 DIV PUSH20 0xFFFFFFFFFFFFFFFFFFFFFFFFFFFFFFFFFFFFFFFF AND SWAP1 DUP1 PUSH1 0x3 ADD SLOAD SWAP1 DUP1 PUSH1 0x4 ADD SLOAD SWAP1 DUP1 PUSH1 0x5 ADD SLOAD SWAP1 DUP1 PUSH1 0x6 ADD PUSH0 SWAP1 SLOAD SWAP1 PUSH2 0x100 EXP SWAP1 DIV PUSH20 0xFFFFFFFFFFFFFFFFFFFFFFFFFFFFFFFFFFFFFFFF AND SWAP1 DUP1 PUSH1 0x6 ADD PUSH1 0x14 SWAP1 SLOAD SWAP1 PUSH2 0x100 EXP SWAP1 DIV PUSH1 0xFF AND SWAP1 DUP1 PUSH1 0x6 ADD PUSH1 0x15 SWAP1 SLOAD SWAP1 PUSH2 0x100 EXP SWAP1 DIV PUSH1 0xFF AND SWAP1 POP DUP10 JUMP JUMPDEST DUP3 PUSH0 PUSH20 0xFFFFFFFFFFFFFFFFFFFFFFFFFFFFFFFFFFFFFFFF AND PUSH1 0x2 PUSH0 DUP4 DUP2 MSTORE PUSH1 0x20 ADD SWAP1 DUP2 MSTORE PUSH1 0x20 ADD PUSH0 KECCAK256 PUSH1 0x2 ADD PUSH0 SWAP1 SLOAD SWAP1 PUSH2 0x100 EXP SWAP1 DIV PUSH20 0xFFFFFFFFFFFFFFFFFFFFFFFFFFFFFFFFFFFFFFFF AND PUSH20 0xFFFFFFFFFFFFFFFFFFFFFFFFFFFFFFFFFFFFFFFF AND SUB PUSH2 0x16FC JUMPI PUSH1 0x40 MLOAD PUSH32 0x8C379A000000000000000000000000000000000000000000000000000000000 DUP2 MSTORE PUSH1 0x4 ADD PUSH2 0x16F3 SWAP1 PUSH2 0x2036 JUMP JUMPDEST PUSH1 0x40 MLOAD DUP1 SWAP2 SUB SWAP1 REVERT JUMPDEST PUSH0 PUSH1 0x2 PUSH0 DUP7 DUP2 MSTORE PUSH1 0x20 ADD SWAP1 DUP2 MSTORE PUSH1 0x20 ADD PUSH0 KECCAK256 SWAP1 POP DUP1 PUSH1 0x2 ADD PUSH0 SWAP1 SLOAD SWAP1 PUSH2 0x100 EXP SWAP1 DIV PUSH20 0xFFFFFFFFFFFFFFFFFFFFFFFFFFFFFFFFFFFFFFFF AND PUSH20 0xFFFFFFFFFFFFFFFFFFFFFFFFFFFFFFFFFFFFFFFF AND CALLER PUSH20 0xFFFFFFFFFFFFFFFFFFFFFFFFFFFFFFFFFFFFFFFF AND EQ DUP1 PUSH2 0x17B8 JUMPI POP PUSH0 PUSH0 SWAP1 SLOAD SWAP1 PUSH2 0x100 EXP SWAP1 DIV PUSH20 0xFFFFFFFFFFFFFFFFFFFFFFFFFFFFFFFFFFFFFFFF AND PUSH20 0xFFFFFFFFFFFFFFFFFFFFFFFFFFFFFFFFFFFFFFFF AND CALLER PUSH20 0xFFFFFFFFFFFFFFFFFFFFFFFFFFFFFFFFFFFFFFFF AND EQ JUMPDEST PUSH2 0x17F7 JUMPI PUSH1 0x40 MLOAD PUSH32 0x8C379A000000000000000000000000000000000000000000000000000000000 DUP2 MSTORE PUSH1 0x4 ADD PUSH2 0x17EE SWAP1 PUSH2 0x27FD JUMP JUMPDEST PUSH1 0x40 MLOAD DUP1 SWAP2 SUB SWAP1 REVERT JUMPDEST DUP1 PUSH1 0x6 ADD PUSH1 0x14 SWAP1 SLOAD SWAP1 PUSH2 0x100 EXP SWAP1 DIV PUSH1 0xFF AND ISZERO PUSH2 0x1849 JUMPI PUSH1 0x40 MLOAD PUSH32 0x8C379A000000000000000000000000000000000000000000000000000000000 DUP2 MSTORE PUSH1 0x4 ADD PUSH2 0x1840 SWAP1 PUSH2 0x288B JUMP JUMPDEST PUSH1 0x40 MLOAD DUP1 SWAP2 SUB SWAP1 REVERT JUMPDEST DUP1 PUSH1 0x6 ADD PUSH1 0x15 SWAP1 SLOAD SWAP1 PUSH2 0x100 EXP SWAP1 DIV PUSH1 0xFF AND ISZERO PUSH2 0x189B JUMPI PUSH1 0x40 MLOAD PUSH32 0x8C379A000000000000000000000000000000000000000000000000000000000 DUP2 MSTORE PUSH1 0x4 ADD PUSH2 0x1892 SWAP1 PUSH2 0x2919 JUMP JUMPDEST PUSH1 0x40 MLOAD DUP1 SWAP2 SUB SWAP1 REVERT JUMPDEST PUSH0 DUP2 PUSH1 0x5 ADD SLOAD EQ PUSH2 0x18E1 JUMPI PUSH1 0x40 MLOAD PUSH32 0x8C379A000000000000000000000000000000000000000000000000000000000 DUP2 MSTORE PUSH1 0x4 ADD PUSH2 0x18D8 SWAP1 PUSH2 0x29A7 JUMP JUMPDEST PUSH1 0x40 MLOAD DUP1 SWAP2 SUB SWAP1 REVERT JUMPDEST TIMESTAMP DUP5 GT PUSH2 0x1923 JUMPI PUSH1 0x40 MLOAD PUSH32 0x8C379A000000000000000000000000000000000000000000000000000000000 DUP2 MSTORE PUSH1 0x4 ADD PUSH2 0x191A SWAP1 PUSH2 0x2A35 JUMP JUMPDEST PUSH1 0x40 MLOAD DUP1 SWAP2 SUB SWAP1 REVERT JUMPDEST DUP4 DUP2 PUSH1 0x4 ADD DUP2 SWAP1 SSTORE POP DUP3 DUP2 PUSH1 0x1 ADD DUP2 SWAP1 SSTORE POP POP POP POP POP POP JUMP JUMPDEST PUSH1 0x40 MLOAD DUP1 PUSH2 0x120 ADD PUSH1 0x40 MSTORE DUP1 PUSH0 DUP2 MSTORE PUSH1 0x20 ADD PUSH0 DUP2 MSTORE PUSH1 0x20 ADD PUSH0 PUSH20 0xFFFFFFFFFFFFFFFFFFFFFFFFFFFFFFFFFFFFFFFF AND DUP2 MSTORE PUSH1 0x20 ADD PUSH0 DUP2 MSTORE PUSH1 0x20 ADD PUSH0 DUP2 MSTORE PUSH1 0x20 ADD PUSH0 DUP2 MSTORE PUSH1 0x20 ADD PUSH0 PUSH20 0xFFFFFFFFFFFFFFFFFFFFFFFFFFFFFFFFFFFFFFFF AND DUP2 MSTORE PUSH1 0x20 ADD PUSH0 ISZERO ISZERO DUP2 MSTORE PUSH1 0x20 ADD PUSH0 ISZERO ISZERO DUP2 MSTORE POP SWAP1 JUMP JUMPDEST PUSH0 PUSH0 REVERT JUMPDEST PUSH0 DUP2 SWAP1 POP SWAP2 SWAP1 POP JUMP JUMPDEST PUSH2 0x19C5 DUP2 PUSH2 0x19B3 JUMP JUMPDEST DUP2 EQ PUSH2 0x19CF JUMPI PUSH0 PUSH0 REVERT JUMPDEST POP JUMP JUMPDEST PUSH0 DUP2 CALLDATALOAD SWAP1 POP PUSH2 0x19E0 DUP2 PUSH2 0x19BC JUMP JUMPDEST SWAP3 SWAP2 POP POP JUMP JUMPDEST PUSH0 PUSH20 0xFFFFFFFFFFFFFFFFFFFFFFFFFFFFFFFFFFFFFFFF DUP3 AND SWAP1 POP SWAP2 SWAP1 POP JUMP JUMPDEST PUSH0 PUSH2 0x1A0F DUP3 PUSH2 0x19E6 JUMP JUMPDEST SWAP1 POP SWAP2 SWAP1 POP JUMP JUMPDEST PUSH2 0x1A1F DUP2 PUSH2 0x1A05 JUMP JUMPDEST DUP2 EQ PUSH2 0x1A29 JUMPI PUSH0 PUSH0 REVERT JUMPDEST POP JUMP JUMPDEST PUSH0 DUP2 CALLDATALOAD SWAP1 POP PUSH2 0x1A3A DUP2 PUSH2 0x1A16 JUMP JUMPDEST SWAP3 SWAP2 POP POP JUMP JUMPDEST PUSH0 PUSH0 PUSH1 0x40 DUP4 DUP6 SUB SLT ISZERO PUSH2 0x1A56 JUMPI PUSH2 0x1A55 PUSH2 0x19AF JUMP JUMPDEST JUMPDEST PUSH0 PUSH2 0x1A63 DUP6 DUP3 DUP7 ADD PUSH2 0x19D2 JUMP JUMPDEST SWAP3 POP POP PUSH1 0x20 PUSH2 0x1A74 DUP6 DUP3 DUP7 ADD PUSH2 0x1A2C JUMP JUMPDEST SWAP2 POP POP SWAP3 POP SWAP3 SWAP1 POP JUMP JUMPDEST PUSH2 0x1A87 DUP2 PUSH2 0x19B3 JUMP JUMPDEST DUP3 MSTORE POP POP JUMP JUMPDEST PUSH0 PUSH1 0x20 DUP3 ADD SWAP1 POP PUSH2 0x1AA0 PUSH0 DUP4 ADD DUP5 PUSH2 0x1A7E JUMP JUMPDEST SWAP3 SWAP2 POP POP JUMP JUMPDEST PUSH2 0x1AAF DUP2 PUSH2 0x1A05 JUMP JUMPDEST DUP3 MSTORE POP POP JUMP JUMPDEST PUSH0 PUSH1 0x20 DUP3 ADD SWAP1 POP PUSH2 0x1AC8 PUSH0 DUP4 ADD DUP5 PUSH2 0x1AA6 JUMP JUMPDEST SWAP3 SWAP2 POP POP JUMP JUMPDEST PUSH0 PUSH0 PUSH0 PUSH1 0x60 DUP5 DUP7 SUB SLT ISZERO PUSH2 0x1AE5 JUMPI PUSH2 0x1AE4 PUSH2 0x19AF JUMP JUMPDEST JUMPDEST PUSH0 PUSH2 0x1AF2 DUP7 DUP3 DUP8 ADD PUSH2 0x19D2 JUMP JUMPDEST SWAP4 POP POP PUSH1 0x20 PUSH2 0x1B03 DUP7 DUP3 DUP8 ADD PUSH2 0x19D2 JUMP JUMPDEST SWAP3 POP POP PUSH1 0x40 PUSH2 0x1B14 DUP7 DUP3 DUP8 ADD PUSH2 0x19D2 JUMP JUMPDEST SWAP2 POP POP SWAP3 POP SWAP3 POP SWAP3 JUMP JUMPDEST PUSH0 PUSH1 0x20 DUP3 DUP5 SUB SLT ISZERO PUSH2 0x1B33 JUMPI PUSH2 0x1B32 PUSH2 0x19AF JUMP JUMPDEST JUMPDEST PUSH0 PUSH2 0x1B40 DUP5 DUP3 DUP6 ADD PUSH2 0x19D2 JUMP JUMPDEST SWAP2 POP POP SWAP3 SWAP2 POP POP JUMP JUMPDEST PUSH2 0x1B52 DUP2 PUSH2 0x19B3 JUMP JUMPDEST DUP3 MSTORE POP POP JUMP JUMPDEST PUSH2 0x1B61 DUP2 PUSH2 0x1A05 JUMP JUMPDEST DUP3 MSTORE POP POP JUMP JUMPDEST PUSH0 DUP2 ISZERO ISZERO SWAP1 POP SWAP2 SWAP1 POP JUMP JUMPDEST PUSH2 0x1B7B DUP2 PUSH2 0x1B67 JUMP JUMPDEST DUP3 MSTORE POP POP JUMP JUMPDEST PUSH2 0x120 DUP3 ADD PUSH0 DUP3 ADD MLOAD PUSH2 0x1B96 PUSH0 DUP6 ADD DUP3 PUSH2 0x1B49 JUMP JUMPDEST POP PUSH1 0x20 DUP3 ADD MLOAD PUSH2 0x1BA9 PUSH1 0x20 DUP6 ADD DUP3 PUSH2 0x1B49 JUMP JUMPDEST POP PUSH1 0x40 DUP3 ADD MLOAD PUSH2 0x1BBC PUSH1 0x40 DUP6 ADD DUP3 PUSH2 0x1B58 JUMP JUMPDEST POP PUSH1 0x60 DUP3 ADD MLOAD PUSH2 0x1BCF PUSH1 0x60 DUP6 ADD DUP3 PUSH2 0x1B49 JUMP JUMPDEST POP PUSH1 0x80 DUP3 ADD MLOAD PUSH2 0x1BE2 PUSH1 0x80 DUP6 ADD DUP3 PUSH2 0x1B49 JUMP JUMPDEST POP PUSH1 0xA0 DUP3 ADD MLOAD PUSH2 0x1BF5 PUSH1 0xA0 DUP6 ADD DUP3 PUSH2 0x1B49 JUMP JUMPDEST POP PUSH1 0xC0 DUP3 ADD MLOAD PUSH2 0x1C08 PUSH1 0xC0 DUP6 ADD DUP3 PUSH2 0x1B58 JUMP JUMPDEST POP PUSH1 0xE0 DUP3 ADD MLOAD PUSH2 0x1C1B PUSH1 0xE0 DUP6 ADD DUP3 PUSH2 0x1B72 JUMP JUMPDEST POP PUSH2 0x100 DUP3 ADD MLOAD PUSH2 0x1C30 PUSH2 0x100 DUP6 ADD DUP3 PUSH2 0x1B72 JUMP JUMPDEST POP POP POP POP JUMP JUMPDEST PUSH0 PUSH2 0x120 DUP3 ADD SWAP1 POP PUSH2 0x1C4A PUSH0 DUP4 ADD DUP5 PUSH2 0x1B81 JUMP JUMPDEST SWAP3 SWAP2 POP POP JUMP JUMPDEST PUSH0 PUSH1 0x20 DUP3 DUP5 SUB SLT ISZERO PUSH2 0x1C65 JUMPI PUSH2 0x1C64 PUSH2 0x19AF JUMP JUMPDEST JUMPDEST PUSH0 PUSH2 0x1C72 DUP5 DUP3 DUP6 ADD PUSH2 0x1A2C JUMP JUMPDEST SWAP2 POP POP SWAP3 SWAP2 POP POP JUMP JUMPDEST PUSH2 0x1C84 DUP2 PUSH2 0x1B67 JUMP JUMPDEST DUP3 MSTORE POP POP JUMP JUMPDEST PUSH0 PUSH2 0x120 DUP3 ADD SWAP1 POP PUSH2 0x1C9E PUSH0 DUP4 ADD DUP13 PUSH2 0x1A7E JUMP JUMPDEST PUSH2 0x1CAB PUSH1 0x20 DUP4 ADD DUP12 PUSH2 0x1A7E JUMP JUMPDEST PUSH2 0x1CB8 PUSH1 0x40 DUP4 ADD DUP11 PUSH2 0x1AA6 JUMP JUMPDEST PUSH2 0x1CC5 PUSH1 0x60 DUP4 ADD DUP10 PUSH2 0x1A7E JUMP JUMPDEST PUSH2 0x1CD2 PUSH1 0x80 DUP4 ADD DUP9 PUSH2 0x1A7E JUMP JUMPDEST PUSH2 0x1CDF PUSH1 0xA0 DUP4 ADD DUP8 PUSH2 0x1A7E JUMP JUMPDEST PUSH2 0x1CEC PUSH1 0xC0 DUP4 ADD DUP7 PUSH2 0x1AA6 JUMP JUMPDEST PUSH2 0x1CF9 PUSH1 0xE0 DUP4 ADD DUP6 PUSH2 0x1C7B JUMP JUMPDEST PUSH2 0x1D07 PUSH2 0x100 DUP4 ADD DUP5 PUSH2 0x1C7B JUMP JUMPDEST SWAP11 SWAP10 POP POP POP POP POP POP POP POP POP POP JUMP JUMPDEST PUSH0 DUP3 DUP3 MSTORE PUSH1 0x20 DUP3 ADD SWAP1 POP SWAP3 SWAP2 POP POP JUMP JUMPDEST PUSH32 0x446562657320656E7669617220616C206D656E6F732035303020776569207061 PUSH0 DUP3 ADD MSTORE PUSH32 0x726120637265617220756E6120737562617374612E0000000000000000000000 PUSH1 0x20 DUP3 ADD MSTORE POP JUMP JUMPDEST PUSH0 PUSH2 0x1D7F PUSH1 0x35 DUP4 PUSH2 0x1D15 JUMP JUMPDEST SWAP2 POP PUSH2 0x1D8A DUP3 PUSH2 0x1D25 JUMP JUMPDEST PUSH1 0x40 DUP3 ADD SWAP1 POP SWAP2 SWAP1 POP JUMP JUMPDEST PUSH0 PUSH1 0x20 DUP3 ADD SWAP1 POP DUP2 DUP2 SUB PUSH0 DUP4 ADD MSTORE PUSH2 0x1DAC DUP2 PUSH2 0x1D73 JUMP JUMPDEST SWAP1 POP SWAP2 SWAP1 POP JUMP JUMPDEST PUSH32 0x456C2076616C6F72206D696E696D6F206465206F666572746120646562652073 PUSH0 DUP3 ADD MSTORE PUSH32 0x6572206D61796F722061206365726F2E00000000000000000000000000000000 PUSH1 0x20 DUP3 ADD MSTORE POP JUMP JUMPDEST PUSH0 PUSH2 0x1E0D PUSH1 0x30 DUP4 PUSH2 0x1D15 JUMP JUMPDEST SWAP2 POP PUSH2 0x1E18 DUP3 PUSH2 0x1DB3 JUMP JUMPDEST PUSH1 0x40 DUP3 ADD SWAP1 POP SWAP2 SWAP1 POP JUMP JUMPDEST PUSH0 PUSH1 0x20 DUP3 ADD SWAP1 POP DUP2 DUP2 SUB PUSH0 DUP4 ADD MSTORE PUSH2 0x1E3A DUP2 PUSH2 0x1E01 JUMP JUMPDEST SWAP1 POP SWAP2 SWAP1 POP JUMP JUMPDEST PUSH32 0x4C6120666563686120646520636965727265206465626520736572206D61796F PUSH0 DUP3 ADD MSTORE PUSH32 0x722061206C612066656368612061637475616C2E000000000000000000000000 PUSH1 0x20 DUP3 ADD MSTORE POP JUMP JUMPDEST PUSH0 PUSH2 0x1E9B PUSH1 0x34 DUP4 PUSH2 0x1D15 JUMP JUMPDEST SWAP2 POP PUSH2 0x1EA6 DUP3 PUSH2 0x1E41 JUMP JUMPDEST PUSH1 0x40 DUP3 ADD SWAP1 POP SWAP2 SWAP1 POP JUMP JUMPDEST PUSH0 PUSH1 0x20 DUP3 ADD SWAP1 POP DUP2 DUP2 SUB PUSH0 DUP4 ADD MSTORE PUSH2 0x1EC8 DUP2 PUSH2 0x1E8F JUMP JUMPDEST SWAP1 POP SWAP2 SWAP1 POP JUMP JUMPDEST PUSH0 DUP2 SWAP1 POP SWAP3 SWAP2 POP POP JUMP JUMPDEST POP JUMP JUMPDEST PUSH0 PUSH2 0x1EE7 PUSH0 DUP4 PUSH2 0x1ECF JUMP JUMPDEST SWAP2 POP PUSH2 0x1EF2 DUP3 PUSH2 0x1ED9 JUMP JUMPDEST PUSH0 DUP3 ADD SWAP1 POP SWAP2 SWAP1 POP JUMP JUMPDEST PUSH0 PUSH2 0x1F06 DUP3 PUSH2 0x1EDC JUMP JUMPDEST SWAP2 POP DUP2 SWAP1 POP SWAP2 SWAP1 POP JUMP JUMPDEST PUSH32 0x5472616E73666572656E6369612066616C6C6964612E00000000000000000000 PUSH0 DUP3 ADD MSTORE POP JUMP JUMPDEST PUSH0 PUSH2 0x1F44 PUSH1 0x16 DUP4 PUSH2 0x1D15 JUMP JUMPDEST SWAP2 POP PUSH2 0x1F4F DUP3 PUSH2 0x1F10 JUMP JUMPDEST PUSH1 0x20 DUP3 ADD SWAP1 POP SWAP2 SWAP1 POP JUMP JUMPDEST PUSH0 PUSH1 0x20 DUP3 ADD SWAP1 POP DUP2 DUP2 SUB PUSH0 DUP4 ADD MSTORE PUSH2 0x1F71 DUP2 PUSH2 0x1F38 JUMP JUMPDEST SWAP1 POP SWAP2 SWAP1 POP JUMP JUMPDEST PUSH32 0x4E487B7100000000000000000000000000000000000000000000000000000000 PUSH0 MSTORE PUSH1 0x11 PUSH1 0x4 MSTORE PUSH1 0x24 PUSH0 REVERT JUMPDEST PUSH0 PUSH2 0x1FAF DUP3 PUSH2 0x19B3 JUMP JUMPDEST SWAP2 POP PUSH32 0xFFFFFFFFFFFFFFFFFFFFFFFFFFFFFFFFFFFFFFFFFFFFFFFFFFFFFFFFFFFFFFFF DUP3 SUB PUSH2 0x1FE1 JUMPI PUSH2 0x1FE0 PUSH2 0x1F78 JUMP JUMPDEST JUMPDEST PUSH1 0x1 DUP3 ADD SWAP1 POP SWAP2 SWAP1 POP JUMP JUMPDEST PUSH32 0x4C612073756261737461206E6F206578697374652E0000000000000000000000 PUSH0 DUP3 ADD MSTORE POP JUMP JUMPDEST PUSH0 PUSH2 0x2020 PUSH1 0x15 DUP4 PUSH2 0x1D15 JUMP JUMPDEST SWAP2 POP PUSH2 0x202B DUP3 PUSH2 0x1FEC JUMP JUMPDEST PUSH1 0x20 DUP3 ADD SWAP1 POP SWAP2 SWAP1 POP JUMP JUMPDEST PUSH0 PUSH1 0x20 DUP3 ADD SWAP1 POP DUP2 DUP2 SUB PUSH0 DUP4 ADD MSTORE PUSH2 0x204D DUP2 PUSH2 0x2014 JUMP JUMPDEST SWAP1 POP SWAP2 SWAP1 POP JUMP JUMPDEST PUSH32 0x4C61206F6665727461206465626520736572206D61796F72206F20696775616C PUSH0 DUP3 ADD MSTORE PUSH32 0x20616C2076616C6F72206D696E696D6F206465206F66657274612E0000000000 PUSH1 0x20 DUP3 ADD MSTORE POP JUMP JUMPDEST PUSH0 PUSH2 0x20AE PUSH1 0x3B DUP4 PUSH2 0x1D15 JUMP JUMPDEST SWAP2 POP PUSH2 0x20B9 DUP3 PUSH2 0x2054 JUMP JUMPDEST PUSH1 0x40 DUP3 ADD SWAP1 POP SWAP2 SWAP1 POP JUMP JUMPDEST PUSH0 PUSH1 0x20 DUP3 ADD SWAP1 POP DUP2 DUP2 SUB PUSH0 DUP4 ADD MSTORE PUSH2 0x20DB DUP2 PUSH2 0x20A2 JUMP JUMPDEST SWAP1 POP SWAP2 SWAP1 POP JUMP JUMPDEST PUSH32 0x4C61206F666572746120646562652073757065726172206C61206F6665727461 PUSH0 DUP3 ADD MSTORE PUSH32 0x206D617320616C74612061637475616C2E000000000000000000000000000000 PUSH1 0x20 DUP3 ADD MSTORE POP JUMP JUMPDEST PUSH0 PUSH2 0x213C PUSH1 0x31 DUP4 PUSH2 0x1D15 JUMP JUMPDEST SWAP2 POP PUSH2 0x2147 DUP3 PUSH2 0x20E2 JUMP JUMPDEST PUSH1 0x40 DUP3 ADD SWAP1 POP SWAP2 SWAP1 POP JUMP JUMPDEST PUSH0 PUSH1 0x20 DUP3 ADD SWAP1 POP DUP2 DUP2 SUB PUSH0 DUP4 ADD MSTORE PUSH2 0x2169 DUP2 PUSH2 0x2130 JUMP JUMPDEST SWAP1 POP SWAP2 SWAP1 POP JUMP JUMPDEST PUSH32 0x4C6120666563686120646520636965727265206465206C612073756261737461 PUSH0 DUP3 ADD MSTORE PUSH32 0x207961207061736F2E0000000000000000000000000000000000000000000000 PUSH1 0x20 DUP3 ADD MSTORE POP JUMP JUMPDEST PUSH0 PUSH2 0x21CA PUSH1 0x29 DUP4 PUSH2 0x1D15 JUMP JUMPDEST SWAP2 POP PUSH2 0x21D5 DUP3 PUSH2 0x2170 JUMP JUMPDEST PUSH1 0x40 DUP3 ADD SWAP1 POP SWAP2 SWAP1 POP JUMP JUMPDEST PUSH0 PUSH1 0x20 DUP3 ADD SWAP1 POP DUP2 DUP2 SUB PUSH0 DUP4 ADD MSTORE PUSH2 0x21F7 DUP2 PUSH2 0x21BE JUMP JUMPDEST SWAP1 POP SWAP2 SWAP1 POP JUMP JUMPDEST PUSH32 0x4C612073756261737461207961206675652066696E616C697A6164612E000000 PUSH0 DUP3 ADD MSTORE POP JUMP JUMPDEST PUSH0 PUSH2 0x2232 PUSH1 0x1D DUP4 PUSH2 0x1D15 JUMP JUMPDEST SWAP2 POP PUSH2 0x223D DUP3 PUSH2 0x21FE JUMP JUMPDEST PUSH1 0x20 DUP3 ADD SWAP1 POP SWAP2 SWAP1 POP JUMP JUMPDEST PUSH0 PUSH1 0x20 DUP3 ADD SWAP1 POP DUP2 DUP2 SUB PUSH0 DUP4 ADD MSTORE PUSH2 0x225F DUP2 PUSH2 0x2226 JUMP JUMPDEST SWAP1 POP SWAP2 SWAP1 POP JUMP JUMPDEST PUSH32 0x4C6120737562617374612066756520656C696D696E6164612E00000000000000 PUSH0 DUP3 ADD MSTORE POP JUMP JUMPDEST PUSH0 PUSH2 0x229A PUSH1 0x19 DUP4 PUSH2 0x1D15 JUMP JUMPDEST SWAP2 POP PUSH2 0x22A5 DUP3 PUSH2 0x2266 JUMP JUMPDEST PUSH1 0x20 DUP3 ADD SWAP1 POP SWAP2 SWAP1 POP JUMP JUMPDEST PUSH0 PUSH1 0x20 DUP3 ADD SWAP1 POP DUP2 DUP2 SUB PUSH0 DUP4 ADD MSTORE PUSH2 0x22C7 DUP2 PUSH2 0x228E JUMP JUMPDEST SWAP1 POP SWAP2 SWAP1 POP JUMP JUMPDEST PUSH0 PUSH2 0x22D8 DUP3 PUSH2 0x19B3 JUMP JUMPDEST SWAP2 POP PUSH2 0x22E3 DUP4 PUSH2 0x19B3 JUMP JUMPDEST SWAP3 POP DUP3 DUP3 ADD SWAP1 POP DUP1 DUP3 GT ISZERO PUSH2 0x22FB JUMPI PUSH2 0x22FA PUSH2 0x1F78 JUMP JUMPDEST JUMPDEST SWAP3 SWAP2 POP POP JUMP JUMPDEST PUSH32 0x536F6C6F20656C2063726561646F72206F20656C2070726F706965746172696F PUSH0 DUP3 ADD MSTORE PUSH32 0x2070756564656E2066696E616C697A6172206C6120737562617374612E000000 PUSH1 0x20 DUP3 ADD MSTORE POP JUMP JUMPDEST PUSH0 PUSH2 0x235B PUSH1 0x3D DUP4 PUSH2 0x1D15 JUMP JUMPDEST SWAP2 POP PUSH2 0x2366 DUP3 PUSH2 0x2301 JUMP JUMPDEST PUSH1 0x40 DUP3 ADD SWAP1 POP SWAP2 SWAP1 POP JUMP JUMPDEST PUSH0 PUSH1 0x20 DUP3 ADD SWAP1 POP DUP2 DUP2 SUB PUSH0 DUP4 ADD MSTORE PUSH2 0x2388 DUP2 PUSH2 0x234F JUMP JUMPDEST SWAP1 POP SWAP2 SWAP1 POP JUMP JUMPDEST PUSH32 0x4C612073756261737461206E6F206861206C6C656761646F2061207375206665 PUSH0 DUP3 ADD MSTORE PUSH32 0x636861206465206369657272652E000000000000000000000000000000000000 PUSH1 0x20 DUP3 ADD MSTORE POP JUMP JUMPDEST PUSH0 PUSH2 0x23E9 PUSH1 0x2E DUP4 PUSH2 0x1D15 JUMP JUMPDEST SWAP2 POP PUSH2 0x23F4 DUP3 PUSH2 0x238F JUMP JUMPDEST PUSH1 0x40 DUP3 ADD SWAP1 POP SWAP2 SWAP1 POP JUMP JUMPDEST PUSH0 PUSH1 0x20 DUP3 ADD SWAP1 POP DUP2 DUP2 SUB PUSH0 DUP4 ADD MSTORE PUSH2 0x2416 DUP2 PUSH2 0x23DD JUMP JUMPDEST SWAP1 POP SWAP2 SWAP1 POP JUMP JUMPDEST PUSH32 0x4E6F207469656E657320666F6E646F73207061726120726574697261722E0000 PUSH0 DUP3 ADD MSTORE POP JUMP JUMPDEST PUSH0 PUSH2 0x2451 PUSH1 0x1E DUP4 PUSH2 0x1D15 JUMP JUMPDEST SWAP2 POP PUSH2 0x245C DUP3 PUSH2 0x241D JUMP JUMPDEST PUSH1 0x20 DUP3 ADD SWAP1 POP SWAP2 SWAP1 POP JUMP JUMPDEST PUSH0 PUSH1 0x20 DUP3 ADD SWAP1 POP DUP2 DUP2 SUB PUSH0 DUP4 ADD MSTORE PUSH2 0x247E DUP2 PUSH2 0x2445 JUMP JUMPDEST SWAP1 POP SWAP2 SWAP1 POP JUMP JUMPDEST PUSH32 0x536F6C6F20656C2063726561646F72206F20656C2070726F706965746172696F PUSH0 DUP3 ADD MSTORE PUSH32 0x2070756564656E20656C696D696E6172206C6120737562617374612E00000000 PUSH1 0x20 DUP3 ADD MSTORE POP JUMP JUMPDEST PUSH0 PUSH2 0x24DF PUSH1 0x3C DUP4 PUSH2 0x1D15 JUMP JUMPDEST SWAP2 POP PUSH2 0x24EA DUP3 PUSH2 0x2485 JUMP JUMPDEST PUSH1 0x40 DUP3 ADD SWAP1 POP SWAP2 SWAP1 POP JUMP JUMPDEST PUSH0 PUSH1 0x20 DUP3 ADD SWAP1 POP DUP2 DUP2 SUB PUSH0 DUP4 ADD MSTORE PUSH2 0x250C DUP2 PUSH2 0x24D3 JUMP JUMPDEST SWAP1 POP SWAP2 SWAP1 POP JUMP JUMPDEST PUSH32 0x4E6F20736520707565646520656C696D696E617220756E612073756261737461 PUSH0 DUP3 ADD MSTORE PUSH32 0x2066696E616C697A6164612E0000000000000000000000000000000000000000 PUSH1 0x20 DUP3 ADD MSTORE POP JUMP JUMPDEST PUSH0 PUSH2 0x256D PUSH1 0x2C DUP4 PUSH2 0x1D15 JUMP JUMPDEST SWAP2 POP PUSH2 0x2578 DUP3 PUSH2 0x2513 JUMP JUMPDEST PUSH1 0x40 DUP3 ADD SWAP1 POP SWAP2 SWAP1 POP JUMP JUMPDEST PUSH0 PUSH1 0x20 DUP3 ADD SWAP1 POP DUP2 DUP2 SUB PUSH0 DUP4 ADD MSTORE PUSH2 0x259A DUP2 PUSH2 0x2561 JUMP JUMPDEST SWAP1 POP SWAP2 SWAP1 POP JUMP JUMPDEST PUSH32 0x4C6120737562617374612079612066756520656C696D696E6164612E00000000 PUSH0 DUP3 ADD MSTORE POP JUMP JUMPDEST PUSH0 PUSH2 0x25D5 PUSH1 0x1C DUP4 PUSH2 0x1D15 JUMP JUMPDEST SWAP2 POP PUSH2 0x25E0 DUP3 PUSH2 0x25A1 JUMP JUMPDEST PUSH1 0x20 DUP3 ADD SWAP1 POP SWAP2 SWAP1 POP JUMP JUMPDEST PUSH0 PUSH1 0x20 DUP3 ADD SWAP1 POP DUP2 DUP2 SUB PUSH0 DUP4 ADD MSTORE PUSH2 0x2602 DUP2 PUSH2 0x25C9 JUMP JUMPDEST SWAP1 POP SWAP2 SWAP1 POP JUMP JUMPDEST PUSH32 0x4E6F20736520707565646520656C696D696E617220756E612073756261737461 PUSH0 DUP3 ADD MSTORE PUSH32 0x20636F6E206F66657274617320616374697661732E0000000000000000000000 PUSH1 0x20 DUP3 ADD MSTORE POP JUMP JUMPDEST PUSH0 PUSH2 0x2663 PUSH1 0x35 DUP4 PUSH2 0x1D15 JUMP JUMPDEST SWAP2 POP PUSH2 0x266E DUP3 PUSH2 0x2609 JUMP JUMPDEST PUSH1 0x40 DUP3 ADD SWAP1 POP SWAP2 SWAP1 POP JUMP JUMPDEST PUSH0 PUSH1 0x20 DUP3 ADD SWAP1 POP DUP2 DUP2 SUB PUSH0 DUP4 ADD MSTORE PUSH2 0x2690 DUP2 PUSH2 0x2657 JUMP JUMPDEST SWAP1 POP SWAP2 SWAP1 POP JUMP JUMPDEST PUSH32 0x4E6F206572657320656C2070726F706965746172696F2E000000000000000000 PUSH0 DUP3 ADD MSTORE POP JUMP JUMPDEST PUSH0 PUSH2 0x26CB PUSH1 0x17 DUP4 PUSH2 0x1D15 JUMP JUMPDEST SWAP2 POP PUSH2 0x26D6 DUP3 PUSH2 0x2697 JUMP JUMPDEST PUSH1 0x20 DUP3 ADD SWAP1 POP SWAP2 SWAP1 POP JUMP JUMPDEST PUSH0 PUSH1 0x20 DUP3 ADD SWAP1 POP DUP2 DUP2 SUB PUSH0 DUP4 ADD MSTORE PUSH2 0x26F8 DUP2 PUSH2 0x26BF JUMP JUMPDEST SWAP1 POP SWAP2 SWAP1 POP JUMP JUMPDEST PUSH32 0x4C61206E7565766120646972656363696F6E206E6F2070756564652073657220 PUSH0 DUP3 ADD MSTORE PUSH32 0x76616369612E0000000000000000000000000000000000000000000000000000 PUSH1 0x20 DUP3 ADD MSTORE POP JUMP JUMPDEST PUSH0 PUSH2 0x2759 PUSH1 0x26 DUP4 PUSH2 0x1D15 JUMP JUMPDEST SWAP2 POP PUSH2 0x2764 DUP3 PUSH2 0x26FF JUMP JUMPDEST PUSH1 0x40 DUP3 ADD SWAP1 POP SWAP2 SWAP1 POP JUMP JUMPDEST PUSH0 PUSH1 0x20 DUP3 ADD SWAP1 POP DUP2 DUP2 SUB PUSH0 DUP4 ADD MSTORE PUSH2 0x2786 DUP2 PUSH2 0x274D JUMP JUMPDEST SWAP1 POP SWAP2 SWAP1 POP JUMP JUMPDEST PUSH32 0x536F6C6F20656C2063726561646F72206F20656C2070726F706965746172696F PUSH0 DUP3 ADD MSTORE PUSH32 0x2070756564656E206D6F64696669636172206C6120737562617374612E000000 PUSH1 0x20 DUP3 ADD MSTORE POP JUMP JUMPDEST PUSH0 PUSH2 0x27E7 PUSH1 0x3D DUP4 PUSH2 0x1D15 JUMP JUMPDEST SWAP2 POP PUSH2 0x27F2 DUP3 PUSH2 0x278D JUMP JUMPDEST PUSH1 0x40 DUP3 ADD SWAP1 POP SWAP2 SWAP1 POP JUMP JUMPDEST PUSH0 PUSH1 0x20 DUP3 ADD SWAP1 POP DUP2 DUP2 SUB PUSH0 DUP4 ADD MSTORE PUSH2 0x2814 DUP2 PUSH2 0x27DB JUMP JUMPDEST SWAP1 POP SWAP2 SWAP1 POP JUMP JUMPDEST PUSH32 0x4E6F207365207075656465206D6F6469666963617220756E6120737562617374 PUSH0 DUP3 ADD MSTORE PUSH32 0x612066696E616C697A6164612E00000000000000000000000000000000000000 PUSH1 0x20 DUP3 ADD MSTORE POP JUMP JUMPDEST PUSH0 PUSH2 0x2875 PUSH1 0x2D DUP4 PUSH2 0x1D15 JUMP JUMPDEST SWAP2 POP PUSH2 0x2880 DUP3 PUSH2 0x281B JUMP JUMPDEST PUSH1 0x40 DUP3 ADD SWAP1 POP SWAP2 SWAP1 POP JUMP JUMPDEST PUSH0 PUSH1 0x20 DUP3 ADD SWAP1 POP DUP2 DUP2 SUB PUSH0 DUP4 ADD MSTORE PUSH2 0x28A2 DUP2 PUSH2 0x2869 JUMP JUMPDEST SWAP1 POP SWAP2 SWAP1 POP JUMP JUMPDEST PUSH32 0x4E6F207365207075656465206D6F6469666963617220756E6120737562617374 PUSH0 DUP3 ADD MSTORE PUSH32 0x6120656C696D696E6164612E0000000000000000000000000000000000000000 PUSH1 0x20 DUP3 ADD MSTORE POP JUMP JUMPDEST PUSH0 PUSH2 0x2903 PUSH1 0x2C DUP4 PUSH2 0x1D15 JUMP JUMPDEST SWAP2 POP PUSH2 0x290E DUP3 PUSH2 0x28A9 JUMP JUMPDEST PUSH1 0x40 DUP3 ADD SWAP1 POP SWAP2 SWAP1 POP JUMP JUMPDEST PUSH0 PUSH1 0x20 DUP3 ADD SWAP1 POP DUP2 DUP2 SUB PUSH0 DUP4 ADD MSTORE PUSH2 0x2930 DUP2 PUSH2 0x28F7 JUMP JUMPDEST SWAP1 POP SWAP2 SWAP1 POP JUMP JUMPDEST PUSH32 0x4E6F207365207075656465206D6F6469666963617220756E6120737562617374 PUSH0 DUP3 ADD MSTORE PUSH32 0x6120636F6E206F66657274617320616374697661732E00000000000000000000 PUSH1 0x20 DUP3 ADD MSTORE POP JUMP JUMPDEST PUSH0 PUSH2 0x2991 PUSH1 0x36 DUP4 PUSH2 0x1D15 JUMP JUMPDEST SWAP2 POP PUSH2 0x299C DUP3 PUSH2 0x2937 JUMP JUMPDEST PUSH1 0x40 DUP3 ADD SWAP1 POP SWAP2 SWAP1 POP JUMP JUMPDEST PUSH0 PUSH1 0x20 DUP3 ADD SWAP1 POP DUP2 DUP2 SUB PUSH0 DUP4 ADD MSTORE PUSH2 0x29BE DUP2 PUSH2 0x2985 JUMP JUMPDEST SWAP1 POP SWAP2 SWAP1 POP JUMP JUMPDEST PUSH32 0x4C61206E75657661206665636861206465206369657272652064656265207365 PUSH0 DUP3 ADD MSTORE PUSH32 0x72206D61796F722061206C612066656368612061637475616C2E000000000000 PUSH1 0x20 DUP3 ADD MSTORE POP JUMP JUMPDEST PUSH0 PUSH2 0x2A1F PUSH1 0x3A DUP4 PUSH2 0x1D15 JUMP JUMPDEST SWAP2 POP PUSH2 0x2A2A DUP3 PUSH2 0x29C5 JUMP JUMPDEST PUSH1 0x40 DUP3 ADD SWAP1 POP SWAP2 SWAP1 POP JUMP JUMPDEST PUSH0 PUSH1 0x20 DUP3 ADD SWAP1 POP DUP2 DUP2 SUB PUSH0 DUP4 ADD MSTORE PUSH2 0x2A4C DUP2 PUSH2 0x2A13 JUMP JUMPDEST SWAP1 POP SWAP2 SWAP1 POP JUMP INVALID LOG2 PUSH5 0x6970667358 0x22 SLT KECCAK256 0xD8 0xB0 SMOD RETURNCONTRACT 0x1F EXTCODEHASH DUP4 XOR 0xE DUP2 0xD7 0xB7 SWAP7 DUP3 0x2C 0x28 0xC4 MLOAD 0xB7 SLOAD EXTCODECOPY MSTORE8 SWAP8 0xBD 0xEF MSTORE SWAP3 0xFC PUSH17 0x2B2B1164736F6C63430008220033000000 "
				},
				"gasEstimates": {
					"creation": {
						"codeDepositCost": "2177800",
						"executionCost": "31599",
						"totalCost": "2209399"
					},
					"external": {
						"cambiarPropietario(address)": "26982",
						"contadorSubastas()": "2448",
						"crearSubasta(uint256,uint256,uint256)": "infinite",
						"eliminarSubasta(uint256)": "38012",
						"finalizarSubasta(uint256)": "infinite",
						"lst_subastas(uint256)": "infinite",
						"modificarSubasta(uint256,uint256,uint256)": "infinite",
						"obtenerSubasta(uint256)": "infinite",
						"propietario()": "2552",
						"realizarOferta(uint256)": "infinite",
						"retirarFondos(uint256)": "infinite",
						"retirosPendientes(uint256,address)": "infinite"
					}
				},
				"methodIdentifiers": {
					"cambiarPropietario(address)": "c2e5eafa",
					"contadorSubastas()": "20e6ca0e",
					"crearSubasta(uint256,uint256,uint256)": "57a08671",
					"eliminarSubasta(uint256)": "b0a4e852",
					"finalizarSubasta(uint256)": "8434f0a2",
					"lst_subastas(uint256)": "d3fb3830",
					"modificarSubasta(uint256,uint256,uint256)": "f657be03",
					"obtenerSubasta(uint256)": "733d50d4",
					"propietario()": "3c4f81cd",
					"realizarOferta(uint256)": "8348348f",
					"retirarFondos(uint256)": "a32aa717",
					"retirosPendientes(uint256,address)": "1042b69b"
				}
			},
			"storageLayout": {
				"storage": [
					{
						"astId": 3,
						"contract": "contracts/CasaDeSubastas.sol:CasaDeSubastas",
						"label": "propietario",
						"offset": 0,
						"slot": "0",
						"type": "t_address"
					},
					{
						"astId": 5,
						"contract": "contracts/CasaDeSubastas.sol:CasaDeSubastas",
						"label": "contadorSubastas",
						"offset": 0,
						"slot": "1",
						"type": "t_uint256"
					},
					{
						"astId": 10,
						"contract": "contracts/CasaDeSubastas.sol:CasaDeSubastas",
						"label": "lst_subastas",
						"offset": 0,
						"slot": "2",
						"type": "t_mapping(t_uint256,t_struct(Subasta)35_storage)"
					},
					{
						"astId": 16,
						"contract": "contracts/CasaDeSubastas.sol:CasaDeSubastas",
						"label": "retirosPendientes",
						"offset": 0,
						"slot": "3",
						"type": "t_mapping(t_uint256,t_mapping(t_address,t_uint256))"
					}
				],
				"types": {
					"t_address": {
						"encoding": "inplace",
						"label": "address",
						"numberOfBytes": "20"
					},
					"t_bool": {
						"encoding": "inplace",
						"label": "bool",
						"numberOfBytes": "1"
					},
					"t_mapping(t_address,t_uint256)": {
						"encoding": "mapping",
						"key": "t_address",
						"label": "mapping(address => uint256)",
						"numberOfBytes": "32",
						"value": "t_uint256"
					},
					"t_mapping(t_uint256,t_mapping(t_address,t_uint256))": {
						"encoding": "mapping",
						"key": "t_uint256",
						"label": "mapping(uint256 => mapping(address => uint256))",
						"numberOfBytes": "32",
						"value": "t_mapping(t_address,t_uint256)"
					},
					"t_mapping(t_uint256,t_struct(Subasta)35_storage)": {
						"encoding": "mapping",
						"key": "t_uint256",
						"label": "mapping(uint256 => struct CasaDeSubastas.Subasta)",
						"numberOfBytes": "32",
						"value": "t_struct(Subasta)35_storage"
					},
					"t_struct(Subasta)35_storage": {
						"encoding": "inplace",
						"label": "struct CasaDeSubastas.Subasta",
						"members": [
							{
								"astId": 18,
								"contract": "contracts/CasaDeSubastas.sol:CasaDeSubastas",
								"label": "id",
								"offset": 0,
								"slot": "0",
								"type": "t_uint256"
							},
							{
								"astId": 20,
								"contract": "contracts/CasaDeSubastas.sol:CasaDeSubastas",
								"label": "idItem",
								"offset": 0,
								"slot": "1",
								"type": "t_uint256"
							},
							{
								"astId": 22,
								"contract": "contracts/CasaDeSubastas.sol:CasaDeSubastas",
								"label": "creador",
								"offset": 0,
								"slot": "2",
								"type": "t_address"
							},
							{
								"astId": 24,
								"contract": "contracts/CasaDeSubastas.sol:CasaDeSubastas",
								"label": "ofertaMinima",
								"offset": 0,
								"slot": "3",
								"type": "t_uint256"
							},
							{
								"astId": 26,
								"contract": "contracts/CasaDeSubastas.sol:CasaDeSubastas",
								"label": "fechaCierre",
								"offset": 0,
								"slot": "4",
								"type": "t_uint256"
							},
							{
								"astId": 28,
								"contract": "contracts/CasaDeSubastas.sol:CasaDeSubastas",
								"label": "ofertaMaxima",
								"offset": 0,
								"slot": "5",
								"type": "t_uint256"
							},
							{
								"astId": 30,
								"contract": "contracts/CasaDeSubastas.sol:CasaDeSubastas",
								"label": "mejorPostor",
								"offset": 0,
								"slot": "6",
								"type": "t_address"
							},
							{
								"astId": 32,
								"contract": "contracts/CasaDeSubastas.sol:CasaDeSubastas",
								"label": "finalizada",
								"offset": 20,
								"slot": "6",
								"type": "t_bool"
							},
							{
								"astId": 34,
								"contract": "contracts/CasaDeSubastas.sol:CasaDeSubastas",
								"label": "eliminada",
								"offset": 21,
								"slot": "6",
								"type": "t_bool"
							}
						],
						"numberOfBytes": "224"
					},
					"t_uint256": {
						"encoding": "inplace",
						"label": "uint256",
						"numberOfBytes": "32"
					}
				}
			},
			"userdoc": {
				"kind": "user",
				"methods": {},
				"version": 1
			}
		}
	}
}