{
	"data": {
		"bytecode": {
			"linkReferences": {},
			"object": "6080604052348015600e575f5ffd5b50335f5f6101000a81548173ffffffffffffffffffffffffffffffffffffffff021916908373ffffffffffffffffffffffffffffffffffffffff1602179055505f6001819055506139e8806100625f395ff3fe6080604052600436106100f2575f3560e01c80638ae3a98c11610089578063c2e5eafa11610058578063c2e5eafa1461030b578063d3fb383014610333578063f657be0314610377578063faabd7c41461039f576100f2565b80638ae3a98c14610263578063a32aa7171461027f578063a708bd8b146102a7578063b0a4e852146102e3576100f2565b806357a08671116100c557806357a08671146101c7578063733d50d4146101e35780638348348f1461021f5780638434f0a21461023b576100f2565b80631042b69b146100f657806320e6ca0e1461013257806339e2a91e1461015c5780633c4f81cd1461019d575b5f5ffd5b348015610101575f5ffd5b5061011c6004803603810190610117919061228f565b6103c7565b60405161012991906122dc565b60405180910390f35b34801561013d575f5ffd5b506101466103e7565b60405161015391906122dc565b60405180910390f35b348015610167575f5ffd5b50610182600480360381019061017d91906122f5565b6103ed565b604051610194969594939291906123ad565b60405180910390f35b3480156101a8575f5ffd5b506101b161043e565b6040516101be919061241b565b60405180910390f35b6101e160048036038101906101dc9190612434565b610462565b005b3480156101ee575f5ffd5b50610209600480360381019061020491906122f5565b61049d565b6040516102169190612566565b60405180910390f35b610239600480360381019061023491906122f5565b61067d565b005b348015610246575f5ffd5b50610261600480360381019061025c91906122f5565b6109da565b005b61027d600480360381019061027891906125cd565b610e04565b005b34801561028a575f5ffd5b506102a560048036038101906102a091906122f5565b610f86565b005b3480156102b2575f5ffd5b506102cd60048036038101906102c891906122f5565b6111b9565b6040516102da9190612719565b60405180910390f35b3480156102ee575f5ffd5b50610309600480360381019061030491906122f5565b611303565b005b348015610316575f5ffd5b50610331600480360381019061032c9190612732565b6115ac565b005b34801561033e575f5ffd5b50610359600480360381019061035491906122f5565b6116ea565b60405161036e9998979695949392919061275d565b60405180910390f35b348015610382575f5ffd5b5061039d60048036038101906103989190612434565b61178c565b005b3480156103aa575f5ffd5b506103c560048036038101906103c091906127e8565b611a6e565b005b6003602052815f5260405f20602052805f5260405f205f91509150505481565b60015481565b6004602052805f5260405f205f91509050805f015490806001015490806002015490806003015490806004015f9054906101000a900460ff16908060040160019054906101000a900460ff16905086565b5f5f9054906101000a900473ffffffffffffffffffffffffffffffffffffffff1681565b6040517f08c379a000000000000000000000000000000000000000000000000000000000815260040161049490612905565b60405180910390fd5b6104a5612147565b815f73ffffffffffffffffffffffffffffffffffffffff1660025f8381526020019081526020015f206002015f9054906101000a900473ffffffffffffffffffffffffffffffffffffffff1673ffffffffffffffffffffffffffffffffffffffff1603610547576040517f08c379a000000000000000000000000000000000000000000000000000000000815260040161053e9061296d565b60405180910390fd5b60025f8481526020019081526020015f20604051806101200160405290815f820154815260200160018201548152602001600282015f9054906101000a900473ffffffffffffffffffffffffffffffffffffffff1673ffffffffffffffffffffffffffffffffffffffff1673ffffffffffffffffffffffffffffffffffffffff168152602001600382015481526020016004820154815260200160058201548152602001600682015f9054906101000a900473ffffffffffffffffffffffffffffffffffffffff1673ffffffffffffffffffffffffffffffffffffffff1673ffffffffffffffffffffffffffffffffffffffff1681526020016006820160149054906101000a900460ff161515151581526020016006820160159054906101000a900460ff161515151581525050915050919050565b805f73ffffffffffffffffffffffffffffffffffffffff1660025f8381526020019081526020015f206002015f9054906101000a900473ffffffffffffffffffffffffffffffffffffffff1673ffffffffffffffffffffffffffffffffffffffff160361071f576040517f08c379a00000000000000000000000000000000000000000000000000000000081526004016107169061296d565b60405180910390fd5b5f60025f8481526020019081526020015f209050806003015434101561077a576040517f08c379a0000000000000000000000000000000000000000000000000000000008152600401610771906129fb565b60405180910390fd5b806005015434116107c0576040517f08c379a00000000000000000000000000000000000000000000000000000000081526004016107b790612a89565b60405180910390fd5b80600401544210610806576040517f08c379a00000000000000000000000000000000000000000000000000000000081526004016107fd90612b17565b60405180910390fd5b8060060160149054906101000a900460ff1615610858576040517f08c379a000000000000000000000000000000000000000000000000000000000815260040161084f90612b7f565b60405180910390fd5b8060060160159054906101000a900460ff16156108aa576040517f08c379a00000000000000000000000000000000000000000000000000000000081526004016108a190612be7565b60405180910390fd5b5f73ffffffffffffffffffffffffffffffffffffffff16816006015f9054906101000a900473ffffffffffffffffffffffffffffffffffffffff1673ffffffffffffffffffffffffffffffffffffffff161461098a57806005015460035f8581526020019081526020015f205f836006015f9054906101000a900473ffffffffffffffffffffffffffffffffffffffff1673ffffffffffffffffffffffffffffffffffffffff1673ffffffffffffffffffffffffffffffffffffffff1681526020019081526020015f205f8282546109829190612c32565b925050819055505b34816005018190555033816006015f6101000a81548173ffffffffffffffffffffffffffffffffffffffff021916908373ffffffffffffffffffffffffffffffffffffffff160217905550505050565b805f73ffffffffffffffffffffffffffffffffffffffff1660025f8381526020019081526020015f206002015f9054906101000a900473ffffffffffffffffffffffffffffffffffffffff1673ffffffffffffffffffffffffffffffffffffffff1603610a7c576040517f08c379a0000000000000000000000000000000000000000000000000000000008152600401610a739061296d565b60405180910390fd5b5f60025f8481526020019081526020015f2090508060060160149054906101000a900460ff1615610ae2576040517f08c379a0000000000000000000000000000000000000000000000000000000008152600401610ad990612b7f565b60405180910390fd5b8060060160159054906101000a900460ff1615610b34576040517f08c379a0000000000000000000000000000000000000000000000000000000008152600401610b2b90612be7565b60405180910390fd5b806002015f9054906101000a900473ffffffffffffffffffffffffffffffffffffffff1673ffffffffffffffffffffffffffffffffffffffff163373ffffffffffffffffffffffffffffffffffffffff161480610bdc57505f5f9054906101000a900473ffffffffffffffffffffffffffffffffffffffff1673ffffffffffffffffffffffffffffffffffffffff163373ffffffffffffffffffffffffffffffffffffffff16145b610c1b576040517f08c379a0000000000000000000000000000000000000000000000000000000008152600401610c1290612cd5565b60405180910390fd5b806004015442101580610c7c5750806002015f9054906101000a900473ffffffffffffffffffffffffffffffffffffffff1673ffffffffffffffffffffffffffffffffffffffff163373ffffffffffffffffffffffffffffffffffffffff16145b610cbb576040517f08c379a0000000000000000000000000000000000000000000000000000000008152600401610cb290612d63565b60405180910390fd5b60018160060160146101000a81548160ff0219169083151502179055505f73ffffffffffffffffffffffffffffffffffffffff16816006015f9054906101000a900473ffffffffffffffffffffffffffffffffffffffff1673ffffffffffffffffffffffffffffffffffffffff1614610dff575f816002015f9054906101000a900473ffffffffffffffffffffffffffffffffffffffff1673ffffffffffffffffffffffffffffffffffffffff168260050154604051610d7a90612dae565b5f6040518083038185875af1925050503d805f8114610db4576040519150601f19603f3d011682016040523d82523d5f602084013e610db9565b606091505b5050905080610dfd576040517f08c379a0000000000000000000000000000000000000000000000000000000008152600401610df490612e0c565b60405180910390fd5b505b505050565b5f8611610e46576040517f08c379a0000000000000000000000000000000000000000000000000000000008152600401610e3d90612e9a565b60405180910390fd5b61076c8310158015610e5a57506107ea8311155b610e99576040517f08c379a0000000000000000000000000000000000000000000000000000000008152600401610e9090612f02565b60405180910390fd5b610ea4898989611e14565b6040518060c001604052808781526020018681526020018581526020018481526020018315158152602001826004811115610ee257610ee161233a565b5b81525060045f60018054610ef69190612f20565b81526020019081526020015f205f820151815f01556020820151816001015560408201518160020155606082015181600301556080820151816004015f6101000a81548160ff02191690831515021790555060a08201518160040160016101000a81548160ff02191690836004811115610f7357610f7261233a565b5b0217905550905050505050505050505050565b805f73ffffffffffffffffffffffffffffffffffffffff1660025f8381526020019081526020015f206002015f9054906101000a900473ffffffffffffffffffffffffffffffffffffffff1673ffffffffffffffffffffffffffffffffffffffff1603611028576040517f08c379a000000000000000000000000000000000000000000000000000000000815260040161101f9061296d565b60405180910390fd5b5f60035f8481526020019081526020015f205f3373ffffffffffffffffffffffffffffffffffffffff1673ffffffffffffffffffffffffffffffffffffffff1681526020019081526020015f205490505f81116110ba576040517f08c379a00000000000000000000000000000000000000000000000000000000081526004016110b190612f9d565b60405180910390fd5b5f60035f8581526020019081526020015f205f3373ffffffffffffffffffffffffffffffffffffffff1673ffffffffffffffffffffffffffffffffffffffff1681526020019081526020015f20819055505f3373ffffffffffffffffffffffffffffffffffffffff168260405161113090612dae565b5f6040518083038185875af1925050503d805f811461116a576040519150601f19603f3d011682016040523d82523d5f602084013e61116f565b606091505b50509050806111b3576040517f08c379a00000000000000000000000000000000000000000000000000000000081526004016111aa90612e0c565b60405180910390fd5b50505050565b6111c16121ba565b815f73ffffffffffffffffffffffffffffffffffffffff1660025f8381526020019081526020015f206002015f9054906101000a900473ffffffffffffffffffffffffffffffffffffffff1673ffffffffffffffffffffffffffffffffffffffff1603611263576040517f08c379a000000000000000000000000000000000000000000000000000000000815260040161125a9061296d565b60405180910390fd5b60045f8481526020019081526020015f206040518060c00160405290815f8201548152602001600182015481526020016002820154815260200160038201548152602001600482015f9054906101000a900460ff161515151581526020016004820160019054906101000a900460ff1660048111156112e5576112e461233a565b5b60048111156112f7576112f661233a565b5b81525050915050919050565b805f73ffffffffffffffffffffffffffffffffffffffff1660025f8381526020019081526020015f206002015f9054906101000a900473ffffffffffffffffffffffffffffffffffffffff1673ffffffffffffffffffffffffffffffffffffffff16036113a5576040517f08c379a000000000000000000000000000000000000000000000000000000000815260040161139c9061296d565b60405180910390fd5b5f60025f8481526020019081526020015f209050806002015f9054906101000a900473ffffffffffffffffffffffffffffffffffffffff1673ffffffffffffffffffffffffffffffffffffffff163373ffffffffffffffffffffffffffffffffffffffff16148061146157505f5f9054906101000a900473ffffffffffffffffffffffffffffffffffffffff1673ffffffffffffffffffffffffffffffffffffffff163373ffffffffffffffffffffffffffffffffffffffff16145b6114a0576040517f08c379a00000000000000000000000000000000000000000000000000000000081526004016114979061302b565b60405180910390fd5b8060060160149054906101000a900460ff16156114f2576040517f08c379a00000000000000000000000000000000000000000000000000000000081526004016114e9906130b9565b60405180910390fd5b8060060160159054906101000a900460ff1615611544576040517f08c379a000000000000000000000000000000000000000000000000000000000815260040161153b90613121565b60405180910390fd5b5f81600501541461158a576040517f08c379a0000000000000000000000000000000000000000000000000000000008152600401611581906131af565b60405180910390fd5b60018160060160156101000a81548160ff021916908315150217905550505050565b5f5f9054906101000a900473ffffffffffffffffffffffffffffffffffffffff1673ffffffffffffffffffffffffffffffffffffffff163373ffffffffffffffffffffffffffffffffffffffff161461163a576040517f08c379a000000000000000000000000000000000000000000000000000000000815260040161163190613217565b60405180910390fd5b5f73ffffffffffffffffffffffffffffffffffffffff168173ffffffffffffffffffffffffffffffffffffffff16036116a8576040517f08c379a000000000000000000000000000000000000000000000000000000000815260040161169f906132a5565b60405180910390fd5b805f5f6101000a81548173ffffffffffffffffffffffffffffffffffffffff021916908373ffffffffffffffffffffffffffffffffffffffff16021790555050565b6002602052805f5260405f205f91509050805f015490806001015490806002015f9054906101000a900473ffffffffffffffffffffffffffffffffffffffff1690806003015490806004015490806005015490806006015f9054906101000a900473ffffffffffffffffffffffffffffffffffffffff16908060060160149054906101000a900460ff16908060060160159054906101000a900460ff16905089565b825f73ffffffffffffffffffffffffffffffffffffffff1660025f8381526020019081526020015f206002015f9054906101000a900473ffffffffffffffffffffffffffffffffffffffff1673ffffffffffffffffffffffffffffffffffffffff160361182e576040517f08c379a00000000000000000000000000000000000000000000000000000000081526004016118259061296d565b60405180910390fd5b5f60025f8681526020019081526020015f209050806002015f9054906101000a900473ffffffffffffffffffffffffffffffffffffffff1673ffffffffffffffffffffffffffffffffffffffff163373ffffffffffffffffffffffffffffffffffffffff1614806118ea57505f5f9054906101000a900473ffffffffffffffffffffffffffffffffffffffff1673ffffffffffffffffffffffffffffffffffffffff163373ffffffffffffffffffffffffffffffffffffffff16145b611929576040517f08c379a000000000000000000000000000000000000000000000000000000000815260040161192090613333565b60405180910390fd5b8060060160149054906101000a900460ff161561197b576040517f08c379a0000000000000000000000000000000000000000000000000000000008152600401611972906133c1565b60405180910390fd5b8060060160159054906101000a900460ff16156119cd576040517f08c379a00000000000000000000000000000000000000000000000000000000081526004016119c49061344f565b60405180910390fd5b5f816005015414611a13576040517f08c379a0000000000000000000000000000000000000000000000000000000008152600401611a0a906134dd565b60405180910390fd5b428411611a55576040517f08c379a0000000000000000000000000000000000000000000000000000000008152600401611a4c9061356b565b60405180910390fd5b8381600401819055508281600101819055505050505050565b865f73ffffffffffffffffffffffffffffffffffffffff1660025f8381526020019081526020015f206002015f9054906101000a900473ffffffffffffffffffffffffffffffffffffffff1673ffffffffffffffffffffffffffffffffffffffff1603611b10576040517f08c379a0000000000000000000000000000000000000000000000000000000008152600401611b079061296d565b60405180910390fd5b5f60025f8a81526020019081526020015f209050806002015f9054906101000a900473ffffffffffffffffffffffffffffffffffffffff1673ffffffffffffffffffffffffffffffffffffffff163373ffffffffffffffffffffffffffffffffffffffff161480611bcc57505f5f9054906101000a900473ffffffffffffffffffffffffffffffffffffffff1673ffffffffffffffffffffffffffffffffffffffff163373ffffffffffffffffffffffffffffffffffffffff16145b611c0b576040517f08c379a0000000000000000000000000000000000000000000000000000000008152600401611c02906135f9565b60405180910390fd5b8060060160149054906101000a900460ff1615611c5d576040517f08c379a0000000000000000000000000000000000000000000000000000000008152600401611c5490613687565b60405180910390fd5b8060060160159054906101000a900460ff1615611caf576040517f08c379a0000000000000000000000000000000000000000000000000000000008152600401611ca690613715565b60405180910390fd5b5f816005015414611cf5576040517f08c379a0000000000000000000000000000000000000000000000000000000008152600401611cec906137a3565b60405180910390fd5b5f8811611d37576040517f08c379a0000000000000000000000000000000000000000000000000000000008152600401611d2e90612e9a565b60405180910390fd5b61076c8510158015611d4b57506107ea8511155b611d8a576040517f08c379a0000000000000000000000000000000000000000000000000000000008152600401611d8190612f02565b60405180910390fd5b5f60045f8b81526020019081526020015f20905088815f018190555087816001018190555086816002018190555085816003018190555084816004015f6101000a81548160ff021916908315150217905550838160040160016101000a81548160ff02191690836004811115611e0357611e0261233a565b5b021790555050505050505050505050565b6101f4341015611e59576040517f08c379a0000000000000000000000000000000000000000000000000000000008152600401611e5090613831565b60405180910390fd5b5f8211611e9b576040517f08c379a0000000000000000000000000000000000000000000000000000000008152600401611e92906138bf565b60405180910390fd5b428111611edd576040517f08c379a0000000000000000000000000000000000000000000000000000000008152600401611ed49061394d565b60405180910390fd5b60405180610120016040528060015481526020018481526020013373ffffffffffffffffffffffffffffffffffffffff1681526020018381526020018281526020015f81526020015f73ffffffffffffffffffffffffffffffffffffffff1681526020015f151581526020015f151581525060025f60015481526020019081526020015f205f820151815f0155602082015181600101556040820151816002015f6101000a81548173ffffffffffffffffffffffffffffffffffffffff021916908373ffffffffffffffffffffffffffffffffffffffff160217905550606082015181600301556080820151816004015560a0820151816005015560c0820151816006015f6101000a81548173ffffffffffffffffffffffffffffffffffffffff021916908373ffffffffffffffffffffffffffffffffffffffff16021790555060e08201518160060160146101000a81548160ff0219169083151502179055506101008201518160060160156101000a81548160ff0219169083151502179055509050505f5f5f9054906101000a900473ffffffffffffffffffffffffffffffffffffffff1673ffffffffffffffffffffffffffffffffffffffff16346040516120a790612dae565b5f6040518083038185875af1925050503d805f81146120e1576040519150601f19603f3d011682016040523d82523d5f602084013e6120e6565b606091505b505090508061212a576040517f08c379a000000000000000000000000000000000000000000000000000000000815260040161212190612e0c565b60405180910390fd5b60015f81548092919061213c9061396b565b919050555050505050565b6040518061012001604052805f81526020015f81526020015f73ffffffffffffffffffffffffffffffffffffffff1681526020015f81526020015f81526020015f81526020015f73ffffffffffffffffffffffffffffffffffffffff1681526020015f151581526020015f151581525090565b6040518060c001604052805f81526020015f81526020015f81526020015f81526020015f151581526020015f60048111156121f8576121f761233a565b5b81525090565b5f5ffd5b5f819050919050565b61221481612202565b811461221e575f5ffd5b50565b5f8135905061222f8161220b565b92915050565b5f73ffffffffffffffffffffffffffffffffffffffff82169050919050565b5f61225e82612235565b9050919050565b61226e81612254565b8114612278575f5ffd5b50565b5f8135905061228981612265565b92915050565b5f5f604083850312156122a5576122a46121fe565b5b5f6122b285828601612221565b92505060206122c38582860161227b565b9150509250929050565b6122d681612202565b82525050565b5f6020820190506122ef5f8301846122cd565b92915050565b5f6020828403121561230a576123096121fe565b5b5f61231784828501612221565b91505092915050565b5f8115159050919050565b61233481612320565b82525050565b7f4e487b71000000000000000000000000000000000000000000000000000000005f52602160045260245ffd5b600581106123785761237761233a565b5b50565b5f81905061238882612367565b919050565b5f6123978261237b565b9050919050565b6123a78161238d565b82525050565b5f60c0820190506123c05f8301896122cd565b6123cd60208301886122cd565b6123da60408301876122cd565b6123e760608301866122cd565b6123f4608083018561232b565b61240160a083018461239e565b979650505050505050565b61241581612254565b82525050565b5f60208201905061242e5f83018461240c565b92915050565b5f5f5f6060848603121561244b5761244a6121fe565b5b5f61245886828701612221565b935050602061246986828701612221565b925050604061247a86828701612221565b9150509250925092565b61248d81612202565b82525050565b61249c81612254565b82525050565b6124ab81612320565b82525050565b61012082015f8201516124c65f850182612484565b5060208201516124d96020850182612484565b5060408201516124ec6040850182612493565b5060608201516124ff6060850182612484565b5060808201516125126080850182612484565b5060a082015161252560a0850182612484565b5060c082015161253860c0850182612493565b5060e082015161254b60e08501826124a2565b506101008201516125606101008501826124a2565b50505050565b5f6101208201905061257a5f8301846124b1565b92915050565b61258981612320565b8114612593575f5ffd5b50565b5f813590506125a481612580565b92915050565b600581106125b6575f5ffd5b50565b5f813590506125c7816125aa565b92915050565b5f5f5f5f5f5f5f5f5f6101208a8c0312156125eb576125ea6121fe565b5b5f6125f88c828d01612221565b99505060206126098c828d01612221565b985050604061261a8c828d01612221565b975050606061262b8c828d01612221565b965050608061263c8c828d01612221565b95505060a061264d8c828d01612221565b94505060c061265e8c828d01612221565b93505060e061266f8c828d01612596565b9250506101006126818c828d016125b9565b9150509295985092959850929598565b61269a8161238d565b82525050565b60c082015f8201516126b45f850182612484565b5060208201516126c76020850182612484565b5060408201516126da6040850182612484565b5060608201516126ed6060850182612484565b50608082015161270060808501826124a2565b5060a082015161271360a0850182612691565b50505050565b5f60c08201905061272c5f8301846126a0565b92915050565b5f60208284031215612747576127466121fe565b5b5f6127548482850161227b565b91505092915050565b5f610120820190506127715f83018c6122cd565b61277e602083018b6122cd565b61278b604083018a61240c565b61279860608301896122cd565b6127a560808301886122cd565b6127b260a08301876122cd565b6127bf60c083018661240c565b6127cc60e083018561232b565b6127da61010083018461232b565b9a9950505050505050505050565b5f5f5f5f5f5f5f60e0888a031215612803576128026121fe565b5b5f6128108a828b01612221565b97505060206128218a828b01612221565b96505060406128328a828b01612221565b95505060606128438a828b01612221565b94505060806128548a828b01612221565b93505060a06128658a828b01612596565b92505060c06128768a828b016125b9565b91505092959891949750929550565b5f82825260208201905092915050565b7f4465626520757361722063726561725375626173746120636f6e206c6f7320645f8201527f61746f732064656c20696e6d7565626c652e0000000000000000000000000000602082015250565b5f6128ef603283612885565b91506128fa82612895565b604082019050919050565b5f6020820190508181035f83015261291c816128e3565b9050919050565b7f4c612073756261737461206e6f206578697374652e00000000000000000000005f82015250565b5f612957601583612885565b915061296282612923565b602082019050919050565b5f6020820190508181035f8301526129848161294b565b9050919050565b7f4c61206f6665727461206465626520736572206d61796f72206f20696775616c5f8201527f20616c2076616c6f72206d696e696d6f206465206f66657274612e0000000000602082015250565b5f6129e5603b83612885565b91506129f08261298b565b604082019050919050565b5f6020820190508181035f830152612a12816129d9565b9050919050565b7f4c61206f666572746120646562652073757065726172206c61206f66657274615f8201527f206d617320616c74612061637475616c2e000000000000000000000000000000602082015250565b5f612a73603183612885565b9150612a7e82612a19565b604082019050919050565b5f6020820190508181035f830152612aa081612a67565b9050919050565b7f4c6120666563686120646520636965727265206465206c6120737562617374615f8201527f207961207061736f2e0000000000000000000000000000000000000000000000602082015250565b5f612b01602983612885565b9150612b0c82612aa7565b604082019050919050565b5f6020820190508181035f830152612b2e81612af5565b9050919050565b7f4c612073756261737461207961206675652066696e616c697a6164612e0000005f82015250565b5f612b69601d83612885565b9150612b7482612b35565b602082019050919050565b5f6020820190508181035f830152612b9681612b5d565b9050919050565b7f4c6120737562617374612066756520656c696d696e6164612e000000000000005f82015250565b5f612bd1601983612885565b9150612bdc82612b9d565b602082019050919050565b5f6020820190508181035f830152612bfe81612bc5565b9050919050565b7f4e487b71000000000000000000000000000000000000000000000000000000005f52601160045260245ffd5b5f612c3c82612202565b9150612c4783612202565b9250828201905080821115612c5f57612c5e612c05565b5b92915050565b7f536f6c6f20656c2063726561646f72206f20656c2070726f706965746172696f5f8201527f2070756564656e2066696e616c697a6172206c6120737562617374612e000000602082015250565b5f612cbf603d83612885565b9150612cca82612c65565b604082019050919050565b5f6020820190508181035f830152612cec81612cb3565b9050919050565b7f4c612073756261737461206e6f206861206c6c656761646f20612073752066655f8201527f636861206465206369657272652e000000000000000000000000000000000000602082015250565b5f612d4d602e83612885565b9150612d5882612cf3565b604082019050919050565b5f6020820190508181035f830152612d7a81612d41565b9050919050565b5f81905092915050565b50565b5f612d995f83612d81565b9150612da482612d8b565b5f82019050919050565b5f612db882612d8e565b9150819050919050565b7f5472616e73666572656e6369612066616c6c6964612e000000000000000000005f82015250565b5f612df6601683612885565b9150612e0182612dc2565b602082019050919050565b5f6020820190508181035f830152612e2381612dea565b9050919050565b7f4c612073757065726669636965206465626520736572206d61796f72206120635f8201527f65726f2e00000000000000000000000000000000000000000000000000000000602082015250565b5f612e84602483612885565b9150612e8f82612e2a565b604082019050919050565b5f6020820190508181035f830152612eb181612e78565b9050919050565b7f416e696f20646520636f6e737472756363696f6e20696e76616c69646f2e00005f82015250565b5f612eec601e83612885565b9150612ef782612eb8565b602082019050919050565b5f6020820190508181035f830152612f1981612ee0565b9050919050565b5f612f2a82612202565b9150612f3583612202565b9250828203905081811115612f4d57612f4c612c05565b5b92915050565b7f4e6f207469656e657320666f6e646f73207061726120726574697261722e00005f82015250565b5f612f87601e83612885565b9150612f9282612f53565b602082019050919050565b5f6020820190508181035f830152612fb481612f7b565b9050919050565b7f536f6c6f20656c2063726561646f72206f20656c2070726f706965746172696f5f8201527f2070756564656e20656c696d696e6172206c6120737562617374612e00000000602082015250565b5f613015603c83612885565b915061302082612fbb565b604082019050919050565b5f6020820190508181035f83015261304281613009565b9050919050565b7f4e6f20736520707565646520656c696d696e617220756e6120737562617374615f8201527f2066696e616c697a6164612e0000000000000000000000000000000000000000602082015250565b5f6130a3602c83612885565b91506130ae82613049565b604082019050919050565b5f6020820190508181035f8301526130d081613097565b9050919050565b7f4c6120737562617374612079612066756520656c696d696e6164612e000000005f82015250565b5f61310b601c83612885565b9150613116826130d7565b602082019050919050565b5f6020820190508181035f830152613138816130ff565b9050919050565b7f4e6f20736520707565646520656c696d696e617220756e6120737562617374615f8201527f20636f6e206f66657274617320616374697661732e0000000000000000000000602082015250565b5f613199603583612885565b91506131a48261313f565b604082019050919050565b5f6020820190508181035f8301526131c68161318d565b9050919050565b7f4e6f206572657320656c2070726f706965746172696f2e0000000000000000005f82015250565b5f613201601783612885565b915061320c826131cd565b602082019050919050565b5f6020820190508181035f83015261322e816131f5565b9050919050565b7f4c61206e7565766120646972656363696f6e206e6f20707565646520736572205f8201527f76616369612e0000000000000000000000000000000000000000000000000000602082015250565b5f61328f602683612885565b915061329a82613235565b604082019050919050565b5f6020820190508181035f8301526132bc81613283565b9050919050565b7f536f6c6f20656c2063726561646f72206f20656c2070726f706965746172696f5f8201527f2070756564656e206d6f64696669636172206c6120737562617374612e000000602082015250565b5f61331d603d83612885565b9150613328826132c3565b604082019050919050565b5f6020820190508181035f83015261334a81613311565b9050919050565b7f4e6f207365207075656465206d6f6469666963617220756e61207375626173745f8201527f612066696e616c697a6164612e00000000000000000000000000000000000000602082015250565b5f6133ab602d83612885565b91506133b682613351565b604082019050919050565b5f6020820190508181035f8301526133d88161339f565b9050919050565b7f4e6f207365207075656465206d6f6469666963617220756e61207375626173745f8201527f6120656c696d696e6164612e0000000000000000000000000000000000000000602082015250565b5f613439602c83612885565b9150613444826133df565b604082019050919050565b5f6020820190508181035f8301526134668161342d565b9050919050565b7f4e6f207365207075656465206d6f6469666963617220756e61207375626173745f8201527f6120636f6e206f66657274617320616374697661732e00000000000000000000602082015250565b5f6134c7603683612885565b91506134d28261346d565b604082019050919050565b5f6020820190508181035f8301526134f4816134bb565b9050919050565b7f4c61206e756576612066656368612064652063696572726520646562652073655f8201527f72206d61796f722061206c612066656368612061637475616c2e000000000000602082015250565b5f613555603a83612885565b9150613560826134fb565b604082019050919050565b5f6020820190508181035f83015261358281613549565b9050919050565b7f536f6c6f20656c2063726561646f72206f20656c2070726f706965746172696f5f8201527f2070756564656e206d6f6469666963617220656c20696e6d7565626c652e0000602082015250565b5f6135e3603e83612885565b91506135ee82613589565b604082019050919050565b5f6020820190508181035f830152613610816135d7565b9050919050565b7f4e6f207365207075656465206d6f6469666963617220756e20696e6d7565626c5f8201527f6520646520737562617374612066696e616c697a6164612e0000000000000000602082015250565b5f613671603883612885565b915061367c82613617565b604082019050919050565b5f6020820190508181035f83015261369e81613665565b9050919050565b7f4e6f207365207075656465206d6f6469666963617220756e20696e6d7565626c5f8201527f65206465207375626173746120656c696d696e6164612e000000000000000000602082015250565b5f6136ff603783612885565b915061370a826136a5565b604082019050919050565b5f6020820190508181035f83015261372c816136f3565b9050919050565b7f4e6f207365207075656465206d6f6469666963617220636f6e206f66657274615f8201527f7320616374697661732e00000000000000000000000000000000000000000000602082015250565b5f61378d602a83612885565b915061379882613733565b604082019050919050565b5f6020820190508181035f8301526137ba81613781565b9050919050565b7f446562657320656e7669617220616c206d656e6f7320353030207765692070615f8201527f726120637265617220756e6120737562617374612e0000000000000000000000602082015250565b5f61381b603583612885565b9150613826826137c1565b604082019050919050565b5f6020820190508181035f8301526138488161380f565b9050919050565b7f456c2076616c6f72206d696e696d6f206465206f6665727461206465626520735f8201527f6572206d61796f722061206365726f2e00000000000000000000000000000000602082015250565b5f6138a9603083612885565b91506138b48261384f565b604082019050919050565b5f6020820190508181035f8301526138d68161389d565b9050919050565b7f4c6120666563686120646520636965727265206465626520736572206d61796f5f8201527f722061206c612066656368612061637475616c2e000000000000000000000000602082015250565b5f613937603483612885565b9150613942826138dd565b604082019050919050565b5f6020820190508181035f8301526139648161392b565b9050919050565b5f61397582612202565b91507fffffffffffffffffffffffffffffffffffffffffffffffffffffffffffffffff82036139a7576139a6612c05565b5b60018201905091905056fea26469706673582212201997461454fb5db70bcb9ec46ad93980006b7f74c54ad887011b55cf682742d264736f6c63430008220033",
			"opcodes": "PUSH1 0x80 PUSH1 0x40 MSTORE CALLVALUE DUP1 ISZERO PUSH1 0xE JUMPI PUSH0 PUSH0 REVERT JUMPDEST POP CALLER PUSH0 PUSH0 PUSH2 0x100 EXP DUP2 SLOAD DUP2 PUSH20 0xFFFFFFFFFFFFFFFFFFFFFFFFFFFFFFFFFFFFFFFF MUL NOT AND SWAP1 DUP4 PUSH20 0xFFFFFFFFFFFFFFFFFFFFFFFFFFFFFFFFFFFFFFFF AND MUL OR SWAP1 SSTORE POP PUSH0 PUSH1 0x1 DUP2 SWAP1 SSTORE POP PUSH2 0x39E8 DUP1 PUSH2 0x62 PUSH0 CODECOPY PUSH0 RETURN INVALID PUSH1 0x80 PUSH1 0x40 MSTORE PUSH1 0x4 CALLDATASIZE LT PUSH2 0xF2 JUMPI PUSH0 CALLDATALOAD PUSH1 0xE0 SHR DUP1 PUSH4 0x8AE3A98C GT PUSH2 0x89 JUMPI DUP1 PUSH4 0xC2E5EAFA GT PUSH2 0x58 JUMPI DUP1 PUSH4 0xC2E5EAFA EQ PUSH2 0x30B JUMPI DUP1 PUSH4 0xD3FB3830 EQ PUSH2 0x333 JUMPI DUP1 PUSH4 0xF657BE03 EQ PUSH2 0x377 JUMPI DUP1 PUSH4 0xFAABD7C4 EQ PUSH2 0x39F JUMPI PUSH2 0xF2 JUMP JUMPDEST DUP1 PUSH4 0x8AE3A98C EQ PUSH2 0x263 JUMPI DUP1 PUSH4 0xA32AA717 EQ PUSH2 0x27F JUMPI DUP1 PUSH4 0xA708BD8B EQ PUSH2 0x2A7 JUMPI DUP1 PUSH4 0xB0A4E852 EQ PUSH2 0x2E3 JUMPI PUSH2 0xF2 JUMP JUMPDEST DUP1 PUSH4 0x57A08671 GT PUSH2 0xC5 JUMPI DUP1 PUSH4 0x57A08671 EQ PUSH2 0x1C7 JUMPI DUP1 PUSH4 0x733D50D4 EQ PUSH2 0x1E3 JUMPI DUP1 PUSH4 0x8348348F EQ PUSH2 0x21F JUMPI DUP1 PUSH4 0x8434F0A2 EQ PUSH2 0x23B JUMPI PUSH2 0xF2 JUMP JUMPDEST DUP1 PUSH4 0x1042B69B EQ PUSH2 0xF6 JUMPI DUP1 PUSH4 0x20E6CA0E EQ PUSH2 0x132 JUMPI DUP1 PUSH4 0x39E2A91E EQ PUSH2 0x15C JUMPI DUP1 PUSH4 0x3C4F81CD EQ PUSH2 0x19D JUMPI JUMPDEST PUSH0 PUSH0 REVERT JUMPDEST CALLVALUE DUP1 ISZERO PUSH2 0x101 JUMPI PUSH0 PUSH0 REVERT JUMPDEST POP PUSH2 0x11C PUSH1 0x4 DUP1 CALLDATASIZE SUB DUP2 ADD SWAP1 PUSH2 0x117 SWAP2 SWAP1 PUSH2 0x228F JUMP JUMPDEST PUSH2 0x3C7 JUMP JUMPDEST PUSH1 0x40 MLOAD PUSH2 0x129 SWAP2 SWAP1 PUSH2 0x22DC JUMP JUMPDEST PUSH1 0x40 MLOAD DUP1 SWAP2 SUB SWAP1 RETURN JUMPDEST CALLVALUE DUP1 ISZERO PUSH2 0x13D JUMPI PUSH0 PUSH0 REVERT JUMPDEST POP PUSH2 0x146 PUSH2 0x3E7 JUMP JUMPDEST PUSH1 0x40 MLOAD PUSH2 0x153 SWAP2 SWAP1 PUSH2 0x22DC JUMP JUMPDEST PUSH1 0x40 MLOAD DUP1 SWAP2 SUB SWAP1 RETURN JUMPDEST CALLVALUE DUP1 ISZERO PUSH2 0x167 JUMPI PUSH0 PUSH0 REVERT JUMPDEST POP PUSH2 0x182 PUSH1 0x4 DUP1 CALLDATASIZE SUB DUP2 ADD SWAP1 PUSH2 0x17D SWAP2 SWAP1 PUSH2 0x22F5 JUMP JUMPDEST PUSH2 0x3ED JUMP JUMPDEST PUSH1 0x40 MLOAD PUSH2 0x194 SWAP7 SWAP6 SWAP5 SWAP4 SWAP3 SWAP2 SWAP1 PUSH2 0x23AD JUMP JUMPDEST PUSH1 0x40 MLOAD DUP1 SWAP2 SUB SWAP1 RETURN JUMPDEST CALLVALUE DUP1 ISZERO PUSH2 0x1A8 JUMPI PUSH0 PUSH0 REVERT JUMPDEST POP PUSH2 0x1B1 PUSH2 0x43E JUMP JUMPDEST PUSH1 0x40 MLOAD PUSH2 0x1BE SWAP2 SWAP1 PUSH2 0x241B JUMP JUMPDEST PUSH1 0x40 MLOAD DUP1 SWAP2 SUB SWAP1 RETURN JUMPDEST PUSH2 0x1E1 PUSH1 0x4 DUP1 CALLDATASIZE SUB DUP2 ADD SWAP1 PUSH2 0x1DC SWAP2 SWAP1 PUSH2 0x2434 JUMP JUMPDEST PUSH2 0x462 JUMP JUMPDEST STOP JUMPDEST CALLVALUE DUP1 ISZERO PUSH2 0x1EE JUMPI PUSH0 PUSH0 REVERT JUMPDEST POP PUSH2 0x209 PUSH1 0x4 DUP1 CALLDATASIZE SUB DUP2 ADD SWAP1 PUSH2 0x204 SWAP2 SWAP1 PUSH2 0x22F5 JUMP JUMPDEST PUSH2 0x49D JUMP JUMPDEST PUSH1 0x40 MLOAD PUSH2 0x216 SWAP2 SWAP1 PUSH2 0x2566 JUMP JUMPDEST PUSH1 0x40 MLOAD DUP1 SWAP2 SUB SWAP1 RETURN JUMPDEST PUSH2 0x239 PUSH1 0x4 DUP1 CALLDATASIZE SUB DUP2 ADD SWAP1 PUSH2 0x234 SWAP2 SWAP1 PUSH2 0x22F5 JUMP JUMPDEST PUSH2 0x67D JUMP JUMPDEST STOP JUMPDEST CALLVALUE DUP1 ISZERO PUSH2 0x246 JUMPI PUSH0 PUSH0 REVERT JUMPDEST POP PUSH2 0x261 PUSH1 0x4 DUP1 CALLDATASIZE SUB DUP2 ADD SWAP1 PUSH2 0x25C SWAP2 SWAP1 PUSH2 0x22F5 JUMP JUMPDEST PUSH2 0x9DA JUMP JUMPDEST STOP JUMPDEST PUSH2 0x27D PUSH1 0x4 DUP1 CALLDATASIZE SUB DUP2 ADD SWAP1 PUSH2 0x278 SWAP2 SWAP1 PUSH2 0x25CD JUMP JUMPDEST PUSH2 0xE04 JUMP JUMPDEST STOP JUMPDEST CALLVALUE DUP1 ISZERO PUSH2 0x28A JUMPI PUSH0 PUSH0 REVERT JUMPDEST POP PUSH2 0x2A5 PUSH1 0x4 DUP1 CALLDATASIZE SUB DUP2 ADD SWAP1 PUSH2 0x2A0 SWAP2 SWAP1 PUSH2 0x22F5 JUMP JUMPDEST PUSH2 0xF86 JUMP JUMPDEST STOP JUMPDEST CALLVALUE DUP1 ISZERO PUSH2 0x2B2 JUMPI PUSH0 PUSH0 REVERT JUMPDEST POP PUSH2 0x2CD PUSH1 0x4 DUP1 CALLDATASIZE SUB DUP2 ADD SWAP1 PUSH2 0x2C8 SWAP2 SWAP1 PUSH2 0x22F5 JUMP JUMPDEST PUSH2 0x11B9 JUMP JUMPDEST PUSH1 0x40 MLOAD PUSH2 0x2DA SWAP2 SWAP1 PUSH2 0x2719 JUMP JUMPDEST PUSH1 0x40 MLOAD DUP1 SWAP2 SUB SWAP1 RETURN JUMPDEST CALLVALUE DUP1 ISZERO PUSH2 0x2EE JUMPI PUSH0 PUSH0 REVERT JUMPDEST POP PUSH2 0x309 PUSH1 0x4 DUP1 CALLDATASIZE SUB DUP2 ADD SWAP1 PUSH2 0x304 SWAP2 SWAP1 PUSH2 0x22F5 JUMP JUMPDEST PUSH2 0x1303 JUMP JUMPDEST STOP JUMPDEST CALLVALUE DUP1 ISZERO PUSH2 0x316 JUMPI PUSH0 PUSH0 REVERT JUMPDEST POP PUSH2 0x331 PUSH1 0x4 DUP1 CALLDATASIZE SUB DUP2 ADD SWAP1 PUSH2 0x32C SWAP2 SWAP1 PUSH2 0x2732 JUMP JUMPDEST PUSH2 0x15AC JUMP JUMPDEST STOP JUMPDEST CALLVALUE DUP1 ISZERO PUSH2 0x33E JUMPI PUSH0 PUSH0 REVERT JUMPDEST POP PUSH2 0x359 PUSH1 0x4 DUP1 CALLDATASIZE SUB DUP2 ADD SWAP1 PUSH2 0x354 SWAP2 SWAP1 PUSH2 0x22F5 JUMP JUMPDEST PUSH2 0x16EA JUMP JUMPDEST PUSH1 0x40 MLOAD PUSH2 0x36E SWAP10 SWAP9 SWAP8 SWAP7 SWAP6 SWAP5 SWAP4 SWAP3 SWAP2 SWAP1 PUSH2 0x275D JUMP JUMPDEST PUSH1 0x40 MLOAD DUP1 SWAP2 SUB SWAP1 RETURN JUMPDEST CALLVALUE DUP1 ISZERO PUSH2 0x382 JUMPI PUSH0 PUSH0 REVERT JUMPDEST POP PUSH2 0x39D PUSH1 0x4 DUP1 CALLDATASIZE SUB DUP2 ADD SWAP1 PUSH2 0x398 SWAP2 SWAP1 PUSH2 0x2434 JUMP JUMPDEST PUSH2 0x178C JUMP JUMPDEST STOP JUMPDEST CALLVALUE DUP1 ISZERO PUSH2 0x3AA JUMPI PUSH0 PUSH0 REVERT JUMPDEST POP PUSH2 0x3C5 PUSH1 0x4 DUP1 CALLDATASIZE SUB DUP2 ADD SWAP1 PUSH2 0x3C0 SWAP2 SWAP1 PUSH2 0x27E8 JUMP JUMPDEST PUSH2 0x1A6E JUMP JUMPDEST STOP JUMPDEST PUSH1 0x3 PUSH1 0x20 MSTORE DUP2 PUSH0 MSTORE PUSH1 0x40 PUSH0 KECCAK256 PUSH1 0x20 MSTORE DUP1 PUSH0 MSTORE PUSH1 0x40 PUSH0 KECCAK256 PUSH0 SWAP2 POP SWAP2 POP POP SLOAD DUP2 JUMP JUMPDEST PUSH1 0x1 SLOAD DUP2 JUMP JUMPDEST PUSH1 0x4 PUSH1 0x20 MSTORE DUP1 PUSH0 MSTORE PUSH1 0x40 PUSH0 KECCAK256 PUSH0 SWAP2 POP SWAP1 POP DUP1 PUSH0 ADD SLOAD SWAP1 DUP1 PUSH1 0x1 ADD SLOAD SWAP1 DUP1 PUSH1 0x2 ADD SLOAD SWAP1 DUP1 PUSH1 0x3 ADD SLOAD SWAP1 DUP1 PUSH1 0x4 ADD PUSH0 SWAP1 SLOAD SWAP1 PUSH2 0x100 EXP SWAP1 DIV PUSH1 0xFF AND SWAP1 DUP1 PUSH1 0x4 ADD PUSH1 0x1 SWAP1 SLOAD SWAP1 PUSH2 0x100 EXP SWAP1 DIV PUSH1 0xFF AND SWAP1 POP DUP7 JUMP JUMPDEST PUSH0 PUSH0 SWAP1 SLOAD SWAP1 PUSH2 0x100 EXP SWAP1 DIV PUSH20 0xFFFFFFFFFFFFFFFFFFFFFFFFFFFFFFFFFFFFFFFF AND DUP2 JUMP JUMPDEST PUSH1 0x40 MLOAD PUSH32 0x8C379A000000000000000000000000000000000000000000000000000000000 DUP2 MSTORE PUSH1 0x4 ADD PUSH2 0x494 SWAP1 PUSH2 0x2905 JUMP JUMPDEST PUSH1 0x40 MLOAD DUP1 SWAP2 SUB SWAP1 REVERT JUMPDEST PUSH2 0x4A5 PUSH2 0x2147 JUMP JUMPDEST DUP2 PUSH0 PUSH20 0xFFFFFFFFFFFFFFFFFFFFFFFFFFFFFFFFFFFFFFFF AND PUSH1 0x2 PUSH0 DUP4 DUP2 MSTORE PUSH1 0x20 ADD SWAP1 DUP2 MSTORE PUSH1 0x20 ADD PUSH0 KECCAK256 PUSH1 0x2 ADD PUSH0 SWAP1 SLOAD SWAP1 PUSH2 0x100 EXP SWAP1 DIV PUSH20 0xFFFFFFFFFFFFFFFFFFFFFFFFFFFFFFFFFFFFFFFF AND PUSH20 0xFFFFFFFFFFFFFFFFFFFFFFFFFFFFFFFFFFFFFFFF AND SUB PUSH2 0x547 JUMPI PUSH1 0x40 MLOAD PUSH32 0x8C379A000000000000000000000000000000000000000000000000000000000 DUP2 MSTORE PUSH1 0x4 ADD PUSH2 0x53E SWAP1 PUSH2 0x296D JUMP JUMPDEST PUSH1 0x40 MLOAD DUP1 SWAP2 SUB SWAP1 REVERT JUMPDEST PUSH1 0x2 PUSH0 DUP5 DUP2 MSTORE PUSH1 0x20 ADD SWAP1 DUP2 MSTORE PUSH1 0x20 ADD PUSH0 KECCAK256 PUSH1 0x40 MLOAD DUP1 PUSH2 0x120 ADD PUSH1 0x40 MSTORE SWAP1 DUP2 PUSH0 DUP3 ADD SLOAD DUP2 MSTORE PUSH1 0x20 ADD PUSH1 0x1 DUP3 ADD SLOAD DUP2 MSTORE PUSH1 0x20 ADD PUSH1 0x2 DUP3 ADD PUSH0 SWAP1 SLOAD SWAP1 PUSH2 0x100 EXP SWAP1 DIV PUSH20 0xFFFFFFFFFFFFFFFFFFFFFFFFFFFFFFFFFFFFFFFF AND PUSH20 0xFFFFFFFFFFFFFFFFFFFFFFFFFFFFFFFFFFFFFFFF AND PUSH20 0xFFFFFFFFFFFFFFFFFFFFFFFFFFFFFFFFFFFFFFFF AND DUP2 MSTORE PUSH1 0x20 ADD PUSH1 0x3 DUP3 ADD SLOAD DUP2 MSTORE PUSH1 0x20 ADD PUSH1 0x4 DUP3 ADD SLOAD DUP2 MSTORE PUSH1 0x20 ADD PUSH1 0x5 DUP3 ADD SLOAD DUP2 MSTORE PUSH1 0x20 ADD PUSH1 0x6 DUP3 ADD PUSH0 SWAP1 SLOAD SWAP1 PUSH2 0x100 EXP SWAP1 DIV PUSH20 0xFFFFFFFFFFFFFFFFFFFFFFFFFFFFFFFFFFFFFFFF AND PUSH20 0xFFFFFFFFFFFFFFFFFFFFFFFFFFFFFFFFFFFFFFFF AND PUSH20 0xFFFFFFFFFFFFFFFFFFFFFFFFFFFFFFFFFFFFFFFF AND DUP2 MSTORE PUSH1 0x20 ADD PUSH1 0x6 DUP3 ADD PUSH1 0x14 SWAP1 SLOAD SWAP1 PUSH2 0x100 EXP SWAP1 DIV PUSH1 0xFF AND ISZERO ISZERO ISZERO ISZERO DUP2 MSTORE PUSH1 0x20 ADD PUSH1 0x6 DUP3 ADD PUSH1 0x15 SWAP1 SLOAD SWAP1 PUSH2 0x100 EXP SWAP1 DIV PUSH1 0xFF AND ISZERO ISZERO ISZERO ISZERO DUP2 MSTORE POP POP SWAP2 POP POP SWAP2 SWAP1 POP JUMP JUMPDEST DUP1 PUSH0 PUSH20 0xFFFFFFFFFFFFFFFFFFFFFFFFFFFFFFFFFFFFFFFF AND PUSH1 0x2 PUSH0 DUP4 DUP2 MSTORE PUSH1 0x20 ADD SWAP1 DUP2 MSTORE PUSH1 0x20 ADD PUSH0 KECCAK256 PUSH1 0x2 ADD PUSH0 SWAP1 SLOAD SWAP1 PUSH2 0x100 EXP SWAP1 DIV PUSH20 0xFFFFFFFFFFFFFFFFFFFFFFFFFFFFFFFFFFFFFFFF AND PUSH20 0xFFFFFFFFFFFFFFFFFFFFFFFFFFFFFFFFFFFFFFFF AND SUB PUSH2 0x71F JUMPI PUSH1 0x40 MLOAD PUSH32 0x8C379A000000000000000000000000000000000000000000000000000000000 DUP2 MSTORE PUSH1 0x4 ADD PUSH2 0x716 SWAP1 PUSH2 0x296D JUMP JUMPDEST PUSH1 0x40 MLOAD DUP1 SWAP2 SUB SWAP1 REVERT JUMPDEST PUSH0 PUSH1 0x2 PUSH0 DUP5 DUP2 MSTORE PUSH1 0x20 ADD SWAP1 DUP2 MSTORE PUSH1 0x20 ADD PUSH0 KECCAK256 SWAP1 POP DUP1 PUSH1 0x3 ADD SLOAD CALLVALUE LT ISZERO PUSH2 0x77A JUMPI PUSH1 0x40 MLOAD PUSH32 0x8C379A000000000000000000000000000000000000000000000000000000000 DUP2 MSTORE PUSH1 0x4 ADD PUSH2 0x771 SWAP1 PUSH2 0x29FB JUMP JUMPDEST PUSH1 0x40 MLOAD DUP1 SWAP2 SUB SWAP1 REVERT JUMPDEST DUP1 PUSH1 0x5 ADD SLOAD CALLVALUE GT PUSH2 0x7C0 JUMPI PUSH1 0x40 MLOAD PUSH32 0x8C379A000000000000000000000000000000000000000000000000000000000 DUP2 MSTORE PUSH1 0x4 ADD PUSH2 0x7B7 SWAP1 PUSH2 0x2A89 JUMP JUMPDEST PUSH1 0x40 MLOAD DUP1 SWAP2 SUB SWAP1 REVERT JUMPDEST DUP1 PUSH1 0x4 ADD SLOAD TIMESTAMP LT PUSH2 0x806 JUMPI PUSH1 0x40 MLOAD PUSH32 0x8C379A000000000000000000000000000000000000000000000000000000000 DUP2 MSTORE PUSH1 0x4 ADD PUSH2 0x7FD SWAP1 PUSH2 0x2B17 JUMP JUMPDEST PUSH1 0x40 MLOAD DUP1 SWAP2 SUB SWAP1 REVERT JUMPDEST DUP1 PUSH1 0x6 ADD PUSH1 0x14 SWAP1 SLOAD SWAP1 PUSH2 0x100 EXP SWAP1 DIV PUSH1 0xFF AND ISZERO PUSH2 0x858 JUMPI PUSH1 0x40 MLOAD PUSH32 0x8C379A000000000000000000000000000000000000000000000000000000000 DUP2 MSTORE PUSH1 0x4 ADD PUSH2 0x84F SWAP1 PUSH2 0x2B7F JUMP JUMPDEST PUSH1 0x40 MLOAD DUP1 SWAP2 SUB SWAP1 REVERT JUMPDEST DUP1 PUSH1 0x6 ADD PUSH1 0x15 SWAP1 SLOAD SWAP1 PUSH2 0x100 EXP SWAP1 DIV PUSH1 0xFF AND ISZERO PUSH2 0x8AA JUMPI PUSH1 0x40 MLOAD PUSH32 0x8C379A000000000000000000000000000000000000000000000000000000000 DUP2 MSTORE PUSH1 0x4 ADD PUSH2 0x8A1 SWAP1 PUSH2 0x2BE7 JUMP JUMPDEST PUSH1 0x40 MLOAD DUP1 SWAP2 SUB SWAP1 REVERT JUMPDEST PUSH0 PUSH20 0xFFFFFFFFFFFFFFFFFFFFFFFFFFFFFFFFFFFFFFFF AND DUP2 PUSH1 0x6 ADD PUSH0 SWAP1 SLOAD SWAP1 PUSH2 0x100 EXP SWAP1 DIV PUSH20 0xFFFFFFFFFFFFFFFFFFFFFFFFFFFFFFFFFFFFFFFF AND PUSH20 0xFFFFFFFFFFFFFFFFFFFFFFFFFFFFFFFFFFFFFFFF AND EQ PUSH2 0x98A JUMPI DUP1 PUSH1 0x5 ADD SLOAD PUSH1 0x3 PUSH0 DUP6 DUP2 MSTORE PUSH1 0x20 ADD SWAP1 DUP2 MSTORE PUSH1 0x20 ADD PUSH0 KECCAK256 PUSH0 DUP4 PUSH1 0x6 ADD PUSH0 SWAP1 SLOAD SWAP1 PUSH2 0x100 EXP SWAP1 DIV PUSH20 0xFFFFFFFFFFFFFFFFFFFFFFFFFFFFFFFFFFFFFFFF AND PUSH20 0xFFFFFFFFFFFFFFFFFFFFFFFFFFFFFFFFFFFFFFFF AND PUSH20 0xFFFFFFFFFFFFFFFFFFFFFFFFFFFFFFFFFFFFFFFF AND DUP2 MSTORE PUSH1 0x20 ADD SWAP1 DUP2 MSTORE PUSH1 0x20 ADD PUSH0 KECCAK256 PUSH0 DUP3 DUP3 SLOAD PUSH2 0x982 SWAP2 SWAP1 PUSH2 0x2C32 JUMP JUMPDEST SWAP3 POP POP DUP2 SWAP1 SSTORE POP JUMPDEST CALLVALUE DUP2 PUSH1 0x5 ADD DUP2 SWAP1 SSTORE POP CALLER DUP2 PUSH1 0x6 ADD PUSH0 PUSH2 0x100 EXP DUP2 SLOAD DUP2 PUSH20 0xFFFFFFFFFFFFFFFFFFFFFFFFFFFFFFFFFFFFFFFF MUL NOT AND SWAP1 DUP4 PUSH20 0xFFFFFFFFFFFFFFFFFFFFFFFFFFFFFFFFFFFFFFFF AND MUL OR SWAP1 SSTORE POP POP POP POP JUMP JUMPDEST DUP1 PUSH0 PUSH20 0xFFFFFFFFFFFFFFFFFFFFFFFFFFFFFFFFFFFFFFFF AND PUSH1 0x2 PUSH0 DUP4 DUP2 MSTORE PUSH1 0x20 ADD SWAP1 DUP2 MSTORE PUSH1 0x20 ADD PUSH0 KECCAK256 PUSH1 0x2 ADD PUSH0 SWAP1 SLOAD SWAP1 PUSH2 0x100 EXP SWAP1 DIV PUSH20 0xFFFFFFFFFFFFFFFFFFFFFFFFFFFFFFFFFFFFFFFF AND PUSH20 0xFFFFFFFFFFFFFFFFFFFFFFFFFFFFFFFFFFFFFFFF AND SUB PUSH2 0xA7C JUMPI PUSH1 0x40 MLOAD PUSH32 0x8C379A000000000000000000000000000000000000000000000000000000000 DUP2 MSTORE PUSH1 0x4 ADD PUSH2 0xA73 SWAP1 PUSH2 0x296D JUMP JUMPDEST PUSH1 0x40 MLOAD DUP1 SWAP2 SUB SWAP1 REVERT JUMPDEST PUSH0 PUSH1 0x2 PUSH0 DUP5 DUP2 MSTORE PUSH1 0x20 ADD SWAP1 DUP2 MSTORE PUSH1 0x20 ADD PUSH0 KECCAK256 SWAP1 POP DUP1 PUSH1 0x6 ADD PUSH1 0x14 SWAP1 SLOAD SWAP1 PUSH2 0x100 EXP SWAP1 DIV PUSH1 0xFF AND ISZERO PUSH2 0xAE2 JUMPI PUSH1 0x40 MLOAD PUSH32 0x8C379A000000000000000000000000000000000000000000000000000000000 DUP2 MSTORE PUSH1 0x4 ADD PUSH2 0xAD9 SWAP1 PUSH2 0x2B7F JUMP JUMPDEST PUSH1 0x40 MLOAD DUP1 SWAP2 SUB SWAP1 REVERT JUMPDEST DUP1 PUSH1 0x6 ADD PUSH1 0x15 SWAP1 SLOAD SWAP1 PUSH2 0x100 EXP SWAP1 DIV PUSH1 0xFF AND ISZERO PUSH2 0xB34 JUMPI PUSH1 0x40 MLOAD PUSH32 0x8C379A000000000000000000000000000000000000000000000000000000000 DUP2 MSTORE PUSH1 0x4 ADD PUSH2 0xB2B SWAP1 PUSH2 0x2BE7 JUMP JUMPDEST PUSH1 0x40 MLOAD DUP1 SWAP2 SUB SWAP1 REVERT JUMPDEST DUP1 PUSH1 0x2 ADD PUSH0 SWAP1 SLOAD SWAP1 PUSH2 0x100 EXP SWAP1 DIV PUSH20 0xFFFFFFFFFFFFFFFFFFFFFFFFFFFFFFFFFFFFFFFF AND PUSH20 0xFFFFFFFFFFFFFFFFFFFFFFFFFFFFFFFFFFFFFFFF AND CALLER PUSH20 0xFFFFFFFFFFFFFFFFFFFFFFFFFFFFFFFFFFFFFFFF AND EQ DUP1 PUSH2 0xBDC JUMPI POP PUSH0 PUSH0 SWAP1 SLOAD SWAP1 PUSH2 0x100 EXP SWAP1 DIV PUSH20 0xFFFFFFFFFFFFFFFFFFFFFFFFFFFFFFFFFFFFFFFF AND PUSH20 0xFFFFFFFFFFFFFFFFFFFFFFFFFFFFFFFFFFFFFFFF AND CALLER PUSH20 0xFFFFFFFFFFFFFFFFFFFFFFFFFFFFFFFFFFFFFFFF AND EQ JUMPDEST PUSH2 0xC1B JUMPI PUSH1 0x40 MLOAD PUSH32 0x8C379A000000000000000000000000000000000000000000000000000000000 DUP2 MSTORE PUSH1 0x4 ADD PUSH2 0xC12 SWAP1 PUSH2 0x2CD5 JUMP JUMPDEST PUSH1 0x40 MLOAD DUP1 SWAP2 SUB SWAP1 REVERT JUMPDEST DUP1 PUSH1 0x4 ADD SLOAD TIMESTAMP LT ISZERO DUP1 PUSH2 0xC7C JUMPI POP DUP1 PUSH1 0x2 ADD PUSH0 SWAP1 SLOAD SWAP1 PUSH2 0x100 EXP SWAP1 DIV PUSH20 0xFFFFFFFFFFFFFFFFFFFFFFFFFFFFFFFFFFFFFFFF AND PUSH20 0xFFFFFFFFFFFFFFFFFFFFFFFFFFFFFFFFFFFFFFFF AND CALLER PUSH20 0xFFFFFFFFFFFFFFFFFFFFFFFFFFFFFFFFFFFFFFFF AND EQ JUMPDEST PUSH2 0xCBB JUMPI PUSH1 0x40 MLOAD PUSH32 0x8C379A000000000000000000000000000000000000000000000000000000000 DUP2 MSTORE PUSH1 0x4 ADD PUSH2 0xCB2 SWAP1 PUSH2 0x2D63 JUMP JUMPDEST PUSH1 0x40 MLOAD DUP1 SWAP2 SUB SWAP1 REVERT JUMPDEST PUSH1 0x1 DUP2 PUSH1 0x6 ADD PUSH1 0x14 PUSH2 0x100 EXP DUP2 SLOAD DUP2 PUSH1 0xFF MUL NOT AND SWAP1 DUP4 ISZERO ISZERO MUL OR SWAP1 SSTORE POP PUSH0 PUSH20 0xFFFFFFFFFFFFFFFFFFFFFFFFFFFFFFFFFFFFFFFF AND DUP2 PUSH1 0x6 ADD PUSH0 SWAP1 SLOAD SWAP1 PUSH2 0x100 EXP SWAP1 DIV PUSH20 0xFFFFFFFFFFFFFFFFFFFFFFFFFFFFFFFFFFFFFFFF AND PUSH20 0xFFFFFFFFFFFFFFFFFFFFFFFFFFFFFFFFFFFFFFFF AND EQ PUSH2 0xDFF JUMPI PUSH0 DUP2 PUSH1 0x2 ADD PUSH0 SWAP1 SLOAD SWAP1 PUSH2 0x100 EXP SWAP1 DIV PUSH20 0xFFFFFFFFFFFFFFFFFFFFFFFFFFFFFFFFFFFFFFFF AND PUSH20 0xFFFFFFFFFFFFFFFFFFFFFFFFFFFFFFFFFFFFFFFF AND DUP3 PUSH1 0x5 ADD SLOAD PUSH1 0x40 MLOAD PUSH2 0xD7A SWAP1 PUSH2 0x2DAE JUMP JUMPDEST PUSH0 PUSH1 0x40 MLOAD DUP1 DUP4 SUB DUP2 DUP6 DUP8 GAS CALL SWAP3 POP POP POP RETURNDATASIZE DUP1 PUSH0 DUP2 EQ PUSH2 0xDB4 JUMPI PUSH1 0x40 MLOAD SWAP2 POP PUSH1 0x1F NOT PUSH1 0x3F RETURNDATASIZE ADD AND DUP3 ADD PUSH1 0x40 MSTORE RETURNDATASIZE DUP3 MSTORE RETURNDATASIZE PUSH0 PUSH1 0x20 DUP5 ADD RETURNDATACOPY PUSH2 0xDB9 JUMP JUMPDEST PUSH1 0x60 SWAP2 POP JUMPDEST POP POP SWAP1 POP DUP1 PUSH2 0xDFD JUMPI PUSH1 0x40 MLOAD PUSH32 0x8C379A000000000000000000000000000000000000000000000000000000000 DUP2 MSTORE PUSH1 0x4 ADD PUSH2 0xDF4 SWAP1 PUSH2 0x2E0C JUMP JUMPDEST PUSH1 0x40 MLOAD DUP1 SWAP2 SUB SWAP1 REVERT JUMPDEST POP JUMPDEST POP POP POP JUMP JUMPDEST PUSH0 DUP7 GT PUSH2 0xE46 JUMPI PUSH1 0x40 MLOAD PUSH32 0x8C379A000000000000000000000000000000000000000000000000000000000 DUP2 MSTORE PUSH1 0x4 ADD PUSH2 0xE3D SWAP1 PUSH2 0x2E9A JUMP JUMPDEST PUSH1 0x40 MLOAD DUP1 SWAP2 SUB SWAP1 REVERT JUMPDEST PUSH2 0x76C DUP4 LT ISZERO DUP1 ISZERO PUSH2 0xE5A JUMPI POP PUSH2 0x7EA DUP4 GT ISZERO JUMPDEST PUSH2 0xE99 JUMPI PUSH1 0x40 MLOAD PUSH32 0x8C379A000000000000000000000000000000000000000000000000000000000 DUP2 MSTORE PUSH1 0x4 ADD PUSH2 0xE90 SWAP1 PUSH2 0x2F02 JUMP JUMPDEST PUSH1 0x40 MLOAD DUP1 SWAP2 SUB SWAP1 REVERT JUMPDEST PUSH2 0xEA4 DUP10 DUP10 DUP10 PUSH2 0x1E14 JUMP JUMPDEST PUSH1 0x40 MLOAD DUP1 PUSH1 0xC0 ADD PUSH1 0x40 MSTORE DUP1 DUP8 DUP2 MSTORE PUSH1 0x20 ADD DUP7 DUP2 MSTORE PUSH1 0x20 ADD DUP6 DUP2 MSTORE PUSH1 0x20 ADD DUP5 DUP2 MSTORE PUSH1 0x20 ADD DUP4 ISZERO ISZERO DUP2 MSTORE PUSH1 0x20 ADD DUP3 PUSH1 0x4 DUP2 GT ISZERO PUSH2 0xEE2 JUMPI PUSH2 0xEE1 PUSH2 0x233A JUMP JUMPDEST JUMPDEST DUP2 MSTORE POP PUSH1 0x4 PUSH0 PUSH1 0x1 DUP1 SLOAD PUSH2 0xEF6 SWAP2 SWAP1 PUSH2 0x2F20 JUMP JUMPDEST DUP2 MSTORE PUSH1 0x20 ADD SWAP1 DUP2 MSTORE PUSH1 0x20 ADD PUSH0 KECCAK256 PUSH0 DUP3 ADD MLOAD DUP2 PUSH0 ADD SSTORE PUSH1 0x20 DUP3 ADD MLOAD DUP2 PUSH1 0x1 ADD SSTORE PUSH1 0x40 DUP3 ADD MLOAD DUP2 PUSH1 0x2 ADD SSTORE PUSH1 0x60 DUP3 ADD MLOAD DUP2 PUSH1 0x3 ADD SSTORE PUSH1 0x80 DUP3 ADD MLOAD DUP2 PUSH1 0x4 ADD PUSH0 PUSH2 0x100 EXP DUP2 SLOAD DUP2 PUSH1 0xFF MUL NOT AND SWAP1 DUP4 ISZERO ISZERO MUL OR SWAP1 SSTORE POP PUSH1 0xA0 DUP3 ADD MLOAD DUP2 PUSH1 0x4 ADD PUSH1 0x1 PUSH2 0x100 EXP DUP2 SLOAD DUP2 PUSH1 0xFF MUL NOT AND SWAP1 DUP4 PUSH1 0x4 DUP2 GT ISZERO PUSH2 0xF73 JUMPI PUSH2 0xF72 PUSH2 0x233A JUMP JUMPDEST JUMPDEST MUL OR SWAP1 SSTORE POP SWAP1 POP POP POP POP POP POP POP POP POP POP POP JUMP JUMPDEST DUP1 PUSH0 PUSH20 0xFFFFFFFFFFFFFFFFFFFFFFFFFFFFFFFFFFFFFFFF AND PUSH1 0x2 PUSH0 DUP4 DUP2 MSTORE PUSH1 0x20 ADD SWAP1 DUP2 MSTORE PUSH1 0x20 ADD PUSH0 KECCAK256 PUSH1 0x2 ADD PUSH0 SWAP1 SLOAD SWAP1 PUSH2 0x100 EXP SWAP1 DIV PUSH20 0xFFFFFFFFFFFFFFFFFFFFFFFFFFFFFFFFFFFFFFFF AND PUSH20 0xFFFFFFFFFFFFFFFFFFFFFFFFFFFFFFFFFFFFFFFF AND SUB PUSH2 0x1028 JUMPI PUSH1 0x40 MLOAD PUSH32 0x8C379A000000000000000000000000000000000000000000000000000000000 DUP2 MSTORE PUSH1 0x4 ADD PUSH2 0x101F SWAP1 PUSH2 0x296D JUMP JUMPDEST PUSH1 0x40 MLOAD DUP1 SWAP2 SUB SWAP1 REVERT JUMPDEST PUSH0 PUSH1 0x3 PUSH0 DUP5 DUP2 MSTORE PUSH1 0x20 ADD SWAP1 DUP2 MSTORE PUSH1 0x20 ADD PUSH0 KECCAK256 PUSH0 CALLER PUSH20 0xFFFFFFFFFFFFFFFFFFFFFFFFFFFFFFFFFFFFFFFF AND PUSH20 0xFFFFFFFFFFFFFFFFFFFFFFFFFFFFFFFFFFFFFFFF AND DUP2 MSTORE PUSH1 0x20 ADD SWAP1 DUP2 MSTORE PUSH1 0x20 ADD PUSH0 KECCAK256 SLOAD SWAP1 POP PUSH0 DUP2 GT PUSH2 0x10BA JUMPI PUSH1 0x40 MLOAD PUSH32 0x8C379A000000000000000000000000000000000000000000000000000000000 DUP2 MSTORE PUSH1 0x4 ADD PUSH2 0x10B1 SWAP1 PUSH2 0x2F9D JUMP JUMPDEST PUSH1 0x40 MLOAD DUP1 SWAP2 SUB SWAP1 REVERT JUMPDEST PUSH0 PUSH1 0x3 PUSH0 DUP6 DUP2 MSTORE PUSH1 0x20 ADD SWAP1 DUP2 MSTORE PUSH1 0x20 ADD PUSH0 KECCAK256 PUSH0 CALLER PUSH20 0xFFFFFFFFFFFFFFFFFFFFFFFFFFFFFFFFFFFFFFFF AND PUSH20 0xFFFFFFFFFFFFFFFFFFFFFFFFFFFFFFFFFFFFFFFF AND DUP2 MSTORE PUSH1 0x20 ADD SWAP1 DUP2 MSTORE PUSH1 0x20 ADD PUSH0 KECCAK256 DUP2 SWAP1 SSTORE POP PUSH0 CALLER PUSH20 0xFFFFFFFFFFFFFFFFFFFFFFFFFFFFFFFFFFFFFFFF AND DUP3 PUSH1 0x40 MLOAD PUSH2 0x1130 SWAP1 PUSH2 0x2DAE JUMP JUMPDEST PUSH0 PUSH1 0x40 MLOAD DUP1 DUP4 SUB DUP2 DUP6 DUP8 GAS CALL SWAP3 POP POP POP RETURNDATASIZE DUP1 PUSH0 DUP2 EQ PUSH2 0x116A JUMPI PUSH1 0x40 MLOAD SWAP2 POP PUSH1 0x1F NOT PUSH1 0x3F RETURNDATASIZE ADD AND DUP3 ADD PUSH1 0x40 MSTORE RETURNDATASIZE DUP3 MSTORE RETURNDATASIZE PUSH0 PUSH1 0x20 DUP5 ADD RETURNDATACOPY PUSH2 0x116F JUMP JUMPDEST PUSH1 0x60 SWAP2 POP JUMPDEST POP POP SWAP1 POP DUP1 PUSH2 0x11B3 JUMPI PUSH1 0x40 MLOAD PUSH32 0x8C379A000000000000000000000000000000000000000000000000000000000 DUP2 MSTORE PUSH1 0x4 ADD PUSH2 0x11AA SWAP1 PUSH2 0x2E0C JUMP JUMPDEST PUSH1 0x40 MLOAD DUP1 SWAP2 SUB SWAP1 REVERT JUMPDEST POP POP POP POP JUMP JUMPDEST PUSH2 0x11C1 PUSH2 0x21BA JUMP JUMPDEST DUP2 PUSH0 PUSH20 0xFFFFFFFFFFFFFFFFFFFFFFFFFFFFFFFFFFFFFFFF AND PUSH1 0x2 PUSH0 DUP4 DUP2 MSTORE PUSH1 0x20 ADD SWAP1 DUP2 MSTORE PUSH1 0x20 ADD PUSH0 KECCAK256 PUSH1 0x2 ADD PUSH0 SWAP1 SLOAD SWAP1 PUSH2 0x100 EXP SWAP1 DIV PUSH20 0xFFFFFFFFFFFFFFFFFFFFFFFFFFFFFFFFFFFFFFFF AND PUSH20 0xFFFFFFFFFFFFFFFFFFFFFFFFFFFFFFFFFFFFFFFF AND SUB PUSH2 0x1263 JUMPI PUSH1 0x40 MLOAD PUSH32 0x8C379A000000000000000000000000000000000000000000000000000000000 DUP2 MSTORE PUSH1 0x4 ADD PUSH2 0x125A SWAP1 PUSH2 0x296D JUMP JUMPDEST PUSH1 0x40 MLOAD DUP1 SWAP2 SUB SWAP1 REVERT JUMPDEST PUSH1 0x4 PUSH0 DUP5 DUP2 MSTORE PUSH1 0x20 ADD SWAP1 DUP2 MSTORE PUSH1 0x20 ADD PUSH0 KECCAK256 PUSH1 0x40 MLOAD DUP1 PUSH1 0xC0 ADD PUSH1 0x40 MSTORE SWAP1 DUP2 PUSH0 DUP3 ADD SLOAD DUP2 MSTORE PUSH1 0x20 ADD PUSH1 0x1 DUP3 ADD SLOAD DUP2 MSTORE PUSH1 0x20 ADD PUSH1 0x2 DUP3 ADD SLOAD DUP2 MSTORE PUSH1 0x20 ADD PUSH1 0x3 DUP3 ADD SLOAD DUP2 MSTORE PUSH1 0x20 ADD PUSH1 0x4 DUP3 ADD PUSH0 SWAP1 SLOAD SWAP1 PUSH2 0x100 EXP SWAP1 DIV PUSH1 0xFF AND ISZERO ISZERO ISZERO ISZERO DUP2 MSTORE PUSH1 0x20 ADD PUSH1 0x4 DUP3 ADD PUSH1 0x1 SWAP1 SLOAD SWAP1 PUSH2 0x100 EXP SWAP1 DIV PUSH1 0xFF AND PUSH1 0x4 DUP2 GT ISZERO PUSH2 0x12E5 JUMPI PUSH2 0x12E4 PUSH2 0x233A JUMP JUMPDEST JUMPDEST PUSH1 0x4 DUP2 GT ISZERO PUSH2 0x12F7 JUMPI PUSH2 0x12F6 PUSH2 0x233A JUMP JUMPDEST JUMPDEST DUP2 MSTORE POP POP SWAP2 POP POP SWAP2 SWAP1 POP JUMP JUMPDEST DUP1 PUSH0 PUSH20 0xFFFFFFFFFFFFFFFFFFFFFFFFFFFFFFFFFFFFFFFF AND PUSH1 0x2 PUSH0 DUP4 DUP2 MSTORE PUSH1 0x20 ADD SWAP1 DUP2 MSTORE PUSH1 0x20 ADD PUSH0 KECCAK256 PUSH1 0x2 ADD PUSH0 SWAP1 SLOAD SWAP1 PUSH2 0x100 EXP SWAP1 DIV PUSH20 0xFFFFFFFFFFFFFFFFFFFFFFFFFFFFFFFFFFFFFFFF AND PUSH20 0xFFFFFFFFFFFFFFFFFFFFFFFFFFFFFFFFFFFFFFFF AND SUB PUSH2 0x13A5 JUMPI PUSH1 0x40 MLOAD PUSH32 0x8C379A000000000000000000000000000000000000000000000000000000000 DUP2 MSTORE PUSH1 0x4 ADD PUSH2 0x139C SWAP1 PUSH2 0x296D JUMP JUMPDEST PUSH1 0x40 MLOAD DUP1 SWAP2 SUB SWAP1 REVERT JUMPDEST PUSH0 PUSH1 0x2 PUSH0 DUP5 DUP2 MSTORE PUSH1 0x20 ADD SWAP1 DUP2 MSTORE PUSH1 0x20 ADD PUSH0 KECCAK256 SWAP1 POP DUP1 PUSH1 0x2 ADD PUSH0 SWAP1 SLOAD SWAP1 PUSH2 0x100 EXP SWAP1 DIV PUSH20 0xFFFFFFFFFFFFFFFFFFFFFFFFFFFFFFFFFFFFFFFF AND PUSH20 0xFFFFFFFFFFFFFFFFFFFFFFFFFFFFFFFFFFFFFFFF AND CALLER PUSH20 0xFFFFFFFFFFFFFFFFFFFFFFFFFFFFFFFFFFFFFFFF AND EQ DUP1 PUSH2 0x1461 JUMPI POP PUSH0 PUSH0 SWAP1 SLOAD SWAP1 PUSH2 0x100 EXP SWAP1 DIV PUSH20 0xFFFFFFFFFFFFFFFFFFFFFFFFFFFFFFFFFFFFFFFF AND PUSH20 0xFFFFFFFFFFFFFFFFFFFFFFFFFFFFFFFFFFFFFFFF AND CALLER PUSH20 0xFFFFFFFFFFFFFFFFFFFFFFFFFFFFFFFFFFFFFFFF AND EQ JUMPDEST PUSH2 0x14A0 JUMPI PUSH1 0x40 MLOAD PUSH32 0x8C379A000000000000000000000000000000000000000000000000000000000 DUP2 MSTORE PUSH1 0x4 ADD PUSH2 0x1497 SWAP1 PUSH2 0x302B JUMP JUMPDEST PUSH1 0x40 MLOAD DUP1 SWAP2 SUB SWAP1 REVERT JUMPDEST DUP1 PUSH1 0x6 ADD PUSH1 0x14 SWAP1 SLOAD SWAP1 PUSH2 0x100 EXP SWAP1 DIV PUSH1 0xFF AND ISZERO PUSH2 0x14F2 JUMPI PUSH1 0x40 MLOAD PUSH32 0x8C379A000000000000000000000000000000000000000000000000000000000 DUP2 MSTORE PUSH1 0x4 ADD PUSH2 0x14E9 SWAP1 PUSH2 0x30B9 JUMP JUMPDEST PUSH1 0x40 MLOAD DUP1 SWAP2 SUB SWAP1 REVERT JUMPDEST DUP1 PUSH1 0x6 ADD PUSH1 0x15 SWAP1 SLOAD SWAP1 PUSH2 0x100 EXP SWAP1 DIV PUSH1 0xFF AND ISZERO PUSH2 0x1544 JUMPI PUSH1 0x40 MLOAD PUSH32 0x8C379A000000000000000000000000000000000000000000000000000000000 DUP2 MSTORE PUSH1 0x4 ADD PUSH2 0x153B SWAP1 PUSH2 0x3121 JUMP JUMPDEST PUSH1 0x40 MLOAD DUP1 SWAP2 SUB SWAP1 REVERT JUMPDEST PUSH0 DUP2 PUSH1 0x5 ADD SLOAD EQ PUSH2 0x158A JUMPI PUSH1 0x40 MLOAD PUSH32 0x8C379A000000000000000000000000000000000000000000000000000000000 DUP2 MSTORE PUSH1 0x4 ADD PUSH2 0x1581 SWAP1 PUSH2 0x31AF JUMP JUMPDEST PUSH1 0x40 MLOAD DUP1 SWAP2 SUB SWAP1 REVERT JUMPDEST PUSH1 0x1 DUP2 PUSH1 0x6 ADD PUSH1 0x15 PUSH2 0x100 EXP DUP2 SLOAD DUP2 PUSH1 0xFF MUL NOT AND SWAP1 DUP4 ISZERO ISZERO MUL OR SWAP1 SSTORE POP POP POP POP JUMP JUMPDEST PUSH0 PUSH0 SWAP1 SLOAD SWAP1 PUSH2 0x100 EXP SWAP1 DIV PUSH20 0xFFFFFFFFFFFFFFFFFFFFFFFFFFFFFFFFFFFFFFFF AND PUSH20 0xFFFFFFFFFFFFFFFFFFFFFFFFFFFFFFFFFFFFFFFF AND CALLER PUSH20 0xFFFFFFFFFFFFFFFFFFFFFFFFFFFFFFFFFFFFFFFF AND EQ PUSH2 0x163A JUMPI PUSH1 0x40 MLOAD PUSH32 0x8C379A000000000000000000000000000000000000000000000000000000000 DUP2 MSTORE PUSH1 0x4 ADD PUSH2 0x1631 SWAP1 PUSH2 0x3217 JUMP JUMPDEST PUSH1 0x40 MLOAD DUP1 SWAP2 SUB SWAP1 REVERT JUMPDEST PUSH0 PUSH20 0xFFFFFFFFFFFFFFFFFFFFFFFFFFFFFFFFFFFFFFFF AND DUP2 PUSH20 0xFFFFFFFFFFFFFFFFFFFFFFFFFFFFFFFFFFFFFFFF AND SUB PUSH2 0x16A8 JUMPI PUSH1 0x40 MLOAD PUSH32 0x8C379A000000000000000000000000000000000000000000000000000000000 DUP2 MSTORE PUSH1 0x4 ADD PUSH2 0x169F SWAP1 PUSH2 0x32A5 JUMP JUMPDEST PUSH1 0x40 MLOAD DUP1 SWAP2 SUB SWAP1 REVERT JUMPDEST DUP1 PUSH0 PUSH0 PUSH2 0x100 EXP DUP2 SLOAD DUP2 PUSH20 0xFFFFFFFFFFFFFFFFFFFFFFFFFFFFFFFFFFFFFFFF MUL NOT AND SWAP1 DUP4 PUSH20 0xFFFFFFFFFFFFFFFFFFFFFFFFFFFFFFFFFFFFFFFF AND MUL OR SWAP1 SSTORE POP POP JUMP JUMPDEST PUSH1 0x2 PUSH1 0x20 MSTORE DUP1 PUSH0 MSTORE PUSH1 0x40 PUSH0 KECCAK256 PUSH0 SWAP2 POP SWAP1 POP DUP1 PUSH0 ADD SLOAD SWAP1 DUP1 PUSH1 0x1 ADD SLOAD SWAP1 DUP1 PUSH1 0x2 ADD PUSH0 SWAP1 SLOAD SWAP1 PUSH2 0x100 EXP SWAP1 DIV PUSH20 0xFFFFFFFFFFFFFFFFFFFFFFFFFFFFFFFFFFFFFFFF AND SWAP1 DUP1 PUSH1 0x3 ADD SLOAD SWAP1 DUP1 PUSH1 0x4 ADD SLOAD SWAP1 DUP1 PUSH1 0x5 ADD SLOAD SWAP1 DUP1 PUSH1 0x6 ADD PUSH0 SWAP1 SLOAD SWAP1 PUSH2 0x100 EXP SWAP1 DIV PUSH20 0xFFFFFFFFFFFFFFFFFFFFFFFFFFFFFFFFFFFFFFFF AND SWAP1 DUP1 PUSH1 0x6 ADD PUSH1 0x14 SWAP1 SLOAD SWAP1 PUSH2 0x100 EXP SWAP1 DIV PUSH1 0xFF AND SWAP1 DUP1 PUSH1 0x6 ADD PUSH1 0x15 SWAP1 SLOAD SWAP1 PUSH2 0x100 EXP SWAP1 DIV PUSH1 0xFF AND SWAP1 POP DUP10 JUMP JUMPDEST DUP3 PUSH0 PUSH20 0xFFFFFFFFFFFFFFFFFFFFFFFFFFFFFFFFFFFFFFFF AND PUSH1 0x2 PUSH0 DUP4 DUP2 MSTORE PUSH1 0x20 ADD SWAP1 DUP2 MSTORE PUSH1 0x20 ADD PUSH0 KECCAK256 PUSH1 0x2 ADD PUSH0 SWAP1 SLOAD SWAP1 PUSH2 0x100 EXP SWAP1 DIV PUSH20 0xFFFFFFFFFFFFFFFFFFFFFFFFFFFFFFFFFFFFFFFF AND PUSH20 0xFFFFFFFFFFFFFFFFFFFFFFFFFFFFFFFFFFFFFFFF AND SUB PUSH2 0x182E JUMPI PUSH1 0x40 MLOAD PUSH32 0x8C379A000000000000000000000000000000000000000000000000000000000 DUP2 MSTORE PUSH1 0x4 ADD PUSH2 0x1825 SWAP1 PUSH2 0x296D JUMP JUMPDEST PUSH1 0x40 MLOAD DUP1 SWAP2 SUB SWAP1 REVERT JUMPDEST PUSH0 PUSH1 0x2 PUSH0 DUP7 DUP2 MSTORE PUSH1 0x20 ADD SWAP1 DUP2 MSTORE PUSH1 0x20 ADD PUSH0 KECCAK256 SWAP1 POP DUP1 PUSH1 0x2 ADD PUSH0 SWAP1 SLOAD SWAP1 PUSH2 0x100 EXP SWAP1 DIV PUSH20 0xFFFFFFFFFFFFFFFFFFFFFFFFFFFFFFFFFFFFFFFF AND PUSH20 0xFFFFFFFFFFFFFFFFFFFFFFFFFFFFFFFFFFFFFFFF AND CALLER PUSH20 0xFFFFFFFFFFFFFFFFFFFFFFFFFFFFFFFFFFFFFFFF AND EQ DUP1 PUSH2 0x18EA JUMPI POP PUSH0 PUSH0 SWAP1 SLOAD SWAP1 PUSH2 0x100 EXP SWAP1 DIV PUSH20 0xFFFFFFFFFFFFFFFFFFFFFFFFFFFFFFFFFFFFFFFF AND PUSH20 0xFFFFFFFFFFFFFFFFFFFFFFFFFFFFFFFFFFFFFFFF AND CALLER PUSH20 0xFFFFFFFFFFFFFFFFFFFFFFFFFFFFFFFFFFFFFFFF AND EQ JUMPDEST PUSH2 0x1929 JUMPI PUSH1 0x40 MLOAD PUSH32 0x8C379A000000000000000000000000000000000000000000000000000000000 DUP2 MSTORE PUSH1 0x4 ADD PUSH2 0x1920 SWAP1 PUSH2 0x3333 JUMP JUMPDEST PUSH1 0x40 MLOAD DUP1 SWAP2 SUB SWAP1 REVERT JUMPDEST DUP1 PUSH1 0x6 ADD PUSH1 0x14 SWAP1 SLOAD SWAP1 PUSH2 0x100 EXP SWAP1 DIV PUSH1 0xFF AND ISZERO PUSH2 0x197B JUMPI PUSH1 0x40 MLOAD PUSH32 0x8C379A000000000000000000000000000000000000000000000000000000000 DUP2 MSTORE PUSH1 0x4 ADD PUSH2 0x1972 SWAP1 PUSH2 0x33C1 JUMP JUMPDEST PUSH1 0x40 MLOAD DUP1 SWAP2 SUB SWAP1 REVERT JUMPDEST DUP1 PUSH1 0x6 ADD PUSH1 0x15 SWAP1 SLOAD SWAP1 PUSH2 0x100 EXP SWAP1 DIV PUSH1 0xFF AND ISZERO PUSH2 0x19CD JUMPI PUSH1 0x40 MLOAD PUSH32 0x8C379A000000000000000000000000000000000000000000000000000000000 DUP2 MSTORE PUSH1 0x4 ADD PUSH2 0x19C4 SWAP1 PUSH2 0x344F JUMP JUMPDEST PUSH1 0x40 MLOAD DUP1 SWAP2 SUB SWAP1 REVERT JUMPDEST PUSH0 DUP2 PUSH1 0x5 ADD SLOAD EQ PUSH2 0x1A13 JUMPI PUSH1 0x40 MLOAD PUSH32 0x8C379A000000000000000000000000000000000000000000000000000000000 DUP2 MSTORE PUSH1 0x4 ADD PUSH2 0x1A0A SWAP1 PUSH2 0x34DD JUMP JUMPDEST PUSH1 0x40 MLOAD DUP1 SWAP2 SUB SWAP1 REVERT JUMPDEST TIMESTAMP DUP5 GT PUSH2 0x1A55 JUMPI PUSH1 0x40 MLOAD PUSH32 0x8C379A000000000000000000000000000000000000000000000000000000000 DUP2 MSTORE PUSH1 0x4 ADD PUSH2 0x1A4C SWAP1 PUSH2 0x356B JUMP JUMPDEST PUSH1 0x40 MLOAD DUP1 SWAP2 SUB SWAP1 REVERT JUMPDEST DUP4 DUP2 PUSH1 0x4 ADD DUP2 SWAP1 SSTORE POP DUP3 DUP2 PUSH1 0x1 ADD DUP2 SWAP1 SSTORE POP POP POP POP POP POP JUMP JUMPDEST DUP7 PUSH0 PUSH20 0xFFFFFFFFFFFFFFFFFFFFFFFFFFFFFFFFFFFFFFFF AND PUSH1 0x2 PUSH0 DUP4 DUP2 MSTORE PUSH1 0x20 ADD SWAP1 DUP2 MSTORE PUSH1 0x20 ADD PUSH0 KECCAK256 PUSH1 0x2 ADD PUSH0 SWAP1 SLOAD SWAP1 PUSH2 0x100 EXP SWAP1 DIV PUSH20 0xFFFFFFFFFFFFFFFFFFFFFFFFFFFFFFFFFFFFFFFF AND PUSH20 0xFFFFFFFFFFFFFFFFFFFFFFFFFFFFFFFFFFFFFFFF AND SUB PUSH2 0x1B10 JUMPI PUSH1 0x40 MLOAD PUSH32 0x8C379A000000000000000000000000000000000000000000000000000000000 DUP2 MSTORE PUSH1 0x4 ADD PUSH2 0x1B07 SWAP1 PUSH2 0x296D JUMP JUMPDEST PUSH1 0x40 MLOAD DUP1 SWAP2 SUB SWAP1 REVERT JUMPDEST PUSH0 PUSH1 0x2 PUSH0 DUP11 DUP2 MSTORE PUSH1 0x20 ADD SWAP1 DUP2 MSTORE PUSH1 0x20 ADD PUSH0 KECCAK256 SWAP1 POP DUP1 PUSH1 0x2 ADD PUSH0 SWAP1 SLOAD SWAP1 PUSH2 0x100 EXP SWAP1 DIV PUSH20 0xFFFFFFFFFFFFFFFFFFFFFFFFFFFFFFFFFFFFFFFF AND PUSH20 0xFFFFFFFFFFFFFFFFFFFFFFFFFFFFFFFFFFFFFFFF AND CALLER PUSH20 0xFFFFFFFFFFFFFFFFFFFFFFFFFFFFFFFFFFFFFFFF AND EQ DUP1 PUSH2 0x1BCC JUMPI POP PUSH0 PUSH0 SWAP1 SLOAD SWAP1 PUSH2 0x100 EXP SWAP1 DIV PUSH20 0xFFFFFFFFFFFFFFFFFFFFFFFFFFFFFFFFFFFFFFFF AND PUSH20 0xFFFFFFFFFFFFFFFFFFFFFFFFFFFFFFFFFFFFFFFF AND CALLER PUSH20 0xFFFFFFFFFFFFFFFFFFFFFFFFFFFFFFFFFFFFFFFF AND EQ JUMPDEST PUSH2 0x1C0B JUMPI PUSH1 0x40 MLOAD PUSH32 0x8C379A000000000000000000000000000000000000000000000000000000000 DUP2 MSTORE PUSH1 0x4 ADD PUSH2 0x1C02 SWAP1 PUSH2 0x35F9 JUMP JUMPDEST PUSH1 0x40 MLOAD DUP1 SWAP2 SUB SWAP1 REVERT JUMPDEST DUP1 PUSH1 0x6 ADD PUSH1 0x14 SWAP1 SLOAD SWAP1 PUSH2 0x100 EXP SWAP1 DIV PUSH1 0xFF AND ISZERO PUSH2 0x1C5D JUMPI PUSH1 0x40 MLOAD PUSH32 0x8C379A000000000000000000000000000000000000000000000000000000000 DUP2 MSTORE PUSH1 0x4 ADD PUSH2 0x1C54 SWAP1 PUSH2 0x3687 JUMP JUMPDEST PUSH1 0x40 MLOAD DUP1 SWAP2 SUB SWAP1 REVERT JUMPDEST DUP1 PUSH1 0x6 ADD PUSH1 0x15 SWAP1 SLOAD SWAP1 PUSH2 0x100 EXP SWAP1 DIV PUSH1 0xFF AND ISZERO PUSH2 0x1CAF JUMPI PUSH1 0x40 MLOAD PUSH32 0x8C379A000000000000000000000000000000000000000000000000000000000 DUP2 MSTORE PUSH1 0x4 ADD PUSH2 0x1CA6 SWAP1 PUSH2 0x3715 JUMP JUMPDEST PUSH1 0x40 MLOAD DUP1 SWAP2 SUB SWAP1 REVERT JUMPDEST PUSH0 DUP2 PUSH1 0x5 ADD SLOAD EQ PUSH2 0x1CF5 JUMPI PUSH1 0x40 MLOAD PUSH32 0x8C379A000000000000000000000000000000000000000000000000000000000 DUP2 MSTORE PUSH1 0x4 ADD PUSH2 0x1CEC SWAP1 PUSH2 0x37A3 JUMP JUMPDEST PUSH1 0x40 MLOAD DUP1 SWAP2 SUB SWAP1 REVERT JUMPDEST PUSH0 DUP9 GT PUSH2 0x1D37 JUMPI PUSH1 0x40 MLOAD PUSH32 0x8C379A000000000000000000000000000000000000000000000000000000000 DUP2 MSTORE PUSH1 0x4 ADD PUSH2 0x1D2E SWAP1 PUSH2 0x2E9A JUMP JUMPDEST PUSH1 0x40 MLOAD DUP1 SWAP2 SUB SWAP1 REVERT JUMPDEST PUSH2 0x76C DUP6 LT ISZERO DUP1 ISZERO PUSH2 0x1D4B JUMPI POP PUSH2 0x7EA DUP6 GT ISZERO JUMPDEST PUSH2 0x1D8A JUMPI PUSH1 0x40 MLOAD PUSH32 0x8C379A000000000000000000000000000000000000000000000000000000000 DUP2 MSTORE PUSH1 0x4 ADD PUSH2 0x1D81 SWAP1 PUSH2 0x2F02 JUMP JUMPDEST PUSH1 0x40 MLOAD DUP1 SWAP2 SUB SWAP1 REVERT JUMPDEST PUSH0 PUSH1 0x4 PUSH0 DUP12 DUP2 MSTORE PUSH1 0x20 ADD SWAP1 DUP2 MSTORE PUSH1 0x20 ADD PUSH0 KECCAK256 SWAP1 POP DUP9 DUP2 PUSH0 ADD DUP2 SWAP1 SSTORE POP DUP8 DUP2 PUSH1 0x1 ADD DUP2 SWAP1 SSTORE POP DUP7 DUP2 PUSH1 0x2 ADD DUP2 SWAP1 SSTORE POP DUP6 DUP2 PUSH1 0x3 ADD DUP2 SWAP1 SSTORE POP DUP5 DUP2 PUSH1 0x4 ADD PUSH0 PUSH2 0x100 EXP DUP2 SLOAD DUP2 PUSH1 0xFF MUL NOT AND SWAP1 DUP4 ISZERO ISZERO MUL OR SWAP1 SSTORE POP DUP4 DUP2 PUSH1 0x4 ADD PUSH1 0x1 PUSH2 0x100 EXP DUP2 SLOAD DUP2 PUSH1 0xFF MUL NOT AND SWAP1 DUP4 PUSH1 0x4 DUP2 GT ISZERO PUSH2 0x1E03 JUMPI PUSH2 0x1E02 PUSH2 0x233A JUMP JUMPDEST JUMPDEST MUL OR SWAP1 SSTORE POP POP POP POP POP POP POP POP POP POP POP JUMP JUMPDEST PUSH2 0x1F4 CALLVALUE LT ISZERO PUSH2 0x1E59 JUMPI PUSH1 0x40 MLOAD PUSH32 0x8C379A000000000000000000000000000000000000000000000000000000000 DUP2 MSTORE PUSH1 0x4 ADD PUSH2 0x1E50 SWAP1 PUSH2 0x3831 JUMP JUMPDEST PUSH1 0x40 MLOAD DUP1 SWAP2 SUB SWAP1 REVERT JUMPDEST PUSH0 DUP3 GT PUSH2 0x1E9B JUMPI PUSH1 0x40 MLOAD PUSH32 0x8C379A000000000000000000000000000000000000000000000000000000000 DUP2 MSTORE PUSH1 0x4 ADD PUSH2 0x1E92 SWAP1 PUSH2 0x38BF JUMP JUMPDEST PUSH1 0x40 MLOAD DUP1 SWAP2 SUB SWAP1 REVERT JUMPDEST TIMESTAMP DUP2 GT PUSH2 0x1EDD JUMPI PUSH1 0x40 MLOAD PUSH32 0x8C379A000000000000000000000000000000000000000000000000000000000 DUP2 MSTORE PUSH1 0x4 ADD PUSH2 0x1ED4 SWAP1 PUSH2 0x394D JUMP JUMPDEST PUSH1 0x40 MLOAD DUP1 SWAP2 SUB SWAP1 REVERT JUMPDEST PUSH1 0x40 MLOAD DUP1 PUSH2 0x120 ADD PUSH1 0x40 MSTORE DUP1 PUSH1 0x1 SLOAD DUP2 MSTORE PUSH1 0x20 ADD DUP5 DUP2 MSTORE PUSH1 0x20 ADD CALLER PUSH20 0xFFFFFFFFFFFFFFFFFFFFFFFFFFFFFFFFFFFFFFFF AND DUP2 MSTORE PUSH1 0x20 ADD DUP4 DUP2 MSTORE PUSH1 0x20 ADD DUP3 DUP2 MSTORE PUSH1 0x20 ADD PUSH0 DUP2 MSTORE PUSH1 0x20 ADD PUSH0 PUSH20 0xFFFFFFFFFFFFFFFFFFFFFFFFFFFFFFFFFFFFFFFF AND DUP2 MSTORE PUSH1 0x20 ADD PUSH0 ISZERO ISZERO DUP2 MSTORE PUSH1 0x20 ADD PUSH0 ISZERO ISZERO DUP2 MSTORE POP PUSH1 0x2 PUSH0 PUSH1 0x1 SLOAD DUP2 MSTORE PUSH1 0x20 ADD SWAP1 DUP2 MSTORE PUSH1 0x20 ADD PUSH0 KECCAK256 PUSH0 DUP3 ADD MLOAD DUP2 PUSH0 ADD SSTORE PUSH1 0x20 DUP3 ADD MLOAD DUP2 PUSH1 0x1 ADD SSTORE PUSH1 0x40 DUP3 ADD MLOAD DUP2 PUSH1 0x2 ADD PUSH0 PUSH2 0x100 EXP DUP2 SLOAD DUP2 PUSH20 0xFFFFFFFFFFFFFFFFFFFFFFFFFFFFFFFFFFFFFFFF MUL NOT AND SWAP1 DUP4 PUSH20 0xFFFFFFFFFFFFFFFFFFFFFFFFFFFFFFFFFFFFFFFF AND MUL OR SWAP1 SSTORE POP PUSH1 0x60 DUP3 ADD MLOAD DUP2 PUSH1 0x3 ADD SSTORE PUSH1 0x80 DUP3 ADD MLOAD DUP2 PUSH1 0x4 ADD SSTORE PUSH1 0xA0 DUP3 ADD MLOAD DUP2 PUSH1 0x5 ADD SSTORE PUSH1 0xC0 DUP3 ADD MLOAD DUP2 PUSH1 0x6 ADD PUSH0 PUSH2 0x100 EXP DUP2 SLOAD DUP2 PUSH20 0xFFFFFFFFFFFFFFFFFFFFFFFFFFFFFFFFFFFFFFFF MUL NOT AND SWAP1 DUP4 PUSH20 0xFFFFFFFFFFFFFFFFFFFFFFFFFFFFFFFFFFFFFFFF AND MUL OR SWAP1 SSTORE POP PUSH1 0xE0 DUP3 ADD MLOAD DUP2 PUSH1 0x6 ADD PUSH1 0x14 PUSH2 0x100 EXP DUP2 SLOAD DUP2 PUSH1 0xFF MUL NOT AND SWAP1 DUP4 ISZERO ISZERO MUL OR SWAP1 SSTORE POP PUSH2 0x100 DUP3 ADD MLOAD DUP2 PUSH1 0x6 ADD PUSH1 0x15 PUSH2 0x100 EXP DUP2 SLOAD DUP2 PUSH1 0xFF MUL NOT AND SWAP1 DUP4 ISZERO ISZERO MUL OR SWAP1 SSTORE POP SWAP1 POP POP PUSH0 PUSH0 PUSH0 SWAP1 SLOAD SWAP1 PUSH2 0x100 EXP SWAP1 DIV PUSH20 0xFFFFFFFFFFFFFFFFFFFFFFFFFFFFFFFFFFFFFFFF AND PUSH20 0xFFFFFFFFFFFFFFFFFFFFFFFFFFFFFFFFFFFFFFFF AND CALLVALUE PUSH1 0x40 MLOAD PUSH2 0x20A7 SWAP1 PUSH2 0x2DAE JUMP JUMPDEST PUSH0 PUSH1 0x40 MLOAD DUP1 DUP4 SUB DUP2 DUP6 DUP8 GAS CALL SWAP3 POP POP POP RETURNDATASIZE DUP1 PUSH0 DUP2 EQ PUSH2 0x20E1 JUMPI PUSH1 0x40 MLOAD SWAP2 POP PUSH1 0x1F NOT PUSH1 0x3F RETURNDATASIZE ADD AND DUP3 ADD PUSH1 0x40 MSTORE RETURNDATASIZE DUP3 MSTORE RETURNDATASIZE PUSH0 PUSH1 0x20 DUP5 ADD RETURNDATACOPY PUSH2 0x20E6 JUMP JUMPDEST PUSH1 0x60 SWAP2 POP JUMPDEST POP POP SWAP1 POP DUP1 PUSH2 0x212A JUMPI PUSH1 0x40 MLOAD PUSH32 0x8C379A000000000000000000000000000000000000000000000000000000000 DUP2 MSTORE PUSH1 0x4 ADD PUSH2 0x2121 SWAP1 PUSH2 0x2E0C JUMP JUMPDEST PUSH1 0x40 MLOAD DUP1 SWAP2 SUB SWAP1 REVERT JUMPDEST PUSH1 0x1 PUSH0 DUP2 SLOAD DUP1 SWAP3 SWAP2 SWAP1 PUSH2 0x213C SWAP1 PUSH2 0x396B JUMP JUMPDEST SWAP2 SWAP1 POP SSTORE POP POP POP POP POP JUMP JUMPDEST PUSH1 0x40 MLOAD DUP1 PUSH2 0x120 ADD PUSH1 0x40 MSTORE DUP1 PUSH0 DUP2 MSTORE PUSH1 0x20 ADD PUSH0 DUP2 MSTORE PUSH1 0x20 ADD PUSH0 PUSH20 0xFFFFFFFFFFFFFFFFFFFFFFFFFFFFFFFFFFFFFFFF AND DUP2 MSTORE PUSH1 0x20 ADD PUSH0 DUP2 MSTORE PUSH1 0x20 ADD PUSH0 DUP2 MSTORE PUSH1 0x20 ADD PUSH0 DUP2 MSTORE PUSH1 0x20 ADD PUSH0 PUSH20 0xFFFFFFFFFFFFFFFFFFFFFFFFFFFFFFFFFFFFFFFF AND DUP2 MSTORE PUSH1 0x20 ADD PUSH0 ISZERO ISZERO DUP2 MSTORE PUSH1 0x20 ADD PUSH0 ISZERO ISZERO DUP2 MSTORE POP SWAP1 JUMP JUMPDEST PUSH1 0x40 MLOAD DUP1 PUSH1 0xC0 ADD PUSH1 0x40 MSTORE DUP1 PUSH0 DUP2 MSTORE PUSH1 0x20 ADD PUSH0 DUP2 MSTORE PUSH1 0x20 ADD PUSH0 DUP2 MSTORE PUSH1 0x20 ADD PUSH0 DUP2 MSTORE PUSH1 0x20 ADD PUSH0 ISZERO ISZERO DUP2 MSTORE PUSH1 0x20 ADD PUSH0 PUSH1 0x4 DUP2 GT ISZERO PUSH2 0x21F8 JUMPI PUSH2 0x21F7 PUSH2 0x233A JUMP JUMPDEST JUMPDEST DUP2 MSTORE POP SWAP1 JUMP JUMPDEST PUSH0 PUSH0 REVERT JUMPDEST PUSH0 DUP2 SWAP1 POP SWAP2 SWAP1 POP JUMP JUMPDEST PUSH2 0x2214 DUP2 PUSH2 0x2202 JUMP JUMPDEST DUP2 EQ PUSH2 0x221E JUMPI PUSH0 PUSH0 REVERT JUMPDEST POP JUMP JUMPDEST PUSH0 DUP2 CALLDATALOAD SWAP1 POP PUSH2 0x222F DUP2 PUSH2 0x220B JUMP JUMPDEST SWAP3 SWAP2 POP POP JUMP JUMPDEST PUSH0 PUSH20 0xFFFFFFFFFFFFFFFFFFFFFFFFFFFFFFFFFFFFFFFF DUP3 AND SWAP1 POP SWAP2 SWAP1 POP JUMP JUMPDEST PUSH0 PUSH2 0x225E DUP3 PUSH2 0x2235 JUMP JUMPDEST SWAP1 POP SWAP2 SWAP1 POP JUMP JUMPDEST PUSH2 0x226E DUP2 PUSH2 0x2254 JUMP JUMPDEST DUP2 EQ PUSH2 0x2278 JUMPI PUSH0 PUSH0 REVERT JUMPDEST POP JUMP JUMPDEST PUSH0 DUP2 CALLDATALOAD SWAP1 POP PUSH2 0x2289 DUP2 PUSH2 0x2265 JUMP JUMPDEST SWAP3 SWAP2 POP POP JUMP JUMPDEST PUSH0 PUSH0 PUSH1 0x40 DUP4 DUP6 SUB SLT ISZERO PUSH2 0x22A5 JUMPI PUSH2 0x22A4 PUSH2 0x21FE JUMP JUMPDEST JUMPDEST PUSH0 PUSH2 0x22B2 DUP6 DUP3 DUP7 ADD PUSH2 0x2221 JUMP JUMPDEST SWAP3 POP POP PUSH1 0x20 PUSH2 0x22C3 DUP6 DUP3 DUP7 ADD PUSH2 0x227B JUMP JUMPDEST SWAP2 POP POP SWAP3 POP SWAP3 SWAP1 POP JUMP JUMPDEST PUSH2 0x22D6 DUP2 PUSH2 0x2202 JUMP JUMPDEST DUP3 MSTORE POP POP JUMP JUMPDEST PUSH0 PUSH1 0x20 DUP3 ADD SWAP1 POP PUSH2 0x22EF PUSH0 DUP4 ADD DUP5 PUSH2 0x22CD JUMP JUMPDEST SWAP3 SWAP2 POP POP JUMP JUMPDEST PUSH0 PUSH1 0x20 DUP3 DUP5 SUB SLT ISZERO PUSH2 0x230A JUMPI PUSH2 0x2309 PUSH2 0x21FE JUMP JUMPDEST JUMPDEST PUSH0 PUSH2 0x2317 DUP5 DUP3 DUP6 ADD PUSH2 0x2221 JUMP JUMPDEST SWAP2 POP POP SWAP3 SWAP2 POP POP JUMP JUMPDEST PUSH0 DUP2 ISZERO ISZERO SWAP1 POP SWAP2 SWAP1 POP JUMP JUMPDEST PUSH2 0x2334 DUP2 PUSH2 0x2320 JUMP JUMPDEST DUP3 MSTORE POP POP JUMP JUMPDEST PUSH32 0x4E487B7100000000000000000000000000000000000000000000000000000000 PUSH0 MSTORE PUSH1 0x21 PUSH1 0x4 MSTORE PUSH1 0x24 PUSH0 REVERT JUMPDEST PUSH1 0x5 DUP2 LT PUSH2 0x2378 JUMPI PUSH2 0x2377 PUSH2 0x233A JUMP JUMPDEST JUMPDEST POP JUMP JUMPDEST PUSH0 DUP2 SWAP1 POP PUSH2 0x2388 DUP3 PUSH2 0x2367 JUMP JUMPDEST SWAP2 SWAP1 POP JUMP JUMPDEST PUSH0 PUSH2 0x2397 DUP3 PUSH2 0x237B JUMP JUMPDEST SWAP1 POP SWAP2 SWAP1 POP JUMP JUMPDEST PUSH2 0x23A7 DUP2 PUSH2 0x238D JUMP JUMPDEST DUP3 MSTORE POP POP JUMP JUMPDEST PUSH0 PUSH1 0xC0 DUP3 ADD SWAP1 POP PUSH2 0x23C0 PUSH0 DUP4 ADD DUP10 PUSH2 0x22CD JUMP JUMPDEST PUSH2 0x23CD PUSH1 0x20 DUP4 ADD DUP9 PUSH2 0x22CD JUMP JUMPDEST PUSH2 0x23DA PUSH1 0x40 DUP4 ADD DUP8 PUSH2 0x22CD JUMP JUMPDEST PUSH2 0x23E7 PUSH1 0x60 DUP4 ADD DUP7 PUSH2 0x22CD JUMP JUMPDEST PUSH2 0x23F4 PUSH1 0x80 DUP4 ADD DUP6 PUSH2 0x232B JUMP JUMPDEST PUSH2 0x2401 PUSH1 0xA0 DUP4 ADD DUP5 PUSH2 0x239E JUMP JUMPDEST SWAP8 SWAP7 POP POP POP POP POP POP POP JUMP JUMPDEST PUSH2 0x2415 DUP2 PUSH2 0x2254 JUMP JUMPDEST DUP3 MSTORE POP POP JUMP JUMPDEST PUSH0 PUSH1 0x20 DUP3 ADD SWAP1 POP PUSH2 0x242E PUSH0 DUP4 ADD DUP5 PUSH2 0x240C JUMP JUMPDEST SWAP3 SWAP2 POP POP JUMP JUMPDEST PUSH0 PUSH0 PUSH0 PUSH1 0x60 DUP5 DUP7 SUB SLT ISZERO PUSH2 0x244B JUMPI PUSH2 0x244A PUSH2 0x21FE JUMP JUMPDEST JUMPDEST PUSH0 PUSH2 0x2458 DUP7 DUP3 DUP8 ADD PUSH2 0x2221 JUMP JUMPDEST SWAP4 POP POP PUSH1 0x20 PUSH2 0x2469 DUP7 DUP3 DUP8 ADD PUSH2 0x2221 JUMP JUMPDEST SWAP3 POP POP PUSH1 0x40 PUSH2 0x247A DUP7 DUP3 DUP8 ADD PUSH2 0x2221 JUMP JUMPDEST SWAP2 POP POP SWAP3 POP SWAP3 POP SWAP3 JUMP JUMPDEST PUSH2 0x248D DUP2 PUSH2 0x2202 JUMP JUMPDEST DUP3 MSTORE POP POP JUMP JUMPDEST PUSH2 0x249C DUP2 PUSH2 0x2254 JUMP JUMPDEST DUP3 MSTORE POP POP JUMP JUMPDEST PUSH2 0x24AB DUP2 PUSH2 0x2320 JUMP JUMPDEST DUP3 MSTORE POP POP JUMP JUMPDEST PUSH2 0x120 DUP3 ADD PUSH0 DUP3 ADD MLOAD PUSH2 0x24C6 PUSH0 DUP6 ADD DUP3 PUSH2 0x2484 JUMP JUMPDEST POP PUSH1 0x20 DUP3 ADD MLOAD PUSH2 0x24D9 PUSH1 0x20 DUP6 ADD DUP3 PUSH2 0x2484 JUMP JUMPDEST POP PUSH1 0x40 DUP3 ADD MLOAD PUSH2 0x24EC PUSH1 0x40 DUP6 ADD DUP3 PUSH2 0x2493 JUMP JUMPDEST POP PUSH1 0x60 DUP3 ADD MLOAD PUSH2 0x24FF PUSH1 0x60 DUP6 ADD DUP3 PUSH2 0x2484 JUMP JUMPDEST POP PUSH1 0x80 DUP3 ADD MLOAD PUSH2 0x2512 PUSH1 0x80 DUP6 ADD DUP3 PUSH2 0x2484 JUMP JUMPDEST POP PUSH1 0xA0 DUP3 ADD MLOAD PUSH2 0x2525 PUSH1 0xA0 DUP6 ADD DUP3 PUSH2 0x2484 JUMP JUMPDEST POP PUSH1 0xC0 DUP3 ADD MLOAD PUSH2 0x2538 PUSH1 0xC0 DUP6 ADD DUP3 PUSH2 0x2493 JUMP JUMPDEST POP PUSH1 0xE0 DUP3 ADD MLOAD PUSH2 0x254B PUSH1 0xE0 DUP6 ADD DUP3 PUSH2 0x24A2 JUMP JUMPDEST POP PUSH2 0x100 DUP3 ADD MLOAD PUSH2 0x2560 PUSH2 0x100 DUP6 ADD DUP3 PUSH2 0x24A2 JUMP JUMPDEST POP POP POP POP JUMP JUMPDEST PUSH0 PUSH2 0x120 DUP3 ADD SWAP1 POP PUSH2 0x257A PUSH0 DUP4 ADD DUP5 PUSH2 0x24B1 JUMP JUMPDEST SWAP3 SWAP2 POP POP JUMP JUMPDEST PUSH2 0x2589 DUP2 PUSH2 0x2320 JUMP JUMPDEST DUP2 EQ PUSH2 0x2593 JUMPI PUSH0 PUSH0 REVERT JUMPDEST POP JUMP JUMPDEST PUSH0 DUP2 CALLDATALOAD SWAP1 POP PUSH2 0x25A4 DUP2 PUSH2 0x2580 JUMP JUMPDEST SWAP3 SWAP2 POP POP JUMP JUMPDEST PUSH1 0x5 DUP2 LT PUSH2 0x25B6 JUMPI PUSH0 PUSH0 REVERT JUMPDEST POP JUMP JUMPDEST PUSH0 DUP2 CALLDATALOAD SWAP1 POP PUSH2 0x25C7 DUP2 PUSH2 0x25AA JUMP JUMPDEST SWAP3 SWAP2 POP POP JUMP JUMPDEST PUSH0 PUSH0 PUSH0 PUSH0 PUSH0 PUSH0 PUSH0 PUSH0 PUSH0 PUSH2 0x120 DUP11 DUP13 SUB SLT ISZERO PUSH2 0x25EB JUMPI PUSH2 0x25EA PUSH2 0x21FE JUMP JUMPDEST JUMPDEST PUSH0 PUSH2 0x25F8 DUP13 DUP3 DUP14 ADD PUSH2 0x2221 JUMP JUMPDEST SWAP10 POP POP PUSH1 0x20 PUSH2 0x2609 DUP13 DUP3 DUP14 ADD PUSH2 0x2221 JUMP JUMPDEST SWAP9 POP POP PUSH1 0x40 PUSH2 0x261A DUP13 DUP3 DUP14 ADD PUSH2 0x2221 JUMP JUMPDEST SWAP8 POP POP PUSH1 0x60 PUSH2 0x262B DUP13 DUP3 DUP14 ADD PUSH2 0x2221 JUMP JUMPDEST SWAP7 POP POP PUSH1 0x80 PUSH2 0x263C DUP13 DUP3 DUP14 ADD PUSH2 0x2221 JUMP JUMPDEST SWAP6 POP POP PUSH1 0xA0 PUSH2 0x264D DUP13 DUP3 DUP14 ADD PUSH2 0x2221 JUMP JUMPDEST SWAP5 POP POP PUSH1 0xC0 PUSH2 0x265E DUP13 DUP3 DUP14 ADD PUSH2 0x2221 JUMP JUMPDEST SWAP4 POP POP PUSH1 0xE0 PUSH2 0x266F DUP13 DUP3 DUP14 ADD PUSH2 0x2596 JUMP JUMPDEST SWAP3 POP POP PUSH2 0x100 PUSH2 0x2681 DUP13 DUP3 DUP14 ADD PUSH2 0x25B9 JUMP JUMPDEST SWAP2 POP POP SWAP3 SWAP6 SWAP9 POP SWAP3 SWAP6 SWAP9 POP SWAP3 SWAP6 SWAP9 JUMP JUMPDEST PUSH2 0x269A DUP2 PUSH2 0x238D JUMP JUMPDEST DUP3 MSTORE POP POP JUMP JUMPDEST PUSH1 0xC0 DUP3 ADD PUSH0 DUP3 ADD MLOAD PUSH2 0x26B4 PUSH0 DUP6 ADD DUP3 PUSH2 0x2484 JUMP JUMPDEST POP PUSH1 0x20 DUP3 ADD MLOAD PUSH2 0x26C7 PUSH1 0x20 DUP6 ADD DUP3 PUSH2 0x2484 JUMP JUMPDEST POP PUSH1 0x40 DUP3 ADD MLOAD PUSH2 0x26DA PUSH1 0x40 DUP6 ADD DUP3 PUSH2 0x2484 JUMP JUMPDEST POP PUSH1 0x60 DUP3 ADD MLOAD PUSH2 0x26ED PUSH1 0x60 DUP6 ADD DUP3 PUSH2 0x2484 JUMP JUMPDEST POP PUSH1 0x80 DUP3 ADD MLOAD PUSH2 0x2700 PUSH1 0x80 DUP6 ADD DUP3 PUSH2 0x24A2 JUMP JUMPDEST POP PUSH1 0xA0 DUP3 ADD MLOAD PUSH2 0x2713 PUSH1 0xA0 DUP6 ADD DUP3 PUSH2 0x2691 JUMP JUMPDEST POP POP POP POP JUMP JUMPDEST PUSH0 PUSH1 0xC0 DUP3 ADD SWAP1 POP PUSH2 0x272C PUSH0 DUP4 ADD DUP5 PUSH2 0x26A0 JUMP JUMPDEST SWAP3 SWAP2 POP POP JUMP JUMPDEST PUSH0 PUSH1 0x20 DUP3 DUP5 SUB SLT ISZERO PUSH2 0x2747 JUMPI PUSH2 0x2746 PUSH2 0x21FE JUMP JUMPDEST JUMPDEST PUSH0 PUSH2 0x2754 DUP5 DUP3 DUP6 ADD PUSH2 0x227B JUMP JUMPDEST SWAP2 POP POP SWAP3 SWAP2 POP POP JUMP JUMPDEST PUSH0 PUSH2 0x120 DUP3 ADD SWAP1 POP PUSH2 0x2771 PUSH0 DUP4 ADD DUP13 PUSH2 0x22CD JUMP JUMPDEST PUSH2 0x277E PUSH1 0x20 DUP4 ADD DUP12 PUSH2 0x22CD JUMP JUMPDEST PUSH2 0x278B PUSH1 0x40 DUP4 ADD DUP11 PUSH2 0x240C JUMP JUMPDEST PUSH2 0x2798 PUSH1 0x60 DUP4 ADD DUP10 PUSH2 0x22CD JUMP JUMPDEST PUSH2 0x27A5 PUSH1 0x80 DUP4 ADD DUP9 PUSH2 0x22CD JUMP JUMPDEST PUSH2 0x27B2 PUSH1 0xA0 DUP4 ADD DUP8 PUSH2 0x22CD JUMP JUMPDEST PUSH2 0x27BF PUSH1 0xC0 DUP4 ADD DUP7 PUSH2 0x240C JUMP JUMPDEST PUSH2 0x27CC PUSH1 0xE0 DUP4 ADD DUP6 PUSH2 0x232B JUMP JUMPDEST PUSH2 0x27DA PUSH2 0x100 DUP4 ADD DUP5 PUSH2 0x232B JUMP JUMPDEST SWAP11 SWAP10 POP POP POP POP POP POP POP POP POP POP JUMP JUMPDEST PUSH0 PUSH0 PUSH0 PUSH0 PUSH0 PUSH0 PUSH0 PUSH1 0xE0 DUP9 DUP11 SUB SLT ISZERO PUSH2 0x2803 JUMPI PUSH2 0x2802 PUSH2 0x21FE JUMP JUMPDEST JUMPDEST PUSH0 PUSH2 0x2810 DUP11 DUP3 DUP12 ADD PUSH2 0x2221 JUMP JUMPDEST SWAP8 POP POP PUSH1 0x20 PUSH2 0x2821 DUP11 DUP3 DUP12 ADD PUSH2 0x2221 JUMP JUMPDEST SWAP7 POP POP PUSH1 0x40 PUSH2 0x2832 DUP11 DUP3 DUP12 ADD PUSH2 0x2221 JUMP JUMPDEST SWAP6 POP POP PUSH1 0x60 PUSH2 0x2843 DUP11 DUP3 DUP12 ADD PUSH2 0x2221 JUMP JUMPDEST SWAP5 POP POP PUSH1 0x80 PUSH2 0x2854 DUP11 DUP3 DUP12 ADD PUSH2 0x2221 JUMP JUMPDEST SWAP4 POP POP PUSH1 0xA0 PUSH2 0x2865 DUP11 DUP3 DUP12 ADD PUSH2 0x2596 JUMP JUMPDEST SWAP3 POP POP PUSH1 0xC0 PUSH2 0x2876 DUP11 DUP3 DUP12 ADD PUSH2 0x25B9 JUMP JUMPDEST SWAP2 POP POP SWAP3 SWAP6 SWAP9 SWAP2 SWAP5 SWAP8 POP SWAP3 SWAP6 POP JUMP JUMPDEST PUSH0 DUP3 DUP3 MSTORE PUSH1 0x20 DUP3 ADD SWAP1 POP SWAP3 SWAP2 POP POP JUMP JUMPDEST PUSH32 0x4465626520757361722063726561725375626173746120636F6E206C6F732064 PUSH0 DUP3 ADD MSTORE PUSH32 0x61746F732064656C20696E6D7565626C652E0000000000000000000000000000 PUSH1 0x20 DUP3 ADD MSTORE POP JUMP JUMPDEST PUSH0 PUSH2 0x28EF PUSH1 0x32 DUP4 PUSH2 0x2885 JUMP JUMPDEST SWAP2 POP PUSH2 0x28FA DUP3 PUSH2 0x2895 JUMP JUMPDEST PUSH1 0x40 DUP3 ADD SWAP1 POP SWAP2 SWAP1 POP JUMP JUMPDEST PUSH0 PUSH1 0x20 DUP3 ADD SWAP1 POP DUP2 DUP2 SUB PUSH0 DUP4 ADD MSTORE PUSH2 0x291C DUP2 PUSH2 0x28E3 JUMP JUMPDEST SWAP1 POP SWAP2 SWAP1 POP JUMP JUMPDEST PUSH32 0x4C612073756261737461206E6F206578697374652E0000000000000000000000 PUSH0 DUP3 ADD MSTORE POP JUMP JUMPDEST PUSH0 PUSH2 0x2957 PUSH1 0x15 DUP4 PUSH2 0x2885 JUMP JUMPDEST SWAP2 POP PUSH2 0x2962 DUP3 PUSH2 0x2923 JUMP JUMPDEST PUSH1 0x20 DUP3 ADD SWAP1 POP SWAP2 SWAP1 POP JUMP JUMPDEST PUSH0 PUSH1 0x20 DUP3 ADD SWAP1 POP DUP2 DUP2 SUB PUSH0 DUP4 ADD MSTORE PUSH2 0x2984 DUP2 PUSH2 0x294B JUMP JUMPDEST SWAP1 POP SWAP2 SWAP1 POP JUMP JUMPDEST PUSH32 0x4C61206F6665727461206465626520736572206D61796F72206F20696775616C PUSH0 DUP3 ADD MSTORE PUSH32 0x20616C2076616C6F72206D696E696D6F206465206F66657274612E0000000000 PUSH1 0x20 DUP3 ADD MSTORE POP JUMP JUMPDEST PUSH0 PUSH2 0x29E5 PUSH1 0x3B DUP4 PUSH2 0x2885 JUMP JUMPDEST SWAP2 POP PUSH2 0x29F0 DUP3 PUSH2 0x298B JUMP JUMPDEST PUSH1 0x40 DUP3 ADD SWAP1 POP SWAP2 SWAP1 POP JUMP JUMPDEST PUSH0 PUSH1 0x20 DUP3 ADD SWAP1 POP DUP2 DUP2 SUB PUSH0 DUP4 ADD MSTORE PUSH2 0x2A12 DUP2 PUSH2 0x29D9 JUMP JUMPDEST SWAP1 POP SWAP2 SWAP1 POP JUMP JUMPDEST PUSH32 0x4C61206F666572746120646562652073757065726172206C61206F6665727461 PUSH0 DUP3 ADD MSTORE PUSH32 0x206D617320616C74612061637475616C2E000000000000000000000000000000 PUSH1 0x20 DUP3 ADD MSTORE POP JUMP JUMPDEST PUSH0 PUSH2 0x2A73 PUSH1 0x31 DUP4 PUSH2 0x2885 JUMP JUMPDEST SWAP2 POP PUSH2 0x2A7E DUP3 PUSH2 0x2A19 JUMP JUMPDEST PUSH1 0x40 DUP3 ADD SWAP1 POP SWAP2 SWAP1 POP JUMP JUMPDEST PUSH0 PUSH1 0x20 DUP3 ADD SWAP1 POP DUP2 DUP2 SUB PUSH0 DUP4 ADD MSTORE PUSH2 0x2AA0 DUP2 PUSH2 0x2A67 JUMP JUMPDEST SWAP1 POP SWAP2 SWAP1 POP JUMP JUMPDEST PUSH32 0x4C6120666563686120646520636965727265206465206C612073756261737461 PUSH0 DUP3 ADD MSTORE PUSH32 0x207961207061736F2E0000000000000000000000000000000000000000000000 PUSH1 0x20 DUP3 ADD MSTORE POP JUMP JUMPDEST PUSH0 PUSH2 0x2B01 PUSH1 0x29 DUP4 PUSH2 0x2885 JUMP JUMPDEST SWAP2 POP PUSH2 0x2B0C DUP3 PUSH2 0x2AA7 JUMP JUMPDEST PUSH1 0x40 DUP3 ADD SWAP1 POP SWAP2 SWAP1 POP JUMP JUMPDEST PUSH0 PUSH1 0x20 DUP3 ADD SWAP1 POP DUP2 DUP2 SUB PUSH0 DUP4 ADD MSTORE PUSH2 0x2B2E DUP2 PUSH2 0x2AF5 JUMP JUMPDEST SWAP1 POP SWAP2 SWAP1 POP JUMP JUMPDEST PUSH32 0x4C612073756261737461207961206675652066696E616C697A6164612E000000 PUSH0 DUP3 ADD MSTORE POP JUMP JUMPDEST PUSH0 PUSH2 0x2B69 PUSH1 0x1D DUP4 PUSH2 0x2885 JUMP JUMPDEST SWAP2 POP PUSH2 0x2B74 DUP3 PUSH2 0x2B35 JUMP JUMPDEST PUSH1 0x20 DUP3 ADD SWAP1 POP SWAP2 SWAP1 POP JUMP JUMPDEST PUSH0 PUSH1 0x20 DUP3 ADD SWAP1 POP DUP2 DUP2 SUB PUSH0 DUP4 ADD MSTORE PUSH2 0x2B96 DUP2 PUSH2 0x2B5D JUMP JUMPDEST SWAP1 POP SWAP2 SWAP1 POP JUMP JUMPDEST PUSH32 0x4C6120737562617374612066756520656C696D696E6164612E00000000000000 PUSH0 DUP3 ADD MSTORE POP JUMP JUMPDEST PUSH0 PUSH2 0x2BD1 PUSH1 0x19 DUP4 PUSH2 0x2885 JUMP JUMPDEST SWAP2 POP PUSH2 0x2BDC DUP3 PUSH2 0x2B9D JUMP JUMPDEST PUSH1 0x20 DUP3 ADD SWAP1 POP SWAP2 SWAP1 POP JUMP JUMPDEST PUSH0 PUSH1 0x20 DUP3 ADD SWAP1 POP DUP2 DUP2 SUB PUSH0 DUP4 ADD MSTORE PUSH2 0x2BFE DUP2 PUSH2 0x2BC5 JUMP JUMPDEST SWAP1 POP SWAP2 SWAP1 POP JUMP JUMPDEST PUSH32 0x4E487B7100000000000000000000000000000000000000000000000000000000 PUSH0 MSTORE PUSH1 0x11 PUSH1 0x4 MSTORE PUSH1 0x24 PUSH0 REVERT JUMPDEST PUSH0 PUSH2 0x2C3C DUP3 PUSH2 0x2202 JUMP JUMPDEST SWAP2 POP PUSH2 0x2C47 DUP4 PUSH2 0x2202 JUMP JUMPDEST SWAP3 POP DUP3 DUP3 ADD SWAP1 POP DUP1 DUP3 GT ISZERO PUSH2 0x2C5F JUMPI PUSH2 0x2C5E PUSH2 0x2C05 JUMP JUMPDEST JUMPDEST SWAP3 SWAP2 POP POP JUMP JUMPDEST PUSH32 0x536F6C6F20656C2063726561646F72206F20656C2070726F706965746172696F PUSH0 DUP3 ADD MSTORE PUSH32 0x2070756564656E2066696E616C697A6172206C6120737562617374612E000000 PUSH1 0x20 DUP3 ADD MSTORE POP JUMP JUMPDEST PUSH0 PUSH2 0x2CBF PUSH1 0x3D DUP4 PUSH2 0x2885 JUMP JUMPDEST SWAP2 POP PUSH2 0x2CCA DUP3 PUSH2 0x2C65 JUMP JUMPDEST PUSH1 0x40 DUP3 ADD SWAP1 POP SWAP2 SWAP1 POP JUMP JUMPDEST PUSH0 PUSH1 0x20 DUP3 ADD SWAP1 POP DUP2 DUP2 SUB PUSH0 DUP4 ADD MSTORE PUSH2 0x2CEC DUP2 PUSH2 0x2CB3 JUMP JUMPDEST SWAP1 POP SWAP2 SWAP1 POP JUMP JUMPDEST PUSH32 0x4C612073756261737461206E6F206861206C6C656761646F2061207375206665 PUSH0 DUP3 ADD MSTORE PUSH32 0x636861206465206369657272652E000000000000000000000000000000000000 PUSH1 0x20 DUP3 ADD MSTORE POP JUMP JUMPDEST PUSH0 PUSH2 0x2D4D PUSH1 0x2E DUP4 PUSH2 0x2885 JUMP JUMPDEST SWAP2 POP PUSH2 0x2D58 DUP3 PUSH2 0x2CF3 JUMP JUMPDEST PUSH1 0x40 DUP3 ADD SWAP1 POP SWAP2 SWAP1 POP JUMP JUMPDEST PUSH0 PUSH1 0x20 DUP3 ADD SWAP1 POP DUP2 DUP2 SUB PUSH0 DUP4 ADD MSTORE PUSH2 0x2D7A DUP2 PUSH2 0x2D41 JUMP JUMPDEST SWAP1 POP SWAP2 SWAP1 POP JUMP JUMPDEST PUSH0 DUP2 SWAP1 POP SWAP3 SWAP2 POP POP JUMP JUMPDEST POP JUMP JUMPDEST PUSH0 PUSH2 0x2D99 PUSH0 DUP4 PUSH2 0x2D81 JUMP JUMPDEST SWAP2 POP PUSH2 0x2DA4 DUP3 PUSH2 0x2D8B JUMP JUMPDEST PUSH0 DUP3 ADD SWAP1 POP SWAP2 SWAP1 POP JUMP JUMPDEST PUSH0 PUSH2 0x2DB8 DUP3 PUSH2 0x2D8E JUMP JUMPDEST SWAP2 POP DUP2 SWAP1 POP SWAP2 SWAP1 POP JUMP JUMPDEST PUSH32 0x5472616E73666572656E6369612066616C6C6964612E00000000000000000000 PUSH0 DUP3 ADD MSTORE POP JUMP JUMPDEST PUSH0 PUSH2 0x2DF6 PUSH1 0x16 DUP4 PUSH2 0x2885 JUMP JUMPDEST SWAP2 POP PUSH2 0x2E01 DUP3 PUSH2 0x2DC2 JUMP JUMPDEST PUSH1 0x20 DUP3 ADD SWAP1 POP SWAP2 SWAP1 POP JUMP JUMPDEST PUSH0 PUSH1 0x20 DUP3 ADD SWAP1 POP DUP2 DUP2 SUB PUSH0 DUP4 ADD MSTORE PUSH2 0x2E23 DUP2 PUSH2 0x2DEA JUMP JUMPDEST SWAP1 POP SWAP2 SWAP1 POP JUMP JUMPDEST PUSH32 0x4C612073757065726669636965206465626520736572206D61796F7220612063 PUSH0 DUP3 ADD MSTORE PUSH32 0x65726F2E00000000000000000000000000000000000000000000000000000000 PUSH1 0x20 DUP3 ADD MSTORE POP JUMP JUMPDEST PUSH0 PUSH2 0x2E84 PUSH1 0x24 DUP4 PUSH2 0x2885 JUMP JUMPDEST SWAP2 POP PUSH2 0x2E8F DUP3 PUSH2 0x2E2A JUMP JUMPDEST PUSH1 0x40 DUP3 ADD SWAP1 POP SWAP2 SWAP1 POP JUMP JUMPDEST PUSH0 PUSH1 0x20 DUP3 ADD SWAP1 POP DUP2 DUP2 SUB PUSH0 DUP4 ADD MSTORE PUSH2 0x2EB1 DUP2 PUSH2 0x2E78 JUMP JUMPDEST SWAP1 POP SWAP2 SWAP1 POP JUMP JUMPDEST PUSH32 0x416E696F20646520636F6E737472756363696F6E20696E76616C69646F2E0000 PUSH0 DUP3 ADD MSTORE POP JUMP JUMPDEST PUSH0 PUSH2 0x2EEC PUSH1 0x1E DUP4 PUSH2 0x2885 JUMP JUMPDEST SWAP2 POP PUSH2 0x2EF7 DUP3 PUSH2 0x2EB8 JUMP JUMPDEST PUSH1 0x20 DUP3 ADD SWAP1 POP SWAP2 SWAP1 POP JUMP JUMPDEST PUSH0 PUSH1 0x20 DUP3 ADD SWAP1 POP DUP2 DUP2 SUB PUSH0 DUP4 ADD MSTORE PUSH2 0x2F19 DUP2 PUSH2 0x2EE0 JUMP JUMPDEST SWAP1 POP SWAP2 SWAP1 POP JUMP JUMPDEST PUSH0 PUSH2 0x2F2A DUP3 PUSH2 0x2202 JUMP JUMPDEST SWAP2 POP PUSH2 0x2F35 DUP4 PUSH2 0x2202 JUMP JUMPDEST SWAP3 POP DUP3 DUP3 SUB SWAP1 POP DUP2 DUP2 GT ISZERO PUSH2 0x2F4D JUMPI PUSH2 0x2F4C PUSH2 0x2C05 JUMP JUMPDEST JUMPDEST SWAP3 SWAP2 POP POP JUMP JUMPDEST PUSH32 0x4E6F207469656E657320666F6E646F73207061726120726574697261722E0000 PUSH0 DUP3 ADD MSTORE POP JUMP JUMPDEST PUSH0 PUSH2 0x2F87 PUSH1 0x1E DUP4 PUSH2 0x2885 JUMP JUMPDEST SWAP2 POP PUSH2 0x2F92 DUP3 PUSH2 0x2F53 JUMP JUMPDEST PUSH1 0x20 DUP3 ADD SWAP1 POP SWAP2 SWAP1 POP JUMP JUMPDEST PUSH0 PUSH1 0x20 DUP3 ADD SWAP1 POP DUP2 DUP2 SUB PUSH0 DUP4 ADD MSTORE PUSH2 0x2FB4 DUP2 PUSH2 0x2F7B JUMP JUMPDEST SWAP1 POP SWAP2 SWAP1 POP JUMP JUMPDEST PUSH32 0x536F6C6F20656C2063726561646F72206F20656C2070726F706965746172696F PUSH0 DUP3 ADD MSTORE PUSH32 0x2070756564656E20656C696D696E6172206C6120737562617374612E00000000 PUSH1 0x20 DUP3 ADD MSTORE POP JUMP JUMPDEST PUSH0 PUSH2 0x3015 PUSH1 0x3C DUP4 PUSH2 0x2885 JUMP JUMPDEST SWAP2 POP PUSH2 0x3020 DUP3 PUSH2 0x2FBB JUMP JUMPDEST PUSH1 0x40 DUP3 ADD SWAP1 POP SWAP2 SWAP1 POP JUMP JUMPDEST PUSH0 PUSH1 0x20 DUP3 ADD SWAP1 POP DUP2 DUP2 SUB PUSH0 DUP4 ADD MSTORE PUSH2 0x3042 DUP2 PUSH2 0x3009 JUMP JUMPDEST SWAP1 POP SWAP2 SWAP1 POP JUMP JUMPDEST PUSH32 0x4E6F20736520707565646520656C696D696E617220756E612073756261737461 PUSH0 DUP3 ADD MSTORE PUSH32 0x2066696E616C697A6164612E0000000000000000000000000000000000000000 PUSH1 0x20 DUP3 ADD MSTORE POP JUMP JUMPDEST PUSH0 PUSH2 0x30A3 PUSH1 0x2C DUP4 PUSH2 0x2885 JUMP JUMPDEST SWAP2 POP PUSH2 0x30AE DUP3 PUSH2 0x3049 JUMP JUMPDEST PUSH1 0x40 DUP3 ADD SWAP1 POP SWAP2 SWAP1 POP JUMP JUMPDEST PUSH0 PUSH1 0x20 DUP3 ADD SWAP1 POP DUP2 DUP2 SUB PUSH0 DUP4 ADD MSTORE PUSH2 0x30D0 DUP2 PUSH2 0x3097 JUMP JUMPDEST SWAP1 POP SWAP2 SWAP1 POP JUMP JUMPDEST PUSH32 0x4C6120737562617374612079612066756520656C696D696E6164612E00000000 PUSH0 DUP3 ADD MSTORE POP JUMP JUMPDEST PUSH0 PUSH2 0x310B PUSH1 0x1C DUP4 PUSH2 0x2885 JUMP JUMPDEST SWAP2 POP PUSH2 0x3116 DUP3 PUSH2 0x30D7 JUMP JUMPDEST PUSH1 0x20 DUP3 ADD SWAP1 POP SWAP2 SWAP1 POP JUMP JUMPDEST PUSH0 PUSH1 0x20 DUP3 ADD SWAP1 POP DUP2 DUP2 SUB PUSH0 DUP4 ADD MSTORE PUSH2 0x3138 DUP2 PUSH2 0x30FF JUMP JUMPDEST SWAP1 POP SWAP2 SWAP1 POP JUMP JUMPDEST PUSH32 0x4E6F20736520707565646520656C696D696E617220756E612073756261737461 PUSH0 DUP3 ADD MSTORE PUSH32 0x20636F6E206F66657274617320616374697661732E0000000000000000000000 PUSH1 0x20 DUP3 ADD MSTORE POP JUMP JUMPDEST PUSH0 PUSH2 0x3199 PUSH1 0x35 DUP4 PUSH2 0x2885 JUMP JUMPDEST SWAP2 POP PUSH2 0x31A4 DUP3 PUSH2 0x313F JUMP JUMPDEST PUSH1 0x40 DUP3 ADD SWAP1 POP SWAP2 SWAP1 POP JUMP JUMPDEST PUSH0 PUSH1 0x20 DUP3 ADD SWAP1 POP DUP2 DUP2 SUB PUSH0 DUP4 ADD MSTORE PUSH2 0x31C6 DUP2 PUSH2 0x318D JUMP JUMPDEST SWAP1 POP SWAP2 SWAP1 POP JUMP JUMPDEST PUSH32 0x4E6F206572657320656C2070726F706965746172696F2E000000000000000000 PUSH0 DUP3 ADD MSTORE POP JUMP JUMPDEST PUSH0 PUSH2 0x3201 PUSH1 0x17 DUP4 PUSH2 0x2885 JUMP JUMPDEST SWAP2 POP PUSH2 0x320C DUP3 PUSH2 0x31CD JUMP JUMPDEST PUSH1 0x20 DUP3 ADD SWAP1 POP SWAP2 SWAP1 POP JUMP JUMPDEST PUSH0 PUSH1 0x20 DUP3 ADD SWAP1 POP DUP2 DUP2 SUB PUSH0 DUP4 ADD MSTORE PUSH2 0x322E DUP2 PUSH2 0x31F5 JUMP JUMPDEST SWAP1 POP SWAP2 SWAP1 POP JUMP JUMPDEST PUSH32 0x4C61206E7565766120646972656363696F6E206E6F2070756564652073657220 PUSH0 DUP3 ADD MSTORE PUSH32 0x76616369612E0000000000000000000000000000000000000000000000000000 PUSH1 0x20 DUP3 ADD MSTORE POP JUMP JUMPDEST PUSH0 PUSH2 0x328F PUSH1 0x26 DUP4 PUSH2 0x2885 JUMP JUMPDEST SWAP2 POP PUSH2 0x329A DUP3 PUSH2 0x3235 JUMP JUMPDEST PUSH1 0x40 DUP3 ADD SWAP1 POP SWAP2 SWAP1 POP JUMP JUMPDEST PUSH0 PUSH1 0x20 DUP3 ADD SWAP1 POP DUP2 DUP2 SUB PUSH0 DUP4 ADD MSTORE PUSH2 0x32BC DUP2 PUSH2 0x3283 JUMP JUMPDEST SWAP1 POP SWAP2 SWAP1 POP JUMP JUMPDEST PUSH32 0x536F6C6F20656C2063726561646F72206F20656C2070726F706965746172696F PUSH0 DUP3 ADD MSTORE PUSH32 0x2070756564656E206D6F64696669636172206C6120737562617374612E000000 PUSH1 0x20 DUP3 ADD MSTORE POP JUMP JUMPDEST PUSH0 PUSH2 0x331D PUSH1 0x3D DUP4 PUSH2 0x2885 JUMP JUMPDEST SWAP2 POP PUSH2 0x3328 DUP3 PUSH2 0x32C3 JUMP JUMPDEST PUSH1 0x40 DUP3 ADD SWAP1 POP SWAP2 SWAP1 POP JUMP JUMPDEST PUSH0 PUSH1 0x20 DUP3 ADD SWAP1 POP DUP2 DUP2 SUB PUSH0 DUP4 ADD MSTORE PUSH2 0x334A DUP2 PUSH2 0x3311 JUMP JUMPDEST SWAP1 POP SWAP2 SWAP1 POP JUMP JUMPDEST PUSH32 0x4E6F207365207075656465206D6F6469666963617220756E6120737562617374 PUSH0 DUP3 ADD MSTORE PUSH32 0x612066696E616C697A6164612E00000000000000000000000000000000000000 PUSH1 0x20 DUP3 ADD MSTORE POP JUMP JUMPDEST PUSH0 PUSH2 0x33AB PUSH1 0x2D DUP4 PUSH2 0x2885 JUMP JUMPDEST SWAP2 POP PUSH2 0x33B6 DUP3 PUSH2 0x3351 JUMP JUMPDEST PUSH1 0x40 DUP3 ADD SWAP1 POP SWAP2 SWAP1 POP JUMP JUMPDEST PUSH0 PUSH1 0x20 DUP3 ADD SWAP1 POP DUP2 DUP2 SUB PUSH0 DUP4 ADD MSTORE PUSH2 0x33D8 DUP2 PUSH2 0x339F JUMP JUMPDEST SWAP1 POP SWAP2 SWAP1 POP JUMP JUMPDEST PUSH32 0x4E6F207365207075656465206D6F6469666963617220756E6120737562617374 PUSH0 DUP3 ADD MSTORE PUSH32 0x6120656C696D696E6164612E0000000000000000000000000000000000000000 PUSH1 0x20 DUP3 ADD MSTORE POP JUMP JUMPDEST PUSH0 PUSH2 0x3439 PUSH1 0x2C DUP4 PUSH2 0x2885 JUMP JUMPDEST SWAP2 POP PUSH2 0x3444 DUP3 PUSH2 0x33DF JUMP JUMPDEST PUSH1 0x40 DUP3 ADD SWAP1 POP SWAP2 SWAP1 POP JUMP JUMPDEST PUSH0 PUSH1 0x20 DUP3 ADD SWAP1 POP DUP2 DUP2 SUB PUSH0 DUP4 ADD MSTORE PUSH2 0x3466 DUP2 PUSH2 0x342D JUMP JUMPDEST SWAP1 POP SWAP2 SWAP1 POP JUMP JUMPDEST PUSH32 0x4E6F207365207075656465206D6F6469666963617220756E6120737562617374 PUSH0 DUP3 ADD MSTORE PUSH32 0x6120636F6E206F66657274617320616374697661732E00000000000000000000 PUSH1 0x20 DUP3 ADD MSTORE POP JUMP JUMPDEST PUSH0 PUSH2 0x34C7 PUSH1 0x36 DUP4 PUSH2 0x2885 JUMP JUMPDEST SWAP2 POP PUSH2 0x34D2 DUP3 PUSH2 0x346D JUMP JUMPDEST PUSH1 0x40 DUP3 ADD SWAP1 POP SWAP2 SWAP1 POP JUMP JUMPDEST PUSH0 PUSH1 0x20 DUP3 ADD SWAP1 POP DUP2 DUP2 SUB PUSH0 DUP4 ADD MSTORE PUSH2 0x34F4 DUP2 PUSH2 0x34BB JUMP JUMPDEST SWAP1 POP SWAP2 SWAP1 POP JUMP JUMPDEST PUSH32 0x4C61206E75657661206665636861206465206369657272652064656265207365 PUSH0 DUP3 ADD MSTORE PUSH32 0x72206D61796F722061206C612066656368612061637475616C2E000000000000 PUSH1 0x20 DUP3 ADD MSTORE POP JUMP JUMPDEST PUSH0 PUSH2 0x3555 PUSH1 0x3A DUP4 PUSH2 0x2885 JUMP JUMPDEST SWAP2 POP PUSH2 0x3560 DUP3 PUSH2 0x34FB JUMP JUMPDEST PUSH1 0x40 DUP3 ADD SWAP1 POP SWAP2 SWAP1 POP JUMP JUMPDEST PUSH0 PUSH1 0x20 DUP3 ADD SWAP1 POP DUP2 DUP2 SUB PUSH0 DUP4 ADD MSTORE PUSH2 0x3582 DUP2 PUSH2 0x3549 JUMP JUMPDEST SWAP1 POP SWAP2 SWAP1 POP JUMP JUMPDEST PUSH32 0x536F6C6F20656C2063726561646F72206F20656C2070726F706965746172696F PUSH0 DUP3 ADD MSTORE PUSH32 0x2070756564656E206D6F6469666963617220656C20696E6D7565626C652E0000 PUSH1 0x20 DUP3 ADD MSTORE POP JUMP JUMPDEST PUSH0 PUSH2 0x35E3 PUSH1 0x3E DUP4 PUSH2 0x2885 JUMP JUMPDEST SWAP2 POP PUSH2 0x35EE DUP3 PUSH2 0x3589 JUMP JUMPDEST PUSH1 0x40 DUP3 ADD SWAP1 POP SWAP2 SWAP1 POP JUMP JUMPDEST PUSH0 PUSH1 0x20 DUP3 ADD SWAP1 POP DUP2 DUP2 SUB PUSH0 DUP4 ADD MSTORE PUSH2 0x3610 DUP2 PUSH2 0x35D7 JUMP JUMPDEST SWAP1 POP SWAP2 SWAP1 POP JUMP JUMPDEST PUSH32 0x4E6F207365207075656465206D6F6469666963617220756E20696E6D7565626C PUSH0 DUP3 ADD MSTORE PUSH32 0x6520646520737562617374612066696E616C697A6164612E0000000000000000 PUSH1 0x20 DUP3 ADD MSTORE POP JUMP JUMPDEST PUSH0 PUSH2 0x3671 PUSH1 0x38 DUP4 PUSH2 0x2885 JUMP JUMPDEST SWAP2 POP PUSH2 0x367C DUP3 PUSH2 0x3617 JUMP JUMPDEST PUSH1 0x40 DUP3 ADD SWAP1 POP SWAP2 SWAP1 POP JUMP JUMPDEST PUSH0 PUSH1 0x20 DUP3 ADD SWAP1 POP DUP2 DUP2 SUB PUSH0 DUP4 ADD MSTORE PUSH2 0x369E DUP2 PUSH2 0x3665 JUMP JUMPDEST SWAP1 POP SWAP2 SWAP1 POP JUMP JUMPDEST PUSH32 0x4E6F207365207075656465206D6F6469666963617220756E20696E6D7565626C PUSH0 DUP3 ADD MSTORE PUSH32 0x65206465207375626173746120656C696D696E6164612E000000000000000000 PUSH1 0x20 DUP3 ADD MSTORE POP JUMP JUMPDEST PUSH0 PUSH2 0x36FF PUSH1 0x37 DUP4 PUSH2 0x2885 JUMP JUMPDEST SWAP2 POP PUSH2 0x370A DUP3 PUSH2 0x36A5 JUMP JUMPDEST PUSH1 0x40 DUP3 ADD SWAP1 POP SWAP2 SWAP1 POP JUMP JUMPDEST PUSH0 PUSH1 0x20 DUP3 ADD SWAP1 POP DUP2 DUP2 SUB PUSH0 DUP4 ADD MSTORE PUSH2 0x372C DUP2 PUSH2 0x36F3 JUMP JUMPDEST SWAP1 POP SWAP2 SWAP1 POP JUMP JUMPDEST PUSH32 0x4E6F207365207075656465206D6F6469666963617220636F6E206F6665727461 PUSH0 DUP3 ADD MSTORE PUSH32 0x7320616374697661732E00000000000000000000000000000000000000000000 PUSH1 0x20 DUP3 ADD MSTORE POP JUMP JUMPDEST PUSH0 PUSH2 0x378D PUSH1 0x2A DUP4 PUSH2 0x2885 JUMP JUMPDEST SWAP2 POP PUSH2 0x3798 DUP3 PUSH2 0x3733 JUMP JUMPDEST PUSH1 0x40 DUP3 ADD SWAP1 POP SWAP2 SWAP1 POP JUMP JUMPDEST PUSH0 PUSH1 0x20 DUP3 ADD SWAP1 POP DUP2 DUP2 SUB PUSH0 DUP4 ADD MSTORE PUSH2 0x37BA DUP2 PUSH2 0x3781 JUMP JUMPDEST SWAP1 POP SWAP2 SWAP1 POP JUMP JUMPDEST PUSH32 0x446562657320656E7669617220616C206D656E6F732035303020776569207061 PUSH0 DUP3 ADD MSTORE PUSH32 0x726120637265617220756E6120737562617374612E0000000000000000000000 PUSH1 0x20 DUP3 ADD MSTORE POP JUMP JUMPDEST PUSH0 PUSH2 0x381B PUSH1 0x35 DUP4 PUSH2 0x2885 JUMP JUMPDEST SWAP2 POP PUSH2 0x3826 DUP3 PUSH2 0x37C1 JUMP JUMPDEST PUSH1 0x40 DUP3 ADD SWAP1 POP SWAP2 SWAP1 POP JUMP JUMPDEST PUSH0 PUSH1 0x20 DUP3 ADD SWAP1 POP DUP2 DUP2 SUB PUSH0 DUP4 ADD MSTORE PUSH2 0x3848 DUP2 PUSH2 0x380F JUMP JUMPDEST SWAP1 POP SWAP2 SWAP1 POP JUMP JUMPDEST PUSH32 0x456C2076616C6F72206D696E696D6F206465206F666572746120646562652073 PUSH0 DUP3 ADD MSTORE PUSH32 0x6572206D61796F722061206365726F2E00000000000000000000000000000000 PUSH1 0x20 DUP3 ADD MSTORE POP JUMP JUMPDEST PUSH0 PUSH2 0x38A9 PUSH1 0x30 DUP4 PUSH2 0x2885 JUMP JUMPDEST SWAP2 POP PUSH2 0x38B4 DUP3 PUSH2 0x384F JUMP JUMPDEST PUSH1 0x40 DUP3 ADD SWAP1 POP SWAP2 SWAP1 POP JUMP JUMPDEST PUSH0 PUSH1 0x20 DUP3 ADD SWAP1 POP DUP2 DUP2 SUB PUSH0 DUP4 ADD MSTORE PUSH2 0x38D6 DUP2 PUSH2 0x389D JUMP JUMPDEST SWAP1 POP SWAP2 SWAP1 POP JUMP JUMPDEST PUSH32 0x4C6120666563686120646520636965727265206465626520736572206D61796F PUSH0 DUP3 ADD MSTORE PUSH32 0x722061206C612066656368612061637475616C2E000000000000000000000000 PUSH1 0x20 DUP3 ADD MSTORE POP JUMP JUMPDEST PUSH0 PUSH2 0x3937 PUSH1 0x34 DUP4 PUSH2 0x2885 JUMP JUMPDEST SWAP2 POP PUSH2 0x3942 DUP3 PUSH2 0x38DD JUMP JUMPDEST PUSH1 0x40 DUP3 ADD SWAP1 POP SWAP2 SWAP1 POP JUMP JUMPDEST PUSH0 PUSH1 0x20 DUP3 ADD SWAP1 POP DUP2 DUP2 SUB PUSH0 DUP4 ADD MSTORE PUSH2 0x3964 DUP2 PUSH2 0x392B JUMP JUMPDEST SWAP1 POP SWAP2 SWAP1 POP JUMP JUMPDEST PUSH0 PUSH2 0x3975 DUP3 PUSH2 0x2202 JUMP JUMPDEST SWAP2 POP PUSH32 0xFFFFFFFFFFFFFFFFFFFFFFFFFFFFFFFFFFFFFFFFFFFFFFFFFFFFFFFFFFFFFFFF DUP3 SUB PUSH2 0x39A7 JUMPI PUSH2 0x39A6 PUSH2 0x2C05 JUMP JUMPDEST JUMPDEST PUSH1 0x1 DUP3 ADD SWAP1 POP SWAP2 SWAP1 POP JUMP INVALID LOG2 PUSH5 0x6970667358 0x22 SLT KECCAK256 NOT SWAP8 CHAINID EQ SLOAD EXTSTATICCALL TSTORE 0xB7 SIGNEXTEND 0xCB SWAP15 0xC4 PUSH11 0xD93980006B7F74C54AD887 ADD SHL SSTORE 0xCF PUSH9 0x2742D264736F6C6343 STOP ADDMOD 0x22 STOP CALLER "
		},
		"gasEstimates": {
			"creation": {
				"codeDepositCost": "2964800",
				"executionCost": "32530",
				"totalCost": "2997330"
			},
			"external": {
				"cambiarPropietario(address)": "26938",
				"contadorSubastas()": "2471",
				"crearSubasta(uint256,uint256,uint256)": "infinite",
				"crearSubasta(uint256,uint256,uint256,uint256,uint256,uint256,uint256,bool,uint8)": "infinite",
				"eliminarSubasta(uint256)": "38057",
				"finalizarSubasta(uint256)": "infinite",
				"lst_inmuebles(uint256)": "infinite",
				"lst_subastas(uint256)": "infinite",
				"modificarInmueble(uint256,uint256,uint256,uint256,uint256,bool,uint8)": "infinite",
				"modificarSubasta(uint256,uint256,uint256)": "infinite",
				"obtenerInmueble(uint256)": "infinite",
				"obtenerSubasta(uint256)": "infinite",
				"propietario()": "2597",
				"realizarOferta(uint256)": "infinite",
				"retirarFondos(uint256)": "infinite",
				"retirosPendientes(uint256,address)": "infinite"
			}
		},
		"methodIdentifiers": {
			"cambiarPropietario(address)": "c2e5eafa",
			"contadorSubastas()": "20e6ca0e",
			"crearSubasta(uint256,uint256,uint256)": "57a08671",
			"crearSubasta(uint256,uint256,uint256,uint256,uint256,uint256,uint256,bool,uint8)": "8ae3a98c",
			"eliminarSubasta(uint256)": "b0a4e852",
			"finalizarSubasta(uint256)": "8434f0a2",
			"lst_inmuebles(uint256)": "39e2a91e",
			"lst_subastas(uint256)": "d3fb3830",
			"modificarInmueble(uint256,uint256,uint256,uint256,uint256,bool,uint8)": "faabd7c4",
			"modificarSubasta(uint256,uint256,uint256)": "f657be03",
			"obtenerInmueble(uint256)": "a708bd8b",
			"obtenerSubasta(uint256)": "733d50d4",
			"propietario()": "3c4f81cd",
			"realizarOferta(uint256)": "8348348f",
			"retirarFondos(uint256)": "a32aa717",
			"retirosPendientes(uint256,address)": "1042b69b"
		}
	},
	"abi": [
		{
			"inputs": [
				{
					"internalType": "address",
					"name": "nuevoPropietario",
					"type": "address"
				}
			],
			"name": "cambiarPropietario",
			"outputs": [],
			"stateMutability": "nonpayable",
			"type": "function"
		},
		{
			"inputs": [],
			"name": "contadorSubastas",
			"outputs": [
				{
					"internalType": "uint256",
					"name": "",
					"type": "uint256"
				}
			],
			"stateMutability": "view",
			"type": "function"
		},
		{
			"inputs": [
				{
					"internalType": "uint256",
					"name": "",
					"type": "uint256"
				},
				{
					"internalType": "uint256",
					"name": "",
					"type": "uint256"
				},
				{
					"internalType": "uint256",
					"name": "",
					"type": "uint256"
				}
			],
			"name": "crearSubasta",
			"outputs": [],
			"stateMutability": "payable",
			"type": "function"
		},
		{
			"inputs": [
				{
					"internalType": "uint256",
					"name": "idItem",
					"type": "uint256"
				},
				{
					"internalType": "uint256",
					"name": "ofertaMinima",
					"type": "uint256"
				},
				{
					"internalType": "uint256",
					"name": "fechaCierre",
					"type": "uint256"
				},
				{
					"internalType": "uint256",
					"name": "superficieM2",
					"type": "uint256"
				},
				{
					"internalType": "uint256",
					"name": "cantHabitaciones",
					"type": "uint256"
				},
				{
					"internalType": "uint256",
					"name": "cantBanios",
					"type": "uint256"
				},
				{
					"internalType": "uint256",
					"name": "anioConstruccion",
					"type": "uint256"
				},
				{
					"internalType": "bool",
					"name": "tieneGarage",
					"type": "bool"
				},
				{
					"internalType": "enum SubastaInmuebles.TipoPropiedad",
					"name": "tipoPropiedad",
					"type": "uint8"
				}
			],
			"name": "crearSubasta",
			"outputs": [],
			"stateMutability": "payable",
			"type": "function"
		},
		{
			"inputs": [
				{
					"internalType": "uint256",
					"name": "idSubasta",
					"type": "uint256"
				}
			],
			"name": "eliminarSubasta",
			"outputs": [],
			"stateMutability": "nonpayable",
			"type": "function"
		},
		{
			"inputs": [
				{
					"internalType": "uint256",
					"name": "idSubasta",
					"type": "uint256"
				}
			],
			"name": "finalizarSubasta",
			"outputs": [],
			"stateMutability": "nonpayable",
			"type": "function"
		},
		{
			"inputs": [
				{
					"internalType": "uint256",
					"name": "",
					"type": "uint256"
				}
			],
			"name": "lst_inmuebles",
			"outputs": [
				{
					"internalType": "uint256",
					"name": "superficieM2",
					"type": "uint256"
				},
				{
					"internalType": "uint256",
					"name": "cantHabitaciones",
					"type": "uint256"
				},
				{
					"internalType": "uint256",
					"name": "cantBanios",
					"type": "uint256"
				},
				{
					"internalType": "uint256",
					"name": "anioConstruccion",
					"type": "uint256"
				},
				{
					"internalType": "bool",
					"name": "tieneGarage",
					"type": "bool"
				},
				{
					"internalType": "enum SubastaInmuebles.TipoPropiedad",
					"name": "tipoPropiedad",
					"type": "uint8"
				}
			],
			"stateMutability": "view",
			"type": "function"
		},
		{
			"inputs": [
				{
					"internalType": "uint256",
					"name": "",
					"type": "uint256"
				}
			],
			"name": "lst_subastas",
			"outputs": [
				{
					"internalType": "uint256",
					"name": "id",
					"type": "uint256"
				},
				{
					"internalType": "uint256",
					"name": "idItem",
					"type": "uint256"
				},
				{
					"internalType": "address",
					"name": "creador",
					"type": "address"
				},
				{
					"internalType": "uint256",
					"name": "ofertaMinima",
					"type": "uint256"
				},
				{
					"internalType": "uint256",
					"name": "fechaCierre",
					"type": "uint256"
				},
				{
					"internalType": "uint256",
					"name": "ofertaMaxima",
					"type": "uint256"
				},
				{
					"internalType": "address",
					"name": "mejorPostor",
					"type": "address"
				},
				{
					"internalType": "bool",
					"name": "finalizada",
					"type": "bool"
				},
				{
					"internalType": "bool",
					"name": "eliminada",
					"type": "bool"
				}
			],
			"stateMutability": "view",
			"type": "function"
		},
		{
			"inputs": [
				{
					"internalType": "uint256",
					"name": "idSubasta",
					"type": "uint256"
				},
				{
					"internalType": "uint256",
					"name": "nuevaSuperficieM2",
					"type": "uint256"
				},
				{
					"internalType": "uint256",
					"name": "nuevaCantHabitaciones",
					"type": "uint256"
				},
				{
					"internalType": "uint256",
					"name": "nuevaCantBanios",
					"type": "uint256"
				},
				{
					"internalType": "uint256",
					"name": "nuevoAnioConstruccion",
					"type": "uint256"
				},
				{
					"internalType": "bool",
					"name": "nuevoGarage",
					"type": "bool"
				},
				{
					"internalType": "enum SubastaInmuebles.TipoPropiedad",
					"name": "nuevoTipo",
					"type": "uint8"
				}
			],
			"name": "modificarInmueble",
			"outputs": [],
			"stateMutability": "nonpayable",
			"type": "function"
		},
		{
			"inputs": [
				{
					"internalType": "uint256",
					"name": "idSubasta",
					"type": "uint256"
				},
				{
					"internalType": "uint256",
					"name": "nuevaFechaCierre",
					"type": "uint256"
				},
				{
					"internalType": "uint256",
					"name": "nuevoIdItem",
					"type": "uint256"
				}
			],
			"name": "modificarSubasta",
			"outputs": [],
			"stateMutability": "nonpayable",
			"type": "function"
		},
		{
			"inputs": [
				{
					"internalType": "uint256",
					"name": "idSubasta",
					"type": "uint256"
				}
			],
			"name": "obtenerInmueble",
			"outputs": [
				{
					"components": [
						{
							"internalType": "uint256",
							"name": "superficieM2",
							"type": "uint256"
						},
						{
							"internalType": "uint256",
							"name": "cantHabitaciones",
							"type": "uint256"
						},
						{
							"internalType": "uint256",
							"name": "cantBanios",
							"type": "uint256"
						},
						{
							"internalType": "uint256",
							"name": "anioConstruccion",
							"type": "uint256"
						},
						{
							"internalType": "bool",
							"name": "tieneGarage",
							"type": "bool"
						},
						{
							"internalType": "enum SubastaInmuebles.TipoPropiedad",
							"name": "tipoPropiedad",
							"type": "uint8"
						}
					],
					"internalType": "struct SubastaInmuebles.Inmueble",
					"name": "",
					"type": "tuple"
				}
			],
			"stateMutability": "view",
			"type": "function"
		},
		{
			"inputs": [
				{
					"internalType": "uint256",
					"name": "id",
					"type": "uint256"
				}
			],
			"name": "obtenerSubasta",
			"outputs": [
				{
					"components": [
						{
							"internalType": "uint256",
							"name": "id",
							"type": "uint256"
						},
						{
							"internalType": "uint256",
							"name": "idItem",
							"type": "uint256"
						},
						{
							"internalType": "address",
							"name": "creador",
							"type": "address"
						},
						{
							"internalType": "uint256",
							"name": "ofertaMinima",
							"type": "uint256"
						},
						{
							"internalType": "uint256",
							"name": "fechaCierre",
							"type": "uint256"
						},
						{
							"internalType": "uint256",
							"name": "ofertaMaxima",
							"type": "uint256"
						},
						{
							"internalType": "address",
							"name": "mejorPostor",
							"type": "address"
						},
						{
							"internalType": "bool",
							"name": "finalizada",
							"type": "bool"
						},
						{
							"internalType": "bool",
							"name": "eliminada",
							"type": "bool"
						}
					],
					"internalType": "struct CasaDeSubastas.Subasta",
					"name": "",
					"type": "tuple"
				}
			],
			"stateMutability": "view",
			"type": "function"
		},
		{
			"inputs": [],
			"name": "propietario",
			"outputs": [
				{
					"internalType": "address",
					"name": "",
					"type": "address"
				}
			],
			"stateMutability": "view",
			"type": "function"
		},
		{
			"inputs": [
				{
					"internalType": "uint256",
					"name": "idSubasta",
					"type": "uint256"
				}
			],
			"name": "realizarOferta",
			"outputs": [],
			"stateMutability": "payable",
			"type": "function"
		},
		{
			"inputs": [
				{
					"internalType": "uint256",
					"name": "idSubasta",
					"type": "uint256"
				}
			],
			"name": "retirarFondos",
			"outputs": [],
			"stateMutability": "nonpayable",
			"type": "function"
		},
		{
			"inputs": [
				{
					"internalType": "uint256",
					"name": "",
					"type": "uint256"
				},
				{
					"internalType": "address",
					"name": "",
					"type": "address"
				}
			],
			"name": "retirosPendientes",
			"outputs": [
				{
					"internalType": "uint256",
					"name": "",
					"type": "uint256"
				}
			],
			"stateMutability": "view",
			"type": "function"
		}
	]
}